{"abi":[{"inputs":[{"internalType":"uint256","name":"minimum","type":"uint256"},{"internalType":"string","name":"description","type":"string"}],"name":"createProject","outputs":[],"stateMutability":"nonpayable","type":"function"},{"inputs":[{"internalType":"uint256","name":"","type":"uint256"}],"name":"deployedProjects","outputs":[{"internalType":"address payable","name":"","type":"address"}],"stateMutability":"view","type":"function"},{"inputs":[],"name":"getDeployedProjects","outputs":[{"internalType":"address payable[]","name":"","type":"address[]"}],"stateMutability":"view","type":"function"}],"devdoc":{"kind":"dev","methods":{},"version":1},"evm":{"assembly":"    /* \"Project.sol\":25:492  contract Generator {... */\n  mstore(0x40, 0x80)\n  callvalue\n  dup1\n  iszero\n  tag_1\n  jumpi\n  0x00\n  dup1\n  revert\ntag_1:\n  pop\n  dataSize(sub_0)\n  dup1\n  dataOffset(sub_0)\n  0x00\n  codecopy\n  0x00\n  return\nstop\n\nsub_0: assembly {\n        /* \"Project.sol\":25:492  contract Generator {... */\n      mstore(0x40, 0x80)\n      callvalue\n      dup1\n      iszero\n      tag_1\n      jumpi\n      0x00\n      dup1\n      revert\n    tag_1:\n      pop\n      jumpi(tag_2, lt(calldatasize, 0x04))\n      shr(0xe0, calldataload(0x00))\n      dup1\n      0x7ac3886e\n      eq\n      tag_3\n      jumpi\n      dup1\n      0x9ec6deaf\n      eq\n      tag_4\n      jumpi\n      dup1\n      0xbf1a8003\n      eq\n      tag_5\n      jumpi\n    tag_2:\n      0x00\n      dup1\n      revert\n        /* \"Project.sol\":344:490  function getDeployedProjects()... */\n    tag_3:\n      tag_6\n      tag_7\n      jump\t// in\n    tag_6:\n      mload(0x40)\n      tag_8\n      swap2\n      swap1\n      tag_9\n      jump\t// in\n    tag_8:\n      mload(0x40)\n      dup1\n      swap2\n      sub\n      swap1\n      return\n        /* \"Project.sol\":50:91  address payable[] public deployedProjects */\n    tag_4:\n      tag_10\n      0x04\n      dup1\n      calldatasize\n      sub\n      dup2\n      add\n      swap1\n      tag_11\n      swap2\n      swap1\n      tag_12\n      jump\t// in\n    tag_11:\n      tag_13\n      jump\t// in\n    tag_10:\n      mload(0x40)\n      tag_14\n      swap2\n      swap1\n      tag_15\n      jump\t// in\n    tag_14:\n      mload(0x40)\n      dup1\n      swap2\n      sub\n      swap1\n      return\n        /* \"Project.sol\":98:338  function createProject(uint256 minimum, string memory description) public {... */\n    tag_5:\n      tag_16\n      0x04\n      dup1\n      calldatasize\n      sub\n      dup2\n      add\n      swap1\n      tag_17\n      swap2\n      swap1\n      tag_18\n      jump\t// in\n    tag_17:\n      tag_19\n      jump\t// in\n    tag_16:\n      stop\n        /* \"Project.sol\":344:490  function getDeployedProjects()... */\n    tag_7:\n        /* \"Project.sol\":420:444  address payable[] memory */\n      0x60\n        /* \"Project.sol\":467:483  deployedProjects */\n      0x00\n        /* \"Project.sol\":460:483  return deployedProjects */\n      dup1\n      sload\n      dup1\n      0x20\n      mul\n      0x20\n      add\n      mload(0x40)\n      swap1\n      dup2\n      add\n      0x40\n      mstore\n      dup1\n      swap3\n      swap2\n      swap1\n      dup2\n      dup2\n      mstore\n      0x20\n      add\n      dup3\n      dup1\n      sload\n      dup1\n      iszero\n      tag_21\n      jumpi\n      0x20\n      mul\n      dup3\n      add\n      swap2\n      swap1\n      0x00\n      mstore\n      keccak256(0x00, 0x20)\n      swap1\n    tag_22:\n      dup2\n      0x00\n      swap1\n      sload\n      swap1\n      0x0100\n      exp\n      swap1\n      div\n      0xffffffffffffffffffffffffffffffffffffffff\n      and\n      0xffffffffffffffffffffffffffffffffffffffff\n      and\n      dup2\n      mstore\n      0x20\n      add\n      swap1\n      0x01\n      add\n      swap1\n      dup1\n      dup4\n      gt\n      tag_22\n      jumpi\n    tag_21:\n      pop\n      pop\n      pop\n      pop\n      pop\n      swap1\n      pop\n        /* \"Project.sol\":344:490  function getDeployedProjects()... */\n      swap1\n      jump\t// out\n        /* \"Project.sol\":50:91  address payable[] public deployedProjects */\n    tag_13:\n      0x00\n      dup2\n      dup2\n      sload\n      dup2\n      lt\n      tag_23\n      jumpi\n      0x00\n      dup1\n      revert\n    tag_23:\n      swap1\n      0x00\n      mstore\n      keccak256(0x00, 0x20)\n      add\n      0x00\n      swap2\n      pop\n      sload\n      swap1\n      0x0100\n      exp\n      swap1\n      div\n      0xffffffffffffffffffffffffffffffffffffffff\n      and\n      dup2\n      jump\t// out\n        /* \"Project.sol\":98:338  function createProject(uint256 minimum, string memory description) public {... */\n    tag_19:\n        /* \"Project.sol\":182:200  address newProject */\n      0x00\n        /* \"Project.sol\":236:243  minimum */\n      dup3\n        /* \"Project.sol\":245:256  description */\n      dup3\n        /* \"Project.sol\":258:268  msg.sender */\n      caller\n        /* \"Project.sol\":224:269  new Project(minimum, description, msg.sender) */\n      mload(0x40)\n      tag_26\n      swap1\n      tag_27\n      jump\t// in\n    tag_26:\n      tag_28\n      swap4\n      swap3\n      swap2\n      swap1\n      tag_29\n      jump\t// in\n    tag_28:\n      mload(0x40)\n      dup1\n      swap2\n      sub\n      swap1\n      0x00\n      create\n      dup1\n      iszero\n      dup1\n      iszero\n      tag_30\n      jumpi\n      returndatasize\n      0x00\n      dup1\n      returndatacopy\n      revert(0x00, returndatasize)\n    tag_30:\n      pop\n        /* \"Project.sol\":182:279  address newProject = address(... */\n      swap1\n      pop\n        /* \"Project.sol\":289:305  deployedProjects */\n      0x00\n        /* \"Project.sol\":319:329  newProject */\n      dup2\n        /* \"Project.sol\":289:331  deployedProjects.push(payable(newProject)) */\n      swap1\n      dup1\n      0x01\n      dup2\n      sload\n      add\n      dup1\n      dup3\n      sstore\n      dup1\n      swap2\n      pop\n      pop\n      0x01\n      swap1\n      sub\n      swap1\n      0x00\n      mstore\n      keccak256(0x00, 0x20)\n      add\n      0x00\n      swap1\n      swap2\n      swap1\n      swap2\n      swap1\n      swap2\n      0x0100\n      exp\n      dup2\n      sload\n      dup2\n      0xffffffffffffffffffffffffffffffffffffffff\n      mul\n      not\n      and\n      swap1\n      dup4\n      0xffffffffffffffffffffffffffffffffffffffff\n      and\n      mul\n      or\n      swap1\n      sstore\n      pop\n        /* \"Project.sol\":172:338  {... */\n      pop\n        /* \"Project.sol\":98:338  function createProject(uint256 minimum, string memory description) public {... */\n      pop\n      pop\n      jump\t// out\n    tag_27:\n      dataSize(sub_0)\n      dup1\n      dataOffset(sub_0)\n      dup4\n      codecopy\n      add\n      swap1\n      jump\t// out\n        /* \"#utility.yul\":7:129   */\n    tag_32:\n        /* \"#utility.yul\":82:88   */\n      0x00\n        /* \"#utility.yul\":116:121   */\n      dup2\n        /* \"#utility.yul\":110:122   */\n      mload\n        /* \"#utility.yul\":100:122   */\n      swap1\n      pop\n        /* \"#utility.yul\":7:129   */\n      swap2\n      swap1\n      pop\n      jump\t// out\n        /* \"#utility.yul\":135:327   */\n    tag_33:\n        /* \"#utility.yul\":242:253   */\n      0x00\n        /* \"#utility.yul\":276:282   */\n      dup3\n        /* \"#utility.yul\":271:274   */\n      dup3\n        /* \"#utility.yul\":264:283   */\n      mstore\n        /* \"#utility.yul\":316:320   */\n      0x20\n        /* \"#utility.yul\":311:314   */\n      dup3\n        /* \"#utility.yul\":307:321   */\n      add\n        /* \"#utility.yul\":292:321   */\n      swap1\n      pop\n        /* \"#utility.yul\":135:327   */\n      swap3\n      swap2\n      pop\n      pop\n      jump\t// out\n        /* \"#utility.yul\":333:473   */\n    tag_34:\n        /* \"#utility.yul\":408:412   */\n      0x00\n        /* \"#utility.yul\":431:434   */\n      dup2\n        /* \"#utility.yul\":423:434   */\n      swap1\n      pop\n        /* \"#utility.yul\":461:465   */\n      0x20\n        /* \"#utility.yul\":456:459   */\n      dup3\n        /* \"#utility.yul\":452:466   */\n      add\n        /* \"#utility.yul\":444:466   */\n      swap1\n      pop\n        /* \"#utility.yul\":333:473   */\n      swap2\n      swap1\n      pop\n      jump\t// out\n        /* \"#utility.yul\":479:605   */\n    tag_35:\n        /* \"#utility.yul\":516:523   */\n      0x00\n        /* \"#utility.yul\":556:598   */\n      0xffffffffffffffffffffffffffffffffffffffff\n        /* \"#utility.yul\":549:554   */\n      dup3\n        /* \"#utility.yul\":545:599   */\n      and\n        /* \"#utility.yul\":534:599   */\n      swap1\n      pop\n        /* \"#utility.yul\":479:605   */\n      swap2\n      swap1\n      pop\n      jump\t// out\n        /* \"#utility.yul\":611:715   */\n    tag_36:\n        /* \"#utility.yul\":656:663   */\n      0x00\n        /* \"#utility.yul\":685:709   */\n      tag_71\n        /* \"#utility.yul\":703:708   */\n      dup3\n        /* \"#utility.yul\":685:709   */\n      tag_35\n      jump\t// in\n    tag_71:\n        /* \"#utility.yul\":674:709   */\n      swap1\n      pop\n        /* \"#utility.yul\":611:715   */\n      swap2\n      swap1\n      pop\n      jump\t// out\n        /* \"#utility.yul\":721:853   */\n    tag_37:\n        /* \"#utility.yul\":814:846   */\n      tag_73\n        /* \"#utility.yul\":840:845   */\n      dup2\n        /* \"#utility.yul\":814:846   */\n      tag_36\n      jump\t// in\n    tag_73:\n        /* \"#utility.yul\":809:812   */\n      dup3\n        /* \"#utility.yul\":802:847   */\n      mstore\n        /* \"#utility.yul\":721:853   */\n      pop\n      pop\n      jump\t// out\n        /* \"#utility.yul\":859:1070   */\n    tag_38:\n        /* \"#utility.yul\":944:954   */\n      0x00\n        /* \"#utility.yul\":965:1027   */\n      tag_75\n        /* \"#utility.yul\":1023:1026   */\n      dup4\n        /* \"#utility.yul\":1015:1021   */\n      dup4\n        /* \"#utility.yul\":965:1027   */\n      tag_37\n      jump\t// in\n    tag_75:\n        /* \"#utility.yul\":1059:1063   */\n      0x20\n        /* \"#utility.yul\":1054:1057   */\n      dup4\n        /* \"#utility.yul\":1050:1064   */\n      add\n        /* \"#utility.yul\":1036:1064   */\n      swap1\n      pop\n        /* \"#utility.yul\":859:1070   */\n      swap3\n      swap2\n      pop\n      pop\n      jump\t// out\n        /* \"#utility.yul\":1076:1197   */\n    tag_39:\n        /* \"#utility.yul\":1154:1158   */\n      0x00\n        /* \"#utility.yul\":1186:1190   */\n      0x20\n        /* \"#utility.yul\":1181:1184   */\n      dup3\n        /* \"#utility.yul\":1177:1191   */\n      add\n        /* \"#utility.yul\":1169:1191   */\n      swap1\n      pop\n        /* \"#utility.yul\":1076:1197   */\n      swap2\n      swap1\n      pop\n      jump\t// out\n        /* \"#utility.yul\":1249:2045   */\n    tag_40:\n        /* \"#utility.yul\":1384:1387   */\n      0x00\n        /* \"#utility.yul\":1413:1475   */\n      tag_78\n        /* \"#utility.yul\":1469:1474   */\n      dup3\n        /* \"#utility.yul\":1413:1475   */\n      tag_32\n      jump\t// in\n    tag_78:\n        /* \"#utility.yul\":1491:1585   */\n      tag_79\n        /* \"#utility.yul\":1578:1584   */\n      dup2\n        /* \"#utility.yul\":1573:1576   */\n      dup6\n        /* \"#utility.yul\":1491:1585   */\n      tag_33\n      jump\t// in\n    tag_79:\n        /* \"#utility.yul\":1484:1585   */\n      swap4\n      pop\n        /* \"#utility.yul\":1609:1673   */\n      tag_80\n        /* \"#utility.yul\":1667:1672   */\n      dup4\n        /* \"#utility.yul\":1609:1673   */\n      tag_34\n      jump\t// in\n    tag_80:\n        /* \"#utility.yul\":1696:1703   */\n      dup1\n        /* \"#utility.yul\":1727:1728   */\n      0x00\n        /* \"#utility.yul\":1712:2020   */\n    tag_81:\n        /* \"#utility.yul\":1737:1743   */\n      dup4\n        /* \"#utility.yul\":1734:1735   */\n      dup2\n        /* \"#utility.yul\":1731:1744   */\n      lt\n        /* \"#utility.yul\":1712:2020   */\n      iszero\n      tag_83\n      jumpi\n        /* \"#utility.yul\":1813:1819   */\n      dup2\n        /* \"#utility.yul\":1807:1820   */\n      mload\n        /* \"#utility.yul\":1840:1919   */\n      tag_84\n        /* \"#utility.yul\":1915:1918   */\n      dup9\n        /* \"#utility.yul\":1900:1913   */\n      dup3\n        /* \"#utility.yul\":1840:1919   */\n      tag_38\n      jump\t// in\n    tag_84:\n        /* \"#utility.yul\":1833:1919   */\n      swap8\n      pop\n        /* \"#utility.yul\":1942:2010   */\n      tag_85\n        /* \"#utility.yul\":2003:2009   */\n      dup4\n        /* \"#utility.yul\":1942:2010   */\n      tag_39\n      jump\t// in\n    tag_85:\n        /* \"#utility.yul\":1932:2010   */\n      swap3\n      pop\n        /* \"#utility.yul\":1772:2020   */\n      pop\n        /* \"#utility.yul\":1759:1760   */\n      0x01\n        /* \"#utility.yul\":1756:1757   */\n      dup2\n        /* \"#utility.yul\":1752:1761   */\n      add\n        /* \"#utility.yul\":1747:1761   */\n      swap1\n      pop\n        /* \"#utility.yul\":1712:2020   */\n      jump(tag_81)\n    tag_83:\n        /* \"#utility.yul\":1716:1730   */\n      pop\n        /* \"#utility.yul\":2036:2039   */\n      dup6\n        /* \"#utility.yul\":2029:2039   */\n      swap4\n      pop\n        /* \"#utility.yul\":1389:2045   */\n      pop\n      pop\n      pop\n        /* \"#utility.yul\":1249:2045   */\n      swap3\n      swap2\n      pop\n      pop\n      jump\t// out\n        /* \"#utility.yul\":2051:2456   */\n    tag_9:\n        /* \"#utility.yul\":2210:2214   */\n      0x00\n        /* \"#utility.yul\":2248:2250   */\n      0x20\n        /* \"#utility.yul\":2237:2246   */\n      dup3\n        /* \"#utility.yul\":2233:2251   */\n      add\n        /* \"#utility.yul\":2225:2251   */\n      swap1\n      pop\n        /* \"#utility.yul\":2297:2306   */\n      dup2\n        /* \"#utility.yul\":2291:2295   */\n      dup2\n        /* \"#utility.yul\":2287:2307   */\n      sub\n        /* \"#utility.yul\":2283:2284   */\n      0x00\n        /* \"#utility.yul\":2272:2281   */\n      dup4\n        /* \"#utility.yul\":2268:2285   */\n      add\n        /* \"#utility.yul\":2261:2308   */\n      mstore\n        /* \"#utility.yul\":2325:2449   */\n      tag_87\n        /* \"#utility.yul\":2444:2448   */\n      dup2\n        /* \"#utility.yul\":2435:2441   */\n      dup5\n        /* \"#utility.yul\":2325:2449   */\n      tag_40\n      jump\t// in\n    tag_87:\n        /* \"#utility.yul\":2317:2449   */\n      swap1\n      pop\n        /* \"#utility.yul\":2051:2456   */\n      swap3\n      swap2\n      pop\n      pop\n      jump\t// out\n        /* \"#utility.yul\":2462:2537   */\n    tag_41:\n        /* \"#utility.yul\":2495:2501   */\n      0x00\n        /* \"#utility.yul\":2528:2530   */\n      0x40\n        /* \"#utility.yul\":2522:2531   */\n      mload\n        /* \"#utility.yul\":2512:2531   */\n      swap1\n      pop\n        /* \"#utility.yul\":2462:2537   */\n      swap1\n      jump\t// out\n        /* \"#utility.yul\":2543:2660   */\n    tag_42:\n        /* \"#utility.yul\":2652:2653   */\n      0x00\n        /* \"#utility.yul\":2649:2650   */\n      dup1\n        /* \"#utility.yul\":2642:2654   */\n      revert\n        /* \"#utility.yul\":2666:2783   */\n    tag_43:\n        /* \"#utility.yul\":2775:2776   */\n      0x00\n        /* \"#utility.yul\":2772:2773   */\n      dup1\n        /* \"#utility.yul\":2765:2777   */\n      revert\n        /* \"#utility.yul\":2789:2866   */\n    tag_44:\n        /* \"#utility.yul\":2826:2833   */\n      0x00\n        /* \"#utility.yul\":2855:2860   */\n      dup2\n        /* \"#utility.yul\":2844:2860   */\n      swap1\n      pop\n        /* \"#utility.yul\":2789:2866   */\n      swap2\n      swap1\n      pop\n      jump\t// out\n        /* \"#utility.yul\":2872:2994   */\n    tag_45:\n        /* \"#utility.yul\":2945:2969   */\n      tag_93\n        /* \"#utility.yul\":2963:2968   */\n      dup2\n        /* \"#utility.yul\":2945:2969   */\n      tag_44\n      jump\t// in\n    tag_93:\n        /* \"#utility.yul\":2938:2943   */\n      dup2\n        /* \"#utility.yul\":2935:2970   */\n      eq\n        /* \"#utility.yul\":2925:2988   */\n      tag_94\n      jumpi\n        /* \"#utility.yul\":2984:2985   */\n      0x00\n        /* \"#utility.yul\":2981:2982   */\n      dup1\n        /* \"#utility.yul\":2974:2986   */\n      revert\n        /* \"#utility.yul\":2925:2988   */\n    tag_94:\n        /* \"#utility.yul\":2872:2994   */\n      pop\n      jump\t// out\n        /* \"#utility.yul\":3000:3139   */\n    tag_46:\n        /* \"#utility.yul\":3046:3051   */\n      0x00\n        /* \"#utility.yul\":3084:3090   */\n      dup2\n        /* \"#utility.yul\":3071:3091   */\n      calldataload\n        /* \"#utility.yul\":3062:3091   */\n      swap1\n      pop\n        /* \"#utility.yul\":3100:3133   */\n      tag_96\n        /* \"#utility.yul\":3127:3132   */\n      dup2\n        /* \"#utility.yul\":3100:3133   */\n      tag_45\n      jump\t// in\n    tag_96:\n        /* \"#utility.yul\":3000:3139   */\n      swap3\n      swap2\n      pop\n      pop\n      jump\t// out\n        /* \"#utility.yul\":3145:3474   */\n    tag_12:\n        /* \"#utility.yul\":3204:3210   */\n      0x00\n        /* \"#utility.yul\":3253:3255   */\n      0x20\n        /* \"#utility.yul\":3241:3250   */\n      dup3\n        /* \"#utility.yul\":3232:3239   */\n      dup5\n        /* \"#utility.yul\":3228:3251   */\n      sub\n        /* \"#utility.yul\":3224:3256   */\n      slt\n        /* \"#utility.yul\":3221:3340   */\n      iszero\n      tag_98\n      jumpi\n        /* \"#utility.yul\":3259:3338   */\n      tag_99\n      tag_42\n      jump\t// in\n    tag_99:\n        /* \"#utility.yul\":3221:3340   */\n    tag_98:\n        /* \"#utility.yul\":3379:3380   */\n      0x00\n        /* \"#utility.yul\":3404:3457   */\n      tag_100\n        /* \"#utility.yul\":3449:3456   */\n      dup5\n        /* \"#utility.yul\":3440:3446   */\n      dup3\n        /* \"#utility.yul\":3429:3438   */\n      dup6\n        /* \"#utility.yul\":3425:3447   */\n      add\n        /* \"#utility.yul\":3404:3457   */\n      tag_46\n      jump\t// in\n    tag_100:\n        /* \"#utility.yul\":3394:3457   */\n      swap2\n      pop\n        /* \"#utility.yul\":3350:3467   */\n      pop\n        /* \"#utility.yul\":3145:3474   */\n      swap3\n      swap2\n      pop\n      pop\n      jump\t// out\n        /* \"#utility.yul\":3480:3622   */\n    tag_47:\n        /* \"#utility.yul\":3583:3615   */\n      tag_102\n        /* \"#utility.yul\":3609:3614   */\n      dup2\n        /* \"#utility.yul\":3583:3615   */\n      tag_36\n      jump\t// in\n    tag_102:\n        /* \"#utility.yul\":3578:3581   */\n      dup3\n        /* \"#utility.yul\":3571:3616   */\n      mstore\n        /* \"#utility.yul\":3480:3622   */\n      pop\n      pop\n      jump\t// out\n        /* \"#utility.yul\":3628:3882   */\n    tag_15:\n        /* \"#utility.yul\":3737:3741   */\n      0x00\n        /* \"#utility.yul\":3775:3777   */\n      0x20\n        /* \"#utility.yul\":3764:3773   */\n      dup3\n        /* \"#utility.yul\":3760:3778   */\n      add\n        /* \"#utility.yul\":3752:3778   */\n      swap1\n      pop\n        /* \"#utility.yul\":3788:3875   */\n      tag_104\n        /* \"#utility.yul\":3872:3873   */\n      0x00\n        /* \"#utility.yul\":3861:3870   */\n      dup4\n        /* \"#utility.yul\":3857:3874   */\n      add\n        /* \"#utility.yul\":3848:3854   */\n      dup5\n        /* \"#utility.yul\":3788:3875   */\n      tag_47\n      jump\t// in\n    tag_104:\n        /* \"#utility.yul\":3628:3882   */\n      swap3\n      swap2\n      pop\n      pop\n      jump\t// out\n        /* \"#utility.yul\":3888:4005   */\n    tag_48:\n        /* \"#utility.yul\":3997:3998   */\n      0x00\n        /* \"#utility.yul\":3994:3995   */\n      dup1\n        /* \"#utility.yul\":3987:3999   */\n      revert\n        /* \"#utility.yul\":4011:4128   */\n    tag_49:\n        /* \"#utility.yul\":4120:4121   */\n      0x00\n        /* \"#utility.yul\":4117:4118   */\n      dup1\n        /* \"#utility.yul\":4110:4122   */\n      revert\n        /* \"#utility.yul\":4134:4236   */\n    tag_50:\n        /* \"#utility.yul\":4175:4181   */\n      0x00\n        /* \"#utility.yul\":4226:4228   */\n      0x1f\n        /* \"#utility.yul\":4222:4229   */\n      not\n        /* \"#utility.yul\":4217:4219   */\n      0x1f\n        /* \"#utility.yul\":4210:4215   */\n      dup4\n        /* \"#utility.yul\":4206:4220   */\n      add\n        /* \"#utility.yul\":4202:4230   */\n      and\n        /* \"#utility.yul\":4192:4230   */\n      swap1\n      pop\n        /* \"#utility.yul\":4134:4236   */\n      swap2\n      swap1\n      pop\n      jump\t// out\n        /* \"#utility.yul\":4242:4422   */\n    tag_51:\n        /* \"#utility.yul\":4290:4367   */\n      0x4e487b7100000000000000000000000000000000000000000000000000000000\n        /* \"#utility.yul\":4287:4288   */\n      0x00\n        /* \"#utility.yul\":4280:4368   */\n      mstore\n        /* \"#utility.yul\":4387:4391   */\n      0x41\n        /* \"#utility.yul\":4384:4385   */\n      0x04\n        /* \"#utility.yul\":4377:4392   */\n      mstore\n        /* \"#utility.yul\":4411:4415   */\n      0x24\n        /* \"#utility.yul\":4408:4409   */\n      0x00\n        /* \"#utility.yul\":4401:4416   */\n      revert\n        /* \"#utility.yul\":4428:4709   */\n    tag_52:\n        /* \"#utility.yul\":4511:4538   */\n      tag_110\n        /* \"#utility.yul\":4533:4537   */\n      dup3\n        /* \"#utility.yul\":4511:4538   */\n      tag_50\n      jump\t// in\n    tag_110:\n        /* \"#utility.yul\":4503:4509   */\n      dup2\n        /* \"#utility.yul\":4499:4539   */\n      add\n        /* \"#utility.yul\":4641:4647   */\n      dup2\n        /* \"#utility.yul\":4629:4639   */\n      dup2\n        /* \"#utility.yul\":4626:4648   */\n      lt\n        /* \"#utility.yul\":4605:4623   */\n      0xffffffffffffffff\n        /* \"#utility.yul\":4593:4603   */\n      dup3\n        /* \"#utility.yul\":4590:4624   */\n      gt\n        /* \"#utility.yul\":4587:4649   */\n      or\n        /* \"#utility.yul\":4584:4672   */\n      iszero\n      tag_111\n      jumpi\n        /* \"#utility.yul\":4652:4670   */\n      tag_112\n      tag_51\n      jump\t// in\n    tag_112:\n        /* \"#utility.yul\":4584:4672   */\n    tag_111:\n        /* \"#utility.yul\":4692:4702   */\n      dup1\n        /* \"#utility.yul\":4688:4690   */\n      0x40\n        /* \"#utility.yul\":4681:4703   */\n      mstore\n        /* \"#utility.yul\":4471:4709   */\n      pop\n        /* \"#utility.yul\":4428:4709   */\n      pop\n      pop\n      jump\t// out\n        /* \"#utility.yul\":4715:4844   */\n    tag_53:\n        /* \"#utility.yul\":4749:4755   */\n      0x00\n        /* \"#utility.yul\":4776:4796   */\n      tag_114\n      tag_41\n      jump\t// in\n    tag_114:\n        /* \"#utility.yul\":4766:4796   */\n      swap1\n      pop\n        /* \"#utility.yul\":4805:4838   */\n      tag_115\n        /* \"#utility.yul\":4833:4837   */\n      dup3\n        /* \"#utility.yul\":4825:4831   */\n      dup3\n        /* \"#utility.yul\":4805:4838   */\n      tag_52\n      jump\t// in\n    tag_115:\n        /* \"#utility.yul\":4715:4844   */\n      swap2\n      swap1\n      pop\n      jump\t// out\n        /* \"#utility.yul\":4850:5158   */\n    tag_54:\n        /* \"#utility.yul\":4912:4916   */\n      0x00\n        /* \"#utility.yul\":5002:5020   */\n      0xffffffffffffffff\n        /* \"#utility.yul\":4994:5000   */\n      dup3\n        /* \"#utility.yul\":4991:5021   */\n      gt\n        /* \"#utility.yul\":4988:5044   */\n      iszero\n      tag_117\n      jumpi\n        /* \"#utility.yul\":5024:5042   */\n      tag_118\n      tag_51\n      jump\t// in\n    tag_118:\n        /* \"#utility.yul\":4988:5044   */\n    tag_117:\n        /* \"#utility.yul\":5062:5091   */\n      tag_119\n        /* \"#utility.yul\":5084:5090   */\n      dup3\n        /* \"#utility.yul\":5062:5091   */\n      tag_50\n      jump\t// in\n    tag_119:\n        /* \"#utility.yul\":5054:5091   */\n      swap1\n      pop\n        /* \"#utility.yul\":5146:5150   */\n      0x20\n        /* \"#utility.yul\":5140:5144   */\n      dup2\n        /* \"#utility.yul\":5136:5151   */\n      add\n        /* \"#utility.yul\":5128:5151   */\n      swap1\n      pop\n        /* \"#utility.yul\":4850:5158   */\n      swap2\n      swap1\n      pop\n      jump\t// out\n        /* \"#utility.yul\":5164:5310   */\n    tag_55:\n        /* \"#utility.yul\":5261:5267   */\n      dup3\n        /* \"#utility.yul\":5256:5259   */\n      dup2\n        /* \"#utility.yul\":5251:5254   */\n      dup4\n        /* \"#utility.yul\":5238:5268   */\n      calldatacopy\n        /* \"#utility.yul\":5302:5303   */\n      0x00\n        /* \"#utility.yul\":5293:5299   */\n      dup4\n        /* \"#utility.yul\":5288:5291   */\n      dup4\n        /* \"#utility.yul\":5284:5300   */\n      add\n        /* \"#utility.yul\":5277:5304   */\n      mstore\n        /* \"#utility.yul\":5164:5310   */\n      pop\n      pop\n      pop\n      jump\t// out\n        /* \"#utility.yul\":5316:5741   */\n    tag_56:\n        /* \"#utility.yul\":5394:5399   */\n      0x00\n        /* \"#utility.yul\":5419:5485   */\n      tag_122\n        /* \"#utility.yul\":5435:5484   */\n      tag_123\n        /* \"#utility.yul\":5477:5483   */\n      dup5\n        /* \"#utility.yul\":5435:5484   */\n      tag_54\n      jump\t// in\n    tag_123:\n        /* \"#utility.yul\":5419:5485   */\n      tag_53\n      jump\t// in\n    tag_122:\n        /* \"#utility.yul\":5410:5485   */\n      swap1\n      pop\n        /* \"#utility.yul\":5508:5514   */\n      dup3\n        /* \"#utility.yul\":5501:5506   */\n      dup2\n        /* \"#utility.yul\":5494:5515   */\n      mstore\n        /* \"#utility.yul\":5546:5550   */\n      0x20\n        /* \"#utility.yul\":5539:5544   */\n      dup2\n        /* \"#utility.yul\":5535:5551   */\n      add\n        /* \"#utility.yul\":5584:5587   */\n      dup5\n        /* \"#utility.yul\":5575:5581   */\n      dup5\n        /* \"#utility.yul\":5570:5573   */\n      dup5\n        /* \"#utility.yul\":5566:5582   */\n      add\n        /* \"#utility.yul\":5563:5588   */\n      gt\n        /* \"#utility.yul\":5560:5672   */\n      iszero\n      tag_124\n      jumpi\n        /* \"#utility.yul\":5591:5670   */\n      tag_125\n      tag_49\n      jump\t// in\n    tag_125:\n        /* \"#utility.yul\":5560:5672   */\n    tag_124:\n        /* \"#utility.yul\":5681:5735   */\n      tag_126\n        /* \"#utility.yul\":5728:5734   */\n      dup5\n        /* \"#utility.yul\":5723:5726   */\n      dup3\n        /* \"#utility.yul\":5718:5721   */\n      dup6\n        /* \"#utility.yul\":5681:5735   */\n      tag_55\n      jump\t// in\n    tag_126:\n        /* \"#utility.yul\":5400:5741   */\n      pop\n        /* \"#utility.yul\":5316:5741   */\n      swap4\n      swap3\n      pop\n      pop\n      pop\n      jump\t// out\n        /* \"#utility.yul\":5761:6101   */\n    tag_57:\n        /* \"#utility.yul\":5817:5822   */\n      0x00\n        /* \"#utility.yul\":5866:5869   */\n      dup3\n        /* \"#utility.yul\":5859:5863   */\n      0x1f\n        /* \"#utility.yul\":5851:5857   */\n      dup4\n        /* \"#utility.yul\":5847:5864   */\n      add\n        /* \"#utility.yul\":5843:5870   */\n      slt\n        /* \"#utility.yul\":5833:5955   */\n      tag_128\n      jumpi\n        /* \"#utility.yul\":5874:5953   */\n      tag_129\n      tag_48\n      jump\t// in\n    tag_129:\n        /* \"#utility.yul\":5833:5955   */\n    tag_128:\n        /* \"#utility.yul\":5991:5997   */\n      dup2\n        /* \"#utility.yul\":5978:5998   */\n      calldataload\n        /* \"#utility.yul\":6016:6095   */\n      tag_130\n        /* \"#utility.yul\":6091:6094   */\n      dup5\n        /* \"#utility.yul\":6083:6089   */\n      dup3\n        /* \"#utility.yul\":6076:6080   */\n      0x20\n        /* \"#utility.yul\":6068:6074   */\n      dup7\n        /* \"#utility.yul\":6064:6081   */\n      add\n        /* \"#utility.yul\":6016:6095   */\n      tag_56\n      jump\t// in\n    tag_130:\n        /* \"#utility.yul\":6007:6095   */\n      swap2\n      pop\n        /* \"#utility.yul\":5823:6101   */\n      pop\n        /* \"#utility.yul\":5761:6101   */\n      swap3\n      swap2\n      pop\n      pop\n      jump\t// out\n        /* \"#utility.yul\":6107:6761   */\n    tag_18:\n        /* \"#utility.yul\":6185:6191   */\n      0x00\n        /* \"#utility.yul\":6193:6199   */\n      dup1\n        /* \"#utility.yul\":6242:6244   */\n      0x40\n        /* \"#utility.yul\":6230:6239   */\n      dup4\n        /* \"#utility.yul\":6221:6228   */\n      dup6\n        /* \"#utility.yul\":6217:6240   */\n      sub\n        /* \"#utility.yul\":6213:6245   */\n      slt\n        /* \"#utility.yul\":6210:6329   */\n      iszero\n      tag_132\n      jumpi\n        /* \"#utility.yul\":6248:6327   */\n      tag_133\n      tag_42\n      jump\t// in\n    tag_133:\n        /* \"#utility.yul\":6210:6329   */\n    tag_132:\n        /* \"#utility.yul\":6368:6369   */\n      0x00\n        /* \"#utility.yul\":6393:6446   */\n      tag_134\n        /* \"#utility.yul\":6438:6445   */\n      dup6\n        /* \"#utility.yul\":6429:6435   */\n      dup3\n        /* \"#utility.yul\":6418:6427   */\n      dup7\n        /* \"#utility.yul\":6414:6436   */\n      add\n        /* \"#utility.yul\":6393:6446   */\n      tag_46\n      jump\t// in\n    tag_134:\n        /* \"#utility.yul\":6383:6446   */\n      swap3\n      pop\n        /* \"#utility.yul\":6339:6456   */\n      pop\n        /* \"#utility.yul\":6523:6525   */\n      0x20\n        /* \"#utility.yul\":6512:6521   */\n      dup4\n        /* \"#utility.yul\":6508:6526   */\n      add\n        /* \"#utility.yul\":6495:6527   */\n      calldataload\n        /* \"#utility.yul\":6554:6572   */\n      0xffffffffffffffff\n        /* \"#utility.yul\":6546:6552   */\n      dup2\n        /* \"#utility.yul\":6543:6573   */\n      gt\n        /* \"#utility.yul\":6540:6657   */\n      iszero\n      tag_135\n      jumpi\n        /* \"#utility.yul\":6576:6655   */\n      tag_136\n      tag_43\n      jump\t// in\n    tag_136:\n        /* \"#utility.yul\":6540:6657   */\n    tag_135:\n        /* \"#utility.yul\":6681:6744   */\n      tag_137\n        /* \"#utility.yul\":6736:6743   */\n      dup6\n        /* \"#utility.yul\":6727:6733   */\n      dup3\n        /* \"#utility.yul\":6716:6725   */\n      dup7\n        /* \"#utility.yul\":6712:6734   */\n      add\n        /* \"#utility.yul\":6681:6744   */\n      tag_57\n      jump\t// in\n    tag_137:\n        /* \"#utility.yul\":6671:6744   */\n      swap2\n      pop\n        /* \"#utility.yul\":6466:6754   */\n      pop\n        /* \"#utility.yul\":6107:6761   */\n      swap3\n      pop\n      swap3\n      swap1\n      pop\n      jump\t// out\n        /* \"#utility.yul\":6767:6885   */\n    tag_58:\n        /* \"#utility.yul\":6854:6878   */\n      tag_139\n        /* \"#utility.yul\":6872:6877   */\n      dup2\n        /* \"#utility.yul\":6854:6878   */\n      tag_44\n      jump\t// in\n    tag_139:\n        /* \"#utility.yul\":6849:6852   */\n      dup3\n        /* \"#utility.yul\":6842:6879   */\n      mstore\n        /* \"#utility.yul\":6767:6885   */\n      pop\n      pop\n      jump\t// out\n        /* \"#utility.yul\":6891:6990   */\n    tag_59:\n        /* \"#utility.yul\":6943:6949   */\n      0x00\n        /* \"#utility.yul\":6977:6982   */\n      dup2\n        /* \"#utility.yul\":6971:6983   */\n      mload\n        /* \"#utility.yul\":6961:6983   */\n      swap1\n      pop\n        /* \"#utility.yul\":6891:6990   */\n      swap2\n      swap1\n      pop\n      jump\t// out\n        /* \"#utility.yul\":6996:7165   */\n    tag_60:\n        /* \"#utility.yul\":7080:7091   */\n      0x00\n        /* \"#utility.yul\":7114:7120   */\n      dup3\n        /* \"#utility.yul\":7109:7112   */\n      dup3\n        /* \"#utility.yul\":7102:7121   */\n      mstore\n        /* \"#utility.yul\":7154:7158   */\n      0x20\n        /* \"#utility.yul\":7149:7152   */\n      dup3\n        /* \"#utility.yul\":7145:7159   */\n      add\n        /* \"#utility.yul\":7130:7159   */\n      swap1\n      pop\n        /* \"#utility.yul\":6996:7165   */\n      swap3\n      swap2\n      pop\n      pop\n      jump\t// out\n        /* \"#utility.yul\":7171:7417   */\n    tag_61:\n        /* \"#utility.yul\":7252:7253   */\n      0x00\n        /* \"#utility.yul\":7262:7375   */\n    tag_143:\n        /* \"#utility.yul\":7276:7282   */\n      dup4\n        /* \"#utility.yul\":7273:7274   */\n      dup2\n        /* \"#utility.yul\":7270:7283   */\n      lt\n        /* \"#utility.yul\":7262:7375   */\n      iszero\n      tag_145\n      jumpi\n        /* \"#utility.yul\":7361:7362   */\n      dup1\n        /* \"#utility.yul\":7356:7359   */\n      dup3\n        /* \"#utility.yul\":7352:7363   */\n      add\n        /* \"#utility.yul\":7346:7364   */\n      mload\n        /* \"#utility.yul\":7342:7343   */\n      dup2\n        /* \"#utility.yul\":7337:7340   */\n      dup5\n        /* \"#utility.yul\":7333:7344   */\n      add\n        /* \"#utility.yul\":7326:7365   */\n      mstore\n        /* \"#utility.yul\":7298:7300   */\n      0x20\n        /* \"#utility.yul\":7295:7296   */\n      dup2\n        /* \"#utility.yul\":7291:7301   */\n      add\n        /* \"#utility.yul\":7286:7301   */\n      swap1\n      pop\n        /* \"#utility.yul\":7262:7375   */\n      jump(tag_143)\n    tag_145:\n        /* \"#utility.yul\":7409:7410   */\n      0x00\n        /* \"#utility.yul\":7400:7406   */\n      dup5\n        /* \"#utility.yul\":7395:7398   */\n      dup5\n        /* \"#utility.yul\":7391:7407   */\n      add\n        /* \"#utility.yul\":7384:7411   */\n      mstore\n        /* \"#utility.yul\":7233:7417   */\n      pop\n        /* \"#utility.yul\":7171:7417   */\n      pop\n      pop\n      pop\n      jump\t// out\n        /* \"#utility.yul\":7423:7800   */\n    tag_62:\n        /* \"#utility.yul\":7511:7514   */\n      0x00\n        /* \"#utility.yul\":7539:7578   */\n      tag_147\n        /* \"#utility.yul\":7572:7577   */\n      dup3\n        /* \"#utility.yul\":7539:7578   */\n      tag_59\n      jump\t// in\n    tag_147:\n        /* \"#utility.yul\":7594:7665   */\n      tag_148\n        /* \"#utility.yul\":7658:7664   */\n      dup2\n        /* \"#utility.yul\":7653:7656   */\n      dup6\n        /* \"#utility.yul\":7594:7665   */\n      tag_60\n      jump\t// in\n    tag_148:\n        /* \"#utility.yul\":7587:7665   */\n      swap4\n      pop\n        /* \"#utility.yul\":7674:7739   */\n      tag_149\n        /* \"#utility.yul\":7732:7738   */\n      dup2\n        /* \"#utility.yul\":7727:7730   */\n      dup6\n        /* \"#utility.yul\":7720:7724   */\n      0x20\n        /* \"#utility.yul\":7713:7718   */\n      dup7\n        /* \"#utility.yul\":7709:7725   */\n      add\n        /* \"#utility.yul\":7674:7739   */\n      tag_61\n      jump\t// in\n    tag_149:\n        /* \"#utility.yul\":7764:7793   */\n      tag_150\n        /* \"#utility.yul\":7786:7792   */\n      dup2\n        /* \"#utility.yul\":7764:7793   */\n      tag_50\n      jump\t// in\n    tag_150:\n        /* \"#utility.yul\":7759:7762   */\n      dup5\n        /* \"#utility.yul\":7755:7794   */\n      add\n        /* \"#utility.yul\":7748:7794   */\n      swap2\n      pop\n        /* \"#utility.yul\":7515:7800   */\n      pop\n        /* \"#utility.yul\":7423:7800   */\n      swap3\n      swap2\n      pop\n      pop\n      jump\t// out\n        /* \"#utility.yul\":7806:7902   */\n    tag_63:\n        /* \"#utility.yul\":7843:7850   */\n      0x00\n        /* \"#utility.yul\":7872:7896   */\n      tag_152\n        /* \"#utility.yul\":7890:7895   */\n      dup3\n        /* \"#utility.yul\":7872:7896   */\n      tag_35\n      jump\t// in\n    tag_152:\n        /* \"#utility.yul\":7861:7896   */\n      swap1\n      pop\n        /* \"#utility.yul\":7806:7902   */\n      swap2\n      swap1\n      pop\n      jump\t// out\n        /* \"#utility.yul\":7908:8026   */\n    tag_64:\n        /* \"#utility.yul\":7995:8019   */\n      tag_154\n        /* \"#utility.yul\":8013:8018   */\n      dup2\n        /* \"#utility.yul\":7995:8019   */\n      tag_63\n      jump\t// in\n    tag_154:\n        /* \"#utility.yul\":7990:7993   */\n      dup3\n        /* \"#utility.yul\":7983:8020   */\n      mstore\n        /* \"#utility.yul\":7908:8026   */\n      pop\n      pop\n      jump\t// out\n        /* \"#utility.yul\":8032:8565   */\n    tag_29:\n        /* \"#utility.yul\":8201:8205   */\n      0x00\n        /* \"#utility.yul\":8239:8241   */\n      0x60\n        /* \"#utility.yul\":8228:8237   */\n      dup3\n        /* \"#utility.yul\":8224:8242   */\n      add\n        /* \"#utility.yul\":8216:8242   */\n      swap1\n      pop\n        /* \"#utility.yul\":8252:8323   */\n      tag_156\n        /* \"#utility.yul\":8320:8321   */\n      0x00\n        /* \"#utility.yul\":8309:8318   */\n      dup4\n        /* \"#utility.yul\":8305:8322   */\n      add\n        /* \"#utility.yul\":8296:8302   */\n      dup7\n        /* \"#utility.yul\":8252:8323   */\n      tag_58\n      jump\t// in\n    tag_156:\n        /* \"#utility.yul\":8370:8379   */\n      dup2\n        /* \"#utility.yul\":8364:8368   */\n      dup2\n        /* \"#utility.yul\":8360:8380   */\n      sub\n        /* \"#utility.yul\":8355:8357   */\n      0x20\n        /* \"#utility.yul\":8344:8353   */\n      dup4\n        /* \"#utility.yul\":8340:8358   */\n      add\n        /* \"#utility.yul\":8333:8381   */\n      mstore\n        /* \"#utility.yul\":8398:8476   */\n      tag_157\n        /* \"#utility.yul\":8471:8475   */\n      dup2\n        /* \"#utility.yul\":8462:8468   */\n      dup6\n        /* \"#utility.yul\":8398:8476   */\n      tag_62\n      jump\t// in\n    tag_157:\n        /* \"#utility.yul\":8390:8476   */\n      swap1\n      pop\n        /* \"#utility.yul\":8486:8558   */\n      tag_158\n        /* \"#utility.yul\":8554:8556   */\n      0x40\n        /* \"#utility.yul\":8543:8552   */\n      dup4\n        /* \"#utility.yul\":8539:8557   */\n      add\n        /* \"#utility.yul\":8530:8536   */\n      dup5\n        /* \"#utility.yul\":8486:8558   */\n      tag_64\n      jump\t// in\n    tag_158:\n        /* \"#utility.yul\":8032:8565   */\n      swap5\n      swap4\n      pop\n      pop\n      pop\n      pop\n      jump\t// out\n    stop\n\n    sub_0: assembly {\n            /* \"Project.sol\":494:4825  contract Project {... */\n          mstore(0x40, 0x80)\n            /* \"Project.sol\":2973:2978  false */\n          0x00\n            /* \"Project.sol\":2951:2978  bool private locked = false */\n          0x07\n          exp(0x0100, 0x00)\n          dup2\n          sload\n          dup2\n          0xff\n          mul\n          not\n          and\n          swap1\n          dup4\n          iszero\n          iszero\n          mul\n          or\n          swap1\n          sstore\n          pop\n            /* \"Project.sol\":1041:1268  constructor(... */\n          callvalue\n          dup1\n          iszero\n          tag_1\n          jumpi\n          0x00\n          dup1\n          revert\n        tag_1:\n          pop\n          mload(0x40)\n          sub(codesize, bytecodeSize)\n          dup1\n          bytecodeSize\n          dup4\n          codecopy\n          dup2\n          dup2\n          add\n          0x40\n          mstore\n          dup2\n          add\n          swap1\n          tag_2\n          swap2\n          swap1\n          tag_3\n          jump\t// in\n        tag_2:\n            /* \"Project.sol\":1182:1189  minimum */\n          dup3\n            /* \"Project.sol\":1159:1179  minimumSupportAmount */\n          0x00\n            /* \"Project.sol\":1159:1189  minimumSupportAmount = minimum */\n          dup2\n          swap1\n          sstore\n          pop\n            /* \"Project.sol\":1214:1219  owner */\n          dup1\n            /* \"Project.sol\":1199:1211  projectOwner */\n          0x02\n          0x00\n            /* \"Project.sol\":1199:1219  projectOwner = owner */\n          0x0100\n          exp\n          dup2\n          sload\n          dup2\n          0xffffffffffffffffffffffffffffffffffffffff\n          mul\n          not\n          and\n          swap1\n          dup4\n          0xffffffffffffffffffffffffffffffffffffffff\n          and\n          mul\n          or\n          swap1\n          sstore\n          pop\n            /* \"Project.sol\":1250:1261  description */\n          dup2\n            /* \"Project.sol\":1229:1247  projectDescription */\n          0x01\n            /* \"Project.sol\":1229:1261  projectDescription = description */\n          swap1\n          dup2\n          tag_6\n          swap2\n          swap1\n          tag_7\n          jump\t// in\n        tag_6:\n          pop\n            /* \"Project.sol\":1041:1268  constructor(... */\n          pop\n          pop\n          pop\n            /* \"Project.sol\":494:4825  contract Project {... */\n          jump(tag_8)\n            /* \"#utility.yul\":7:82   */\n        tag_9:\n            /* \"#utility.yul\":40:46   */\n          0x00\n            /* \"#utility.yul\":73:75   */\n          0x40\n            /* \"#utility.yul\":67:76   */\n          mload\n            /* \"#utility.yul\":57:76   */\n          swap1\n          pop\n            /* \"#utility.yul\":7:82   */\n          swap1\n          jump\t// out\n            /* \"#utility.yul\":88:205   */\n        tag_10:\n            /* \"#utility.yul\":197:198   */\n          0x00\n            /* \"#utility.yul\":194:195   */\n          dup1\n            /* \"#utility.yul\":187:199   */\n          revert\n            /* \"#utility.yul\":211:328   */\n        tag_11:\n            /* \"#utility.yul\":320:321   */\n          0x00\n            /* \"#utility.yul\":317:318   */\n          dup1\n            /* \"#utility.yul\":310:322   */\n          revert\n            /* \"#utility.yul\":334:411   */\n        tag_12:\n            /* \"#utility.yul\":371:378   */\n          0x00\n            /* \"#utility.yul\":400:405   */\n          dup2\n            /* \"#utility.yul\":389:405   */\n          swap1\n          pop\n            /* \"#utility.yul\":334:411   */\n          swap2\n          swap1\n          pop\n          jump\t// out\n            /* \"#utility.yul\":417:539   */\n        tag_13:\n            /* \"#utility.yul\":490:514   */\n          tag_53\n            /* \"#utility.yul\":508:513   */\n          dup2\n            /* \"#utility.yul\":490:514   */\n          tag_12\n          jump\t// in\n        tag_53:\n            /* \"#utility.yul\":483:488   */\n          dup2\n            /* \"#utility.yul\":480:515   */\n          eq\n            /* \"#utility.yul\":470:533   */\n          tag_54\n          jumpi\n            /* \"#utility.yul\":529:530   */\n          0x00\n            /* \"#utility.yul\":526:527   */\n          dup1\n            /* \"#utility.yul\":519:531   */\n          revert\n            /* \"#utility.yul\":470:533   */\n        tag_54:\n            /* \"#utility.yul\":417:539   */\n          pop\n          jump\t// out\n            /* \"#utility.yul\":545:688   */\n        tag_14:\n            /* \"#utility.yul\":602:607   */\n          0x00\n            /* \"#utility.yul\":633:639   */\n          dup2\n            /* \"#utility.yul\":627:640   */\n          mload\n            /* \"#utility.yul\":618:640   */\n          swap1\n          pop\n            /* \"#utility.yul\":649:682   */\n          tag_56\n            /* \"#utility.yul\":676:681   */\n          dup2\n            /* \"#utility.yul\":649:682   */\n          tag_13\n          jump\t// in\n        tag_56:\n            /* \"#utility.yul\":545:688   */\n          swap3\n          swap2\n          pop\n          pop\n          jump\t// out\n            /* \"#utility.yul\":694:811   */\n        tag_15:\n            /* \"#utility.yul\":803:804   */\n          0x00\n            /* \"#utility.yul\":800:801   */\n          dup1\n            /* \"#utility.yul\":793:805   */\n          revert\n            /* \"#utility.yul\":817:934   */\n        tag_16:\n            /* \"#utility.yul\":926:927   */\n          0x00\n            /* \"#utility.yul\":923:924   */\n          dup1\n            /* \"#utility.yul\":916:928   */\n          revert\n            /* \"#utility.yul\":940:1042   */\n        tag_17:\n            /* \"#utility.yul\":981:987   */\n          0x00\n            /* \"#utility.yul\":1032:1034   */\n          0x1f\n            /* \"#utility.yul\":1028:1035   */\n          not\n            /* \"#utility.yul\":1023:1025   */\n          0x1f\n            /* \"#utility.yul\":1016:1021   */\n          dup4\n            /* \"#utility.yul\":1012:1026   */\n          add\n            /* \"#utility.yul\":1008:1036   */\n          and\n            /* \"#utility.yul\":998:1036   */\n          swap1\n          pop\n            /* \"#utility.yul\":940:1042   */\n          swap2\n          swap1\n          pop\n          jump\t// out\n            /* \"#utility.yul\":1048:1228   */\n        tag_18:\n            /* \"#utility.yul\":1096:1173   */\n          0x4e487b7100000000000000000000000000000000000000000000000000000000\n            /* \"#utility.yul\":1093:1094   */\n          0x00\n            /* \"#utility.yul\":1086:1174   */\n          mstore\n            /* \"#utility.yul\":1193:1197   */\n          0x41\n            /* \"#utility.yul\":1190:1191   */\n          0x04\n            /* \"#utility.yul\":1183:1198   */\n          mstore\n            /* \"#utility.yul\":1217:1221   */\n          0x24\n            /* \"#utility.yul\":1214:1215   */\n          0x00\n            /* \"#utility.yul\":1207:1222   */\n          revert\n            /* \"#utility.yul\":1234:1515   */\n        tag_19:\n            /* \"#utility.yul\":1317:1344   */\n          tag_62\n            /* \"#utility.yul\":1339:1343   */\n          dup3\n            /* \"#utility.yul\":1317:1344   */\n          tag_17\n          jump\t// in\n        tag_62:\n            /* \"#utility.yul\":1309:1315   */\n          dup2\n            /* \"#utility.yul\":1305:1345   */\n          add\n            /* \"#utility.yul\":1447:1453   */\n          dup2\n            /* \"#utility.yul\":1435:1445   */\n          dup2\n            /* \"#utility.yul\":1432:1454   */\n          lt\n            /* \"#utility.yul\":1411:1429   */\n          0xffffffffffffffff\n            /* \"#utility.yul\":1399:1409   */\n          dup3\n            /* \"#utility.yul\":1396:1430   */\n          gt\n            /* \"#utility.yul\":1393:1455   */\n          or\n            /* \"#utility.yul\":1390:1478   */\n          iszero\n          tag_63\n          jumpi\n            /* \"#utility.yul\":1458:1476   */\n          tag_64\n          tag_18\n          jump\t// in\n        tag_64:\n            /* \"#utility.yul\":1390:1478   */\n        tag_63:\n            /* \"#utility.yul\":1498:1508   */\n          dup1\n            /* \"#utility.yul\":1494:1496   */\n          0x40\n            /* \"#utility.yul\":1487:1509   */\n          mstore\n            /* \"#utility.yul\":1277:1515   */\n          pop\n            /* \"#utility.yul\":1234:1515   */\n          pop\n          pop\n          jump\t// out\n            /* \"#utility.yul\":1521:1650   */\n        tag_20:\n            /* \"#utility.yul\":1555:1561   */\n          0x00\n            /* \"#utility.yul\":1582:1602   */\n          tag_66\n          tag_9\n          jump\t// in\n        tag_66:\n            /* \"#utility.yul\":1572:1602   */\n          swap1\n          pop\n            /* \"#utility.yul\":1611:1644   */\n          tag_67\n            /* \"#utility.yul\":1639:1643   */\n          dup3\n            /* \"#utility.yul\":1631:1637   */\n          dup3\n            /* \"#utility.yul\":1611:1644   */\n          tag_19\n          jump\t// in\n        tag_67:\n            /* \"#utility.yul\":1521:1650   */\n          swap2\n          swap1\n          pop\n          jump\t// out\n            /* \"#utility.yul\":1656:1964   */\n        tag_21:\n            /* \"#utility.yul\":1718:1722   */\n          0x00\n            /* \"#utility.yul\":1808:1826   */\n          0xffffffffffffffff\n            /* \"#utility.yul\":1800:1806   */\n          dup3\n            /* \"#utility.yul\":1797:1827   */\n          gt\n            /* \"#utility.yul\":1794:1850   */\n          iszero\n          tag_69\n          jumpi\n            /* \"#utility.yul\":1830:1848   */\n          tag_70\n          tag_18\n          jump\t// in\n        tag_70:\n            /* \"#utility.yul\":1794:1850   */\n        tag_69:\n            /* \"#utility.yul\":1868:1897   */\n          tag_71\n            /* \"#utility.yul\":1890:1896   */\n          dup3\n            /* \"#utility.yul\":1868:1897   */\n          tag_17\n          jump\t// in\n        tag_71:\n            /* \"#utility.yul\":1860:1897   */\n          swap1\n          pop\n            /* \"#utility.yul\":1952:1956   */\n          0x20\n            /* \"#utility.yul\":1946:1950   */\n          dup2\n            /* \"#utility.yul\":1942:1957   */\n          add\n            /* \"#utility.yul\":1934:1957   */\n          swap1\n          pop\n            /* \"#utility.yul\":1656:1964   */\n          swap2\n          swap1\n          pop\n          jump\t// out\n            /* \"#utility.yul\":1970:2216   */\n        tag_22:\n            /* \"#utility.yul\":2051:2052   */\n          0x00\n            /* \"#utility.yul\":2061:2174   */\n        tag_73:\n            /* \"#utility.yul\":2075:2081   */\n          dup4\n            /* \"#utility.yul\":2072:2073   */\n          dup2\n            /* \"#utility.yul\":2069:2082   */\n          lt\n            /* \"#utility.yul\":2061:2174   */\n          iszero\n          tag_75\n          jumpi\n            /* \"#utility.yul\":2160:2161   */\n          dup1\n            /* \"#utility.yul\":2155:2158   */\n          dup3\n            /* \"#utility.yul\":2151:2162   */\n          add\n            /* \"#utility.yul\":2145:2163   */\n          mload\n            /* \"#utility.yul\":2141:2142   */\n          dup2\n            /* \"#utility.yul\":2136:2139   */\n          dup5\n            /* \"#utility.yul\":2132:2143   */\n          add\n            /* \"#utility.yul\":2125:2164   */\n          mstore\n            /* \"#utility.yul\":2097:2099   */\n          0x20\n            /* \"#utility.yul\":2094:2095   */\n          dup2\n            /* \"#utility.yul\":2090:2100   */\n          add\n            /* \"#utility.yul\":2085:2100   */\n          swap1\n          pop\n            /* \"#utility.yul\":2061:2174   */\n          jump(tag_73)\n        tag_75:\n            /* \"#utility.yul\":2208:2209   */\n          0x00\n            /* \"#utility.yul\":2199:2205   */\n          dup5\n            /* \"#utility.yul\":2194:2197   */\n          dup5\n            /* \"#utility.yul\":2190:2206   */\n          add\n            /* \"#utility.yul\":2183:2210   */\n          mstore\n            /* \"#utility.yul\":2032:2216   */\n          pop\n            /* \"#utility.yul\":1970:2216   */\n          pop\n          pop\n          pop\n          jump\t// out\n            /* \"#utility.yul\":2222:2656   */\n        tag_23:\n            /* \"#utility.yul\":2311:2316   */\n          0x00\n            /* \"#utility.yul\":2336:2402   */\n          tag_77\n            /* \"#utility.yul\":2352:2401   */\n          tag_78\n            /* \"#utility.yul\":2394:2400   */\n          dup5\n            /* \"#utility.yul\":2352:2401   */\n          tag_21\n          jump\t// in\n        tag_78:\n            /* \"#utility.yul\":2336:2402   */\n          tag_20\n          jump\t// in\n        tag_77:\n            /* \"#utility.yul\":2327:2402   */\n          swap1\n          pop\n            /* \"#utility.yul\":2425:2431   */\n          dup3\n            /* \"#utility.yul\":2418:2423   */\n          dup2\n            /* \"#utility.yul\":2411:2432   */\n          mstore\n            /* \"#utility.yul\":2463:2467   */\n          0x20\n            /* \"#utility.yul\":2456:2461   */\n          dup2\n            /* \"#utility.yul\":2452:2468   */\n          add\n            /* \"#utility.yul\":2501:2504   */\n          dup5\n            /* \"#utility.yul\":2492:2498   */\n          dup5\n            /* \"#utility.yul\":2487:2490   */\n          dup5\n            /* \"#utility.yul\":2483:2499   */\n          add\n            /* \"#utility.yul\":2480:2505   */\n          gt\n            /* \"#utility.yul\":2477:2589   */\n          iszero\n          tag_79\n          jumpi\n            /* \"#utility.yul\":2508:2587   */\n          tag_80\n          tag_16\n          jump\t// in\n        tag_80:\n            /* \"#utility.yul\":2477:2589   */\n        tag_79:\n            /* \"#utility.yul\":2598:2650   */\n          tag_81\n            /* \"#utility.yul\":2643:2649   */\n          dup5\n            /* \"#utility.yul\":2638:2641   */\n          dup3\n            /* \"#utility.yul\":2633:2636   */\n          dup6\n            /* \"#utility.yul\":2598:2650   */\n          tag_22\n          jump\t// in\n        tag_81:\n            /* \"#utility.yul\":2317:2656   */\n          pop\n            /* \"#utility.yul\":2222:2656   */\n          swap4\n          swap3\n          pop\n          pop\n          pop\n          jump\t// out\n            /* \"#utility.yul\":2676:3031   */\n        tag_24:\n            /* \"#utility.yul\":2743:2748   */\n          0x00\n            /* \"#utility.yul\":2792:2795   */\n          dup3\n            /* \"#utility.yul\":2785:2789   */\n          0x1f\n            /* \"#utility.yul\":2777:2783   */\n          dup4\n            /* \"#utility.yul\":2773:2790   */\n          add\n            /* \"#utility.yul\":2769:2796   */\n          slt\n            /* \"#utility.yul\":2759:2881   */\n          tag_83\n          jumpi\n            /* \"#utility.yul\":2800:2879   */\n          tag_84\n          tag_15\n          jump\t// in\n        tag_84:\n            /* \"#utility.yul\":2759:2881   */\n        tag_83:\n            /* \"#utility.yul\":2910:2916   */\n          dup2\n            /* \"#utility.yul\":2904:2917   */\n          mload\n            /* \"#utility.yul\":2935:3025   */\n          tag_85\n            /* \"#utility.yul\":3021:3024   */\n          dup5\n            /* \"#utility.yul\":3013:3019   */\n          dup3\n            /* \"#utility.yul\":3006:3010   */\n          0x20\n            /* \"#utility.yul\":2998:3004   */\n          dup7\n            /* \"#utility.yul\":2994:3011   */\n          add\n            /* \"#utility.yul\":2935:3025   */\n          tag_23\n          jump\t// in\n        tag_85:\n            /* \"#utility.yul\":2926:3025   */\n          swap2\n          pop\n            /* \"#utility.yul\":2749:3031   */\n          pop\n            /* \"#utility.yul\":2676:3031   */\n          swap3\n          swap2\n          pop\n          pop\n          jump\t// out\n            /* \"#utility.yul\":3037:3163   */\n        tag_25:\n            /* \"#utility.yul\":3074:3081   */\n          0x00\n            /* \"#utility.yul\":3114:3156   */\n          0xffffffffffffffffffffffffffffffffffffffff\n            /* \"#utility.yul\":3107:3112   */\n          dup3\n            /* \"#utility.yul\":3103:3157   */\n          and\n            /* \"#utility.yul\":3092:3157   */\n          swap1\n          pop\n            /* \"#utility.yul\":3037:3163   */\n          swap2\n          swap1\n          pop\n          jump\t// out\n            /* \"#utility.yul\":3169:3265   */\n        tag_26:\n            /* \"#utility.yul\":3206:3213   */\n          0x00\n            /* \"#utility.yul\":3235:3259   */\n          tag_88\n            /* \"#utility.yul\":3253:3258   */\n          dup3\n            /* \"#utility.yul\":3235:3259   */\n          tag_25\n          jump\t// in\n        tag_88:\n            /* \"#utility.yul\":3224:3259   */\n          swap1\n          pop\n            /* \"#utility.yul\":3169:3265   */\n          swap2\n          swap1\n          pop\n          jump\t// out\n            /* \"#utility.yul\":3271:3393   */\n        tag_27:\n            /* \"#utility.yul\":3344:3368   */\n          tag_90\n            /* \"#utility.yul\":3362:3367   */\n          dup2\n            /* \"#utility.yul\":3344:3368   */\n          tag_26\n          jump\t// in\n        tag_90:\n            /* \"#utility.yul\":3337:3342   */\n          dup2\n            /* \"#utility.yul\":3334:3369   */\n          eq\n            /* \"#utility.yul\":3324:3387   */\n          tag_91\n          jumpi\n            /* \"#utility.yul\":3383:3384   */\n          0x00\n            /* \"#utility.yul\":3380:3381   */\n          dup1\n            /* \"#utility.yul\":3373:3385   */\n          revert\n            /* \"#utility.yul\":3324:3387   */\n        tag_91:\n            /* \"#utility.yul\":3271:3393   */\n          pop\n          jump\t// out\n            /* \"#utility.yul\":3399:3542   */\n        tag_28:\n            /* \"#utility.yul\":3456:3461   */\n          0x00\n            /* \"#utility.yul\":3487:3493   */\n          dup2\n            /* \"#utility.yul\":3481:3494   */\n          mload\n            /* \"#utility.yul\":3472:3494   */\n          swap1\n          pop\n            /* \"#utility.yul\":3503:3536   */\n          tag_93\n            /* \"#utility.yul\":3530:3535   */\n          dup2\n            /* \"#utility.yul\":3503:3536   */\n          tag_27\n          jump\t// in\n        tag_93:\n            /* \"#utility.yul\":3399:3542   */\n          swap3\n          swap2\n          pop\n          pop\n          jump\t// out\n            /* \"#utility.yul\":3548:4384   */\n        tag_3:\n            /* \"#utility.yul\":3646:3652   */\n          0x00\n            /* \"#utility.yul\":3654:3660   */\n          dup1\n            /* \"#utility.yul\":3662:3668   */\n          0x00\n            /* \"#utility.yul\":3711:3713   */\n          0x60\n            /* \"#utility.yul\":3699:3708   */\n          dup5\n            /* \"#utility.yul\":3690:3697   */\n          dup7\n            /* \"#utility.yul\":3686:3709   */\n          sub\n            /* \"#utility.yul\":3682:3714   */\n          slt\n            /* \"#utility.yul\":3679:3798   */\n          iszero\n          tag_95\n          jumpi\n            /* \"#utility.yul\":3717:3796   */\n          tag_96\n          tag_10\n          jump\t// in\n        tag_96:\n            /* \"#utility.yul\":3679:3798   */\n        tag_95:\n            /* \"#utility.yul\":3837:3838   */\n          0x00\n            /* \"#utility.yul\":3862:3926   */\n          tag_97\n            /* \"#utility.yul\":3918:3925   */\n          dup7\n            /* \"#utility.yul\":3909:3915   */\n          dup3\n            /* \"#utility.yul\":3898:3907   */\n          dup8\n            /* \"#utility.yul\":3894:3916   */\n          add\n            /* \"#utility.yul\":3862:3926   */\n          tag_14\n          jump\t// in\n        tag_97:\n            /* \"#utility.yul\":3852:3926   */\n          swap4\n          pop\n            /* \"#utility.yul\":3808:3936   */\n          pop\n            /* \"#utility.yul\":3996:3998   */\n          0x20\n            /* \"#utility.yul\":3985:3994   */\n          dup5\n            /* \"#utility.yul\":3981:3999   */\n          add\n            /* \"#utility.yul\":3975:4000   */\n          mload\n            /* \"#utility.yul\":4027:4045   */\n          0xffffffffffffffff\n            /* \"#utility.yul\":4019:4025   */\n          dup2\n            /* \"#utility.yul\":4016:4046   */\n          gt\n            /* \"#utility.yul\":4013:4130   */\n          iszero\n          tag_98\n          jumpi\n            /* \"#utility.yul\":4049:4128   */\n          tag_99\n          tag_11\n          jump\t// in\n        tag_99:\n            /* \"#utility.yul\":4013:4130   */\n        tag_98:\n            /* \"#utility.yul\":4154:4228   */\n          tag_100\n            /* \"#utility.yul\":4220:4227   */\n          dup7\n            /* \"#utility.yul\":4211:4217   */\n          dup3\n            /* \"#utility.yul\":4200:4209   */\n          dup8\n            /* \"#utility.yul\":4196:4218   */\n          add\n            /* \"#utility.yul\":4154:4228   */\n          tag_24\n          jump\t// in\n        tag_100:\n            /* \"#utility.yul\":4144:4228   */\n          swap3\n          pop\n            /* \"#utility.yul\":3946:4238   */\n          pop\n            /* \"#utility.yul\":4277:4279   */\n          0x40\n            /* \"#utility.yul\":4303:4367   */\n          tag_101\n            /* \"#utility.yul\":4359:4366   */\n          dup7\n            /* \"#utility.yul\":4350:4356   */\n          dup3\n            /* \"#utility.yul\":4339:4348   */\n          dup8\n            /* \"#utility.yul\":4335:4357   */\n          add\n            /* \"#utility.yul\":4303:4367   */\n          tag_28\n          jump\t// in\n        tag_101:\n            /* \"#utility.yul\":4293:4367   */\n          swap2\n          pop\n            /* \"#utility.yul\":4248:4377   */\n          pop\n            /* \"#utility.yul\":3548:4384   */\n          swap3\n          pop\n          swap3\n          pop\n          swap3\n          jump\t// out\n            /* \"#utility.yul\":4390:4489   */\n        tag_29:\n            /* \"#utility.yul\":4442:4448   */\n          0x00\n            /* \"#utility.yul\":4476:4481   */\n          dup2\n            /* \"#utility.yul\":4470:4482   */\n          mload\n            /* \"#utility.yul\":4460:4482   */\n          swap1\n          pop\n            /* \"#utility.yul\":4390:4489   */\n          swap2\n          swap1\n          pop\n          jump\t// out\n            /* \"#utility.yul\":4495:4675   */\n        tag_30:\n            /* \"#utility.yul\":4543:4620   */\n          0x4e487b7100000000000000000000000000000000000000000000000000000000\n            /* \"#utility.yul\":4540:4541   */\n          0x00\n            /* \"#utility.yul\":4533:4621   */\n          mstore\n            /* \"#utility.yul\":4640:4644   */\n          0x22\n            /* \"#utility.yul\":4637:4638   */\n          0x04\n            /* \"#utility.yul\":4630:4645   */\n          mstore\n            /* \"#utility.yul\":4664:4668   */\n          0x24\n            /* \"#utility.yul\":4661:4662   */\n          0x00\n            /* \"#utility.yul\":4654:4669   */\n          revert\n            /* \"#utility.yul\":4681:5001   */\n        tag_31:\n            /* \"#utility.yul\":4725:4731   */\n          0x00\n            /* \"#utility.yul\":4762:4763   */\n          0x02\n            /* \"#utility.yul\":4756:4760   */\n          dup3\n            /* \"#utility.yul\":4752:4764   */\n          div\n            /* \"#utility.yul\":4742:4764   */\n          swap1\n          pop\n            /* \"#utility.yul\":4809:4810   */\n          0x01\n            /* \"#utility.yul\":4803:4807   */\n          dup3\n            /* \"#utility.yul\":4799:4811   */\n          and\n            /* \"#utility.yul\":4830:4848   */\n          dup1\n            /* \"#utility.yul\":4820:4901   */\n          tag_105\n          jumpi\n            /* \"#utility.yul\":4886:4890   */\n          0x7f\n            /* \"#utility.yul\":4878:4884   */\n          dup3\n            /* \"#utility.yul\":4874:4891   */\n          and\n            /* \"#utility.yul\":4864:4891   */\n          swap2\n          pop\n            /* \"#utility.yul\":4820:4901   */\n        tag_105:\n            /* \"#utility.yul\":4948:4950   */\n          0x20\n            /* \"#utility.yul\":4940:4946   */\n          dup3\n            /* \"#utility.yul\":4937:4951   */\n          lt\n            /* \"#utility.yul\":4917:4935   */\n          dup2\n            /* \"#utility.yul\":4914:4952   */\n          sub\n            /* \"#utility.yul\":4911:4995   */\n          tag_106\n          jumpi\n            /* \"#utility.yul\":4967:4985   */\n          tag_107\n          tag_30\n          jump\t// in\n        tag_107:\n            /* \"#utility.yul\":4911:4995   */\n        tag_106:\n            /* \"#utility.yul\":4732:5001   */\n          pop\n            /* \"#utility.yul\":4681:5001   */\n          swap2\n          swap1\n          pop\n          jump\t// out\n            /* \"#utility.yul\":5007:5148   */\n        tag_32:\n            /* \"#utility.yul\":5056:5060   */\n          0x00\n            /* \"#utility.yul\":5079:5082   */\n          dup2\n            /* \"#utility.yul\":5071:5082   */\n          swap1\n          pop\n            /* \"#utility.yul\":5102:5105   */\n          dup2\n            /* \"#utility.yul\":5099:5100   */\n          0x00\n            /* \"#utility.yul\":5092:5106   */\n          mstore\n            /* \"#utility.yul\":5136:5140   */\n          0x20\n            /* \"#utility.yul\":5133:5134   */\n          0x00\n            /* \"#utility.yul\":5123:5141   */\n          keccak256\n            /* \"#utility.yul\":5115:5141   */\n          swap1\n          pop\n            /* \"#utility.yul\":5007:5148   */\n          swap2\n          swap1\n          pop\n          jump\t// out\n            /* \"#utility.yul\":5154:5247   */\n        tag_33:\n            /* \"#utility.yul\":5191:5197   */\n          0x00\n            /* \"#utility.yul\":5238:5240   */\n          0x20\n            /* \"#utility.yul\":5233:5235   */\n          0x1f\n            /* \"#utility.yul\":5226:5231   */\n          dup4\n            /* \"#utility.yul\":5222:5236   */\n          add\n            /* \"#utility.yul\":5218:5241   */\n          div\n            /* \"#utility.yul\":5208:5241   */\n          swap1\n          pop\n            /* \"#utility.yul\":5154:5247   */\n          swap2\n          swap1\n          pop\n          jump\t// out\n            /* \"#utility.yul\":5253:5360   */\n        tag_34:\n            /* \"#utility.yul\":5297:5305   */\n          0x00\n            /* \"#utility.yul\":5347:5352   */\n          dup3\n            /* \"#utility.yul\":5341:5345   */\n          dup3\n            /* \"#utility.yul\":5337:5353   */\n          shl\n            /* \"#utility.yul\":5316:5353   */\n          swap1\n          pop\n            /* \"#utility.yul\":5253:5360   */\n          swap3\n          swap2\n          pop\n          pop\n          jump\t// out\n            /* \"#utility.yul\":5366:5759   */\n        tag_35:\n            /* \"#utility.yul\":5435:5441   */\n          0x00\n            /* \"#utility.yul\":5485:5486   */\n          0x08\n            /* \"#utility.yul\":5473:5483   */\n          dup4\n            /* \"#utility.yul\":5469:5487   */\n          mul\n            /* \"#utility.yul\":5508:5605   */\n          tag_112\n            /* \"#utility.yul\":5538:5604   */\n          0xffffffffffffffffffffffffffffffffffffffffffffffffffffffffffffffff\n            /* \"#utility.yul\":5527:5536   */\n          dup3\n            /* \"#utility.yul\":5508:5605   */\n          tag_34\n          jump\t// in\n        tag_112:\n            /* \"#utility.yul\":5626:5665   */\n          tag_113\n            /* \"#utility.yul\":5656:5664   */\n          dup7\n            /* \"#utility.yul\":5645:5654   */\n          dup4\n            /* \"#utility.yul\":5626:5665   */\n          tag_34\n          jump\t// in\n        tag_113:\n            /* \"#utility.yul\":5614:5665   */\n          swap6\n          pop\n            /* \"#utility.yul\":5698:5702   */\n          dup1\n            /* \"#utility.yul\":5694:5703   */\n          not\n            /* \"#utility.yul\":5687:5692   */\n          dup5\n            /* \"#utility.yul\":5683:5704   */\n          and\n            /* \"#utility.yul\":5674:5704   */\n          swap4\n          pop\n            /* \"#utility.yul\":5747:5751   */\n          dup1\n            /* \"#utility.yul\":5737:5745   */\n          dup7\n            /* \"#utility.yul\":5733:5752   */\n          and\n            /* \"#utility.yul\":5726:5731   */\n          dup5\n            /* \"#utility.yul\":5723:5753   */\n          or\n            /* \"#utility.yul\":5713:5753   */\n          swap3\n          pop\n            /* \"#utility.yul\":5442:5759   */\n          pop\n          pop\n            /* \"#utility.yul\":5366:5759   */\n          swap4\n          swap3\n          pop\n          pop\n          pop\n          jump\t// out\n            /* \"#utility.yul\":5765:5825   */\n        tag_36:\n            /* \"#utility.yul\":5793:5796   */\n          0x00\n            /* \"#utility.yul\":5814:5819   */\n          dup2\n            /* \"#utility.yul\":5807:5819   */\n          swap1\n          pop\n            /* \"#utility.yul\":5765:5825   */\n          swap2\n          swap1\n          pop\n          jump\t// out\n            /* \"#utility.yul\":5831:5973   */\n        tag_37:\n            /* \"#utility.yul\":5881:5890   */\n          0x00\n            /* \"#utility.yul\":5914:5967   */\n          tag_116\n            /* \"#utility.yul\":5932:5966   */\n          tag_117\n            /* \"#utility.yul\":5941:5965   */\n          tag_118\n            /* \"#utility.yul\":5959:5964   */\n          dup5\n            /* \"#utility.yul\":5941:5965   */\n          tag_12\n          jump\t// in\n        tag_118:\n            /* \"#utility.yul\":5932:5966   */\n          tag_36\n          jump\t// in\n        tag_117:\n            /* \"#utility.yul\":5914:5967   */\n          tag_12\n          jump\t// in\n        tag_116:\n            /* \"#utility.yul\":5901:5967   */\n          swap1\n          pop\n            /* \"#utility.yul\":5831:5973   */\n          swap2\n          swap1\n          pop\n          jump\t// out\n            /* \"#utility.yul\":5979:6054   */\n        tag_38:\n            /* \"#utility.yul\":6022:6025   */\n          0x00\n            /* \"#utility.yul\":6043:6048   */\n          dup2\n            /* \"#utility.yul\":6036:6048   */\n          swap1\n          pop\n            /* \"#utility.yul\":5979:6054   */\n          swap2\n          swap1\n          pop\n          jump\t// out\n            /* \"#utility.yul\":6060:6329   */\n        tag_39:\n            /* \"#utility.yul\":6170:6209   */\n          tag_121\n            /* \"#utility.yul\":6201:6208   */\n          dup4\n            /* \"#utility.yul\":6170:6209   */\n          tag_37\n          jump\t// in\n        tag_121:\n            /* \"#utility.yul\":6231:6322   */\n          tag_122\n            /* \"#utility.yul\":6280:6321   */\n          tag_123\n            /* \"#utility.yul\":6304:6320   */\n          dup3\n            /* \"#utility.yul\":6280:6321   */\n          tag_38\n          jump\t// in\n        tag_123:\n            /* \"#utility.yul\":6272:6278   */\n          dup5\n            /* \"#utility.yul\":6265:6269   */\n          dup5\n            /* \"#utility.yul\":6259:6270   */\n          sload\n            /* \"#utility.yul\":6231:6322   */\n          tag_35\n          jump\t// in\n        tag_122:\n            /* \"#utility.yul\":6225:6229   */\n          dup3\n            /* \"#utility.yul\":6218:6323   */\n          sstore\n            /* \"#utility.yul\":6136:6329   */\n          pop\n            /* \"#utility.yul\":6060:6329   */\n          pop\n          pop\n          pop\n          jump\t// out\n            /* \"#utility.yul\":6335:6408   */\n        tag_40:\n            /* \"#utility.yul\":6380:6383   */\n          0x00\n            /* \"#utility.yul\":6335:6408   */\n          swap1\n          jump\t// out\n            /* \"#utility.yul\":6414:6603   */\n        tag_41:\n            /* \"#utility.yul\":6491:6523   */\n          tag_126\n          tag_40\n          jump\t// in\n        tag_126:\n            /* \"#utility.yul\":6532:6597   */\n          tag_127\n            /* \"#utility.yul\":6590:6596   */\n          dup2\n            /* \"#utility.yul\":6582:6588   */\n          dup5\n            /* \"#utility.yul\":6576:6580   */\n          dup5\n            /* \"#utility.yul\":6532:6597   */\n          tag_39\n          jump\t// in\n        tag_127:\n            /* \"#utility.yul\":6467:6603   */\n          pop\n            /* \"#utility.yul\":6414:6603   */\n          pop\n          pop\n          jump\t// out\n            /* \"#utility.yul\":6609:6795   */\n        tag_42:\n            /* \"#utility.yul\":6669:6789   */\n        tag_129:\n            /* \"#utility.yul\":6686:6689   */\n          dup2\n            /* \"#utility.yul\":6679:6684   */\n          dup2\n            /* \"#utility.yul\":6676:6690   */\n          lt\n            /* \"#utility.yul\":6669:6789   */\n          iszero\n          tag_131\n          jumpi\n            /* \"#utility.yul\":6740:6779   */\n          tag_132\n            /* \"#utility.yul\":6777:6778   */\n          0x00\n            /* \"#utility.yul\":6770:6775   */\n          dup3\n            /* \"#utility.yul\":6740:6779   */\n          tag_41\n          jump\t// in\n        tag_132:\n            /* \"#utility.yul\":6713:6714   */\n          0x01\n            /* \"#utility.yul\":6706:6711   */\n          dup2\n            /* \"#utility.yul\":6702:6715   */\n          add\n            /* \"#utility.yul\":6693:6715   */\n          swap1\n          pop\n            /* \"#utility.yul\":6669:6789   */\n          jump(tag_129)\n        tag_131:\n            /* \"#utility.yul\":6609:6795   */\n          pop\n          pop\n          jump\t// out\n            /* \"#utility.yul\":6801:7344   */\n        tag_43:\n            /* \"#utility.yul\":6902:6904   */\n          0x1f\n            /* \"#utility.yul\":6897:6900   */\n          dup3\n            /* \"#utility.yul\":6894:6905   */\n          gt\n            /* \"#utility.yul\":6891:7337   */\n          iszero\n          tag_134\n          jumpi\n            /* \"#utility.yul\":6936:6974   */\n          tag_135\n            /* \"#utility.yul\":6968:6973   */\n          dup2\n            /* \"#utility.yul\":6936:6974   */\n          tag_32\n          jump\t// in\n        tag_135:\n            /* \"#utility.yul\":7020:7049   */\n          tag_136\n            /* \"#utility.yul\":7038:7048   */\n          dup5\n            /* \"#utility.yul\":7020:7049   */\n          tag_33\n          jump\t// in\n        tag_136:\n            /* \"#utility.yul\":7010:7018   */\n          dup2\n            /* \"#utility.yul\":7006:7050   */\n          add\n            /* \"#utility.yul\":7203:7205   */\n          0x20\n            /* \"#utility.yul\":7191:7201   */\n          dup6\n            /* \"#utility.yul\":7188:7206   */\n          lt\n            /* \"#utility.yul\":7185:7234   */\n          iszero\n          tag_137\n          jumpi\n            /* \"#utility.yul\":7224:7232   */\n          dup2\n            /* \"#utility.yul\":7209:7232   */\n          swap1\n          pop\n            /* \"#utility.yul\":7185:7234   */\n        tag_137:\n            /* \"#utility.yul\":7247:7327   */\n          tag_138\n            /* \"#utility.yul\":7303:7325   */\n          tag_139\n            /* \"#utility.yul\":7321:7324   */\n          dup6\n            /* \"#utility.yul\":7303:7325   */\n          tag_33\n          jump\t// in\n        tag_139:\n            /* \"#utility.yul\":7293:7301   */\n          dup4\n            /* \"#utility.yul\":7289:7326   */\n          add\n            /* \"#utility.yul\":7276:7287   */\n          dup3\n            /* \"#utility.yul\":7247:7327   */\n          tag_42\n          jump\t// in\n        tag_138:\n            /* \"#utility.yul\":6906:7337   */\n          pop\n          pop\n            /* \"#utility.yul\":6891:7337   */\n        tag_134:\n            /* \"#utility.yul\":6801:7344   */\n          pop\n          pop\n          pop\n          jump\t// out\n            /* \"#utility.yul\":7350:7467   */\n        tag_44:\n            /* \"#utility.yul\":7404:7412   */\n          0x00\n            /* \"#utility.yul\":7454:7459   */\n          dup3\n            /* \"#utility.yul\":7448:7452   */\n          dup3\n            /* \"#utility.yul\":7444:7460   */\n          shr\n            /* \"#utility.yul\":7423:7460   */\n          swap1\n          pop\n            /* \"#utility.yul\":7350:7467   */\n          swap3\n          swap2\n          pop\n          pop\n          jump\t// out\n            /* \"#utility.yul\":7473:7642   */\n        tag_45:\n            /* \"#utility.yul\":7517:7523   */\n          0x00\n            /* \"#utility.yul\":7550:7601   */\n          tag_142\n            /* \"#utility.yul\":7598:7599   */\n          0x00\n            /* \"#utility.yul\":7594:7600   */\n          not\n            /* \"#utility.yul\":7586:7591   */\n          dup5\n            /* \"#utility.yul\":7583:7584   */\n          0x08\n            /* \"#utility.yul\":7579:7592   */\n          mul\n            /* \"#utility.yul\":7550:7601   */\n          tag_44\n          jump\t// in\n        tag_142:\n            /* \"#utility.yul\":7546:7602   */\n          not\n            /* \"#utility.yul\":7631:7635   */\n          dup1\n            /* \"#utility.yul\":7625:7629   */\n          dup4\n            /* \"#utility.yul\":7621:7636   */\n          and\n            /* \"#utility.yul\":7611:7636   */\n          swap2\n          pop\n            /* \"#utility.yul\":7524:7642   */\n          pop\n            /* \"#utility.yul\":7473:7642   */\n          swap3\n          swap2\n          pop\n          pop\n          jump\t// out\n            /* \"#utility.yul\":7647:7942   */\n        tag_46:\n            /* \"#utility.yul\":7723:7727   */\n          0x00\n            /* \"#utility.yul\":7869:7898   */\n          tag_144\n            /* \"#utility.yul\":7894:7897   */\n          dup4\n            /* \"#utility.yul\":7888:7892   */\n          dup4\n            /* \"#utility.yul\":7869:7898   */\n          tag_45\n          jump\t// in\n        tag_144:\n            /* \"#utility.yul\":7861:7898   */\n          swap2\n          pop\n            /* \"#utility.yul\":7931:7934   */\n          dup3\n            /* \"#utility.yul\":7928:7929   */\n          0x02\n            /* \"#utility.yul\":7924:7935   */\n          mul\n            /* \"#utility.yul\":7918:7922   */\n          dup3\n            /* \"#utility.yul\":7915:7936   */\n          or\n            /* \"#utility.yul\":7907:7936   */\n          swap1\n          pop\n            /* \"#utility.yul\":7647:7942   */\n          swap3\n          swap2\n          pop\n          pop\n          jump\t// out\n            /* \"#utility.yul\":7947:9342   */\n        tag_7:\n            /* \"#utility.yul\":8064:8101   */\n          tag_146\n            /* \"#utility.yul\":8097:8100   */\n          dup3\n            /* \"#utility.yul\":8064:8101   */\n          tag_29\n          jump\t// in\n        tag_146:\n            /* \"#utility.yul\":8166:8184   */\n          0xffffffffffffffff\n            /* \"#utility.yul\":8158:8164   */\n          dup2\n            /* \"#utility.yul\":8155:8185   */\n          gt\n            /* \"#utility.yul\":8152:8208   */\n          iszero\n          tag_147\n          jumpi\n            /* \"#utility.yul\":8188:8206   */\n          tag_148\n          tag_18\n          jump\t// in\n        tag_148:\n            /* \"#utility.yul\":8152:8208   */\n        tag_147:\n            /* \"#utility.yul\":8232:8270   */\n          tag_149\n            /* \"#utility.yul\":8264:8268   */\n          dup3\n            /* \"#utility.yul\":8258:8269   */\n          sload\n            /* \"#utility.yul\":8232:8270   */\n          tag_31\n          jump\t// in\n        tag_149:\n            /* \"#utility.yul\":8317:8384   */\n          tag_150\n            /* \"#utility.yul\":8377:8383   */\n          dup3\n            /* \"#utility.yul\":8369:8375   */\n          dup3\n            /* \"#utility.yul\":8363:8367   */\n          dup6\n            /* \"#utility.yul\":8317:8384   */\n          tag_43\n          jump\t// in\n        tag_150:\n            /* \"#utility.yul\":8411:8412   */\n          0x00\n            /* \"#utility.yul\":8435:8439   */\n          0x20\n            /* \"#utility.yul\":8422:8439   */\n          swap1\n          pop\n            /* \"#utility.yul\":8467:8469   */\n          0x1f\n            /* \"#utility.yul\":8459:8465   */\n          dup4\n            /* \"#utility.yul\":8456:8470   */\n          gt\n            /* \"#utility.yul\":8484:8485   */\n          0x01\n            /* \"#utility.yul\":8479:9097   */\n          dup2\n          eq\n          tag_152\n          jumpi\n            /* \"#utility.yul\":9141:9142   */\n          0x00\n            /* \"#utility.yul\":9158:9164   */\n          dup5\n            /* \"#utility.yul\":9155:9232   */\n          iszero\n          tag_153\n          jumpi\n            /* \"#utility.yul\":9207:9216   */\n          dup3\n            /* \"#utility.yul\":9202:9205   */\n          dup8\n            /* \"#utility.yul\":9198:9217   */\n          add\n            /* \"#utility.yul\":9192:9218   */\n          mload\n            /* \"#utility.yul\":9183:9218   */\n          swap1\n          pop\n            /* \"#utility.yul\":9155:9232   */\n        tag_153:\n            /* \"#utility.yul\":9258:9325   */\n          tag_154\n            /* \"#utility.yul\":9318:9324   */\n          dup6\n            /* \"#utility.yul\":9311:9316   */\n          dup3\n            /* \"#utility.yul\":9258:9325   */\n          tag_46\n          jump\t// in\n        tag_154:\n            /* \"#utility.yul\":9252:9256   */\n          dup7\n            /* \"#utility.yul\":9245:9326   */\n          sstore\n            /* \"#utility.yul\":9114:9336   */\n          pop\n            /* \"#utility.yul\":8449:9336   */\n          jump(tag_151)\n            /* \"#utility.yul\":8479:9097   */\n        tag_152:\n            /* \"#utility.yul\":8531:8535   */\n          0x1f\n            /* \"#utility.yul\":8527:8536   */\n          not\n            /* \"#utility.yul\":8519:8525   */\n          dup5\n            /* \"#utility.yul\":8515:8537   */\n          and\n            /* \"#utility.yul\":8565:8602   */\n          tag_155\n            /* \"#utility.yul\":8597:8601   */\n          dup7\n            /* \"#utility.yul\":8565:8602   */\n          tag_32\n          jump\t// in\n        tag_155:\n            /* \"#utility.yul\":8624:8625   */\n          0x00\n            /* \"#utility.yul\":8638:8846   */\n        tag_156:\n            /* \"#utility.yul\":8652:8659   */\n          dup3\n            /* \"#utility.yul\":8649:8650   */\n          dup2\n            /* \"#utility.yul\":8646:8660   */\n          lt\n            /* \"#utility.yul\":8638:8846   */\n          iszero\n          tag_158\n          jumpi\n            /* \"#utility.yul\":8731:8740   */\n          dup5\n            /* \"#utility.yul\":8726:8729   */\n          dup10\n            /* \"#utility.yul\":8722:8741   */\n          add\n            /* \"#utility.yul\":8716:8742   */\n          mload\n            /* \"#utility.yul\":8708:8714   */\n          dup3\n            /* \"#utility.yul\":8701:8743   */\n          sstore\n            /* \"#utility.yul\":8782:8783   */\n          0x01\n            /* \"#utility.yul\":8774:8780   */\n          dup3\n            /* \"#utility.yul\":8770:8784   */\n          add\n            /* \"#utility.yul\":8760:8784   */\n          swap2\n          pop\n            /* \"#utility.yul\":8829:8831   */\n          0x20\n            /* \"#utility.yul\":8818:8827   */\n          dup6\n            /* \"#utility.yul\":8814:8832   */\n          add\n            /* \"#utility.yul\":8801:8832   */\n          swap5\n          pop\n            /* \"#utility.yul\":8675:8679   */\n          0x20\n            /* \"#utility.yul\":8672:8673   */\n          dup2\n            /* \"#utility.yul\":8668:8680   */\n          add\n            /* \"#utility.yul\":8663:8680   */\n          swap1\n          pop\n            /* \"#utility.yul\":8638:8846   */\n          jump(tag_156)\n        tag_158:\n            /* \"#utility.yul\":8874:8880   */\n          dup7\n            /* \"#utility.yul\":8865:8872   */\n          dup4\n            /* \"#utility.yul\":8862:8881   */\n          lt\n            /* \"#utility.yul\":8859:9038   */\n          iszero\n          tag_159\n          jumpi\n            /* \"#utility.yul\":8932:8941   */\n          dup5\n            /* \"#utility.yul\":8927:8930   */\n          dup10\n            /* \"#utility.yul\":8923:8942   */\n          add\n            /* \"#utility.yul\":8917:8943   */\n          mload\n            /* \"#utility.yul\":8975:9023   */\n          tag_160\n            /* \"#utility.yul\":9017:9021   */\n          0x1f\n            /* \"#utility.yul\":9009:9015   */\n          dup10\n            /* \"#utility.yul\":9005:9022   */\n          and\n            /* \"#utility.yul\":8994:9003   */\n          dup3\n            /* \"#utility.yul\":8975:9023   */\n          tag_45\n          jump\t// in\n        tag_160:\n            /* \"#utility.yul\":8967:8973   */\n          dup4\n            /* \"#utility.yul\":8960:9024   */\n          sstore\n            /* \"#utility.yul\":8882:9038   */\n          pop\n            /* \"#utility.yul\":8859:9038   */\n        tag_159:\n            /* \"#utility.yul\":9084:9085   */\n          0x01\n            /* \"#utility.yul\":9080:9081   */\n          0x02\n            /* \"#utility.yul\":9072:9078   */\n          dup9\n            /* \"#utility.yul\":9068:9082   */\n          mul\n            /* \"#utility.yul\":9064:9086   */\n          add\n            /* \"#utility.yul\":9058:9062   */\n          dup9\n            /* \"#utility.yul\":9051:9087   */\n          sstore\n            /* \"#utility.yul\":8486:9097   */\n          pop\n          pop\n          pop\n            /* \"#utility.yul\":8449:9336   */\n        tag_151:\n          pop\n            /* \"#utility.yul\":8039:9342   */\n          pop\n          pop\n          pop\n            /* \"#utility.yul\":7947:9342   */\n          pop\n          pop\n          jump\t// out\n            /* \"Project.sol\":494:4825  contract Project {... */\n        tag_8:\n          dataSize(sub_0)\n          dup1\n          dataOffset(sub_0)\n          0x00\n          codecopy\n          0x00\n          return\n        stop\n\n        sub_0: assembly {\n                /* \"Project.sol\":494:4825  contract Project {... */\n              mstore(0x40, 0x80)\n              jumpi(tag_1, lt(calldatasize, 0x04))\n              shr(0xe0, calldataload(0x00))\n              dup1\n              0xc174c887\n              gt\n              tag_16\n              jumpi\n              dup1\n              0xeb7b1312\n              gt\n              tag_17\n              jumpi\n              dup1\n              0xeb7b1312\n              eq\n              tag_12\n              jumpi\n              dup1\n              0xfdba0ed9\n              eq\n              tag_13\n              jumpi\n              dup1\n              0xff3a9c7e\n              eq\n              tag_14\n              jumpi\n              dup1\n              0xffde9743\n              eq\n              tag_15\n              jumpi\n              jump(tag_1)\n            tag_17:\n              dup1\n              0xc174c887\n              eq\n              tag_9\n              jumpi\n              dup1\n              0xd63dc661\n              eq\n              tag_10\n              jumpi\n              dup1\n              0xd7d1bbdb\n              eq\n              tag_11\n              jumpi\n              jump(tag_1)\n            tag_16:\n              dup1\n              0x99e0f1eb\n              gt\n              tag_18\n              jumpi\n              dup1\n              0x99e0f1eb\n              eq\n              tag_5\n              jumpi\n              dup1\n              0xa4475ce4\n              eq\n              tag_6\n              jumpi\n              dup1\n              0xa9c31840\n              eq\n              tag_7\n              jumpi\n              dup1\n              0xb7887e1f\n              eq\n              tag_8\n              jumpi\n              jump(tag_1)\n            tag_18:\n              dup1\n              0x496c8ada\n              eq\n              tag_2\n              jumpi\n              dup1\n              0x647c75e2\n              eq\n              tag_3\n              jumpi\n              dup1\n              0x755f047b\n              eq\n              tag_4\n              jumpi\n            tag_1:\n              0x00\n              dup1\n              revert\n                /* \"Project.sol\":942:995  mapping(uint256 => SpendRequest) public spendRequests */\n            tag_2:\n              callvalue\n              dup1\n              iszero\n              tag_19\n              jumpi\n              0x00\n              dup1\n              revert\n            tag_19:\n              pop\n              tag_20\n              0x04\n              dup1\n              calldatasize\n              sub\n              dup2\n              add\n              swap1\n              tag_21\n              swap2\n              swap1\n              tag_22\n              jump\t// in\n            tag_21:\n              tag_23\n              jump\t// in\n            tag_20:\n              mload(0x40)\n              tag_24\n              swap7\n              swap6\n              swap5\n              swap4\n              swap3\n              swap2\n              swap1\n              tag_25\n              jump\t// in\n            tag_24:\n              mload(0x40)\n              dup1\n              swap2\n              sub\n              swap1\n              return\n                /* \"Project.sol\":665:707  mapping(address => bool) public supporters */\n            tag_3:\n              callvalue\n              dup1\n              iszero\n              tag_26\n              jumpi\n              0x00\n              dup1\n              revert\n            tag_26:\n              pop\n              tag_27\n              0x04\n              dup1\n              calldatasize\n              sub\n              dup2\n              add\n              swap1\n              tag_28\n              swap2\n              swap1\n              tag_29\n              jump\t// in\n            tag_28:\n              tag_30\n              jump\t// in\n            tag_27:\n              mload(0x40)\n              tag_31\n              swap2\n              swap1\n              tag_32\n              jump\t// in\n            tag_31:\n              mload(0x40)\n              dup1\n              swap2\n              sub\n              swap1\n              return\n                /* \"Project.sol\":558:590  string public projectDescription */\n            tag_4:\n              callvalue\n              dup1\n              iszero\n              tag_33\n              jumpi\n              0x00\n              dup1\n              revert\n            tag_33:\n              pop\n              tag_34\n              tag_35\n              jump\t// in\n            tag_34:\n              mload(0x40)\n              tag_36\n              swap2\n              swap1\n              tag_37\n              jump\t// in\n            tag_36:\n              mload(0x40)\n              dup1\n              swap2\n              sub\n              swap1\n              return\n                /* \"Project.sol\":517:552  uint256 public minimumSupportAmount */\n            tag_5:\n              callvalue\n              dup1\n              iszero\n              tag_38\n              jumpi\n              0x00\n              dup1\n              revert\n            tag_38:\n              pop\n              tag_39\n              tag_40\n              jump\t// in\n            tag_39:\n              mload(0x40)\n              tag_41\n              swap2\n              swap1\n              tag_42\n              jump\t// in\n            tag_41:\n              mload(0x40)\n              dup1\n              swap2\n              sub\n              swap1\n              return\n                /* \"Project.sol\":596:623  address public projectOwner */\n            tag_6:\n              callvalue\n              dup1\n              iszero\n              tag_43\n              jumpi\n              0x00\n              dup1\n              revert\n            tag_43:\n              pop\n              tag_44\n              tag_45\n              jump\t// in\n            tag_44:\n              mload(0x40)\n              tag_46\n              swap2\n              swap1\n              tag_47\n              jump\t// in\n            tag_46:\n              mload(0x40)\n              dup1\n              swap2\n              sub\n              swap1\n              return\n                /* \"Project.sol\":4143:4248  function getSpendRequestsCount() public view returns (uint256) {... */\n            tag_7:\n              callvalue\n              dup1\n              iszero\n              tag_48\n              jumpi\n              0x00\n              dup1\n              revert\n            tag_48:\n              pop\n              tag_49\n              tag_50\n              jump\t// in\n            tag_49:\n              mload(0x40)\n              tag_51\n              swap2\n              swap1\n              tag_42\n              jump\t// in\n            tag_51:\n              mload(0x40)\n              dup1\n              swap2\n              sub\n              swap1\n              return\n                /* \"Project.sol\":1743:2428  function createSpendRequest(... */\n            tag_8:\n              callvalue\n              dup1\n              iszero\n              tag_52\n              jumpi\n              0x00\n              dup1\n              revert\n            tag_52:\n              pop\n              tag_53\n              0x04\n              dup1\n              calldatasize\n              sub\n              dup2\n              add\n              swap1\n              tag_54\n              swap2\n              swap1\n              tag_55\n              jump\t// in\n            tag_54:\n              tag_56\n              jump\t// in\n            tag_53:\n              stop\n                /* \"Project.sol\":1001:1034  uint256 public spendRequestsCount */\n            tag_9:\n              callvalue\n              dup1\n              iszero\n              tag_57\n              jumpi\n              0x00\n              dup1\n              revert\n            tag_57:\n              pop\n              tag_58\n              tag_59\n              jump\t// in\n            tag_58:\n              mload(0x40)\n              tag_60\n              swap2\n              swap1\n              tag_42\n              jump\t// in\n            tag_60:\n              mload(0x40)\n              dup1\n              swap2\n              sub\n              swap1\n              return\n                /* \"Project.sol\":1520:1737  function fundProject() public payable {... */\n            tag_10:\n              tag_61\n              tag_62\n              jump\t// in\n            tag_61:\n              stop\n                /* \"Project.sol\":2434:2945  function approveRequest(uint256 spendRequestIndex)... */\n            tag_11:\n              callvalue\n              dup1\n              iszero\n              tag_63\n              jumpi\n              0x00\n              dup1\n              revert\n            tag_63:\n              pop\n              tag_64\n              0x04\n              dup1\n              calldatasize\n              sub\n              dup2\n              add\n              swap1\n              tag_65\n              swap2\n              swap1\n              tag_22\n              jump\t// in\n            tag_65:\n              tag_66\n              jump\t// in\n            tag_64:\n              stop\n                /* \"Project.sol\":629:659  uint256 public supportersCount */\n            tag_12:\n              callvalue\n              dup1\n              iszero\n              tag_67\n              jumpi\n              0x00\n              dup1\n              revert\n            tag_67:\n              pop\n              tag_68\n              tag_69\n              jump\t// in\n            tag_68:\n              mload(0x40)\n              tag_70\n              swap2\n              swap1\n              tag_42\n              jump\t// in\n            tag_70:\n              mload(0x40)\n              dup1\n              swap2\n              sub\n              swap1\n              return\n                /* \"Project.sol\":4254:4823  function getSpendingRequest(uint256 spendRequestIndex)... */\n            tag_13:\n              callvalue\n              dup1\n              iszero\n              tag_71\n              jumpi\n              0x00\n              dup1\n              revert\n            tag_71:\n              pop\n              tag_72\n              0x04\n              dup1\n              calldatasize\n              sub\n              dup2\n              add\n              swap1\n              tag_73\n              swap2\n              swap1\n              tag_22\n              jump\t// in\n            tag_73:\n              tag_74\n              jump\t// in\n            tag_72:\n              mload(0x40)\n              tag_75\n              swap6\n              swap5\n              swap4\n              swap3\n              swap2\n              swap1\n              tag_76\n              jump\t// in\n            tag_75:\n              mload(0x40)\n              dup1\n              swap2\n              sub\n              swap1\n              return\n                /* \"Project.sol\":3695:4137  function getProjectDetails()... */\n            tag_14:\n              callvalue\n              dup1\n              iszero\n              tag_77\n              jumpi\n              0x00\n              dup1\n              revert\n            tag_77:\n              pop\n              tag_78\n              tag_79\n              jump\t// in\n            tag_78:\n              mload(0x40)\n              tag_80\n              swap7\n              swap6\n              swap5\n              swap4\n              swap3\n              swap2\n              swap1\n              tag_81\n              jump\t// in\n            tag_80:\n              mload(0x40)\n              dup1\n              swap2\n              sub\n              swap1\n              return\n                /* \"Project.sol\":2985:3689  function disbursePayment(uint256 spendRequestIndex)... */\n            tag_15:\n              callvalue\n              dup1\n              iszero\n              tag_82\n              jumpi\n              0x00\n              dup1\n              revert\n            tag_82:\n              pop\n              tag_83\n              0x04\n              dup1\n              calldatasize\n              sub\n              dup2\n              add\n              swap1\n              tag_84\n              swap2\n              swap1\n              tag_22\n              jump\t// in\n            tag_84:\n              tag_85\n              jump\t// in\n            tag_83:\n              stop\n                /* \"Project.sol\":942:995  mapping(uint256 => SpendRequest) public spendRequests */\n            tag_23:\n              mstore(0x20, 0x05)\n              dup1\n              0x00\n              mstore\n              keccak256(0x00, 0x40)\n              0x00\n              swap2\n              pop\n              swap1\n              pop\n              dup1\n              0x00\n              add\n              dup1\n              sload\n              tag_86\n              swap1\n              tag_87\n              jump\t// in\n            tag_86:\n              dup1\n              0x1f\n              add\n              0x20\n              dup1\n              swap2\n              div\n              mul\n              0x20\n              add\n              mload(0x40)\n              swap1\n              dup2\n              add\n              0x40\n              mstore\n              dup1\n              swap3\n              swap2\n              swap1\n              dup2\n              dup2\n              mstore\n              0x20\n              add\n              dup3\n              dup1\n              sload\n              tag_88\n              swap1\n              tag_87\n              jump\t// in\n            tag_88:\n              dup1\n              iszero\n              tag_89\n              jumpi\n              dup1\n              0x1f\n              lt\n              tag_90\n              jumpi\n              0x0100\n              dup1\n              dup4\n              sload\n              div\n              mul\n              dup4\n              mstore\n              swap2\n              0x20\n              add\n              swap2\n              jump(tag_89)\n            tag_90:\n              dup3\n              add\n              swap2\n              swap1\n              0x00\n              mstore\n              keccak256(0x00, 0x20)\n              swap1\n            tag_91:\n              dup2\n              sload\n              dup2\n              mstore\n              swap1\n              0x01\n              add\n              swap1\n              0x20\n              add\n              dup1\n              dup4\n              gt\n              tag_91\n              jumpi\n              dup3\n              swap1\n              sub\n              0x1f\n              and\n              dup3\n              add\n              swap2\n            tag_89:\n              pop\n              pop\n              pop\n              pop\n              pop\n              swap1\n              dup1\n              0x01\n              add\n              sload\n              swap1\n              dup1\n              0x02\n              add\n              0x00\n              swap1\n              sload\n              swap1\n              0x0100\n              exp\n              swap1\n              div\n              0xffffffffffffffffffffffffffffffffffffffff\n              and\n              swap1\n              dup1\n              0x02\n              add\n              0x14\n              swap1\n              sload\n              swap1\n              0x0100\n              exp\n              swap1\n              div\n              0xff\n              and\n              swap1\n              dup1\n              0x03\n              add\n              sload\n              swap1\n              dup1\n              0x05\n              add\n              0x00\n              swap1\n              sload\n              swap1\n              0x0100\n              exp\n              swap1\n              div\n              0xff\n              and\n              swap1\n              pop\n              dup7\n              jump\t// out\n                /* \"Project.sol\":665:707  mapping(address => bool) public supporters */\n            tag_30:\n              mstore(0x20, 0x04)\n              dup1\n              0x00\n              mstore\n              keccak256(0x00, 0x40)\n              0x00\n              swap2\n              pop\n              sload\n              swap1\n              0x0100\n              exp\n              swap1\n              div\n              0xff\n              and\n              dup2\n              jump\t// out\n                /* \"Project.sol\":558:590  string public projectDescription */\n            tag_35:\n              0x01\n              dup1\n              sload\n              tag_92\n              swap1\n              tag_87\n              jump\t// in\n            tag_92:\n              dup1\n              0x1f\n              add\n              0x20\n              dup1\n              swap2\n              div\n              mul\n              0x20\n              add\n              mload(0x40)\n              swap1\n              dup2\n              add\n              0x40\n              mstore\n              dup1\n              swap3\n              swap2\n              swap1\n              dup2\n              dup2\n              mstore\n              0x20\n              add\n              dup3\n              dup1\n              sload\n              tag_93\n              swap1\n              tag_87\n              jump\t// in\n            tag_93:\n              dup1\n              iszero\n              tag_94\n              jumpi\n              dup1\n              0x1f\n              lt\n              tag_95\n              jumpi\n              0x0100\n              dup1\n              dup4\n              sload\n              div\n              mul\n              dup4\n              mstore\n              swap2\n              0x20\n              add\n              swap2\n              jump(tag_94)\n            tag_95:\n              dup3\n              add\n              swap2\n              swap1\n              0x00\n              mstore\n              keccak256(0x00, 0x20)\n              swap1\n            tag_96:\n              dup2\n              sload\n              dup2\n              mstore\n              swap1\n              0x01\n              add\n              swap1\n              0x20\n              add\n              dup1\n              dup4\n              gt\n              tag_96\n              jumpi\n              dup3\n              swap1\n              sub\n              0x1f\n              and\n              dup3\n              add\n              swap2\n            tag_94:\n              pop\n              pop\n              pop\n              pop\n              pop\n              dup2\n              jump\t// out\n                /* \"Project.sol\":517:552  uint256 public minimumSupportAmount */\n            tag_40:\n              sload(0x00)\n              dup2\n              jump\t// out\n                /* \"Project.sol\":596:623  address public projectOwner */\n            tag_45:\n              0x02\n              0x00\n              swap1\n              sload\n              swap1\n              0x0100\n              exp\n              swap1\n              div\n              0xffffffffffffffffffffffffffffffffffffffff\n              and\n              dup2\n              jump\t// out\n                /* \"Project.sol\":4143:4248  function getSpendRequestsCount() public view returns (uint256) {... */\n            tag_50:\n                /* \"Project.sol\":4197:4204  uint256 */\n              0x00\n                /* \"Project.sol\":4223:4241  spendRequestsCount */\n              sload(0x06)\n                /* \"Project.sol\":4216:4241  return spendRequestsCount */\n              swap1\n              pop\n                /* \"Project.sol\":4143:4248  function getSpendRequestsCount() public view returns (uint256) {... */\n              swap1\n              jump\t// out\n                /* \"Project.sol\":1743:2428  function createSpendRequest(... */\n            tag_56:\n                /* \"Project.sol\":1338:1350  projectOwner */\n              0x02\n              0x00\n              swap1\n              sload\n              swap1\n              0x0100\n              exp\n              swap1\n              div\n              0xffffffffffffffffffffffffffffffffffffffff\n              and\n                /* \"Project.sol\":1324:1350  msg.sender == projectOwner */\n              0xffffffffffffffffffffffffffffffffffffffff\n              and\n                /* \"Project.sol\":1324:1334  msg.sender */\n              caller\n                /* \"Project.sol\":1324:1350  msg.sender == projectOwner */\n              0xffffffffffffffffffffffffffffffffffffffff\n              and\n              eq\n                /* \"Project.sol\":1316:1351  require(msg.sender == projectOwner) */\n              tag_99\n              jumpi\n              0x00\n              dup1\n              revert\n            tag_99:\n                /* \"Project.sol\":1914:1935  address(this).balance */\n              selfbalance\n                /* \"Project.sol\":1905:1910  value */\n              dup3\n                /* \"Project.sol\":1905:1935  value <= address(this).balance */\n              gt\n              iszero\n                /* \"Project.sol\":1897:1936  require(value <= address(this).balance) */\n              tag_101\n              jumpi\n              0x00\n              dup1\n              revert\n            tag_101:\n                /* \"Project.sol\":2037:2073  SpendRequest storage newSpendRequest */\n              0x00\n                /* \"Project.sol\":2076:2089  spendRequests */\n              0x05\n                /* \"Project.sol\":2076:2131  spendRequests[... */\n              0x00\n                /* \"Project.sol\":2103:2121  spendRequestsCount */\n              sload(0x06)\n                /* \"Project.sol\":2076:2131  spendRequests[... */\n              dup2\n              mstore\n              0x20\n              add\n              swap1\n              dup2\n              mstore\n              0x20\n              add\n              0x00\n              keccak256\n                /* \"Project.sol\":2037:2131  SpendRequest storage newSpendRequest = spendRequests[... */\n              swap1\n              pop\n                /* \"Project.sol\":2172:2183  description */\n              dup4\n                /* \"Project.sol\":2142:2157  newSpendRequest */\n              dup2\n                /* \"Project.sol\":2142:2169  newSpendRequest.description */\n              0x00\n              add\n                /* \"Project.sol\":2142:2183  newSpendRequest.description = description */\n              swap1\n              dup2\n              tag_102\n              swap2\n              swap1\n              tag_103\n              jump\t// in\n            tag_102:\n              pop\n                /* \"Project.sol\":2217:2222  value */\n              dup3\n                /* \"Project.sol\":2193:2208  newSpendRequest */\n              dup2\n                /* \"Project.sol\":2193:2214  newSpendRequest.value */\n              0x01\n              add\n                /* \"Project.sol\":2193:2222  newSpendRequest.value = value */\n              dup2\n              swap1\n              sstore\n              pop\n                /* \"Project.sol\":2257:2263  vendor */\n              dup2\n                /* \"Project.sol\":2232:2247  newSpendRequest */\n              dup2\n                /* \"Project.sol\":2232:2254  newSpendRequest.vendor */\n              0x02\n              add\n              0x00\n                /* \"Project.sol\":2232:2263  newSpendRequest.vendor = vendor */\n              0x0100\n              exp\n              dup2\n              sload\n              dup2\n              0xffffffffffffffffffffffffffffffffffffffff\n              mul\n              not\n              and\n              swap1\n              dup4\n              0xffffffffffffffffffffffffffffffffffffffff\n              and\n              mul\n              or\n              swap1\n              sstore\n              pop\n                /* \"Project.sol\":2303:2308  false */\n              0x00\n                /* \"Project.sol\":2273:2288  newSpendRequest */\n              dup2\n                /* \"Project.sol\":2273:2300  newSpendRequest.isDispensed */\n              0x02\n              add\n              0x14\n                /* \"Project.sol\":2273:2308  newSpendRequest.isDispensed = false */\n              0x0100\n              exp\n              dup2\n              sload\n              dup2\n              0xff\n              mul\n              not\n              and\n              swap1\n              dup4\n              iszero\n              iszero\n              mul\n              or\n              swap1\n              sstore\n              pop\n                /* \"Project.sol\":2343:2347  true */\n              0x01\n                /* \"Project.sol\":2318:2333  newSpendRequest */\n              dup2\n                /* \"Project.sol\":2318:2340  newSpendRequest.exists */\n              0x05\n              add\n              0x00\n                /* \"Project.sol\":2318:2347  newSpendRequest.exists = true */\n              0x0100\n              exp\n              dup2\n              sload\n              dup2\n              0xff\n              mul\n              not\n              and\n              swap1\n              dup4\n              iszero\n              iszero\n              mul\n              or\n              swap1\n              sstore\n              pop\n                /* \"Project.sol\":2389:2390  0 */\n              0x00\n                /* \"Project.sol\":2357:2372  newSpendRequest */\n              dup2\n                /* \"Project.sol\":2357:2386  newSpendRequest.approvalCount */\n              0x03\n              add\n                /* \"Project.sol\":2357:2390  newSpendRequest.approvalCount = 0 */\n              dup2\n              swap1\n              sstore\n              pop\n                /* \"Project.sol\":2401:2419  spendRequestsCount */\n              0x06\n              0x00\n                /* \"Project.sol\":2401:2421  spendRequestsCount++ */\n              dup2\n              sload\n              dup1\n              swap3\n              swap2\n              swap1\n              tag_104\n              swap1\n              tag_105\n              jump\t// in\n            tag_104:\n              swap2\n              swap1\n              pop\n              sstore\n              pop\n                /* \"Project.sol\":1887:2428  {... */\n              pop\n                /* \"Project.sol\":1743:2428  function createSpendRequest(... */\n              pop\n              pop\n              pop\n              jump\t// out\n                /* \"Project.sol\":1001:1034  uint256 public spendRequestsCount */\n            tag_59:\n              sload(0x06)\n              dup2\n              jump\t// out\n                /* \"Project.sol\":1520:1737  function fundProject() public payable {... */\n            tag_62:\n                /* \"Project.sol\":1588:1608  minimumSupportAmount */\n              sload(0x00)\n                /* \"Project.sol\":1576:1585  msg.value */\n              callvalue\n                /* \"Project.sol\":1576:1608  msg.value > minimumSupportAmount */\n              gt\n                /* \"Project.sol\":1568:1609  require(msg.value > minimumSupportAmount) */\n              tag_107\n              jumpi\n              0x00\n              dup1\n              revert\n            tag_107:\n                /* \"Project.sol\":1625:1635  supporters */\n              0x04\n                /* \"Project.sol\":1625:1647  supporters[msg.sender] */\n              0x00\n                /* \"Project.sol\":1636:1646  msg.sender */\n              caller\n                /* \"Project.sol\":1625:1647  supporters[msg.sender] */\n              0xffffffffffffffffffffffffffffffffffffffff\n              and\n              0xffffffffffffffffffffffffffffffffffffffff\n              and\n              dup2\n              mstore\n              0x20\n              add\n              swap1\n              dup2\n              mstore\n              0x20\n              add\n              0x00\n              keccak256\n              0x00\n              swap1\n              sload\n              swap1\n              0x0100\n              exp\n              swap1\n              div\n              0xff\n              and\n                /* \"Project.sol\":1620:1691  if (!supporters[msg.sender]) {... */\n              tag_108\n              jumpi\n                /* \"Project.sol\":1663:1678  supportersCount */\n              0x03\n              0x00\n                /* \"Project.sol\":1663:1680  supportersCount++ */\n              dup2\n              sload\n              dup1\n              swap3\n              swap2\n              swap1\n              tag_109\n              swap1\n              tag_105\n              jump\t// in\n            tag_109:\n              swap2\n              swap1\n              pop\n              sstore\n              pop\n                /* \"Project.sol\":1620:1691  if (!supporters[msg.sender]) {... */\n            tag_108:\n                /* \"Project.sol\":1726:1730  true */\n              0x01\n                /* \"Project.sol\":1701:1711  supporters */\n              0x04\n                /* \"Project.sol\":1701:1723  supporters[msg.sender] */\n              0x00\n                /* \"Project.sol\":1712:1722  msg.sender */\n              caller\n                /* \"Project.sol\":1701:1723  supporters[msg.sender] */\n              0xffffffffffffffffffffffffffffffffffffffff\n              and\n              0xffffffffffffffffffffffffffffffffffffffff\n              and\n              dup2\n              mstore\n              0x20\n              add\n              swap1\n              dup2\n              mstore\n              0x20\n              add\n              0x00\n              keccak256\n              0x00\n                /* \"Project.sol\":1701:1730  supporters[msg.sender] = true */\n              0x0100\n              exp\n              dup2\n              sload\n              dup2\n              0xff\n              mul\n              not\n              and\n              swap1\n              dup4\n              iszero\n              iszero\n              mul\n              or\n              swap1\n              sstore\n              pop\n                /* \"Project.sol\":1520:1737  function fundProject() public payable {... */\n              jump\t// out\n                /* \"Project.sol\":2434:2945  function approveRequest(uint256 spendRequestIndex)... */\n            tag_66:\n                /* \"Project.sol\":2535:2552  spendRequestIndex */\n              dup1\n                /* \"Project.sol\":1456:1469  spendRequests */\n              0x05\n                /* \"Project.sol\":1456:1488  spendRequests[spendRequestIndex] */\n              0x00\n                /* \"Project.sol\":1470:1487  spendRequestIndex */\n              dup3\n                /* \"Project.sol\":1456:1488  spendRequests[spendRequestIndex] */\n              dup2\n              mstore\n              0x20\n              add\n              swap1\n              dup2\n              mstore\n              0x20\n              add\n              0x00\n              keccak256\n                /* \"Project.sol\":1456:1495  spendRequests[spendRequestIndex].exists */\n              0x05\n              add\n              0x00\n              swap1\n              sload\n              swap1\n              0x0100\n              exp\n              swap1\n              div\n              0xff\n              and\n                /* \"Project.sol\":1448:1496  require(spendRequests[spendRequestIndex].exists) */\n              tag_111\n              jumpi\n              0x00\n              dup1\n              revert\n            tag_111:\n                /* \"Project.sol\":2568:2601  SpendRequest storage spendRequest */\n              0x00\n                /* \"Project.sol\":2604:2617  spendRequests */\n              0x05\n                /* \"Project.sol\":2604:2636  spendRequests[spendRequestIndex] */\n              0x00\n                /* \"Project.sol\":2618:2635  spendRequestIndex */\n              dup5\n                /* \"Project.sol\":2604:2636  spendRequests[spendRequestIndex] */\n              dup2\n              mstore\n              0x20\n              add\n              swap1\n              dup2\n              mstore\n              0x20\n              add\n              0x00\n              keccak256\n                /* \"Project.sol\":2568:2636  SpendRequest storage spendRequest = spendRequests[spendRequestIndex] */\n              swap1\n              pop\n                /* \"Project.sol\":2655:2665  supporters */\n              0x04\n                /* \"Project.sol\":2655:2677  supporters[msg.sender] */\n              0x00\n                /* \"Project.sol\":2666:2676  msg.sender */\n              caller\n                /* \"Project.sol\":2655:2677  supporters[msg.sender] */\n              0xffffffffffffffffffffffffffffffffffffffff\n              and\n              0xffffffffffffffffffffffffffffffffffffffff\n              and\n              dup2\n              mstore\n              0x20\n              add\n              swap1\n              dup2\n              mstore\n              0x20\n              add\n              0x00\n              keccak256\n              0x00\n              swap1\n              sload\n              swap1\n              0x0100\n              exp\n              swap1\n              div\n              0xff\n              and\n                /* \"Project.sol\":2647:2678  require(supporters[msg.sender]) */\n              tag_113\n              jumpi\n              0x00\n              dup1\n              revert\n            tag_113:\n                /* \"Project.sol\":2756:2768  spendRequest */\n              dup1\n                /* \"Project.sol\":2756:2778  spendRequest.approvals */\n              0x04\n              add\n                /* \"Project.sol\":2756:2790  spendRequest.approvals[msg.sender] */\n              0x00\n                /* \"Project.sol\":2779:2789  msg.sender */\n              caller\n                /* \"Project.sol\":2756:2790  spendRequest.approvals[msg.sender] */\n              0xffffffffffffffffffffffffffffffffffffffff\n              and\n              0xffffffffffffffffffffffffffffffffffffffff\n              and\n              dup2\n              mstore\n              0x20\n              add\n              swap1\n              dup2\n              mstore\n              0x20\n              add\n              0x00\n              keccak256\n              0x00\n              swap1\n              sload\n              swap1\n              0x0100\n              exp\n              swap1\n              div\n              0xff\n              and\n                /* \"Project.sol\":2755:2790  !spendRequest.approvals[msg.sender] */\n              iszero\n                /* \"Project.sol\":2747:2791  require(!spendRequest.approvals[msg.sender]) */\n              tag_114\n              jumpi\n              0x00\n              dup1\n              revert\n            tag_114:\n                /* \"Project.sol\":2896:2900  true */\n              0x01\n                /* \"Project.sol\":2859:2871  spendRequest */\n              dup2\n                /* \"Project.sol\":2859:2881  spendRequest.approvals */\n              0x04\n              add\n                /* \"Project.sol\":2859:2893  spendRequest.approvals[msg.sender] */\n              0x00\n                /* \"Project.sol\":2882:2892  msg.sender */\n              caller\n                /* \"Project.sol\":2859:2893  spendRequest.approvals[msg.sender] */\n              0xffffffffffffffffffffffffffffffffffffffff\n              and\n              0xffffffffffffffffffffffffffffffffffffffff\n              and\n              dup2\n              mstore\n              0x20\n              add\n              swap1\n              dup2\n              mstore\n              0x20\n              add\n              0x00\n              keccak256\n              0x00\n                /* \"Project.sol\":2859:2900  spendRequest.approvals[msg.sender] = true */\n              0x0100\n              exp\n              dup2\n              sload\n              dup2\n              0xff\n              mul\n              not\n              and\n              swap1\n              dup4\n              iszero\n              iszero\n              mul\n              or\n              swap1\n              sstore\n              pop\n                /* \"Project.sol\":2910:2922  spendRequest */\n              dup1\n                /* \"Project.sol\":2910:2936  spendRequest.approvalCount */\n              0x03\n              add\n              0x00\n                /* \"Project.sol\":2910:2938  spendRequest.approvalCount++ */\n              dup2\n              sload\n              dup1\n              swap3\n              swap2\n              swap1\n              tag_115\n              swap1\n              tag_105\n              jump\t// in\n            tag_115:\n              swap2\n              swap1\n              pop\n              sstore\n              pop\n                /* \"Project.sol\":2558:2945  {... */\n              pop\n                /* \"Project.sol\":2434:2945  function approveRequest(uint256 spendRequestIndex)... */\n              pop\n              pop\n              jump\t// out\n                /* \"Project.sol\":629:659  uint256 public supportersCount */\n            tag_69:\n              sload(0x03)\n              dup2\n              jump\t// out\n                /* \"Project.sol\":4254:4823  function getSpendingRequest(uint256 spendRequestIndex)... */\n            tag_74:\n                /* \"Project.sol\":4421:4434  string memory */\n              0x60\n                /* \"Project.sol\":4448:4455  uint256 */\n              0x00\n                /* \"Project.sol\":4469:4476  address */\n              dup1\n                /* \"Project.sol\":4490:4494  bool */\n              0x00\n                /* \"Project.sol\":4508:4515  uint256 */\n              dup1\n                /* \"Project.sol\":4372:4389  spendRequestIndex */\n              dup6\n                /* \"Project.sol\":1456:1469  spendRequests */\n              0x05\n                /* \"Project.sol\":1456:1488  spendRequests[spendRequestIndex] */\n              0x00\n                /* \"Project.sol\":1470:1487  spendRequestIndex */\n              dup3\n                /* \"Project.sol\":1456:1488  spendRequests[spendRequestIndex] */\n              dup2\n              mstore\n              0x20\n              add\n              swap1\n              dup2\n              mstore\n              0x20\n              add\n              0x00\n              keccak256\n                /* \"Project.sol\":1456:1495  spendRequests[spendRequestIndex].exists */\n              0x05\n              add\n              0x00\n              swap1\n              sload\n              swap1\n              0x0100\n              exp\n              swap1\n              div\n              0xff\n              and\n                /* \"Project.sol\":1448:1496  require(spendRequests[spendRequestIndex].exists) */\n              tag_117\n              jumpi\n              0x00\n              dup1\n              revert\n            tag_117:\n                /* \"Project.sol\":4540:4573  SpendRequest storage spendRequest */\n              0x00\n                /* \"Project.sol\":4576:4589  spendRequests */\n              0x05\n                /* \"Project.sol\":4576:4608  spendRequests[spendRequestIndex] */\n              0x00\n                /* \"Project.sol\":4590:4607  spendRequestIndex */\n              dup10\n                /* \"Project.sol\":4576:4608  spendRequests[spendRequestIndex] */\n              dup2\n              mstore\n              0x20\n              add\n              swap1\n              dup2\n              mstore\n              0x20\n              add\n              0x00\n              keccak256\n                /* \"Project.sol\":4540:4608  SpendRequest storage spendRequest = spendRequests[spendRequestIndex] */\n              swap1\n              pop\n                /* \"Project.sol\":4639:4651  spendRequest */\n              dup1\n                /* \"Project.sol\":4639:4663  spendRequest.description */\n              0x00\n              add\n                /* \"Project.sol\":4677:4689  spendRequest */\n              dup2\n                /* \"Project.sol\":4677:4695  spendRequest.value */\n              0x01\n              add\n              sload\n                /* \"Project.sol\":4709:4721  spendRequest */\n              dup3\n                /* \"Project.sol\":4709:4728  spendRequest.vendor */\n              0x02\n              add\n              0x00\n              swap1\n              sload\n              swap1\n              0x0100\n              exp\n              swap1\n              div\n              0xffffffffffffffffffffffffffffffffffffffff\n              and\n                /* \"Project.sol\":4742:4754  spendRequest */\n              dup4\n                /* \"Project.sol\":4742:4766  spendRequest.isDispensed */\n              0x02\n              add\n              0x14\n              swap1\n              sload\n              swap1\n              0x0100\n              exp\n              swap1\n              div\n              0xff\n              and\n                /* \"Project.sol\":4780:4792  spendRequest */\n              dup5\n                /* \"Project.sol\":4780:4806  spendRequest.approvalCount */\n              0x03\n              add\n              sload\n                /* \"Project.sol\":4618:4816  return (... */\n              dup5\n              dup1\n              sload\n              tag_119\n              swap1\n              tag_87\n              jump\t// in\n            tag_119:\n              dup1\n              0x1f\n              add\n              0x20\n              dup1\n              swap2\n              div\n              mul\n              0x20\n              add\n              mload(0x40)\n              swap1\n              dup2\n              add\n              0x40\n              mstore\n              dup1\n              swap3\n              swap2\n              swap1\n              dup2\n              dup2\n              mstore\n              0x20\n              add\n              dup3\n              dup1\n              sload\n              tag_120\n              swap1\n              tag_87\n              jump\t// in\n            tag_120:\n              dup1\n              iszero\n              tag_121\n              jumpi\n              dup1\n              0x1f\n              lt\n              tag_122\n              jumpi\n              0x0100\n              dup1\n              dup4\n              sload\n              div\n              mul\n              dup4\n              mstore\n              swap2\n              0x20\n              add\n              swap2\n              jump(tag_121)\n            tag_122:\n              dup3\n              add\n              swap2\n              swap1\n              0x00\n              mstore\n              keccak256(0x00, 0x20)\n              swap1\n            tag_123:\n              dup2\n              sload\n              dup2\n              mstore\n              swap1\n              0x01\n              add\n              swap1\n              0x20\n              add\n              dup1\n              dup4\n              gt\n              tag_123\n              jumpi\n              dup3\n              swap1\n              sub\n              0x1f\n              and\n              dup3\n              add\n              swap2\n            tag_121:\n              pop\n              pop\n              pop\n              pop\n              pop\n              swap5\n              pop\n              swap7\n              pop\n              swap7\n              pop\n              swap7\n              pop\n              swap7\n              pop\n              swap7\n              pop\n              pop\n                /* \"Project.sol\":4254:4823  function getSpendingRequest(uint256 spendRequestIndex)... */\n              pop\n              swap2\n              swap4\n              swap6\n              swap1\n              swap3\n              swap5\n              pop\n              jump\t// out\n                /* \"Project.sol\":3695:4137  function getProjectDetails()... */\n            tag_79:\n                /* \"Project.sol\":3782:3789  uint256 */\n              0x00\n                /* \"Project.sol\":3803:3810  uint256 */\n              dup1\n                /* \"Project.sol\":3824:3831  uint256 */\n              0x00\n                /* \"Project.sol\":3845:3852  uint256 */\n              dup1\n                /* \"Project.sol\":3866:3873  address */\n              0x00\n                /* \"Project.sol\":3887:3900  string memory */\n              0x60\n                /* \"Project.sol\":3946:3966  minimumSupportAmount */\n              sload(0x00)\n                /* \"Project.sol\":3980:4001  address(this).balance */\n              selfbalance\n                /* \"Project.sol\":4015:4033  spendRequestsCount */\n              sload(0x06)\n                /* \"Project.sol\":4047:4062  supportersCount */\n              sload(0x03)\n                /* \"Project.sol\":4076:4088  projectOwner */\n              0x02\n              0x00\n              swap1\n              sload\n              swap1\n              0x0100\n              exp\n              swap1\n              div\n              0xffffffffffffffffffffffffffffffffffffffff\n              and\n                /* \"Project.sol\":4102:4120  projectDescription */\n              0x01\n                /* \"Project.sol\":3925:4130  return (... */\n              dup1\n              dup1\n              sload\n              tag_125\n              swap1\n              tag_87\n              jump\t// in\n            tag_125:\n              dup1\n              0x1f\n              add\n              0x20\n              dup1\n              swap2\n              div\n              mul\n              0x20\n              add\n              mload(0x40)\n              swap1\n              dup2\n              add\n              0x40\n              mstore\n              dup1\n              swap3\n              swap2\n              swap1\n              dup2\n              dup2\n              mstore\n              0x20\n              add\n              dup3\n              dup1\n              sload\n              tag_126\n              swap1\n              tag_87\n              jump\t// in\n            tag_126:\n              dup1\n              iszero\n              tag_127\n              jumpi\n              dup1\n              0x1f\n              lt\n              tag_128\n              jumpi\n              0x0100\n              dup1\n              dup4\n              sload\n              div\n              mul\n              dup4\n              mstore\n              swap2\n              0x20\n              add\n              swap2\n              jump(tag_127)\n            tag_128:\n              dup3\n              add\n              swap2\n              swap1\n              0x00\n              mstore\n              keccak256(0x00, 0x20)\n              swap1\n            tag_129:\n              dup2\n              sload\n              dup2\n              mstore\n              swap1\n              0x01\n              add\n              swap1\n              0x20\n              add\n              dup1\n              dup4\n              gt\n              tag_129\n              jumpi\n              dup3\n              swap1\n              sub\n              0x1f\n              and\n              dup3\n              add\n              swap2\n            tag_127:\n              pop\n              pop\n              pop\n              pop\n              pop\n              swap1\n              pop\n              swap6\n              pop\n              swap6\n              pop\n              swap6\n              pop\n              swap6\n              pop\n              swap6\n              pop\n              swap6\n              pop\n                /* \"Project.sol\":3695:4137  function getProjectDetails()... */\n              swap1\n              swap2\n              swap3\n              swap4\n              swap5\n              swap6\n              jump\t// out\n                /* \"Project.sol\":2985:3689  function disbursePayment(uint256 spendRequestIndex)... */\n            tag_85:\n                /* \"Project.sol\":1338:1350  projectOwner */\n              0x02\n              0x00\n              swap1\n              sload\n              swap1\n              0x0100\n              exp\n              swap1\n              div\n              0xffffffffffffffffffffffffffffffffffffffff\n              and\n                /* \"Project.sol\":1324:1350  msg.sender == projectOwner */\n              0xffffffffffffffffffffffffffffffffffffffff\n              and\n                /* \"Project.sol\":1324:1334  msg.sender */\n              caller\n                /* \"Project.sol\":1324:1350  msg.sender == projectOwner */\n              0xffffffffffffffffffffffffffffffffffffffff\n              and\n              eq\n                /* \"Project.sol\":1316:1351  require(msg.sender == projectOwner) */\n              tag_131\n              jumpi\n              0x00\n              dup1\n              revert\n            tag_131:\n                /* \"Project.sol\":3241:3274  SpendRequest storage spendRequest */\n              0x00\n                /* \"Project.sol\":3277:3290  spendRequests */\n              0x05\n                /* \"Project.sol\":3277:3309  spendRequests[spendRequestIndex] */\n              0x00\n                /* \"Project.sol\":3291:3308  spendRequestIndex */\n              dup4\n                /* \"Project.sol\":3277:3309  spendRequests[spendRequestIndex] */\n              dup2\n              mstore\n              0x20\n              add\n              swap1\n              dup2\n              mstore\n              0x20\n              add\n              0x00\n              keccak256\n                /* \"Project.sol\":3241:3309  SpendRequest storage spendRequest = spendRequests[spendRequestIndex] */\n              swap1\n              pop\n                /* \"Project.sol\":3375:3376  2 */\n              0x02\n                /* \"Project.sol\":3357:3372  supportersCount */\n              sload(0x03)\n                /* \"Project.sol\":3357:3376  supportersCount / 2 */\n              tag_133\n              swap2\n              swap1\n              tag_134\n              jump\t// in\n            tag_133:\n                /* \"Project.sol\":3327:3339  spendRequest */\n              dup2\n                /* \"Project.sol\":3327:3353  spendRequest.approvalCount */\n              0x03\n              add\n              sload\n                /* \"Project.sol\":3327:3377  spendRequest.approvalCount > (supportersCount / 2) */\n              gt\n                /* \"Project.sol\":3319:3378  require(spendRequest.approvalCount > (supportersCount / 2)) */\n              tag_135\n              jumpi\n              0x00\n              dup1\n              revert\n            tag_135:\n                /* \"Project.sol\":3458:3470  spendRequest */\n              dup1\n                /* \"Project.sol\":3458:3482  spendRequest.isDispensed */\n              0x02\n              add\n              0x14\n              swap1\n              sload\n              swap1\n              0x0100\n              exp\n              swap1\n              div\n              0xff\n              and\n                /* \"Project.sol\":3457:3482  !spendRequest.isDispensed */\n              iszero\n                /* \"Project.sol\":3449:3483  require(!spendRequest.isDispensed) */\n              tag_136\n              jumpi\n              0x00\n              dup1\n              revert\n            tag_136:\n                /* \"Project.sol\":3565:3577  spendRequest */\n              dup1\n                /* \"Project.sol\":3565:3584  spendRequest.vendor */\n              0x02\n              add\n              0x00\n              swap1\n              sload\n              swap1\n              0x0100\n              exp\n              swap1\n              div\n              0xffffffffffffffffffffffffffffffffffffffff\n              and\n                /* \"Project.sol\":3557:3594  payable(spendRequest.vendor).transfer */\n              0xffffffffffffffffffffffffffffffffffffffff\n              and\n                /* \"Project.sol\":3557:3614  payable(spendRequest.vendor).transfer(spendRequest.value) */\n              0x08fc\n                /* \"Project.sol\":3595:3607  spendRequest */\n              dup3\n                /* \"Project.sol\":3595:3613  spendRequest.value */\n              0x01\n              add\n              sload\n                /* \"Project.sol\":3557:3614  payable(spendRequest.vendor).transfer(spendRequest.value) */\n              swap1\n              dup2\n              iszero\n              mul\n              swap1\n              mload(0x40)\n              0x00\n              mload(0x40)\n              dup1\n              dup4\n              sub\n              dup2\n              dup6\n              dup9\n              dup9\n              call\n              swap4\n              pop\n              pop\n              pop\n              pop\n              iszero\n              dup1\n              iszero\n              tag_138\n              jumpi\n              returndatasize\n              0x00\n              dup1\n              returndatacopy\n              revert(0x00, returndatasize)\n            tag_138:\n              pop\n                /* \"Project.sol\":3651:3655  true */\n              0x01\n                /* \"Project.sol\":3624:3636  spendRequest */\n              dup2\n                /* \"Project.sol\":3624:3648  spendRequest.isDispensed */\n              0x02\n              add\n              0x14\n                /* \"Project.sol\":3624:3655  spendRequest.isDispensed = true */\n              0x0100\n              exp\n              dup2\n              sload\n              dup2\n              0xff\n              mul\n              not\n              and\n              swap1\n              dup4\n              iszero\n              iszero\n              mul\n              or\n              swap1\n              sstore\n              pop\n                /* \"Project.sol\":3085:3689  {... */\n              pop\n                /* \"Project.sol\":2985:3689  function disbursePayment(uint256 spendRequestIndex)... */\n              pop\n              jump\t// out\n                /* \"#utility.yul\":7:82   */\n            tag_139:\n                /* \"#utility.yul\":40:46   */\n              0x00\n                /* \"#utility.yul\":73:75   */\n              0x40\n                /* \"#utility.yul\":67:76   */\n              mload\n                /* \"#utility.yul\":57:76   */\n              swap1\n              pop\n                /* \"#utility.yul\":7:82   */\n              swap1\n              jump\t// out\n                /* \"#utility.yul\":88:205   */\n            tag_140:\n                /* \"#utility.yul\":197:198   */\n              0x00\n                /* \"#utility.yul\":194:195   */\n              dup1\n                /* \"#utility.yul\":187:199   */\n              revert\n                /* \"#utility.yul\":211:328   */\n            tag_141:\n                /* \"#utility.yul\":320:321   */\n              0x00\n                /* \"#utility.yul\":317:318   */\n              dup1\n                /* \"#utility.yul\":310:322   */\n              revert\n                /* \"#utility.yul\":334:411   */\n            tag_142:\n                /* \"#utility.yul\":371:378   */\n              0x00\n                /* \"#utility.yul\":400:405   */\n              dup2\n                /* \"#utility.yul\":389:405   */\n              swap1\n              pop\n                /* \"#utility.yul\":334:411   */\n              swap2\n              swap1\n              pop\n              jump\t// out\n                /* \"#utility.yul\":417:539   */\n            tag_143:\n                /* \"#utility.yul\":490:514   */\n              tag_191\n                /* \"#utility.yul\":508:513   */\n              dup2\n                /* \"#utility.yul\":490:514   */\n              tag_142\n              jump\t// in\n            tag_191:\n                /* \"#utility.yul\":483:488   */\n              dup2\n                /* \"#utility.yul\":480:515   */\n              eq\n                /* \"#utility.yul\":470:533   */\n              tag_192\n              jumpi\n                /* \"#utility.yul\":529:530   */\n              0x00\n                /* \"#utility.yul\":526:527   */\n              dup1\n                /* \"#utility.yul\":519:531   */\n              revert\n                /* \"#utility.yul\":470:533   */\n            tag_192:\n                /* \"#utility.yul\":417:539   */\n              pop\n              jump\t// out\n                /* \"#utility.yul\":545:684   */\n            tag_144:\n                /* \"#utility.yul\":591:596   */\n              0x00\n                /* \"#utility.yul\":629:635   */\n              dup2\n                /* \"#utility.yul\":616:636   */\n              calldataload\n                /* \"#utility.yul\":607:636   */\n              swap1\n              pop\n                /* \"#utility.yul\":645:678   */\n              tag_194\n                /* \"#utility.yul\":672:677   */\n              dup2\n                /* \"#utility.yul\":645:678   */\n              tag_143\n              jump\t// in\n            tag_194:\n                /* \"#utility.yul\":545:684   */\n              swap3\n              swap2\n              pop\n              pop\n              jump\t// out\n                /* \"#utility.yul\":690:1019   */\n            tag_22:\n                /* \"#utility.yul\":749:755   */\n              0x00\n                /* \"#utility.yul\":798:800   */\n              0x20\n                /* \"#utility.yul\":786:795   */\n              dup3\n                /* \"#utility.yul\":777:784   */\n              dup5\n                /* \"#utility.yul\":773:796   */\n              sub\n                /* \"#utility.yul\":769:801   */\n              slt\n                /* \"#utility.yul\":766:885   */\n              iszero\n              tag_196\n              jumpi\n                /* \"#utility.yul\":804:883   */\n              tag_197\n              tag_140\n              jump\t// in\n            tag_197:\n                /* \"#utility.yul\":766:885   */\n            tag_196:\n                /* \"#utility.yul\":924:925   */\n              0x00\n                /* \"#utility.yul\":949:1002   */\n              tag_198\n                /* \"#utility.yul\":994:1001   */\n              dup5\n                /* \"#utility.yul\":985:991   */\n              dup3\n                /* \"#utility.yul\":974:983   */\n              dup6\n                /* \"#utility.yul\":970:992   */\n              add\n                /* \"#utility.yul\":949:1002   */\n              tag_144\n              jump\t// in\n            tag_198:\n                /* \"#utility.yul\":939:1002   */\n              swap2\n              pop\n                /* \"#utility.yul\":895:1012   */\n              pop\n                /* \"#utility.yul\":690:1019   */\n              swap3\n              swap2\n              pop\n              pop\n              jump\t// out\n                /* \"#utility.yul\":1025:1124   */\n            tag_145:\n                /* \"#utility.yul\":1077:1083   */\n              0x00\n                /* \"#utility.yul\":1111:1116   */\n              dup2\n                /* \"#utility.yul\":1105:1117   */\n              mload\n                /* \"#utility.yul\":1095:1117   */\n              swap1\n              pop\n                /* \"#utility.yul\":1025:1124   */\n              swap2\n              swap1\n              pop\n              jump\t// out\n                /* \"#utility.yul\":1130:1299   */\n            tag_146:\n                /* \"#utility.yul\":1214:1225   */\n              0x00\n                /* \"#utility.yul\":1248:1254   */\n              dup3\n                /* \"#utility.yul\":1243:1246   */\n              dup3\n                /* \"#utility.yul\":1236:1255   */\n              mstore\n                /* \"#utility.yul\":1288:1292   */\n              0x20\n                /* \"#utility.yul\":1283:1286   */\n              dup3\n                /* \"#utility.yul\":1279:1293   */\n              add\n                /* \"#utility.yul\":1264:1293   */\n              swap1\n              pop\n                /* \"#utility.yul\":1130:1299   */\n              swap3\n              swap2\n              pop\n              pop\n              jump\t// out\n                /* \"#utility.yul\":1305:1551   */\n            tag_147:\n                /* \"#utility.yul\":1386:1387   */\n              0x00\n                /* \"#utility.yul\":1396:1509   */\n            tag_202:\n                /* \"#utility.yul\":1410:1416   */\n              dup4\n                /* \"#utility.yul\":1407:1408   */\n              dup2\n                /* \"#utility.yul\":1404:1417   */\n              lt\n                /* \"#utility.yul\":1396:1509   */\n              iszero\n              tag_204\n              jumpi\n                /* \"#utility.yul\":1495:1496   */\n              dup1\n                /* \"#utility.yul\":1490:1493   */\n              dup3\n                /* \"#utility.yul\":1486:1497   */\n              add\n                /* \"#utility.yul\":1480:1498   */\n              mload\n                /* \"#utility.yul\":1476:1477   */\n              dup2\n                /* \"#utility.yul\":1471:1474   */\n              dup5\n                /* \"#utility.yul\":1467:1478   */\n              add\n                /* \"#utility.yul\":1460:1499   */\n              mstore\n                /* \"#utility.yul\":1432:1434   */\n              0x20\n                /* \"#utility.yul\":1429:1430   */\n              dup2\n                /* \"#utility.yul\":1425:1435   */\n              add\n                /* \"#utility.yul\":1420:1435   */\n              swap1\n              pop\n                /* \"#utility.yul\":1396:1509   */\n              jump(tag_202)\n            tag_204:\n                /* \"#utility.yul\":1543:1544   */\n              0x00\n                /* \"#utility.yul\":1534:1540   */\n              dup5\n                /* \"#utility.yul\":1529:1532   */\n              dup5\n                /* \"#utility.yul\":1525:1541   */\n              add\n                /* \"#utility.yul\":1518:1545   */\n              mstore\n                /* \"#utility.yul\":1367:1551   */\n              pop\n                /* \"#utility.yul\":1305:1551   */\n              pop\n              pop\n              pop\n              jump\t// out\n                /* \"#utility.yul\":1557:1659   */\n            tag_148:\n                /* \"#utility.yul\":1598:1604   */\n              0x00\n                /* \"#utility.yul\":1649:1651   */\n              0x1f\n                /* \"#utility.yul\":1645:1652   */\n              not\n                /* \"#utility.yul\":1640:1642   */\n              0x1f\n                /* \"#utility.yul\":1633:1638   */\n              dup4\n                /* \"#utility.yul\":1629:1643   */\n              add\n                /* \"#utility.yul\":1625:1653   */\n              and\n                /* \"#utility.yul\":1615:1653   */\n              swap1\n              pop\n                /* \"#utility.yul\":1557:1659   */\n              swap2\n              swap1\n              pop\n              jump\t// out\n                /* \"#utility.yul\":1665:2042   */\n            tag_149:\n                /* \"#utility.yul\":1753:1756   */\n              0x00\n                /* \"#utility.yul\":1781:1820   */\n              tag_207\n                /* \"#utility.yul\":1814:1819   */\n              dup3\n                /* \"#utility.yul\":1781:1820   */\n              tag_145\n              jump\t// in\n            tag_207:\n                /* \"#utility.yul\":1836:1907   */\n              tag_208\n                /* \"#utility.yul\":1900:1906   */\n              dup2\n                /* \"#utility.yul\":1895:1898   */\n              dup6\n                /* \"#utility.yul\":1836:1907   */\n              tag_146\n              jump\t// in\n            tag_208:\n                /* \"#utility.yul\":1829:1907   */\n              swap4\n              pop\n                /* \"#utility.yul\":1916:1981   */\n              tag_209\n                /* \"#utility.yul\":1974:1980   */\n              dup2\n                /* \"#utility.yul\":1969:1972   */\n              dup6\n                /* \"#utility.yul\":1962:1966   */\n              0x20\n                /* \"#utility.yul\":1955:1960   */\n              dup7\n                /* \"#utility.yul\":1951:1967   */\n              add\n                /* \"#utility.yul\":1916:1981   */\n              tag_147\n              jump\t// in\n            tag_209:\n                /* \"#utility.yul\":2006:2035   */\n              tag_210\n                /* \"#utility.yul\":2028:2034   */\n              dup2\n                /* \"#utility.yul\":2006:2035   */\n              tag_148\n              jump\t// in\n            tag_210:\n                /* \"#utility.yul\":2001:2004   */\n              dup5\n                /* \"#utility.yul\":1997:2036   */\n              add\n                /* \"#utility.yul\":1990:2036   */\n              swap2\n              pop\n                /* \"#utility.yul\":1757:2042   */\n              pop\n                /* \"#utility.yul\":1665:2042   */\n              swap3\n              swap2\n              pop\n              pop\n              jump\t// out\n                /* \"#utility.yul\":2048:2166   */\n            tag_150:\n                /* \"#utility.yul\":2135:2159   */\n              tag_212\n                /* \"#utility.yul\":2153:2158   */\n              dup2\n                /* \"#utility.yul\":2135:2159   */\n              tag_142\n              jump\t// in\n            tag_212:\n                /* \"#utility.yul\":2130:2133   */\n              dup3\n                /* \"#utility.yul\":2123:2160   */\n              mstore\n                /* \"#utility.yul\":2048:2166   */\n              pop\n              pop\n              jump\t// out\n                /* \"#utility.yul\":2172:2298   */\n            tag_151:\n                /* \"#utility.yul\":2209:2216   */\n              0x00\n                /* \"#utility.yul\":2249:2291   */\n              0xffffffffffffffffffffffffffffffffffffffff\n                /* \"#utility.yul\":2242:2247   */\n              dup3\n                /* \"#utility.yul\":2238:2292   */\n              and\n                /* \"#utility.yul\":2227:2292   */\n              swap1\n              pop\n                /* \"#utility.yul\":2172:2298   */\n              swap2\n              swap1\n              pop\n              jump\t// out\n                /* \"#utility.yul\":2304:2400   */\n            tag_152:\n                /* \"#utility.yul\":2341:2348   */\n              0x00\n                /* \"#utility.yul\":2370:2394   */\n              tag_215\n                /* \"#utility.yul\":2388:2393   */\n              dup3\n                /* \"#utility.yul\":2370:2394   */\n              tag_151\n              jump\t// in\n            tag_215:\n                /* \"#utility.yul\":2359:2394   */\n              swap1\n              pop\n                /* \"#utility.yul\":2304:2400   */\n              swap2\n              swap1\n              pop\n              jump\t// out\n                /* \"#utility.yul\":2406:2524   */\n            tag_153:\n                /* \"#utility.yul\":2493:2517   */\n              tag_217\n                /* \"#utility.yul\":2511:2516   */\n              dup2\n                /* \"#utility.yul\":2493:2517   */\n              tag_152\n              jump\t// in\n            tag_217:\n                /* \"#utility.yul\":2488:2491   */\n              dup3\n                /* \"#utility.yul\":2481:2518   */\n              mstore\n                /* \"#utility.yul\":2406:2524   */\n              pop\n              pop\n              jump\t// out\n                /* \"#utility.yul\":2530:2620   */\n            tag_154:\n                /* \"#utility.yul\":2564:2571   */\n              0x00\n                /* \"#utility.yul\":2607:2612   */\n              dup2\n                /* \"#utility.yul\":2600:2613   */\n              iszero\n                /* \"#utility.yul\":2593:2614   */\n              iszero\n                /* \"#utility.yul\":2582:2614   */\n              swap1\n              pop\n                /* \"#utility.yul\":2530:2620   */\n              swap2\n              swap1\n              pop\n              jump\t// out\n                /* \"#utility.yul\":2626:2735   */\n            tag_155:\n                /* \"#utility.yul\":2707:2728   */\n              tag_220\n                /* \"#utility.yul\":2722:2727   */\n              dup2\n                /* \"#utility.yul\":2707:2728   */\n              tag_154\n              jump\t// in\n            tag_220:\n                /* \"#utility.yul\":2702:2705   */\n              dup3\n                /* \"#utility.yul\":2695:2729   */\n              mstore\n                /* \"#utility.yul\":2626:2735   */\n              pop\n              pop\n              jump\t// out\n                /* \"#utility.yul\":2741:3583   */\n            tag_25:\n                /* \"#utility.yul\":2982:2986   */\n              0x00\n                /* \"#utility.yul\":3020:3023   */\n              0xc0\n                /* \"#utility.yul\":3009:3018   */\n              dup3\n                /* \"#utility.yul\":3005:3024   */\n              add\n                /* \"#utility.yul\":2997:3024   */\n              swap1\n              pop\n                /* \"#utility.yul\":3070:3079   */\n              dup2\n                /* \"#utility.yul\":3064:3068   */\n              dup2\n                /* \"#utility.yul\":3060:3080   */\n              sub\n                /* \"#utility.yul\":3056:3057   */\n              0x00\n                /* \"#utility.yul\":3045:3054   */\n              dup4\n                /* \"#utility.yul\":3041:3058   */\n              add\n                /* \"#utility.yul\":3034:3081   */\n              mstore\n                /* \"#utility.yul\":3098:3176   */\n              tag_222\n                /* \"#utility.yul\":3171:3175   */\n              dup2\n                /* \"#utility.yul\":3162:3168   */\n              dup10\n                /* \"#utility.yul\":3098:3176   */\n              tag_149\n              jump\t// in\n            tag_222:\n                /* \"#utility.yul\":3090:3176   */\n              swap1\n              pop\n                /* \"#utility.yul\":3186:3258   */\n              tag_223\n                /* \"#utility.yul\":3254:3256   */\n              0x20\n                /* \"#utility.yul\":3243:3252   */\n              dup4\n                /* \"#utility.yul\":3239:3257   */\n              add\n                /* \"#utility.yul\":3230:3236   */\n              dup9\n                /* \"#utility.yul\":3186:3258   */\n              tag_150\n              jump\t// in\n            tag_223:\n                /* \"#utility.yul\":3268:3340   */\n              tag_224\n                /* \"#utility.yul\":3336:3338   */\n              0x40\n                /* \"#utility.yul\":3325:3334   */\n              dup4\n                /* \"#utility.yul\":3321:3339   */\n              add\n                /* \"#utility.yul\":3312:3318   */\n              dup8\n                /* \"#utility.yul\":3268:3340   */\n              tag_153\n              jump\t// in\n            tag_224:\n                /* \"#utility.yul\":3350:3416   */\n              tag_225\n                /* \"#utility.yul\":3412:3414   */\n              0x60\n                /* \"#utility.yul\":3401:3410   */\n              dup4\n                /* \"#utility.yul\":3397:3415   */\n              add\n                /* \"#utility.yul\":3388:3394   */\n              dup7\n                /* \"#utility.yul\":3350:3416   */\n              tag_155\n              jump\t// in\n            tag_225:\n                /* \"#utility.yul\":3426:3499   */\n              tag_226\n                /* \"#utility.yul\":3494:3497   */\n              0x80\n                /* \"#utility.yul\":3483:3492   */\n              dup4\n                /* \"#utility.yul\":3479:3498   */\n              add\n                /* \"#utility.yul\":3470:3476   */\n              dup6\n                /* \"#utility.yul\":3426:3499   */\n              tag_150\n              jump\t// in\n            tag_226:\n                /* \"#utility.yul\":3509:3576   */\n              tag_227\n                /* \"#utility.yul\":3571:3574   */\n              0xa0\n                /* \"#utility.yul\":3560:3569   */\n              dup4\n                /* \"#utility.yul\":3556:3575   */\n              add\n                /* \"#utility.yul\":3547:3553   */\n              dup5\n                /* \"#utility.yul\":3509:3576   */\n              tag_155\n              jump\t// in\n            tag_227:\n                /* \"#utility.yul\":2741:3583   */\n              swap8\n              swap7\n              pop\n              pop\n              pop\n              pop\n              pop\n              pop\n              pop\n              jump\t// out\n                /* \"#utility.yul\":3589:3711   */\n            tag_156:\n                /* \"#utility.yul\":3662:3686   */\n              tag_229\n                /* \"#utility.yul\":3680:3685   */\n              dup2\n                /* \"#utility.yul\":3662:3686   */\n              tag_152\n              jump\t// in\n            tag_229:\n                /* \"#utility.yul\":3655:3660   */\n              dup2\n                /* \"#utility.yul\":3652:3687   */\n              eq\n                /* \"#utility.yul\":3642:3705   */\n              tag_230\n              jumpi\n                /* \"#utility.yul\":3701:3702   */\n              0x00\n                /* \"#utility.yul\":3698:3699   */\n              dup1\n                /* \"#utility.yul\":3691:3703   */\n              revert\n                /* \"#utility.yul\":3642:3705   */\n            tag_230:\n                /* \"#utility.yul\":3589:3711   */\n              pop\n              jump\t// out\n                /* \"#utility.yul\":3717:3856   */\n            tag_157:\n                /* \"#utility.yul\":3763:3768   */\n              0x00\n                /* \"#utility.yul\":3801:3807   */\n              dup2\n                /* \"#utility.yul\":3788:3808   */\n              calldataload\n                /* \"#utility.yul\":3779:3808   */\n              swap1\n              pop\n                /* \"#utility.yul\":3817:3850   */\n              tag_232\n                /* \"#utility.yul\":3844:3849   */\n              dup2\n                /* \"#utility.yul\":3817:3850   */\n              tag_156\n              jump\t// in\n            tag_232:\n                /* \"#utility.yul\":3717:3856   */\n              swap3\n              swap2\n              pop\n              pop\n              jump\t// out\n                /* \"#utility.yul\":3862:4191   */\n            tag_29:\n                /* \"#utility.yul\":3921:3927   */\n              0x00\n                /* \"#utility.yul\":3970:3972   */\n              0x20\n                /* \"#utility.yul\":3958:3967   */\n              dup3\n                /* \"#utility.yul\":3949:3956   */\n              dup5\n                /* \"#utility.yul\":3945:3968   */\n              sub\n                /* \"#utility.yul\":3941:3973   */\n              slt\n                /* \"#utility.yul\":3938:4057   */\n              iszero\n              tag_234\n              jumpi\n                /* \"#utility.yul\":3976:4055   */\n              tag_235\n              tag_140\n              jump\t// in\n            tag_235:\n                /* \"#utility.yul\":3938:4057   */\n            tag_234:\n                /* \"#utility.yul\":4096:4097   */\n              0x00\n                /* \"#utility.yul\":4121:4174   */\n              tag_236\n                /* \"#utility.yul\":4166:4173   */\n              dup5\n                /* \"#utility.yul\":4157:4163   */\n              dup3\n                /* \"#utility.yul\":4146:4155   */\n              dup6\n                /* \"#utility.yul\":4142:4164   */\n              add\n                /* \"#utility.yul\":4121:4174   */\n              tag_157\n              jump\t// in\n            tag_236:\n                /* \"#utility.yul\":4111:4174   */\n              swap2\n              pop\n                /* \"#utility.yul\":4067:4184   */\n              pop\n                /* \"#utility.yul\":3862:4191   */\n              swap3\n              swap2\n              pop\n              pop\n              jump\t// out\n                /* \"#utility.yul\":4197:4407   */\n            tag_32:\n                /* \"#utility.yul\":4284:4288   */\n              0x00\n                /* \"#utility.yul\":4322:4324   */\n              0x20\n                /* \"#utility.yul\":4311:4320   */\n              dup3\n                /* \"#utility.yul\":4307:4325   */\n              add\n                /* \"#utility.yul\":4299:4325   */\n              swap1\n              pop\n                /* \"#utility.yul\":4335:4400   */\n              tag_238\n                /* \"#utility.yul\":4397:4398   */\n              0x00\n                /* \"#utility.yul\":4386:4395   */\n              dup4\n                /* \"#utility.yul\":4382:4399   */\n              add\n                /* \"#utility.yul\":4373:4379   */\n              dup5\n                /* \"#utility.yul\":4335:4400   */\n              tag_155\n              jump\t// in\n            tag_238:\n                /* \"#utility.yul\":4197:4407   */\n              swap3\n              swap2\n              pop\n              pop\n              jump\t// out\n                /* \"#utility.yul\":4413:4726   */\n            tag_37:\n                /* \"#utility.yul\":4526:4530   */\n              0x00\n                /* \"#utility.yul\":4564:4566   */\n              0x20\n                /* \"#utility.yul\":4553:4562   */\n              dup3\n                /* \"#utility.yul\":4549:4567   */\n              add\n                /* \"#utility.yul\":4541:4567   */\n              swap1\n              pop\n                /* \"#utility.yul\":4613:4622   */\n              dup2\n                /* \"#utility.yul\":4607:4611   */\n              dup2\n                /* \"#utility.yul\":4603:4623   */\n              sub\n                /* \"#utility.yul\":4599:4600   */\n              0x00\n                /* \"#utility.yul\":4588:4597   */\n              dup4\n                /* \"#utility.yul\":4584:4601   */\n              add\n                /* \"#utility.yul\":4577:4624   */\n              mstore\n                /* \"#utility.yul\":4641:4719   */\n              tag_240\n                /* \"#utility.yul\":4714:4718   */\n              dup2\n                /* \"#utility.yul\":4705:4711   */\n              dup5\n                /* \"#utility.yul\":4641:4719   */\n              tag_149\n              jump\t// in\n            tag_240:\n                /* \"#utility.yul\":4633:4719   */\n              swap1\n              pop\n                /* \"#utility.yul\":4413:4726   */\n              swap3\n              swap2\n              pop\n              pop\n              jump\t// out\n                /* \"#utility.yul\":4732:4954   */\n            tag_42:\n                /* \"#utility.yul\":4825:4829   */\n              0x00\n                /* \"#utility.yul\":4863:4865   */\n              0x20\n                /* \"#utility.yul\":4852:4861   */\n              dup3\n                /* \"#utility.yul\":4848:4866   */\n              add\n                /* \"#utility.yul\":4840:4866   */\n              swap1\n              pop\n                /* \"#utility.yul\":4876:4947   */\n              tag_242\n                /* \"#utility.yul\":4944:4945   */\n              0x00\n                /* \"#utility.yul\":4933:4942   */\n              dup4\n                /* \"#utility.yul\":4929:4946   */\n              add\n                /* \"#utility.yul\":4920:4926   */\n              dup5\n                /* \"#utility.yul\":4876:4947   */\n              tag_150\n              jump\t// in\n            tag_242:\n                /* \"#utility.yul\":4732:4954   */\n              swap3\n              swap2\n              pop\n              pop\n              jump\t// out\n                /* \"#utility.yul\":4960:5182   */\n            tag_47:\n                /* \"#utility.yul\":5053:5057   */\n              0x00\n                /* \"#utility.yul\":5091:5093   */\n              0x20\n                /* \"#utility.yul\":5080:5089   */\n              dup3\n                /* \"#utility.yul\":5076:5094   */\n              add\n                /* \"#utility.yul\":5068:5094   */\n              swap1\n              pop\n                /* \"#utility.yul\":5104:5175   */\n              tag_244\n                /* \"#utility.yul\":5172:5173   */\n              0x00\n                /* \"#utility.yul\":5161:5170   */\n              dup4\n                /* \"#utility.yul\":5157:5174   */\n              add\n                /* \"#utility.yul\":5148:5154   */\n              dup5\n                /* \"#utility.yul\":5104:5175   */\n              tag_153\n              jump\t// in\n            tag_244:\n                /* \"#utility.yul\":4960:5182   */\n              swap3\n              swap2\n              pop\n              pop\n              jump\t// out\n                /* \"#utility.yul\":5188:5305   */\n            tag_158:\n                /* \"#utility.yul\":5297:5298   */\n              0x00\n                /* \"#utility.yul\":5294:5295   */\n              dup1\n                /* \"#utility.yul\":5287:5299   */\n              revert\n                /* \"#utility.yul\":5311:5428   */\n            tag_159:\n                /* \"#utility.yul\":5420:5421   */\n              0x00\n                /* \"#utility.yul\":5417:5418   */\n              dup1\n                /* \"#utility.yul\":5410:5422   */\n              revert\n                /* \"#utility.yul\":5434:5614   */\n            tag_160:\n                /* \"#utility.yul\":5482:5559   */\n              0x4e487b7100000000000000000000000000000000000000000000000000000000\n                /* \"#utility.yul\":5479:5480   */\n              0x00\n                /* \"#utility.yul\":5472:5560   */\n              mstore\n                /* \"#utility.yul\":5579:5583   */\n              0x41\n                /* \"#utility.yul\":5576:5577   */\n              0x04\n                /* \"#utility.yul\":5569:5584   */\n              mstore\n                /* \"#utility.yul\":5603:5607   */\n              0x24\n                /* \"#utility.yul\":5600:5601   */\n              0x00\n                /* \"#utility.yul\":5593:5608   */\n              revert\n                /* \"#utility.yul\":5620:5901   */\n            tag_161:\n                /* \"#utility.yul\":5703:5730   */\n              tag_249\n                /* \"#utility.yul\":5725:5729   */\n              dup3\n                /* \"#utility.yul\":5703:5730   */\n              tag_148\n              jump\t// in\n            tag_249:\n                /* \"#utility.yul\":5695:5701   */\n              dup2\n                /* \"#utility.yul\":5691:5731   */\n              add\n                /* \"#utility.yul\":5833:5839   */\n              dup2\n                /* \"#utility.yul\":5821:5831   */\n              dup2\n                /* \"#utility.yul\":5818:5840   */\n              lt\n                /* \"#utility.yul\":5797:5815   */\n              0xffffffffffffffff\n                /* \"#utility.yul\":5785:5795   */\n              dup3\n                /* \"#utility.yul\":5782:5816   */\n              gt\n                /* \"#utility.yul\":5779:5841   */\n              or\n                /* \"#utility.yul\":5776:5864   */\n              iszero\n              tag_250\n              jumpi\n                /* \"#utility.yul\":5844:5862   */\n              tag_251\n              tag_160\n              jump\t// in\n            tag_251:\n                /* \"#utility.yul\":5776:5864   */\n            tag_250:\n                /* \"#utility.yul\":5884:5894   */\n              dup1\n                /* \"#utility.yul\":5880:5882   */\n              0x40\n                /* \"#utility.yul\":5873:5895   */\n              mstore\n                /* \"#utility.yul\":5663:5901   */\n              pop\n                /* \"#utility.yul\":5620:5901   */\n              pop\n              pop\n              jump\t// out\n                /* \"#utility.yul\":5907:6036   */\n            tag_162:\n                /* \"#utility.yul\":5941:5947   */\n              0x00\n                /* \"#utility.yul\":5968:5988   */\n              tag_253\n              tag_139\n              jump\t// in\n            tag_253:\n                /* \"#utility.yul\":5958:5988   */\n              swap1\n              pop\n                /* \"#utility.yul\":5997:6030   */\n              tag_254\n                /* \"#utility.yul\":6025:6029   */\n              dup3\n                /* \"#utility.yul\":6017:6023   */\n              dup3\n                /* \"#utility.yul\":5997:6030   */\n              tag_161\n              jump\t// in\n            tag_254:\n                /* \"#utility.yul\":5907:6036   */\n              swap2\n              swap1\n              pop\n              jump\t// out\n                /* \"#utility.yul\":6042:6350   */\n            tag_163:\n                /* \"#utility.yul\":6104:6108   */\n              0x00\n                /* \"#utility.yul\":6194:6212   */\n              0xffffffffffffffff\n                /* \"#utility.yul\":6186:6192   */\n              dup3\n                /* \"#utility.yul\":6183:6213   */\n              gt\n                /* \"#utility.yul\":6180:6236   */\n              iszero\n              tag_256\n              jumpi\n                /* \"#utility.yul\":6216:6234   */\n              tag_257\n              tag_160\n              jump\t// in\n            tag_257:\n                /* \"#utility.yul\":6180:6236   */\n            tag_256:\n                /* \"#utility.yul\":6254:6283   */\n              tag_258\n                /* \"#utility.yul\":6276:6282   */\n              dup3\n                /* \"#utility.yul\":6254:6283   */\n              tag_148\n              jump\t// in\n            tag_258:\n                /* \"#utility.yul\":6246:6283   */\n              swap1\n              pop\n                /* \"#utility.yul\":6338:6342   */\n              0x20\n                /* \"#utility.yul\":6332:6336   */\n              dup2\n                /* \"#utility.yul\":6328:6343   */\n              add\n                /* \"#utility.yul\":6320:6343   */\n              swap1\n              pop\n                /* \"#utility.yul\":6042:6350   */\n              swap2\n              swap1\n              pop\n              jump\t// out\n                /* \"#utility.yul\":6356:6502   */\n            tag_164:\n                /* \"#utility.yul\":6453:6459   */\n              dup3\n                /* \"#utility.yul\":6448:6451   */\n              dup2\n                /* \"#utility.yul\":6443:6446   */\n              dup4\n                /* \"#utility.yul\":6430:6460   */\n              calldatacopy\n                /* \"#utility.yul\":6494:6495   */\n              0x00\n                /* \"#utility.yul\":6485:6491   */\n              dup4\n                /* \"#utility.yul\":6480:6483   */\n              dup4\n                /* \"#utility.yul\":6476:6492   */\n              add\n                /* \"#utility.yul\":6469:6496   */\n              mstore\n                /* \"#utility.yul\":6356:6502   */\n              pop\n              pop\n              pop\n              jump\t// out\n                /* \"#utility.yul\":6508:6933   */\n            tag_165:\n                /* \"#utility.yul\":6586:6591   */\n              0x00\n                /* \"#utility.yul\":6611:6677   */\n              tag_261\n                /* \"#utility.yul\":6627:6676   */\n              tag_262\n                /* \"#utility.yul\":6669:6675   */\n              dup5\n                /* \"#utility.yul\":6627:6676   */\n              tag_163\n              jump\t// in\n            tag_262:\n                /* \"#utility.yul\":6611:6677   */\n              tag_162\n              jump\t// in\n            tag_261:\n                /* \"#utility.yul\":6602:6677   */\n              swap1\n              pop\n                /* \"#utility.yul\":6700:6706   */\n              dup3\n                /* \"#utility.yul\":6693:6698   */\n              dup2\n                /* \"#utility.yul\":6686:6707   */\n              mstore\n                /* \"#utility.yul\":6738:6742   */\n              0x20\n                /* \"#utility.yul\":6731:6736   */\n              dup2\n                /* \"#utility.yul\":6727:6743   */\n              add\n                /* \"#utility.yul\":6776:6779   */\n              dup5\n                /* \"#utility.yul\":6767:6773   */\n              dup5\n                /* \"#utility.yul\":6762:6765   */\n              dup5\n                /* \"#utility.yul\":6758:6774   */\n              add\n                /* \"#utility.yul\":6755:6780   */\n              gt\n                /* \"#utility.yul\":6752:6864   */\n              iszero\n              tag_263\n              jumpi\n                /* \"#utility.yul\":6783:6862   */\n              tag_264\n              tag_159\n              jump\t// in\n            tag_264:\n                /* \"#utility.yul\":6752:6864   */\n            tag_263:\n                /* \"#utility.yul\":6873:6927   */\n              tag_265\n                /* \"#utility.yul\":6920:6926   */\n              dup5\n                /* \"#utility.yul\":6915:6918   */\n              dup3\n                /* \"#utility.yul\":6910:6913   */\n              dup6\n                /* \"#utility.yul\":6873:6927   */\n              tag_164\n              jump\t// in\n            tag_265:\n                /* \"#utility.yul\":6592:6933   */\n              pop\n                /* \"#utility.yul\":6508:6933   */\n              swap4\n              swap3\n              pop\n              pop\n              pop\n              jump\t// out\n                /* \"#utility.yul\":6953:7293   */\n            tag_166:\n                /* \"#utility.yul\":7009:7014   */\n              0x00\n                /* \"#utility.yul\":7058:7061   */\n              dup3\n                /* \"#utility.yul\":7051:7055   */\n              0x1f\n                /* \"#utility.yul\":7043:7049   */\n              dup4\n                /* \"#utility.yul\":7039:7056   */\n              add\n                /* \"#utility.yul\":7035:7062   */\n              slt\n                /* \"#utility.yul\":7025:7147   */\n              tag_267\n              jumpi\n                /* \"#utility.yul\":7066:7145   */\n              tag_268\n              tag_158\n              jump\t// in\n            tag_268:\n                /* \"#utility.yul\":7025:7147   */\n            tag_267:\n                /* \"#utility.yul\":7183:7189   */\n              dup2\n                /* \"#utility.yul\":7170:7190   */\n              calldataload\n                /* \"#utility.yul\":7208:7287   */\n              tag_269\n                /* \"#utility.yul\":7283:7286   */\n              dup5\n                /* \"#utility.yul\":7275:7281   */\n              dup3\n                /* \"#utility.yul\":7268:7272   */\n              0x20\n                /* \"#utility.yul\":7260:7266   */\n              dup7\n                /* \"#utility.yul\":7256:7273   */\n              add\n                /* \"#utility.yul\":7208:7287   */\n              tag_165\n              jump\t// in\n            tag_269:\n                /* \"#utility.yul\":7199:7287   */\n              swap2\n              pop\n                /* \"#utility.yul\":7015:7293   */\n              pop\n                /* \"#utility.yul\":6953:7293   */\n              swap3\n              swap2\n              pop\n              pop\n              jump\t// out\n                /* \"#utility.yul\":7299:8098   */\n            tag_55:\n                /* \"#utility.yul\":7386:7392   */\n              0x00\n                /* \"#utility.yul\":7394:7400   */\n              dup1\n                /* \"#utility.yul\":7402:7408   */\n              0x00\n                /* \"#utility.yul\":7451:7453   */\n              0x60\n                /* \"#utility.yul\":7439:7448   */\n              dup5\n                /* \"#utility.yul\":7430:7437   */\n              dup7\n                /* \"#utility.yul\":7426:7449   */\n              sub\n                /* \"#utility.yul\":7422:7454   */\n              slt\n                /* \"#utility.yul\":7419:7538   */\n              iszero\n              tag_271\n              jumpi\n                /* \"#utility.yul\":7457:7536   */\n              tag_272\n              tag_140\n              jump\t// in\n            tag_272:\n                /* \"#utility.yul\":7419:7538   */\n            tag_271:\n                /* \"#utility.yul\":7605:7606   */\n              0x00\n                /* \"#utility.yul\":7594:7603   */\n              dup5\n                /* \"#utility.yul\":7590:7607   */\n              add\n                /* \"#utility.yul\":7577:7608   */\n              calldataload\n                /* \"#utility.yul\":7635:7653   */\n              0xffffffffffffffff\n                /* \"#utility.yul\":7627:7633   */\n              dup2\n                /* \"#utility.yul\":7624:7654   */\n              gt\n                /* \"#utility.yul\":7621:7738   */\n              iszero\n              tag_273\n              jumpi\n                /* \"#utility.yul\":7657:7736   */\n              tag_274\n              tag_141\n              jump\t// in\n            tag_274:\n                /* \"#utility.yul\":7621:7738   */\n            tag_273:\n                /* \"#utility.yul\":7762:7825   */\n              tag_275\n                /* \"#utility.yul\":7817:7824   */\n              dup7\n                /* \"#utility.yul\":7808:7814   */\n              dup3\n                /* \"#utility.yul\":7797:7806   */\n              dup8\n                /* \"#utility.yul\":7793:7815   */\n              add\n                /* \"#utility.yul\":7762:7825   */\n              tag_166\n              jump\t// in\n            tag_275:\n                /* \"#utility.yul\":7752:7825   */\n              swap4\n              pop\n                /* \"#utility.yul\":7548:7835   */\n              pop\n                /* \"#utility.yul\":7874:7876   */\n              0x20\n                /* \"#utility.yul\":7900:7953   */\n              tag_276\n                /* \"#utility.yul\":7945:7952   */\n              dup7\n                /* \"#utility.yul\":7936:7942   */\n              dup3\n                /* \"#utility.yul\":7925:7934   */\n              dup8\n                /* \"#utility.yul\":7921:7943   */\n              add\n                /* \"#utility.yul\":7900:7953   */\n              tag_144\n              jump\t// in\n            tag_276:\n                /* \"#utility.yul\":7890:7953   */\n              swap3\n              pop\n                /* \"#utility.yul\":7845:7963   */\n              pop\n                /* \"#utility.yul\":8002:8004   */\n              0x40\n                /* \"#utility.yul\":8028:8081   */\n              tag_277\n                /* \"#utility.yul\":8073:8080   */\n              dup7\n                /* \"#utility.yul\":8064:8070   */\n              dup3\n                /* \"#utility.yul\":8053:8062   */\n              dup8\n                /* \"#utility.yul\":8049:8071   */\n              add\n                /* \"#utility.yul\":8028:8081   */\n              tag_157\n              jump\t// in\n            tag_277:\n                /* \"#utility.yul\":8018:8081   */\n              swap2\n              pop\n                /* \"#utility.yul\":7973:8091   */\n              pop\n                /* \"#utility.yul\":7299:8098   */\n              swap3\n              pop\n              swap3\n              pop\n              swap3\n              jump\t// out\n                /* \"#utility.yul\":8104:8847   */\n            tag_76:\n                /* \"#utility.yul\":8323:8327   */\n              0x00\n                /* \"#utility.yul\":8361:8364   */\n              0xa0\n                /* \"#utility.yul\":8350:8359   */\n              dup3\n                /* \"#utility.yul\":8346:8365   */\n              add\n                /* \"#utility.yul\":8338:8365   */\n              swap1\n              pop\n                /* \"#utility.yul\":8411:8420   */\n              dup2\n                /* \"#utility.yul\":8405:8409   */\n              dup2\n                /* \"#utility.yul\":8401:8421   */\n              sub\n                /* \"#utility.yul\":8397:8398   */\n              0x00\n                /* \"#utility.yul\":8386:8395   */\n              dup4\n                /* \"#utility.yul\":8382:8399   */\n              add\n                /* \"#utility.yul\":8375:8422   */\n              mstore\n                /* \"#utility.yul\":8439:8517   */\n              tag_279\n                /* \"#utility.yul\":8512:8516   */\n              dup2\n                /* \"#utility.yul\":8503:8509   */\n              dup9\n                /* \"#utility.yul\":8439:8517   */\n              tag_149\n              jump\t// in\n            tag_279:\n                /* \"#utility.yul\":8431:8517   */\n              swap1\n              pop\n                /* \"#utility.yul\":8527:8599   */\n              tag_280\n                /* \"#utility.yul\":8595:8597   */\n              0x20\n                /* \"#utility.yul\":8584:8593   */\n              dup4\n                /* \"#utility.yul\":8580:8598   */\n              add\n                /* \"#utility.yul\":8571:8577   */\n              dup8\n                /* \"#utility.yul\":8527:8599   */\n              tag_150\n              jump\t// in\n            tag_280:\n                /* \"#utility.yul\":8609:8681   */\n              tag_281\n                /* \"#utility.yul\":8677:8679   */\n              0x40\n                /* \"#utility.yul\":8666:8675   */\n              dup4\n                /* \"#utility.yul\":8662:8680   */\n              add\n                /* \"#utility.yul\":8653:8659   */\n              dup7\n                /* \"#utility.yul\":8609:8681   */\n              tag_153\n              jump\t// in\n            tag_281:\n                /* \"#utility.yul\":8691:8757   */\n              tag_282\n                /* \"#utility.yul\":8753:8755   */\n              0x60\n                /* \"#utility.yul\":8742:8751   */\n              dup4\n                /* \"#utility.yul\":8738:8756   */\n              add\n                /* \"#utility.yul\":8729:8735   */\n              dup6\n                /* \"#utility.yul\":8691:8757   */\n              tag_155\n              jump\t// in\n            tag_282:\n                /* \"#utility.yul\":8767:8840   */\n              tag_283\n                /* \"#utility.yul\":8835:8838   */\n              0x80\n                /* \"#utility.yul\":8824:8833   */\n              dup4\n                /* \"#utility.yul\":8820:8839   */\n              add\n                /* \"#utility.yul\":8811:8817   */\n              dup5\n                /* \"#utility.yul\":8767:8840   */\n              tag_150\n              jump\t// in\n            tag_283:\n                /* \"#utility.yul\":8104:8847   */\n              swap7\n              swap6\n              pop\n              pop\n              pop\n              pop\n              pop\n              pop\n              jump\t// out\n                /* \"#utility.yul\":8853:9719   */\n            tag_81:\n                /* \"#utility.yul\":9106:9110   */\n              0x00\n                /* \"#utility.yul\":9144:9147   */\n              0xc0\n                /* \"#utility.yul\":9133:9142   */\n              dup3\n                /* \"#utility.yul\":9129:9148   */\n              add\n                /* \"#utility.yul\":9121:9148   */\n              swap1\n              pop\n                /* \"#utility.yul\":9158:9229   */\n              tag_285\n                /* \"#utility.yul\":9226:9227   */\n              0x00\n                /* \"#utility.yul\":9215:9224   */\n              dup4\n                /* \"#utility.yul\":9211:9228   */\n              add\n                /* \"#utility.yul\":9202:9208   */\n              dup10\n                /* \"#utility.yul\":9158:9229   */\n              tag_150\n              jump\t// in\n            tag_285:\n                /* \"#utility.yul\":9239:9311   */\n              tag_286\n                /* \"#utility.yul\":9307:9309   */\n              0x20\n                /* \"#utility.yul\":9296:9305   */\n              dup4\n                /* \"#utility.yul\":9292:9310   */\n              add\n                /* \"#utility.yul\":9283:9289   */\n              dup9\n                /* \"#utility.yul\":9239:9311   */\n              tag_150\n              jump\t// in\n            tag_286:\n                /* \"#utility.yul\":9321:9393   */\n              tag_287\n                /* \"#utility.yul\":9389:9391   */\n              0x40\n                /* \"#utility.yul\":9378:9387   */\n              dup4\n                /* \"#utility.yul\":9374:9392   */\n              add\n                /* \"#utility.yul\":9365:9371   */\n              dup8\n                /* \"#utility.yul\":9321:9393   */\n              tag_150\n              jump\t// in\n            tag_287:\n                /* \"#utility.yul\":9403:9475   */\n              tag_288\n                /* \"#utility.yul\":9471:9473   */\n              0x60\n                /* \"#utility.yul\":9460:9469   */\n              dup4\n                /* \"#utility.yul\":9456:9474   */\n              add\n                /* \"#utility.yul\":9447:9453   */\n              dup7\n                /* \"#utility.yul\":9403:9475   */\n              tag_150\n              jump\t// in\n            tag_288:\n                /* \"#utility.yul\":9485:9558   */\n              tag_289\n                /* \"#utility.yul\":9553:9556   */\n              0x80\n                /* \"#utility.yul\":9542:9551   */\n              dup4\n                /* \"#utility.yul\":9538:9557   */\n              add\n                /* \"#utility.yul\":9529:9535   */\n              dup6\n                /* \"#utility.yul\":9485:9558   */\n              tag_153\n              jump\t// in\n            tag_289:\n                /* \"#utility.yul\":9606:9615   */\n              dup2\n                /* \"#utility.yul\":9600:9604   */\n              dup2\n                /* \"#utility.yul\":9596:9616   */\n              sub\n                /* \"#utility.yul\":9590:9593   */\n              0xa0\n                /* \"#utility.yul\":9579:9588   */\n              dup4\n                /* \"#utility.yul\":9575:9594   */\n              add\n                /* \"#utility.yul\":9568:9617   */\n              mstore\n                /* \"#utility.yul\":9634:9712   */\n              tag_290\n                /* \"#utility.yul\":9707:9711   */\n              dup2\n                /* \"#utility.yul\":9698:9704   */\n              dup5\n                /* \"#utility.yul\":9634:9712   */\n              tag_149\n              jump\t// in\n            tag_290:\n                /* \"#utility.yul\":9626:9712   */\n              swap1\n              pop\n                /* \"#utility.yul\":8853:9719   */\n              swap8\n              swap7\n              pop\n              pop\n              pop\n              pop\n              pop\n              pop\n              pop\n              jump\t// out\n                /* \"#utility.yul\":9725:9905   */\n            tag_167:\n                /* \"#utility.yul\":9773:9850   */\n              0x4e487b7100000000000000000000000000000000000000000000000000000000\n                /* \"#utility.yul\":9770:9771   */\n              0x00\n                /* \"#utility.yul\":9763:9851   */\n              mstore\n                /* \"#utility.yul\":9870:9874   */\n              0x22\n                /* \"#utility.yul\":9867:9868   */\n              0x04\n                /* \"#utility.yul\":9860:9875   */\n              mstore\n                /* \"#utility.yul\":9894:9898   */\n              0x24\n                /* \"#utility.yul\":9891:9892   */\n              0x00\n                /* \"#utility.yul\":9884:9899   */\n              revert\n                /* \"#utility.yul\":9911:10231   */\n            tag_87:\n                /* \"#utility.yul\":9955:9961   */\n              0x00\n                /* \"#utility.yul\":9992:9993   */\n              0x02\n                /* \"#utility.yul\":9986:9990   */\n              dup3\n                /* \"#utility.yul\":9982:9994   */\n              div\n                /* \"#utility.yul\":9972:9994   */\n              swap1\n              pop\n                /* \"#utility.yul\":10039:10040   */\n              0x01\n                /* \"#utility.yul\":10033:10037   */\n              dup3\n                /* \"#utility.yul\":10029:10041   */\n              and\n                /* \"#utility.yul\":10060:10078   */\n              dup1\n                /* \"#utility.yul\":10050:10131   */\n              tag_293\n              jumpi\n                /* \"#utility.yul\":10116:10120   */\n              0x7f\n                /* \"#utility.yul\":10108:10114   */\n              dup3\n                /* \"#utility.yul\":10104:10121   */\n              and\n                /* \"#utility.yul\":10094:10121   */\n              swap2\n              pop\n                /* \"#utility.yul\":10050:10131   */\n            tag_293:\n                /* \"#utility.yul\":10178:10180   */\n              0x20\n                /* \"#utility.yul\":10170:10176   */\n              dup3\n                /* \"#utility.yul\":10167:10181   */\n              lt\n                /* \"#utility.yul\":10147:10165   */\n              dup2\n                /* \"#utility.yul\":10144:10182   */\n              sub\n                /* \"#utility.yul\":10141:10225   */\n              tag_294\n              jumpi\n                /* \"#utility.yul\":10197:10215   */\n              tag_295\n              tag_167\n              jump\t// in\n            tag_295:\n                /* \"#utility.yul\":10141:10225   */\n            tag_294:\n                /* \"#utility.yul\":9962:10231   */\n              pop\n                /* \"#utility.yul\":9911:10231   */\n              swap2\n              swap1\n              pop\n              jump\t// out\n                /* \"#utility.yul\":10237:10378   */\n            tag_168:\n                /* \"#utility.yul\":10286:10290   */\n              0x00\n                /* \"#utility.yul\":10309:10312   */\n              dup2\n                /* \"#utility.yul\":10301:10312   */\n              swap1\n              pop\n                /* \"#utility.yul\":10332:10335   */\n              dup2\n                /* \"#utility.yul\":10329:10330   */\n              0x00\n                /* \"#utility.yul\":10322:10336   */\n              mstore\n                /* \"#utility.yul\":10366:10370   */\n              0x20\n                /* \"#utility.yul\":10363:10364   */\n              0x00\n                /* \"#utility.yul\":10353:10371   */\n              keccak256\n                /* \"#utility.yul\":10345:10371   */\n              swap1\n              pop\n                /* \"#utility.yul\":10237:10378   */\n              swap2\n              swap1\n              pop\n              jump\t// out\n                /* \"#utility.yul\":10384:10477   */\n            tag_169:\n                /* \"#utility.yul\":10421:10427   */\n              0x00\n                /* \"#utility.yul\":10468:10470   */\n              0x20\n                /* \"#utility.yul\":10463:10465   */\n              0x1f\n                /* \"#utility.yul\":10456:10461   */\n              dup4\n                /* \"#utility.yul\":10452:10466   */\n              add\n                /* \"#utility.yul\":10448:10471   */\n              div\n                /* \"#utility.yul\":10438:10471   */\n              swap1\n              pop\n                /* \"#utility.yul\":10384:10477   */\n              swap2\n              swap1\n              pop\n              jump\t// out\n                /* \"#utility.yul\":10483:10590   */\n            tag_170:\n                /* \"#utility.yul\":10527:10535   */\n              0x00\n                /* \"#utility.yul\":10577:10582   */\n              dup3\n                /* \"#utility.yul\":10571:10575   */\n              dup3\n                /* \"#utility.yul\":10567:10583   */\n              shl\n                /* \"#utility.yul\":10546:10583   */\n              swap1\n              pop\n                /* \"#utility.yul\":10483:10590   */\n              swap3\n              swap2\n              pop\n              pop\n              jump\t// out\n                /* \"#utility.yul\":10596:10989   */\n            tag_171:\n                /* \"#utility.yul\":10665:10671   */\n              0x00\n                /* \"#utility.yul\":10715:10716   */\n              0x08\n                /* \"#utility.yul\":10703:10713   */\n              dup4\n                /* \"#utility.yul\":10699:10717   */\n              mul\n                /* \"#utility.yul\":10738:10835   */\n              tag_300\n                /* \"#utility.yul\":10768:10834   */\n              0xffffffffffffffffffffffffffffffffffffffffffffffffffffffffffffffff\n                /* \"#utility.yul\":10757:10766   */\n              dup3\n                /* \"#utility.yul\":10738:10835   */\n              tag_170\n              jump\t// in\n            tag_300:\n                /* \"#utility.yul\":10856:10895   */\n              tag_301\n                /* \"#utility.yul\":10886:10894   */\n              dup7\n                /* \"#utility.yul\":10875:10884   */\n              dup4\n                /* \"#utility.yul\":10856:10895   */\n              tag_170\n              jump\t// in\n            tag_301:\n                /* \"#utility.yul\":10844:10895   */\n              swap6\n              pop\n                /* \"#utility.yul\":10928:10932   */\n              dup1\n                /* \"#utility.yul\":10924:10933   */\n              not\n                /* \"#utility.yul\":10917:10922   */\n              dup5\n                /* \"#utility.yul\":10913:10934   */\n              and\n                /* \"#utility.yul\":10904:10934   */\n              swap4\n              pop\n                /* \"#utility.yul\":10977:10981   */\n              dup1\n                /* \"#utility.yul\":10967:10975   */\n              dup7\n                /* \"#utility.yul\":10963:10982   */\n              and\n                /* \"#utility.yul\":10956:10961   */\n              dup5\n                /* \"#utility.yul\":10953:10983   */\n              or\n                /* \"#utility.yul\":10943:10983   */\n              swap3\n              pop\n                /* \"#utility.yul\":10672:10989   */\n              pop\n              pop\n                /* \"#utility.yul\":10596:10989   */\n              swap4\n              swap3\n              pop\n              pop\n              pop\n              jump\t// out\n                /* \"#utility.yul\":10995:11055   */\n            tag_172:\n                /* \"#utility.yul\":11023:11026   */\n              0x00\n                /* \"#utility.yul\":11044:11049   */\n              dup2\n                /* \"#utility.yul\":11037:11049   */\n              swap1\n              pop\n                /* \"#utility.yul\":10995:11055   */\n              swap2\n              swap1\n              pop\n              jump\t// out\n                /* \"#utility.yul\":11061:11203   */\n            tag_173:\n                /* \"#utility.yul\":11111:11120   */\n              0x00\n                /* \"#utility.yul\":11144:11197   */\n              tag_304\n                /* \"#utility.yul\":11162:11196   */\n              tag_305\n                /* \"#utility.yul\":11171:11195   */\n              tag_306\n                /* \"#utility.yul\":11189:11194   */\n              dup5\n                /* \"#utility.yul\":11171:11195   */\n              tag_142\n              jump\t// in\n            tag_306:\n                /* \"#utility.yul\":11162:11196   */\n              tag_172\n              jump\t// in\n            tag_305:\n                /* \"#utility.yul\":11144:11197   */\n              tag_142\n              jump\t// in\n            tag_304:\n                /* \"#utility.yul\":11131:11197   */\n              swap1\n              pop\n                /* \"#utility.yul\":11061:11203   */\n              swap2\n              swap1\n              pop\n              jump\t// out\n                /* \"#utility.yul\":11209:11284   */\n            tag_174:\n                /* \"#utility.yul\":11252:11255   */\n              0x00\n                /* \"#utility.yul\":11273:11278   */\n              dup2\n                /* \"#utility.yul\":11266:11278   */\n              swap1\n              pop\n                /* \"#utility.yul\":11209:11284   */\n              swap2\n              swap1\n              pop\n              jump\t// out\n                /* \"#utility.yul\":11290:11559   */\n            tag_175:\n                /* \"#utility.yul\":11400:11439   */\n              tag_309\n                /* \"#utility.yul\":11431:11438   */\n              dup4\n                /* \"#utility.yul\":11400:11439   */\n              tag_173\n              jump\t// in\n            tag_309:\n                /* \"#utility.yul\":11461:11552   */\n              tag_310\n                /* \"#utility.yul\":11510:11551   */\n              tag_311\n                /* \"#utility.yul\":11534:11550   */\n              dup3\n                /* \"#utility.yul\":11510:11551   */\n              tag_174\n              jump\t// in\n            tag_311:\n                /* \"#utility.yul\":11502:11508   */\n              dup5\n                /* \"#utility.yul\":11495:11499   */\n              dup5\n                /* \"#utility.yul\":11489:11500   */\n              sload\n                /* \"#utility.yul\":11461:11552   */\n              tag_171\n              jump\t// in\n            tag_310:\n                /* \"#utility.yul\":11455:11459   */\n              dup3\n                /* \"#utility.yul\":11448:11553   */\n              sstore\n                /* \"#utility.yul\":11366:11559   */\n              pop\n                /* \"#utility.yul\":11290:11559   */\n              pop\n              pop\n              pop\n              jump\t// out\n                /* \"#utility.yul\":11565:11638   */\n            tag_176:\n                /* \"#utility.yul\":11610:11613   */\n              0x00\n                /* \"#utility.yul\":11565:11638   */\n              swap1\n              jump\t// out\n                /* \"#utility.yul\":11644:11833   */\n            tag_177:\n                /* \"#utility.yul\":11721:11753   */\n              tag_314\n              tag_176\n              jump\t// in\n            tag_314:\n                /* \"#utility.yul\":11762:11827   */\n              tag_315\n                /* \"#utility.yul\":11820:11826   */\n              dup2\n                /* \"#utility.yul\":11812:11818   */\n              dup5\n                /* \"#utility.yul\":11806:11810   */\n              dup5\n                /* \"#utility.yul\":11762:11827   */\n              tag_175\n              jump\t// in\n            tag_315:\n                /* \"#utility.yul\":11697:11833   */\n              pop\n                /* \"#utility.yul\":11644:11833   */\n              pop\n              pop\n              jump\t// out\n                /* \"#utility.yul\":11839:12025   */\n            tag_178:\n                /* \"#utility.yul\":11899:12019   */\n            tag_317:\n                /* \"#utility.yul\":11916:11919   */\n              dup2\n                /* \"#utility.yul\":11909:11914   */\n              dup2\n                /* \"#utility.yul\":11906:11920   */\n              lt\n                /* \"#utility.yul\":11899:12019   */\n              iszero\n              tag_319\n              jumpi\n                /* \"#utility.yul\":11970:12009   */\n              tag_320\n                /* \"#utility.yul\":12007:12008   */\n              0x00\n                /* \"#utility.yul\":12000:12005   */\n              dup3\n                /* \"#utility.yul\":11970:12009   */\n              tag_177\n              jump\t// in\n            tag_320:\n                /* \"#utility.yul\":11943:11944   */\n              0x01\n                /* \"#utility.yul\":11936:11941   */\n              dup2\n                /* \"#utility.yul\":11932:11945   */\n              add\n                /* \"#utility.yul\":11923:11945   */\n              swap1\n              pop\n                /* \"#utility.yul\":11899:12019   */\n              jump(tag_317)\n            tag_319:\n                /* \"#utility.yul\":11839:12025   */\n              pop\n              pop\n              jump\t// out\n                /* \"#utility.yul\":12031:12574   */\n            tag_179:\n                /* \"#utility.yul\":12132:12134   */\n              0x1f\n                /* \"#utility.yul\":12127:12130   */\n              dup3\n                /* \"#utility.yul\":12124:12135   */\n              gt\n                /* \"#utility.yul\":12121:12567   */\n              iszero\n              tag_322\n              jumpi\n                /* \"#utility.yul\":12166:12204   */\n              tag_323\n                /* \"#utility.yul\":12198:12203   */\n              dup2\n                /* \"#utility.yul\":12166:12204   */\n              tag_168\n              jump\t// in\n            tag_323:\n                /* \"#utility.yul\":12250:12279   */\n              tag_324\n                /* \"#utility.yul\":12268:12278   */\n              dup5\n                /* \"#utility.yul\":12250:12279   */\n              tag_169\n              jump\t// in\n            tag_324:\n                /* \"#utility.yul\":12240:12248   */\n              dup2\n                /* \"#utility.yul\":12236:12280   */\n              add\n                /* \"#utility.yul\":12433:12435   */\n              0x20\n                /* \"#utility.yul\":12421:12431   */\n              dup6\n                /* \"#utility.yul\":12418:12436   */\n              lt\n                /* \"#utility.yul\":12415:12464   */\n              iszero\n              tag_325\n              jumpi\n                /* \"#utility.yul\":12454:12462   */\n              dup2\n                /* \"#utility.yul\":12439:12462   */\n              swap1\n              pop\n                /* \"#utility.yul\":12415:12464   */\n            tag_325:\n                /* \"#utility.yul\":12477:12557   */\n              tag_326\n                /* \"#utility.yul\":12533:12555   */\n              tag_327\n                /* \"#utility.yul\":12551:12554   */\n              dup6\n                /* \"#utility.yul\":12533:12555   */\n              tag_169\n              jump\t// in\n            tag_327:\n                /* \"#utility.yul\":12523:12531   */\n              dup4\n                /* \"#utility.yul\":12519:12556   */\n              add\n                /* \"#utility.yul\":12506:12517   */\n              dup3\n                /* \"#utility.yul\":12477:12557   */\n              tag_178\n              jump\t// in\n            tag_326:\n                /* \"#utility.yul\":12136:12567   */\n              pop\n              pop\n                /* \"#utility.yul\":12121:12567   */\n            tag_322:\n                /* \"#utility.yul\":12031:12574   */\n              pop\n              pop\n              pop\n              jump\t// out\n                /* \"#utility.yul\":12580:12697   */\n            tag_180:\n                /* \"#utility.yul\":12634:12642   */\n              0x00\n                /* \"#utility.yul\":12684:12689   */\n              dup3\n                /* \"#utility.yul\":12678:12682   */\n              dup3\n                /* \"#utility.yul\":12674:12690   */\n              shr\n                /* \"#utility.yul\":12653:12690   */\n              swap1\n              pop\n                /* \"#utility.yul\":12580:12697   */\n              swap3\n              swap2\n              pop\n              pop\n              jump\t// out\n                /* \"#utility.yul\":12703:12872   */\n            tag_181:\n                /* \"#utility.yul\":12747:12753   */\n              0x00\n                /* \"#utility.yul\":12780:12831   */\n              tag_330\n                /* \"#utility.yul\":12828:12829   */\n              0x00\n                /* \"#utility.yul\":12824:12830   */\n              not\n                /* \"#utility.yul\":12816:12821   */\n              dup5\n                /* \"#utility.yul\":12813:12814   */\n              0x08\n                /* \"#utility.yul\":12809:12822   */\n              mul\n                /* \"#utility.yul\":12780:12831   */\n              tag_180\n              jump\t// in\n            tag_330:\n                /* \"#utility.yul\":12776:12832   */\n              not\n                /* \"#utility.yul\":12861:12865   */\n              dup1\n                /* \"#utility.yul\":12855:12859   */\n              dup4\n                /* \"#utility.yul\":12851:12866   */\n              and\n                /* \"#utility.yul\":12841:12866   */\n              swap2\n              pop\n                /* \"#utility.yul\":12754:12872   */\n              pop\n                /* \"#utility.yul\":12703:12872   */\n              swap3\n              swap2\n              pop\n              pop\n              jump\t// out\n                /* \"#utility.yul\":12877:13172   */\n            tag_182:\n                /* \"#utility.yul\":12953:12957   */\n              0x00\n                /* \"#utility.yul\":13099:13128   */\n              tag_332\n                /* \"#utility.yul\":13124:13127   */\n              dup4\n                /* \"#utility.yul\":13118:13122   */\n              dup4\n                /* \"#utility.yul\":13099:13128   */\n              tag_181\n              jump\t// in\n            tag_332:\n                /* \"#utility.yul\":13091:13128   */\n              swap2\n              pop\n                /* \"#utility.yul\":13161:13164   */\n              dup3\n                /* \"#utility.yul\":13158:13159   */\n              0x02\n                /* \"#utility.yul\":13154:13165   */\n              mul\n                /* \"#utility.yul\":13148:13152   */\n              dup3\n                /* \"#utility.yul\":13145:13166   */\n              or\n                /* \"#utility.yul\":13137:13166   */\n              swap1\n              pop\n                /* \"#utility.yul\":12877:13172   */\n              swap3\n              swap2\n              pop\n              pop\n              jump\t// out\n                /* \"#utility.yul\":13177:14572   */\n            tag_103:\n                /* \"#utility.yul\":13294:13331   */\n              tag_334\n                /* \"#utility.yul\":13327:13330   */\n              dup3\n                /* \"#utility.yul\":13294:13331   */\n              tag_145\n              jump\t// in\n            tag_334:\n                /* \"#utility.yul\":13396:13414   */\n              0xffffffffffffffff\n                /* \"#utility.yul\":13388:13394   */\n              dup2\n                /* \"#utility.yul\":13385:13415   */\n              gt\n                /* \"#utility.yul\":13382:13438   */\n              iszero\n              tag_335\n              jumpi\n                /* \"#utility.yul\":13418:13436   */\n              tag_336\n              tag_160\n              jump\t// in\n            tag_336:\n                /* \"#utility.yul\":13382:13438   */\n            tag_335:\n                /* \"#utility.yul\":13462:13500   */\n              tag_337\n                /* \"#utility.yul\":13494:13498   */\n              dup3\n                /* \"#utility.yul\":13488:13499   */\n              sload\n                /* \"#utility.yul\":13462:13500   */\n              tag_87\n              jump\t// in\n            tag_337:\n                /* \"#utility.yul\":13547:13614   */\n              tag_338\n                /* \"#utility.yul\":13607:13613   */\n              dup3\n                /* \"#utility.yul\":13599:13605   */\n              dup3\n                /* \"#utility.yul\":13593:13597   */\n              dup6\n                /* \"#utility.yul\":13547:13614   */\n              tag_179\n              jump\t// in\n            tag_338:\n                /* \"#utility.yul\":13641:13642   */\n              0x00\n                /* \"#utility.yul\":13665:13669   */\n              0x20\n                /* \"#utility.yul\":13652:13669   */\n              swap1\n              pop\n                /* \"#utility.yul\":13697:13699   */\n              0x1f\n                /* \"#utility.yul\":13689:13695   */\n              dup4\n                /* \"#utility.yul\":13686:13700   */\n              gt\n                /* \"#utility.yul\":13714:13715   */\n              0x01\n                /* \"#utility.yul\":13709:14327   */\n              dup2\n              eq\n              tag_340\n              jumpi\n                /* \"#utility.yul\":14371:14372   */\n              0x00\n                /* \"#utility.yul\":14388:14394   */\n              dup5\n                /* \"#utility.yul\":14385:14462   */\n              iszero\n              tag_341\n              jumpi\n                /* \"#utility.yul\":14437:14446   */\n              dup3\n                /* \"#utility.yul\":14432:14435   */\n              dup8\n                /* \"#utility.yul\":14428:14447   */\n              add\n                /* \"#utility.yul\":14422:14448   */\n              mload\n                /* \"#utility.yul\":14413:14448   */\n              swap1\n              pop\n                /* \"#utility.yul\":14385:14462   */\n            tag_341:\n                /* \"#utility.yul\":14488:14555   */\n              tag_342\n                /* \"#utility.yul\":14548:14554   */\n              dup6\n                /* \"#utility.yul\":14541:14546   */\n              dup3\n                /* \"#utility.yul\":14488:14555   */\n              tag_182\n              jump\t// in\n            tag_342:\n                /* \"#utility.yul\":14482:14486   */\n              dup7\n                /* \"#utility.yul\":14475:14556   */\n              sstore\n                /* \"#utility.yul\":14344:14566   */\n              pop\n                /* \"#utility.yul\":13679:14566   */\n              jump(tag_339)\n                /* \"#utility.yul\":13709:14327   */\n            tag_340:\n                /* \"#utility.yul\":13761:13765   */\n              0x1f\n                /* \"#utility.yul\":13757:13766   */\n              not\n                /* \"#utility.yul\":13749:13755   */\n              dup5\n                /* \"#utility.yul\":13745:13767   */\n              and\n                /* \"#utility.yul\":13795:13832   */\n              tag_343\n                /* \"#utility.yul\":13827:13831   */\n              dup7\n                /* \"#utility.yul\":13795:13832   */\n              tag_168\n              jump\t// in\n            tag_343:\n                /* \"#utility.yul\":13854:13855   */\n              0x00\n                /* \"#utility.yul\":13868:14076   */\n            tag_344:\n                /* \"#utility.yul\":13882:13889   */\n              dup3\n                /* \"#utility.yul\":13879:13880   */\n              dup2\n                /* \"#utility.yul\":13876:13890   */\n              lt\n                /* \"#utility.yul\":13868:14076   */\n              iszero\n              tag_346\n              jumpi\n                /* \"#utility.yul\":13961:13970   */\n              dup5\n                /* \"#utility.yul\":13956:13959   */\n              dup10\n                /* \"#utility.yul\":13952:13971   */\n              add\n                /* \"#utility.yul\":13946:13972   */\n              mload\n                /* \"#utility.yul\":13938:13944   */\n              dup3\n                /* \"#utility.yul\":13931:13973   */\n              sstore\n                /* \"#utility.yul\":14012:14013   */\n              0x01\n                /* \"#utility.yul\":14004:14010   */\n              dup3\n                /* \"#utility.yul\":14000:14014   */\n              add\n                /* \"#utility.yul\":13990:14014   */\n              swap2\n              pop\n                /* \"#utility.yul\":14059:14061   */\n              0x20\n                /* \"#utility.yul\":14048:14057   */\n              dup6\n                /* \"#utility.yul\":14044:14062   */\n              add\n                /* \"#utility.yul\":14031:14062   */\n              swap5\n              pop\n                /* \"#utility.yul\":13905:13909   */\n              0x20\n                /* \"#utility.yul\":13902:13903   */\n              dup2\n                /* \"#utility.yul\":13898:13910   */\n              add\n                /* \"#utility.yul\":13893:13910   */\n              swap1\n              pop\n                /* \"#utility.yul\":13868:14076   */\n              jump(tag_344)\n            tag_346:\n                /* \"#utility.yul\":14104:14110   */\n              dup7\n                /* \"#utility.yul\":14095:14102   */\n              dup4\n                /* \"#utility.yul\":14092:14111   */\n              lt\n                /* \"#utility.yul\":14089:14268   */\n              iszero\n              tag_347\n              jumpi\n                /* \"#utility.yul\":14162:14171   */\n              dup5\n                /* \"#utility.yul\":14157:14160   */\n              dup10\n                /* \"#utility.yul\":14153:14172   */\n              add\n                /* \"#utility.yul\":14147:14173   */\n              mload\n                /* \"#utility.yul\":14205:14253   */\n              tag_348\n                /* \"#utility.yul\":14247:14251   */\n              0x1f\n                /* \"#utility.yul\":14239:14245   */\n              dup10\n                /* \"#utility.yul\":14235:14252   */\n              and\n                /* \"#utility.yul\":14224:14233   */\n              dup3\n                /* \"#utility.yul\":14205:14253   */\n              tag_181\n              jump\t// in\n            tag_348:\n                /* \"#utility.yul\":14197:14203   */\n              dup4\n                /* \"#utility.yul\":14190:14254   */\n              sstore\n                /* \"#utility.yul\":14112:14268   */\n              pop\n                /* \"#utility.yul\":14089:14268   */\n            tag_347:\n                /* \"#utility.yul\":14314:14315   */\n              0x01\n                /* \"#utility.yul\":14310:14311   */\n              0x02\n                /* \"#utility.yul\":14302:14308   */\n              dup9\n                /* \"#utility.yul\":14298:14312   */\n              mul\n                /* \"#utility.yul\":14294:14316   */\n              add\n                /* \"#utility.yul\":14288:14292   */\n              dup9\n                /* \"#utility.yul\":14281:14317   */\n              sstore\n                /* \"#utility.yul\":13716:14327   */\n              pop\n              pop\n              pop\n                /* \"#utility.yul\":13679:14566   */\n            tag_339:\n              pop\n                /* \"#utility.yul\":13269:14572   */\n              pop\n              pop\n              pop\n                /* \"#utility.yul\":13177:14572   */\n              pop\n              pop\n              jump\t// out\n                /* \"#utility.yul\":14578:14758   */\n            tag_183:\n                /* \"#utility.yul\":14626:14703   */\n              0x4e487b7100000000000000000000000000000000000000000000000000000000\n                /* \"#utility.yul\":14623:14624   */\n              0x00\n                /* \"#utility.yul\":14616:14704   */\n              mstore\n                /* \"#utility.yul\":14723:14727   */\n              0x11\n                /* \"#utility.yul\":14720:14721   */\n              0x04\n                /* \"#utility.yul\":14713:14728   */\n              mstore\n                /* \"#utility.yul\":14747:14751   */\n              0x24\n                /* \"#utility.yul\":14744:14745   */\n              0x00\n                /* \"#utility.yul\":14737:14752   */\n              revert\n                /* \"#utility.yul\":14764:14997   */\n            tag_105:\n                /* \"#utility.yul\":14803:14806   */\n              0x00\n                /* \"#utility.yul\":14826:14850   */\n              tag_351\n                /* \"#utility.yul\":14844:14849   */\n              dup3\n                /* \"#utility.yul\":14826:14850   */\n              tag_142\n              jump\t// in\n            tag_351:\n                /* \"#utility.yul\":14817:14850   */\n              swap2\n              pop\n                /* \"#utility.yul\":14872:14938   */\n              0xffffffffffffffffffffffffffffffffffffffffffffffffffffffffffffffff\n                /* \"#utility.yul\":14865:14870   */\n              dup3\n                /* \"#utility.yul\":14862:14939   */\n              sub\n                /* \"#utility.yul\":14859:14962   */\n              tag_352\n              jumpi\n                /* \"#utility.yul\":14942:14960   */\n              tag_353\n              tag_183\n              jump\t// in\n            tag_353:\n                /* \"#utility.yul\":14859:14962   */\n            tag_352:\n                /* \"#utility.yul\":14989:14990   */\n              0x01\n                /* \"#utility.yul\":14982:14987   */\n              dup3\n                /* \"#utility.yul\":14978:14991   */\n              add\n                /* \"#utility.yul\":14971:14991   */\n              swap1\n              pop\n                /* \"#utility.yul\":14764:14997   */\n              swap2\n              swap1\n              pop\n              jump\t// out\n                /* \"#utility.yul\":15003:15183   */\n            tag_184:\n                /* \"#utility.yul\":15051:15128   */\n              0x4e487b7100000000000000000000000000000000000000000000000000000000\n                /* \"#utility.yul\":15048:15049   */\n              0x00\n                /* \"#utility.yul\":15041:15129   */\n              mstore\n                /* \"#utility.yul\":15148:15152   */\n              0x12\n                /* \"#utility.yul\":15145:15146   */\n              0x04\n                /* \"#utility.yul\":15138:15153   */\n              mstore\n                /* \"#utility.yul\":15172:15176   */\n              0x24\n                /* \"#utility.yul\":15169:15170   */\n              0x00\n                /* \"#utility.yul\":15162:15177   */\n              revert\n                /* \"#utility.yul\":15189:15374   */\n            tag_134:\n                /* \"#utility.yul\":15229:15230   */\n              0x00\n                /* \"#utility.yul\":15246:15266   */\n              tag_356\n                /* \"#utility.yul\":15264:15265   */\n              dup3\n                /* \"#utility.yul\":15246:15266   */\n              tag_142\n              jump\t// in\n            tag_356:\n                /* \"#utility.yul\":15241:15266   */\n              swap2\n              pop\n                /* \"#utility.yul\":15280:15300   */\n              tag_357\n                /* \"#utility.yul\":15298:15299   */\n              dup4\n                /* \"#utility.yul\":15280:15300   */\n              tag_142\n              jump\t// in\n            tag_357:\n                /* \"#utility.yul\":15275:15300   */\n              swap3\n              pop\n                /* \"#utility.yul\":15319:15320   */\n              dup3\n                /* \"#utility.yul\":15309:15344   */\n              tag_358\n              jumpi\n                /* \"#utility.yul\":15324:15342   */\n              tag_359\n              tag_184\n              jump\t// in\n            tag_359:\n                /* \"#utility.yul\":15309:15344   */\n            tag_358:\n                /* \"#utility.yul\":15366:15367   */\n              dup3\n                /* \"#utility.yul\":15363:15364   */\n              dup3\n                /* \"#utility.yul\":15359:15368   */\n              div\n                /* \"#utility.yul\":15354:15368   */\n              swap1\n              pop\n                /* \"#utility.yul\":15189:15374   */\n              swap3\n              swap2\n              pop\n              pop\n              jump\t// out\n\n            auxdata: 0xa2646970667358221220e8e4ef79c31a9fd30892c2bc8efce58488d37f6b97dfbab3ac6ea8d0392ced6d64736f6c63430008110033\n        }\n    }\n\n    auxdata: 0xa264697066735822122051ee168091015653a765311b9922a7c3e649862854198ba8375ffe60a5f2a86264736f6c63430008110033\n}\n","bytecode":{"linkReferences":{},"object":"608060405234801561001057600080fd5b506122bf806100206000396000f3fe60806040523480156200001157600080fd5b5060043610620000465760003560e01c80637ac3886e146200004b5780639ec6deaf146200006d578063bf1a800314620000a3575b600080fd5b62000055620000c3565b6040516200006491906200034c565b60405180910390f35b6200008b6004803603810190620000859190620003bf565b62000153565b6040516200009a919062000402565b60405180910390f35b620000c16004803603810190620000bb919062000581565b62000193565b005b606060008054806020026020016040519081016040528092919081815260200182805480156200014957602002820191906000526020600020905b8160009054906101000a900473ffffffffffffffffffffffffffffffffffffffff1673ffffffffffffffffffffffffffffffffffffffff1681526020019060010190808311620000fe575b5050505050905090565b600081815481106200016457600080fd5b906000526020600020016000915054906101000a900473ffffffffffffffffffffffffffffffffffffffff1681565b6000828233604051620001a6906200023c565b620001b493929190620006a6565b604051809103906000f080158015620001d1573d6000803e3d6000fd5b5090506000819080600181540180825580915050600190039060005260206000200160009091909190916101000a81548173ffffffffffffffffffffffffffffffffffffffff021916908373ffffffffffffffffffffffffffffffffffffffff160217905550505050565b611b9f80620006eb83390190565b600081519050919050565b600082825260208201905092915050565b6000819050602082019050919050565b600073ffffffffffffffffffffffffffffffffffffffff82169050919050565b6000620002a38262000276565b9050919050565b620002b58162000296565b82525050565b6000620002c98383620002aa565b60208301905092915050565b6000602082019050919050565b6000620002ef826200024a565b620002fb818562000255565b9350620003088362000266565b8060005b838110156200033f578151620003238882620002bb565b97506200033083620002d5565b9250506001810190506200030c565b5085935050505092915050565b60006020820190508181036000830152620003688184620002e2565b905092915050565b6000604051905090565b600080fd5b600080fd5b6000819050919050565b620003998162000384565b8114620003a557600080fd5b50565b600081359050620003b9816200038e565b92915050565b600060208284031215620003d857620003d76200037a565b5b6000620003e884828501620003a8565b91505092915050565b620003fc8162000296565b82525050565b6000602082019050620004196000830184620003f1565b92915050565b600080fd5b600080fd5b6000601f19601f8301169050919050565b7f4e487b7100000000000000000000000000000000000000000000000000000000600052604160045260246000fd5b620004748262000429565b810181811067ffffffffffffffff821117156200049657620004956200043a565b5b80604052505050565b6000620004ab62000370565b9050620004b9828262000469565b919050565b600067ffffffffffffffff821115620004dc57620004db6200043a565b5b620004e78262000429565b9050602081019050919050565b82818337600083830152505050565b60006200051a6200051484620004be565b6200049f565b90508281526020810184848401111562000539576200053862000424565b5b62000546848285620004f4565b509392505050565b600082601f8301126200056657620005656200041f565b5b81356200057884826020860162000503565b91505092915050565b600080604083850312156200059b576200059a6200037a565b5b6000620005ab85828601620003a8565b925050602083013567ffffffffffffffff811115620005cf57620005ce6200037f565b5b620005dd858286016200054e565b9150509250929050565b620005f28162000384565b82525050565b600081519050919050565b600082825260208201905092915050565b60005b838110156200063457808201518184015260208101905062000617565b60008484015250505050565b60006200064d82620005f8565b62000659818562000603565b93506200066b81856020860162000614565b620006768162000429565b840191505092915050565b60006200068e8262000276565b9050919050565b620006a08162000681565b82525050565b6000606082019050620006bd6000830186620005e7565b8181036020830152620006d1818562000640565b9050620006e2604083018462000695565b94935050505056fe60806040526000600760006101000a81548160ff0219169083151502179055503480156200002c57600080fd5b5060405162001b9f38038062001b9f8339818101604052810190620000529190620002e8565b8260008190555080600260006101000a81548173ffffffffffffffffffffffffffffffffffffffff021916908373ffffffffffffffffffffffffffffffffffffffff1602179055508160019081620000ab9190620005a4565b505050506200068b565b6000604051905090565b600080fd5b600080fd5b6000819050919050565b620000de81620000c9565b8114620000ea57600080fd5b50565b600081519050620000fe81620000d3565b92915050565b600080fd5b600080fd5b6000601f19601f8301169050919050565b7f4e487b7100000000000000000000000000000000000000000000000000000000600052604160045260246000fd5b62000159826200010e565b810181811067ffffffffffffffff821117156200017b576200017a6200011f565b5b80604052505050565b600062000190620000b5565b90506200019e82826200014e565b919050565b600067ffffffffffffffff821115620001c157620001c06200011f565b5b620001cc826200010e565b9050602081019050919050565b60005b83811015620001f9578082015181840152602081019050620001dc565b60008484015250505050565b60006200021c6200021684620001a3565b62000184565b9050828152602081018484840111156200023b576200023a62000109565b5b62000248848285620001d9565b509392505050565b600082601f83011262000268576200026762000104565b5b81516200027a84826020860162000205565b91505092915050565b600073ffffffffffffffffffffffffffffffffffffffff82169050919050565b6000620002b08262000283565b9050919050565b620002c281620002a3565b8114620002ce57600080fd5b50565b600081519050620002e281620002b7565b92915050565b600080600060608486031215620003045762000303620000bf565b5b60006200031486828701620000ed565b935050602084015167ffffffffffffffff811115620003385762000337620000c4565b5b620003468682870162000250565b92505060406200035986828701620002d1565b9150509250925092565b600081519050919050565b7f4e487b7100000000000000000000000000000000000000000000000000000000600052602260045260246000fd5b60006002820490506001821680620003b657607f821691505b602082108103620003cc57620003cb6200036e565b5b50919050565b60008190508160005260206000209050919050565b60006020601f8301049050919050565b600082821b905092915050565b600060088302620004367fffffffffffffffffffffffffffffffffffffffffffffffffffffffffffffffff82620003f7565b620004428683620003f7565b95508019841693508086168417925050509392505050565b6000819050919050565b6000620004856200047f6200047984620000c9565b6200045a565b620000c9565b9050919050565b6000819050919050565b620004a18362000464565b620004b9620004b0826200048c565b84845462000404565b825550505050565b600090565b620004d0620004c1565b620004dd81848462000496565b505050565b5b818110156200050557620004f9600082620004c6565b600181019050620004e3565b5050565b601f82111562000554576200051e81620003d2565b6200052984620003e7565b8101602085101562000539578190505b620005516200054885620003e7565b830182620004e2565b50505b505050565b600082821c905092915050565b6000620005796000198460080262000559565b1980831691505092915050565b600062000594838362000566565b9150826002028217905092915050565b620005af8262000363565b67ffffffffffffffff811115620005cb57620005ca6200011f565b5b620005d782546200039d565b620005e482828562000509565b600060209050601f8311600181146200061c576000841562000607578287015190505b62000613858262000586565b86555062000683565b601f1984166200062c86620003d2565b60005b8281101562000656578489015182556001820191506020850194506020810190506200062f565b8683101562000676578489015162000672601f89168262000566565b8355505b6001600288020188555050505b505050505050565b611504806200069b6000396000f3fe6080604052600436106100dd5760003560e01c8063c174c8871161007f578063eb7b131211610059578063eb7b131214610294578063fdba0ed9146102bf578063ff3a9c7e14610300578063ffde974314610330576100dd565b8063c174c88714610236578063d63dc66114610261578063d7d1bbdb1461026b576100dd565b806399e0f1eb116100bb57806399e0f1eb1461018c578063a4475ce4146101b7578063a9c31840146101e2578063b7887e1f1461020d576100dd565b8063496c8ada146100e2578063647c75e214610124578063755f047b14610161575b600080fd5b3480156100ee57600080fd5b5061010960048036038101906101049190610c57565b610359565b60405161011b96959493929190610d7f565b60405180910390f35b34801561013057600080fd5b5061014b60048036038101906101469190610e13565b610457565b6040516101589190610e40565b60405180910390f35b34801561016d57600080fd5b50610176610477565b6040516101839190610e5b565b60405180910390f35b34801561019857600080fd5b506101a1610505565b6040516101ae9190610e7d565b60405180910390f35b3480156101c357600080fd5b506101cc61050b565b6040516101d99190610e98565b60405180910390f35b3480156101ee57600080fd5b506101f7610531565b6040516102049190610e7d565b60405180910390f35b34801561021957600080fd5b50610234600480360381019061022f9190610fe8565b61053b565b005b34801561024257600080fd5b5061024b61067b565b6040516102589190610e7d565b60405180910390f35b610269610681565b005b34801561027757600080fd5b50610292600480360381019061028d9190610c57565b610753565b005b3480156102a057600080fd5b506102a96108c0565b6040516102b69190610e7d565b60405180910390f35b3480156102cb57600080fd5b506102e660048036038101906102e19190610c57565b6108c6565b6040516102f7959493929190611057565b60405180910390f35b34801561030c57600080fd5b506103156109f9565b604051610327969594939291906110b1565b60405180910390f35b34801561033c57600080fd5b5061035760048036038101906103529190610c57565b610ad2565b005b600560205280600052604060002060009150905080600001805461037c90611148565b80601f01602080910402602001604051908101604052809291908181526020018280546103a890611148565b80156103f55780601f106103ca576101008083540402835291602001916103f5565b820191906000526020600020905b8154815290600101906020018083116103d857829003601f168201915b5050505050908060010154908060020160009054906101000a900473ffffffffffffffffffffffffffffffffffffffff16908060020160149054906101000a900460ff16908060030154908060050160009054906101000a900460ff16905086565b60046020528060005260406000206000915054906101000a900460ff1681565b6001805461048490611148565b80601f01602080910402602001604051908101604052809291908181526020018280546104b090611148565b80156104fd5780601f106104d2576101008083540402835291602001916104fd565b820191906000526020600020905b8154815290600101906020018083116104e057829003601f168201915b505050505081565b60005481565b600260009054906101000a900473ffffffffffffffffffffffffffffffffffffffff1681565b6000600654905090565b600260009054906101000a900473ffffffffffffffffffffffffffffffffffffffff1673ffffffffffffffffffffffffffffffffffffffff163373ffffffffffffffffffffffffffffffffffffffff161461059557600080fd5b478211156105a257600080fd5b60006005600060065481526020019081526020016000209050838160000190816105cc9190611325565b50828160010181905550818160020160006101000a81548173ffffffffffffffffffffffffffffffffffffffff021916908373ffffffffffffffffffffffffffffffffffffffff16021790555060008160020160146101000a81548160ff02191690831515021790555060018160050160006101000a81548160ff021916908315150217905550600081600301819055506006600081548092919061067090611426565b919050555050505050565b60065481565b600054341161068f57600080fd5b600460003373ffffffffffffffffffffffffffffffffffffffff1673ffffffffffffffffffffffffffffffffffffffff16815260200190815260200160002060009054906101000a900460ff166106f957600360008154809291906106f390611426565b91905055505b6001600460003373ffffffffffffffffffffffffffffffffffffffff1673ffffffffffffffffffffffffffffffffffffffff16815260200190815260200160002060006101000a81548160ff021916908315150217905550565b806005600082815260200190815260200160002060050160009054906101000a900460ff1661078157600080fd5b6000600560008481526020019081526020016000209050600460003373ffffffffffffffffffffffffffffffffffffffff1673ffffffffffffffffffffffffffffffffffffffff16815260200190815260200160002060009054906101000a900460ff166107ee57600080fd5b8060040160003373ffffffffffffffffffffffffffffffffffffffff1673ffffffffffffffffffffffffffffffffffffffff16815260200190815260200160002060009054906101000a900460ff161561084757600080fd5b60018160040160003373ffffffffffffffffffffffffffffffffffffffff1673ffffffffffffffffffffffffffffffffffffffff16815260200190815260200160002060006101000a81548160ff0219169083151502179055508060030160008154809291906108b690611426565b9190505550505050565b60035481565b6060600080600080856005600082815260200190815260200160002060050160009054906101000a900460ff166108fc57600080fd5b60006005600089815260200190815260200160002090508060000181600101548260020160009054906101000a900473ffffffffffffffffffffffffffffffffffffffff168360020160149054906101000a900460ff16846003015484805461096490611148565b80601f016020809104026020016040519081016040528092919081815260200182805461099090611148565b80156109dd5780601f106109b2576101008083540402835291602001916109dd565b820191906000526020600020905b8154815290600101906020018083116109c057829003601f168201915b5050505050945096509650965096509650505091939590929450565b6000806000806000606060005447600654600354600260009054906101000a900473ffffffffffffffffffffffffffffffffffffffff166001808054610a3e90611148565b80601f0160208091040260200160405190810160405280929190818152602001828054610a6a90611148565b8015610ab75780601f10610a8c57610100808354040283529160200191610ab7565b820191906000526020600020905b815481529060010190602001808311610a9a57829003601f168201915b50505050509050955095509550955095509550909192939495565b600260009054906101000a900473ffffffffffffffffffffffffffffffffffffffff1673ffffffffffffffffffffffffffffffffffffffff163373ffffffffffffffffffffffffffffffffffffffff1614610b2c57600080fd5b60006005600083815260200190815260200160002090506002600354610b52919061149d565b816003015411610b6157600080fd5b8060020160149054906101000a900460ff1615610b7d57600080fd5b8060020160009054906101000a900473ffffffffffffffffffffffffffffffffffffffff1673ffffffffffffffffffffffffffffffffffffffff166108fc82600101549081150290604051600060405180830381858888f19350505050158015610beb573d6000803e3d6000fd5b5060018160020160146101000a81548160ff0219169083151502179055505050565b6000604051905090565b600080fd5b600080fd5b6000819050919050565b610c3481610c21565b8114610c3f57600080fd5b50565b600081359050610c5181610c2b565b92915050565b600060208284031215610c6d57610c6c610c17565b5b6000610c7b84828501610c42565b91505092915050565b600081519050919050565b600082825260208201905092915050565b60005b83811015610cbe578082015181840152602081019050610ca3565b60008484015250505050565b6000601f19601f8301169050919050565b6000610ce682610c84565b610cf08185610c8f565b9350610d00818560208601610ca0565b610d0981610cca565b840191505092915050565b610d1d81610c21565b82525050565b600073ffffffffffffffffffffffffffffffffffffffff82169050919050565b6000610d4e82610d23565b9050919050565b610d5e81610d43565b82525050565b60008115159050919050565b610d7981610d64565b82525050565b600060c0820190508181036000830152610d998189610cdb565b9050610da86020830188610d14565b610db56040830187610d55565b610dc26060830186610d70565b610dcf6080830185610d14565b610ddc60a0830184610d70565b979650505050505050565b610df081610d43565b8114610dfb57600080fd5b50565b600081359050610e0d81610de7565b92915050565b600060208284031215610e2957610e28610c17565b5b6000610e3784828501610dfe565b91505092915050565b6000602082019050610e556000830184610d70565b92915050565b60006020820190508181036000830152610e758184610cdb565b905092915050565b6000602082019050610e926000830184610d14565b92915050565b6000602082019050610ead6000830184610d55565b92915050565b600080fd5b600080fd5b7f4e487b7100000000000000000000000000000000000000000000000000000000600052604160045260246000fd5b610ef582610cca565b810181811067ffffffffffffffff82111715610f1457610f13610ebd565b5b80604052505050565b6000610f27610c0d565b9050610f338282610eec565b919050565b600067ffffffffffffffff821115610f5357610f52610ebd565b5b610f5c82610cca565b9050602081019050919050565b82818337600083830152505050565b6000610f8b610f8684610f38565b610f1d565b905082815260208101848484011115610fa757610fa6610eb8565b5b610fb2848285610f69565b509392505050565b600082601f830112610fcf57610fce610eb3565b5b8135610fdf848260208601610f78565b91505092915050565b60008060006060848603121561100157611000610c17565b5b600084013567ffffffffffffffff81111561101f5761101e610c1c565b5b61102b86828701610fba565b935050602061103c86828701610c42565b925050604061104d86828701610dfe565b9150509250925092565b600060a08201905081810360008301526110718188610cdb565b90506110806020830187610d14565b61108d6040830186610d55565b61109a6060830185610d70565b6110a76080830184610d14565b9695505050505050565b600060c0820190506110c66000830189610d14565b6110d36020830188610d14565b6110e06040830187610d14565b6110ed6060830186610d14565b6110fa6080830185610d55565b81810360a083015261110c8184610cdb565b9050979650505050505050565b7f4e487b7100000000000000000000000000000000000000000000000000000000600052602260045260246000fd5b6000600282049050600182168061116057607f821691505b60208210810361117357611172611119565b5b50919050565b60008190508160005260206000209050919050565b60006020601f8301049050919050565b600082821b905092915050565b6000600883026111db7fffffffffffffffffffffffffffffffffffffffffffffffffffffffffffffffff8261119e565b6111e5868361119e565b95508019841693508086168417925050509392505050565b6000819050919050565b600061122261121d61121884610c21565b6111fd565b610c21565b9050919050565b6000819050919050565b61123c83611207565b61125061124882611229565b8484546111ab565b825550505050565b600090565b611265611258565b611270818484611233565b505050565b5b818110156112945761128960008261125d565b600181019050611276565b5050565b601f8211156112d9576112aa81611179565b6112b38461118e565b810160208510156112c2578190505b6112d66112ce8561118e565b830182611275565b50505b505050565b600082821c905092915050565b60006112fc600019846008026112de565b1980831691505092915050565b600061131583836112eb565b9150826002028217905092915050565b61132e82610c84565b67ffffffffffffffff81111561134757611346610ebd565b5b6113518254611148565b61135c828285611298565b600060209050601f83116001811461138f576000841561137d578287015190505b6113878582611309565b8655506113ef565b601f19841661139d86611179565b60005b828110156113c5578489015182556001820191506020850194506020810190506113a0565b868310156113e257848901516113de601f8916826112eb565b8355505b6001600288020188555050505b505050505050565b7f4e487b7100000000000000000000000000000000000000000000000000000000600052601160045260246000fd5b600061143182610c21565b91507fffffffffffffffffffffffffffffffffffffffffffffffffffffffffffffffff8203611463576114626113f7565b5b600182019050919050565b7f4e487b7100000000000000000000000000000000000000000000000000000000600052601260045260246000fd5b60006114a882610c21565b91506114b383610c21565b9250826114c3576114c261146e565b5b82820490509291505056fea2646970667358221220e8e4ef79c31a9fd30892c2bc8efce58488d37f6b97dfbab3ac6ea8d0392ced6d64736f6c63430008110033a264697066735822122051ee168091015653a765311b9922a7c3e649862854198ba8375ffe60a5f2a86264736f6c63430008110033","opcodes":"PUSH1 0x80 PUSH1 0x40 MSTORE CALLVALUE DUP1 ISZERO PUSH2 0x10 JUMPI PUSH1 0x0 DUP1 REVERT JUMPDEST POP PUSH2 0x22BF DUP1 PUSH2 0x20 PUSH1 0x0 CODECOPY PUSH1 0x0 RETURN INVALID PUSH1 0x80 PUSH1 0x40 MSTORE CALLVALUE DUP1 ISZERO PUSH3 0x11 JUMPI PUSH1 0x0 DUP1 REVERT JUMPDEST POP PUSH1 0x4 CALLDATASIZE LT PUSH3 0x46 JUMPI PUSH1 0x0 CALLDATALOAD PUSH1 0xE0 SHR DUP1 PUSH4 0x7AC3886E EQ PUSH3 0x4B JUMPI DUP1 PUSH4 0x9EC6DEAF EQ PUSH3 0x6D JUMPI DUP1 PUSH4 0xBF1A8003 EQ PUSH3 0xA3 JUMPI JUMPDEST PUSH1 0x0 DUP1 REVERT JUMPDEST PUSH3 0x55 PUSH3 0xC3 JUMP JUMPDEST PUSH1 0x40 MLOAD PUSH3 0x64 SWAP2 SWAP1 PUSH3 0x34C JUMP JUMPDEST PUSH1 0x40 MLOAD DUP1 SWAP2 SUB SWAP1 RETURN JUMPDEST PUSH3 0x8B PUSH1 0x4 DUP1 CALLDATASIZE SUB DUP2 ADD SWAP1 PUSH3 0x85 SWAP2 SWAP1 PUSH3 0x3BF JUMP JUMPDEST PUSH3 0x153 JUMP JUMPDEST PUSH1 0x40 MLOAD PUSH3 0x9A SWAP2 SWAP1 PUSH3 0x402 JUMP JUMPDEST PUSH1 0x40 MLOAD DUP1 SWAP2 SUB SWAP1 RETURN JUMPDEST PUSH3 0xC1 PUSH1 0x4 DUP1 CALLDATASIZE SUB DUP2 ADD SWAP1 PUSH3 0xBB SWAP2 SWAP1 PUSH3 0x581 JUMP JUMPDEST PUSH3 0x193 JUMP JUMPDEST STOP JUMPDEST PUSH1 0x60 PUSH1 0x0 DUP1 SLOAD DUP1 PUSH1 0x20 MUL PUSH1 0x20 ADD PUSH1 0x40 MLOAD SWAP1 DUP2 ADD PUSH1 0x40 MSTORE DUP1 SWAP3 SWAP2 SWAP1 DUP2 DUP2 MSTORE PUSH1 0x20 ADD DUP3 DUP1 SLOAD DUP1 ISZERO PUSH3 0x149 JUMPI PUSH1 0x20 MUL DUP3 ADD SWAP2 SWAP1 PUSH1 0x0 MSTORE PUSH1 0x20 PUSH1 0x0 KECCAK256 SWAP1 JUMPDEST DUP2 PUSH1 0x0 SWAP1 SLOAD SWAP1 PUSH2 0x100 EXP SWAP1 DIV PUSH20 0xFFFFFFFFFFFFFFFFFFFFFFFFFFFFFFFFFFFFFFFF AND PUSH20 0xFFFFFFFFFFFFFFFFFFFFFFFFFFFFFFFFFFFFFFFF AND DUP2 MSTORE PUSH1 0x20 ADD SWAP1 PUSH1 0x1 ADD SWAP1 DUP1 DUP4 GT PUSH3 0xFE JUMPI JUMPDEST POP POP POP POP POP SWAP1 POP SWAP1 JUMP JUMPDEST PUSH1 0x0 DUP2 DUP2 SLOAD DUP2 LT PUSH3 0x164 JUMPI PUSH1 0x0 DUP1 REVERT JUMPDEST SWAP1 PUSH1 0x0 MSTORE PUSH1 0x20 PUSH1 0x0 KECCAK256 ADD PUSH1 0x0 SWAP2 POP SLOAD SWAP1 PUSH2 0x100 EXP SWAP1 DIV PUSH20 0xFFFFFFFFFFFFFFFFFFFFFFFFFFFFFFFFFFFFFFFF AND DUP2 JUMP JUMPDEST PUSH1 0x0 DUP3 DUP3 CALLER PUSH1 0x40 MLOAD PUSH3 0x1A6 SWAP1 PUSH3 0x23C JUMP JUMPDEST PUSH3 0x1B4 SWAP4 SWAP3 SWAP2 SWAP1 PUSH3 0x6A6 JUMP JUMPDEST PUSH1 0x40 MLOAD DUP1 SWAP2 SUB SWAP1 PUSH1 0x0 CREATE DUP1 ISZERO DUP1 ISZERO PUSH3 0x1D1 JUMPI RETURNDATASIZE PUSH1 0x0 DUP1 RETURNDATACOPY RETURNDATASIZE PUSH1 0x0 REVERT JUMPDEST POP SWAP1 POP PUSH1 0x0 DUP2 SWAP1 DUP1 PUSH1 0x1 DUP2 SLOAD ADD DUP1 DUP3 SSTORE DUP1 SWAP2 POP POP PUSH1 0x1 SWAP1 SUB SWAP1 PUSH1 0x0 MSTORE PUSH1 0x20 PUSH1 0x0 KECCAK256 ADD PUSH1 0x0 SWAP1 SWAP2 SWAP1 SWAP2 SWAP1 SWAP2 PUSH2 0x100 EXP DUP2 SLOAD DUP2 PUSH20 0xFFFFFFFFFFFFFFFFFFFFFFFFFFFFFFFFFFFFFFFF MUL NOT AND SWAP1 DUP4 PUSH20 0xFFFFFFFFFFFFFFFFFFFFFFFFFFFFFFFFFFFFFFFF AND MUL OR SWAP1 SSTORE POP POP POP POP JUMP JUMPDEST PUSH2 0x1B9F DUP1 PUSH3 0x6EB DUP4 CODECOPY ADD SWAP1 JUMP JUMPDEST PUSH1 0x0 DUP2 MLOAD SWAP1 POP SWAP2 SWAP1 POP JUMP JUMPDEST PUSH1 0x0 DUP3 DUP3 MSTORE PUSH1 0x20 DUP3 ADD SWAP1 POP SWAP3 SWAP2 POP POP JUMP JUMPDEST PUSH1 0x0 DUP2 SWAP1 POP PUSH1 0x20 DUP3 ADD SWAP1 POP SWAP2 SWAP1 POP JUMP JUMPDEST PUSH1 0x0 PUSH20 0xFFFFFFFFFFFFFFFFFFFFFFFFFFFFFFFFFFFFFFFF DUP3 AND SWAP1 POP SWAP2 SWAP1 POP JUMP JUMPDEST PUSH1 0x0 PUSH3 0x2A3 DUP3 PUSH3 0x276 JUMP JUMPDEST SWAP1 POP SWAP2 SWAP1 POP JUMP JUMPDEST PUSH3 0x2B5 DUP2 PUSH3 0x296 JUMP JUMPDEST DUP3 MSTORE POP POP JUMP JUMPDEST PUSH1 0x0 PUSH3 0x2C9 DUP4 DUP4 PUSH3 0x2AA JUMP JUMPDEST PUSH1 0x20 DUP4 ADD SWAP1 POP SWAP3 SWAP2 POP POP JUMP JUMPDEST PUSH1 0x0 PUSH1 0x20 DUP3 ADD SWAP1 POP SWAP2 SWAP1 POP JUMP JUMPDEST PUSH1 0x0 PUSH3 0x2EF DUP3 PUSH3 0x24A JUMP JUMPDEST PUSH3 0x2FB DUP2 DUP6 PUSH3 0x255 JUMP JUMPDEST SWAP4 POP PUSH3 0x308 DUP4 PUSH3 0x266 JUMP JUMPDEST DUP1 PUSH1 0x0 JUMPDEST DUP4 DUP2 LT ISZERO PUSH3 0x33F JUMPI DUP2 MLOAD PUSH3 0x323 DUP9 DUP3 PUSH3 0x2BB JUMP JUMPDEST SWAP8 POP PUSH3 0x330 DUP4 PUSH3 0x2D5 JUMP JUMPDEST SWAP3 POP POP PUSH1 0x1 DUP2 ADD SWAP1 POP PUSH3 0x30C JUMP JUMPDEST POP DUP6 SWAP4 POP POP POP POP SWAP3 SWAP2 POP POP JUMP JUMPDEST PUSH1 0x0 PUSH1 0x20 DUP3 ADD SWAP1 POP DUP2 DUP2 SUB PUSH1 0x0 DUP4 ADD MSTORE PUSH3 0x368 DUP2 DUP5 PUSH3 0x2E2 JUMP JUMPDEST SWAP1 POP SWAP3 SWAP2 POP POP JUMP JUMPDEST PUSH1 0x0 PUSH1 0x40 MLOAD SWAP1 POP SWAP1 JUMP JUMPDEST PUSH1 0x0 DUP1 REVERT JUMPDEST PUSH1 0x0 DUP1 REVERT JUMPDEST PUSH1 0x0 DUP2 SWAP1 POP SWAP2 SWAP1 POP JUMP JUMPDEST PUSH3 0x399 DUP2 PUSH3 0x384 JUMP JUMPDEST DUP2 EQ PUSH3 0x3A5 JUMPI PUSH1 0x0 DUP1 REVERT JUMPDEST POP JUMP JUMPDEST PUSH1 0x0 DUP2 CALLDATALOAD SWAP1 POP PUSH3 0x3B9 DUP2 PUSH3 0x38E JUMP JUMPDEST SWAP3 SWAP2 POP POP JUMP JUMPDEST PUSH1 0x0 PUSH1 0x20 DUP3 DUP5 SUB SLT ISZERO PUSH3 0x3D8 JUMPI PUSH3 0x3D7 PUSH3 0x37A JUMP JUMPDEST JUMPDEST PUSH1 0x0 PUSH3 0x3E8 DUP5 DUP3 DUP6 ADD PUSH3 0x3A8 JUMP JUMPDEST SWAP2 POP POP SWAP3 SWAP2 POP POP JUMP JUMPDEST PUSH3 0x3FC DUP2 PUSH3 0x296 JUMP JUMPDEST DUP3 MSTORE POP POP JUMP JUMPDEST PUSH1 0x0 PUSH1 0x20 DUP3 ADD SWAP1 POP PUSH3 0x419 PUSH1 0x0 DUP4 ADD DUP5 PUSH3 0x3F1 JUMP JUMPDEST SWAP3 SWAP2 POP POP JUMP JUMPDEST PUSH1 0x0 DUP1 REVERT JUMPDEST PUSH1 0x0 DUP1 REVERT JUMPDEST PUSH1 0x0 PUSH1 0x1F NOT PUSH1 0x1F DUP4 ADD AND SWAP1 POP SWAP2 SWAP1 POP JUMP JUMPDEST PUSH32 0x4E487B7100000000000000000000000000000000000000000000000000000000 PUSH1 0x0 MSTORE PUSH1 0x41 PUSH1 0x4 MSTORE PUSH1 0x24 PUSH1 0x0 REVERT JUMPDEST PUSH3 0x474 DUP3 PUSH3 0x429 JUMP JUMPDEST DUP2 ADD DUP2 DUP2 LT PUSH8 0xFFFFFFFFFFFFFFFF DUP3 GT OR ISZERO PUSH3 0x496 JUMPI PUSH3 0x495 PUSH3 0x43A JUMP JUMPDEST JUMPDEST DUP1 PUSH1 0x40 MSTORE POP POP POP JUMP JUMPDEST PUSH1 0x0 PUSH3 0x4AB PUSH3 0x370 JUMP JUMPDEST SWAP1 POP PUSH3 0x4B9 DUP3 DUP3 PUSH3 0x469 JUMP JUMPDEST SWAP2 SWAP1 POP JUMP JUMPDEST PUSH1 0x0 PUSH8 0xFFFFFFFFFFFFFFFF DUP3 GT ISZERO PUSH3 0x4DC JUMPI PUSH3 0x4DB PUSH3 0x43A JUMP JUMPDEST JUMPDEST PUSH3 0x4E7 DUP3 PUSH3 0x429 JUMP JUMPDEST SWAP1 POP PUSH1 0x20 DUP2 ADD SWAP1 POP SWAP2 SWAP1 POP JUMP JUMPDEST DUP3 DUP2 DUP4 CALLDATACOPY PUSH1 0x0 DUP4 DUP4 ADD MSTORE POP POP POP JUMP JUMPDEST PUSH1 0x0 PUSH3 0x51A PUSH3 0x514 DUP5 PUSH3 0x4BE JUMP JUMPDEST PUSH3 0x49F JUMP JUMPDEST SWAP1 POP DUP3 DUP2 MSTORE PUSH1 0x20 DUP2 ADD DUP5 DUP5 DUP5 ADD GT ISZERO PUSH3 0x539 JUMPI PUSH3 0x538 PUSH3 0x424 JUMP JUMPDEST JUMPDEST PUSH3 0x546 DUP5 DUP3 DUP6 PUSH3 0x4F4 JUMP JUMPDEST POP SWAP4 SWAP3 POP POP POP JUMP JUMPDEST PUSH1 0x0 DUP3 PUSH1 0x1F DUP4 ADD SLT PUSH3 0x566 JUMPI PUSH3 0x565 PUSH3 0x41F JUMP JUMPDEST JUMPDEST DUP2 CALLDATALOAD PUSH3 0x578 DUP5 DUP3 PUSH1 0x20 DUP7 ADD PUSH3 0x503 JUMP JUMPDEST SWAP2 POP POP SWAP3 SWAP2 POP POP JUMP JUMPDEST PUSH1 0x0 DUP1 PUSH1 0x40 DUP4 DUP6 SUB SLT ISZERO PUSH3 0x59B JUMPI PUSH3 0x59A PUSH3 0x37A JUMP JUMPDEST JUMPDEST PUSH1 0x0 PUSH3 0x5AB DUP6 DUP3 DUP7 ADD PUSH3 0x3A8 JUMP JUMPDEST SWAP3 POP POP PUSH1 0x20 DUP4 ADD CALLDATALOAD PUSH8 0xFFFFFFFFFFFFFFFF DUP2 GT ISZERO PUSH3 0x5CF JUMPI PUSH3 0x5CE PUSH3 0x37F JUMP JUMPDEST JUMPDEST PUSH3 0x5DD DUP6 DUP3 DUP7 ADD PUSH3 0x54E JUMP JUMPDEST SWAP2 POP POP SWAP3 POP SWAP3 SWAP1 POP JUMP JUMPDEST PUSH3 0x5F2 DUP2 PUSH3 0x384 JUMP JUMPDEST DUP3 MSTORE POP POP JUMP JUMPDEST PUSH1 0x0 DUP2 MLOAD SWAP1 POP SWAP2 SWAP1 POP JUMP JUMPDEST PUSH1 0x0 DUP3 DUP3 MSTORE PUSH1 0x20 DUP3 ADD SWAP1 POP SWAP3 SWAP2 POP POP JUMP JUMPDEST PUSH1 0x0 JUMPDEST DUP4 DUP2 LT ISZERO PUSH3 0x634 JUMPI DUP1 DUP3 ADD MLOAD DUP2 DUP5 ADD MSTORE PUSH1 0x20 DUP2 ADD SWAP1 POP PUSH3 0x617 JUMP JUMPDEST PUSH1 0x0 DUP5 DUP5 ADD MSTORE POP POP POP POP JUMP JUMPDEST PUSH1 0x0 PUSH3 0x64D DUP3 PUSH3 0x5F8 JUMP JUMPDEST PUSH3 0x659 DUP2 DUP6 PUSH3 0x603 JUMP JUMPDEST SWAP4 POP PUSH3 0x66B DUP2 DUP6 PUSH1 0x20 DUP7 ADD PUSH3 0x614 JUMP JUMPDEST PUSH3 0x676 DUP2 PUSH3 0x429 JUMP JUMPDEST DUP5 ADD SWAP2 POP POP SWAP3 SWAP2 POP POP JUMP JUMPDEST PUSH1 0x0 PUSH3 0x68E DUP3 PUSH3 0x276 JUMP JUMPDEST SWAP1 POP SWAP2 SWAP1 POP JUMP JUMPDEST PUSH3 0x6A0 DUP2 PUSH3 0x681 JUMP JUMPDEST DUP3 MSTORE POP POP JUMP JUMPDEST PUSH1 0x0 PUSH1 0x60 DUP3 ADD SWAP1 POP PUSH3 0x6BD PUSH1 0x0 DUP4 ADD DUP7 PUSH3 0x5E7 JUMP JUMPDEST DUP2 DUP2 SUB PUSH1 0x20 DUP4 ADD MSTORE PUSH3 0x6D1 DUP2 DUP6 PUSH3 0x640 JUMP JUMPDEST SWAP1 POP PUSH3 0x6E2 PUSH1 0x40 DUP4 ADD DUP5 PUSH3 0x695 JUMP JUMPDEST SWAP5 SWAP4 POP POP POP POP JUMP INVALID PUSH1 0x80 PUSH1 0x40 MSTORE PUSH1 0x0 PUSH1 0x7 PUSH1 0x0 PUSH2 0x100 EXP DUP2 SLOAD DUP2 PUSH1 0xFF MUL NOT AND SWAP1 DUP4 ISZERO ISZERO MUL OR SWAP1 SSTORE POP CALLVALUE DUP1 ISZERO PUSH3 0x2C JUMPI PUSH1 0x0 DUP1 REVERT JUMPDEST POP PUSH1 0x40 MLOAD PUSH3 0x1B9F CODESIZE SUB DUP1 PUSH3 0x1B9F DUP4 CODECOPY DUP2 DUP2 ADD PUSH1 0x40 MSTORE DUP2 ADD SWAP1 PUSH3 0x52 SWAP2 SWAP1 PUSH3 0x2E8 JUMP JUMPDEST DUP3 PUSH1 0x0 DUP2 SWAP1 SSTORE POP DUP1 PUSH1 0x2 PUSH1 0x0 PUSH2 0x100 EXP DUP2 SLOAD DUP2 PUSH20 0xFFFFFFFFFFFFFFFFFFFFFFFFFFFFFFFFFFFFFFFF MUL NOT AND SWAP1 DUP4 PUSH20 0xFFFFFFFFFFFFFFFFFFFFFFFFFFFFFFFFFFFFFFFF AND MUL OR SWAP1 SSTORE POP DUP2 PUSH1 0x1 SWAP1 DUP2 PUSH3 0xAB SWAP2 SWAP1 PUSH3 0x5A4 JUMP JUMPDEST POP POP POP POP PUSH3 0x68B JUMP JUMPDEST PUSH1 0x0 PUSH1 0x40 MLOAD SWAP1 POP SWAP1 JUMP JUMPDEST PUSH1 0x0 DUP1 REVERT JUMPDEST PUSH1 0x0 DUP1 REVERT JUMPDEST PUSH1 0x0 DUP2 SWAP1 POP SWAP2 SWAP1 POP JUMP JUMPDEST PUSH3 0xDE DUP2 PUSH3 0xC9 JUMP JUMPDEST DUP2 EQ PUSH3 0xEA JUMPI PUSH1 0x0 DUP1 REVERT JUMPDEST POP JUMP JUMPDEST PUSH1 0x0 DUP2 MLOAD SWAP1 POP PUSH3 0xFE DUP2 PUSH3 0xD3 JUMP JUMPDEST SWAP3 SWAP2 POP POP JUMP JUMPDEST PUSH1 0x0 DUP1 REVERT JUMPDEST PUSH1 0x0 DUP1 REVERT JUMPDEST PUSH1 0x0 PUSH1 0x1F NOT PUSH1 0x1F DUP4 ADD AND SWAP1 POP SWAP2 SWAP1 POP JUMP JUMPDEST PUSH32 0x4E487B7100000000000000000000000000000000000000000000000000000000 PUSH1 0x0 MSTORE PUSH1 0x41 PUSH1 0x4 MSTORE PUSH1 0x24 PUSH1 0x0 REVERT JUMPDEST PUSH3 0x159 DUP3 PUSH3 0x10E JUMP JUMPDEST DUP2 ADD DUP2 DUP2 LT PUSH8 0xFFFFFFFFFFFFFFFF DUP3 GT OR ISZERO PUSH3 0x17B JUMPI PUSH3 0x17A PUSH3 0x11F JUMP JUMPDEST JUMPDEST DUP1 PUSH1 0x40 MSTORE POP POP POP JUMP JUMPDEST PUSH1 0x0 PUSH3 0x190 PUSH3 0xB5 JUMP JUMPDEST SWAP1 POP PUSH3 0x19E DUP3 DUP3 PUSH3 0x14E JUMP JUMPDEST SWAP2 SWAP1 POP JUMP JUMPDEST PUSH1 0x0 PUSH8 0xFFFFFFFFFFFFFFFF DUP3 GT ISZERO PUSH3 0x1C1 JUMPI PUSH3 0x1C0 PUSH3 0x11F JUMP JUMPDEST JUMPDEST PUSH3 0x1CC DUP3 PUSH3 0x10E JUMP JUMPDEST SWAP1 POP PUSH1 0x20 DUP2 ADD SWAP1 POP SWAP2 SWAP1 POP JUMP JUMPDEST PUSH1 0x0 JUMPDEST DUP4 DUP2 LT ISZERO PUSH3 0x1F9 JUMPI DUP1 DUP3 ADD MLOAD DUP2 DUP5 ADD MSTORE PUSH1 0x20 DUP2 ADD SWAP1 POP PUSH3 0x1DC JUMP JUMPDEST PUSH1 0x0 DUP5 DUP5 ADD MSTORE POP POP POP POP JUMP JUMPDEST PUSH1 0x0 PUSH3 0x21C PUSH3 0x216 DUP5 PUSH3 0x1A3 JUMP JUMPDEST PUSH3 0x184 JUMP JUMPDEST SWAP1 POP DUP3 DUP2 MSTORE PUSH1 0x20 DUP2 ADD DUP5 DUP5 DUP5 ADD GT ISZERO PUSH3 0x23B JUMPI PUSH3 0x23A PUSH3 0x109 JUMP JUMPDEST JUMPDEST PUSH3 0x248 DUP5 DUP3 DUP6 PUSH3 0x1D9 JUMP JUMPDEST POP SWAP4 SWAP3 POP POP POP JUMP JUMPDEST PUSH1 0x0 DUP3 PUSH1 0x1F DUP4 ADD SLT PUSH3 0x268 JUMPI PUSH3 0x267 PUSH3 0x104 JUMP JUMPDEST JUMPDEST DUP2 MLOAD PUSH3 0x27A DUP5 DUP3 PUSH1 0x20 DUP7 ADD PUSH3 0x205 JUMP JUMPDEST SWAP2 POP POP SWAP3 SWAP2 POP POP JUMP JUMPDEST PUSH1 0x0 PUSH20 0xFFFFFFFFFFFFFFFFFFFFFFFFFFFFFFFFFFFFFFFF DUP3 AND SWAP1 POP SWAP2 SWAP1 POP JUMP JUMPDEST PUSH1 0x0 PUSH3 0x2B0 DUP3 PUSH3 0x283 JUMP JUMPDEST SWAP1 POP SWAP2 SWAP1 POP JUMP JUMPDEST PUSH3 0x2C2 DUP2 PUSH3 0x2A3 JUMP JUMPDEST DUP2 EQ PUSH3 0x2CE JUMPI PUSH1 0x0 DUP1 REVERT JUMPDEST POP JUMP JUMPDEST PUSH1 0x0 DUP2 MLOAD SWAP1 POP PUSH3 0x2E2 DUP2 PUSH3 0x2B7 JUMP JUMPDEST SWAP3 SWAP2 POP POP JUMP JUMPDEST PUSH1 0x0 DUP1 PUSH1 0x0 PUSH1 0x60 DUP5 DUP7 SUB SLT ISZERO PUSH3 0x304 JUMPI PUSH3 0x303 PUSH3 0xBF JUMP JUMPDEST JUMPDEST PUSH1 0x0 PUSH3 0x314 DUP7 DUP3 DUP8 ADD PUSH3 0xED JUMP JUMPDEST SWAP4 POP POP PUSH1 0x20 DUP5 ADD MLOAD PUSH8 0xFFFFFFFFFFFFFFFF DUP2 GT ISZERO PUSH3 0x338 JUMPI PUSH3 0x337 PUSH3 0xC4 JUMP JUMPDEST JUMPDEST PUSH3 0x346 DUP7 DUP3 DUP8 ADD PUSH3 0x250 JUMP JUMPDEST SWAP3 POP POP PUSH1 0x40 PUSH3 0x359 DUP7 DUP3 DUP8 ADD PUSH3 0x2D1 JUMP JUMPDEST SWAP2 POP POP SWAP3 POP SWAP3 POP SWAP3 JUMP JUMPDEST PUSH1 0x0 DUP2 MLOAD SWAP1 POP SWAP2 SWAP1 POP JUMP JUMPDEST PUSH32 0x4E487B7100000000000000000000000000000000000000000000000000000000 PUSH1 0x0 MSTORE PUSH1 0x22 PUSH1 0x4 MSTORE PUSH1 0x24 PUSH1 0x0 REVERT JUMPDEST PUSH1 0x0 PUSH1 0x2 DUP3 DIV SWAP1 POP PUSH1 0x1 DUP3 AND DUP1 PUSH3 0x3B6 JUMPI PUSH1 0x7F DUP3 AND SWAP2 POP JUMPDEST PUSH1 0x20 DUP3 LT DUP2 SUB PUSH3 0x3CC JUMPI PUSH3 0x3CB PUSH3 0x36E JUMP JUMPDEST JUMPDEST POP SWAP2 SWAP1 POP JUMP JUMPDEST PUSH1 0x0 DUP2 SWAP1 POP DUP2 PUSH1 0x0 MSTORE PUSH1 0x20 PUSH1 0x0 KECCAK256 SWAP1 POP SWAP2 SWAP1 POP JUMP JUMPDEST PUSH1 0x0 PUSH1 0x20 PUSH1 0x1F DUP4 ADD DIV SWAP1 POP SWAP2 SWAP1 POP JUMP JUMPDEST PUSH1 0x0 DUP3 DUP3 SHL SWAP1 POP SWAP3 SWAP2 POP POP JUMP JUMPDEST PUSH1 0x0 PUSH1 0x8 DUP4 MUL PUSH3 0x436 PUSH32 0xFFFFFFFFFFFFFFFFFFFFFFFFFFFFFFFFFFFFFFFFFFFFFFFFFFFFFFFFFFFFFFFF DUP3 PUSH3 0x3F7 JUMP JUMPDEST PUSH3 0x442 DUP7 DUP4 PUSH3 0x3F7 JUMP JUMPDEST SWAP6 POP DUP1 NOT DUP5 AND SWAP4 POP DUP1 DUP7 AND DUP5 OR SWAP3 POP POP POP SWAP4 SWAP3 POP POP POP JUMP JUMPDEST PUSH1 0x0 DUP2 SWAP1 POP SWAP2 SWAP1 POP JUMP JUMPDEST PUSH1 0x0 PUSH3 0x485 PUSH3 0x47F PUSH3 0x479 DUP5 PUSH3 0xC9 JUMP JUMPDEST PUSH3 0x45A JUMP JUMPDEST PUSH3 0xC9 JUMP JUMPDEST SWAP1 POP SWAP2 SWAP1 POP JUMP JUMPDEST PUSH1 0x0 DUP2 SWAP1 POP SWAP2 SWAP1 POP JUMP JUMPDEST PUSH3 0x4A1 DUP4 PUSH3 0x464 JUMP JUMPDEST PUSH3 0x4B9 PUSH3 0x4B0 DUP3 PUSH3 0x48C JUMP JUMPDEST DUP5 DUP5 SLOAD PUSH3 0x404 JUMP JUMPDEST DUP3 SSTORE POP POP POP POP JUMP JUMPDEST PUSH1 0x0 SWAP1 JUMP JUMPDEST PUSH3 0x4D0 PUSH3 0x4C1 JUMP JUMPDEST PUSH3 0x4DD DUP2 DUP5 DUP5 PUSH3 0x496 JUMP JUMPDEST POP POP POP JUMP JUMPDEST JUMPDEST DUP2 DUP2 LT ISZERO PUSH3 0x505 JUMPI PUSH3 0x4F9 PUSH1 0x0 DUP3 PUSH3 0x4C6 JUMP JUMPDEST PUSH1 0x1 DUP2 ADD SWAP1 POP PUSH3 0x4E3 JUMP JUMPDEST POP POP JUMP JUMPDEST PUSH1 0x1F DUP3 GT ISZERO PUSH3 0x554 JUMPI PUSH3 0x51E DUP2 PUSH3 0x3D2 JUMP JUMPDEST PUSH3 0x529 DUP5 PUSH3 0x3E7 JUMP JUMPDEST DUP2 ADD PUSH1 0x20 DUP6 LT ISZERO PUSH3 0x539 JUMPI DUP2 SWAP1 POP JUMPDEST PUSH3 0x551 PUSH3 0x548 DUP6 PUSH3 0x3E7 JUMP JUMPDEST DUP4 ADD DUP3 PUSH3 0x4E2 JUMP JUMPDEST POP POP JUMPDEST POP POP POP JUMP JUMPDEST PUSH1 0x0 DUP3 DUP3 SHR SWAP1 POP SWAP3 SWAP2 POP POP JUMP JUMPDEST PUSH1 0x0 PUSH3 0x579 PUSH1 0x0 NOT DUP5 PUSH1 0x8 MUL PUSH3 0x559 JUMP JUMPDEST NOT DUP1 DUP4 AND SWAP2 POP POP SWAP3 SWAP2 POP POP JUMP JUMPDEST PUSH1 0x0 PUSH3 0x594 DUP4 DUP4 PUSH3 0x566 JUMP JUMPDEST SWAP2 POP DUP3 PUSH1 0x2 MUL DUP3 OR SWAP1 POP SWAP3 SWAP2 POP POP JUMP JUMPDEST PUSH3 0x5AF DUP3 PUSH3 0x363 JUMP JUMPDEST PUSH8 0xFFFFFFFFFFFFFFFF DUP2 GT ISZERO PUSH3 0x5CB JUMPI PUSH3 0x5CA PUSH3 0x11F JUMP JUMPDEST JUMPDEST PUSH3 0x5D7 DUP3 SLOAD PUSH3 0x39D JUMP JUMPDEST PUSH3 0x5E4 DUP3 DUP3 DUP6 PUSH3 0x509 JUMP JUMPDEST PUSH1 0x0 PUSH1 0x20 SWAP1 POP PUSH1 0x1F DUP4 GT PUSH1 0x1 DUP2 EQ PUSH3 0x61C JUMPI PUSH1 0x0 DUP5 ISZERO PUSH3 0x607 JUMPI DUP3 DUP8 ADD MLOAD SWAP1 POP JUMPDEST PUSH3 0x613 DUP6 DUP3 PUSH3 0x586 JUMP JUMPDEST DUP7 SSTORE POP PUSH3 0x683 JUMP JUMPDEST PUSH1 0x1F NOT DUP5 AND PUSH3 0x62C DUP7 PUSH3 0x3D2 JUMP JUMPDEST PUSH1 0x0 JUMPDEST DUP3 DUP2 LT ISZERO PUSH3 0x656 JUMPI DUP5 DUP10 ADD MLOAD DUP3 SSTORE PUSH1 0x1 DUP3 ADD SWAP2 POP PUSH1 0x20 DUP6 ADD SWAP5 POP PUSH1 0x20 DUP2 ADD SWAP1 POP PUSH3 0x62F JUMP JUMPDEST DUP7 DUP4 LT ISZERO PUSH3 0x676 JUMPI DUP5 DUP10 ADD MLOAD PUSH3 0x672 PUSH1 0x1F DUP10 AND DUP3 PUSH3 0x566 JUMP JUMPDEST DUP4 SSTORE POP JUMPDEST PUSH1 0x1 PUSH1 0x2 DUP9 MUL ADD DUP9 SSTORE POP POP POP JUMPDEST POP POP POP POP POP POP JUMP JUMPDEST PUSH2 0x1504 DUP1 PUSH3 0x69B PUSH1 0x0 CODECOPY PUSH1 0x0 RETURN INVALID PUSH1 0x80 PUSH1 0x40 MSTORE PUSH1 0x4 CALLDATASIZE LT PUSH2 0xDD JUMPI PUSH1 0x0 CALLDATALOAD PUSH1 0xE0 SHR DUP1 PUSH4 0xC174C887 GT PUSH2 0x7F JUMPI DUP1 PUSH4 0xEB7B1312 GT PUSH2 0x59 JUMPI DUP1 PUSH4 0xEB7B1312 EQ PUSH2 0x294 JUMPI DUP1 PUSH4 0xFDBA0ED9 EQ PUSH2 0x2BF JUMPI DUP1 PUSH4 0xFF3A9C7E EQ PUSH2 0x300 JUMPI DUP1 PUSH4 0xFFDE9743 EQ PUSH2 0x330 JUMPI PUSH2 0xDD JUMP JUMPDEST DUP1 PUSH4 0xC174C887 EQ PUSH2 0x236 JUMPI DUP1 PUSH4 0xD63DC661 EQ PUSH2 0x261 JUMPI DUP1 PUSH4 0xD7D1BBDB EQ PUSH2 0x26B JUMPI PUSH2 0xDD JUMP JUMPDEST DUP1 PUSH4 0x99E0F1EB GT PUSH2 0xBB JUMPI DUP1 PUSH4 0x99E0F1EB EQ PUSH2 0x18C JUMPI DUP1 PUSH4 0xA4475CE4 EQ PUSH2 0x1B7 JUMPI DUP1 PUSH4 0xA9C31840 EQ PUSH2 0x1E2 JUMPI DUP1 PUSH4 0xB7887E1F EQ PUSH2 0x20D JUMPI PUSH2 0xDD JUMP JUMPDEST DUP1 PUSH4 0x496C8ADA EQ PUSH2 0xE2 JUMPI DUP1 PUSH4 0x647C75E2 EQ PUSH2 0x124 JUMPI DUP1 PUSH4 0x755F047B EQ PUSH2 0x161 JUMPI JUMPDEST PUSH1 0x0 DUP1 REVERT JUMPDEST CALLVALUE DUP1 ISZERO PUSH2 0xEE JUMPI PUSH1 0x0 DUP1 REVERT JUMPDEST POP PUSH2 0x109 PUSH1 0x4 DUP1 CALLDATASIZE SUB DUP2 ADD SWAP1 PUSH2 0x104 SWAP2 SWAP1 PUSH2 0xC57 JUMP JUMPDEST PUSH2 0x359 JUMP JUMPDEST PUSH1 0x40 MLOAD PUSH2 0x11B SWAP7 SWAP6 SWAP5 SWAP4 SWAP3 SWAP2 SWAP1 PUSH2 0xD7F JUMP JUMPDEST PUSH1 0x40 MLOAD DUP1 SWAP2 SUB SWAP1 RETURN JUMPDEST CALLVALUE DUP1 ISZERO PUSH2 0x130 JUMPI PUSH1 0x0 DUP1 REVERT JUMPDEST POP PUSH2 0x14B PUSH1 0x4 DUP1 CALLDATASIZE SUB DUP2 ADD SWAP1 PUSH2 0x146 SWAP2 SWAP1 PUSH2 0xE13 JUMP JUMPDEST PUSH2 0x457 JUMP JUMPDEST PUSH1 0x40 MLOAD PUSH2 0x158 SWAP2 SWAP1 PUSH2 0xE40 JUMP JUMPDEST PUSH1 0x40 MLOAD DUP1 SWAP2 SUB SWAP1 RETURN JUMPDEST CALLVALUE DUP1 ISZERO PUSH2 0x16D JUMPI PUSH1 0x0 DUP1 REVERT JUMPDEST POP PUSH2 0x176 PUSH2 0x477 JUMP JUMPDEST PUSH1 0x40 MLOAD PUSH2 0x183 SWAP2 SWAP1 PUSH2 0xE5B JUMP JUMPDEST PUSH1 0x40 MLOAD DUP1 SWAP2 SUB SWAP1 RETURN JUMPDEST CALLVALUE DUP1 ISZERO PUSH2 0x198 JUMPI PUSH1 0x0 DUP1 REVERT JUMPDEST POP PUSH2 0x1A1 PUSH2 0x505 JUMP JUMPDEST PUSH1 0x40 MLOAD PUSH2 0x1AE SWAP2 SWAP1 PUSH2 0xE7D JUMP JUMPDEST PUSH1 0x40 MLOAD DUP1 SWAP2 SUB SWAP1 RETURN JUMPDEST CALLVALUE DUP1 ISZERO PUSH2 0x1C3 JUMPI PUSH1 0x0 DUP1 REVERT JUMPDEST POP PUSH2 0x1CC PUSH2 0x50B JUMP JUMPDEST PUSH1 0x40 MLOAD PUSH2 0x1D9 SWAP2 SWAP1 PUSH2 0xE98 JUMP JUMPDEST PUSH1 0x40 MLOAD DUP1 SWAP2 SUB SWAP1 RETURN JUMPDEST CALLVALUE DUP1 ISZERO PUSH2 0x1EE JUMPI PUSH1 0x0 DUP1 REVERT JUMPDEST POP PUSH2 0x1F7 PUSH2 0x531 JUMP JUMPDEST PUSH1 0x40 MLOAD PUSH2 0x204 SWAP2 SWAP1 PUSH2 0xE7D JUMP JUMPDEST PUSH1 0x40 MLOAD DUP1 SWAP2 SUB SWAP1 RETURN JUMPDEST CALLVALUE DUP1 ISZERO PUSH2 0x219 JUMPI PUSH1 0x0 DUP1 REVERT JUMPDEST POP PUSH2 0x234 PUSH1 0x4 DUP1 CALLDATASIZE SUB DUP2 ADD SWAP1 PUSH2 0x22F SWAP2 SWAP1 PUSH2 0xFE8 JUMP JUMPDEST PUSH2 0x53B JUMP JUMPDEST STOP JUMPDEST CALLVALUE DUP1 ISZERO PUSH2 0x242 JUMPI PUSH1 0x0 DUP1 REVERT JUMPDEST POP PUSH2 0x24B PUSH2 0x67B JUMP JUMPDEST PUSH1 0x40 MLOAD PUSH2 0x258 SWAP2 SWAP1 PUSH2 0xE7D JUMP JUMPDEST PUSH1 0x40 MLOAD DUP1 SWAP2 SUB SWAP1 RETURN JUMPDEST PUSH2 0x269 PUSH2 0x681 JUMP JUMPDEST STOP JUMPDEST CALLVALUE DUP1 ISZERO PUSH2 0x277 JUMPI PUSH1 0x0 DUP1 REVERT JUMPDEST POP PUSH2 0x292 PUSH1 0x4 DUP1 CALLDATASIZE SUB DUP2 ADD SWAP1 PUSH2 0x28D SWAP2 SWAP1 PUSH2 0xC57 JUMP JUMPDEST PUSH2 0x753 JUMP JUMPDEST STOP JUMPDEST CALLVALUE DUP1 ISZERO PUSH2 0x2A0 JUMPI PUSH1 0x0 DUP1 REVERT JUMPDEST POP PUSH2 0x2A9 PUSH2 0x8C0 JUMP JUMPDEST PUSH1 0x40 MLOAD PUSH2 0x2B6 SWAP2 SWAP1 PUSH2 0xE7D JUMP JUMPDEST PUSH1 0x40 MLOAD DUP1 SWAP2 SUB SWAP1 RETURN JUMPDEST CALLVALUE DUP1 ISZERO PUSH2 0x2CB JUMPI PUSH1 0x0 DUP1 REVERT JUMPDEST POP PUSH2 0x2E6 PUSH1 0x4 DUP1 CALLDATASIZE SUB DUP2 ADD SWAP1 PUSH2 0x2E1 SWAP2 SWAP1 PUSH2 0xC57 JUMP JUMPDEST PUSH2 0x8C6 JUMP JUMPDEST PUSH1 0x40 MLOAD PUSH2 0x2F7 SWAP6 SWAP5 SWAP4 SWAP3 SWAP2 SWAP1 PUSH2 0x1057 JUMP JUMPDEST PUSH1 0x40 MLOAD DUP1 SWAP2 SUB SWAP1 RETURN JUMPDEST CALLVALUE DUP1 ISZERO PUSH2 0x30C JUMPI PUSH1 0x0 DUP1 REVERT JUMPDEST POP PUSH2 0x315 PUSH2 0x9F9 JUMP JUMPDEST PUSH1 0x40 MLOAD PUSH2 0x327 SWAP7 SWAP6 SWAP5 SWAP4 SWAP3 SWAP2 SWAP1 PUSH2 0x10B1 JUMP JUMPDEST PUSH1 0x40 MLOAD DUP1 SWAP2 SUB SWAP1 RETURN JUMPDEST CALLVALUE DUP1 ISZERO PUSH2 0x33C JUMPI PUSH1 0x0 DUP1 REVERT JUMPDEST POP PUSH2 0x357 PUSH1 0x4 DUP1 CALLDATASIZE SUB DUP2 ADD SWAP1 PUSH2 0x352 SWAP2 SWAP1 PUSH2 0xC57 JUMP JUMPDEST PUSH2 0xAD2 JUMP JUMPDEST STOP JUMPDEST PUSH1 0x5 PUSH1 0x20 MSTORE DUP1 PUSH1 0x0 MSTORE PUSH1 0x40 PUSH1 0x0 KECCAK256 PUSH1 0x0 SWAP2 POP SWAP1 POP DUP1 PUSH1 0x0 ADD DUP1 SLOAD PUSH2 0x37C SWAP1 PUSH2 0x1148 JUMP JUMPDEST DUP1 PUSH1 0x1F ADD PUSH1 0x20 DUP1 SWAP2 DIV MUL PUSH1 0x20 ADD PUSH1 0x40 MLOAD SWAP1 DUP2 ADD PUSH1 0x40 MSTORE DUP1 SWAP3 SWAP2 SWAP1 DUP2 DUP2 MSTORE PUSH1 0x20 ADD DUP3 DUP1 SLOAD PUSH2 0x3A8 SWAP1 PUSH2 0x1148 JUMP JUMPDEST DUP1 ISZERO PUSH2 0x3F5 JUMPI DUP1 PUSH1 0x1F LT PUSH2 0x3CA JUMPI PUSH2 0x100 DUP1 DUP4 SLOAD DIV MUL DUP4 MSTORE SWAP2 PUSH1 0x20 ADD SWAP2 PUSH2 0x3F5 JUMP JUMPDEST DUP3 ADD SWAP2 SWAP1 PUSH1 0x0 MSTORE PUSH1 0x20 PUSH1 0x0 KECCAK256 SWAP1 JUMPDEST DUP2 SLOAD DUP2 MSTORE SWAP1 PUSH1 0x1 ADD SWAP1 PUSH1 0x20 ADD DUP1 DUP4 GT PUSH2 0x3D8 JUMPI DUP3 SWAP1 SUB PUSH1 0x1F AND DUP3 ADD SWAP2 JUMPDEST POP POP POP POP POP SWAP1 DUP1 PUSH1 0x1 ADD SLOAD SWAP1 DUP1 PUSH1 0x2 ADD PUSH1 0x0 SWAP1 SLOAD SWAP1 PUSH2 0x100 EXP SWAP1 DIV PUSH20 0xFFFFFFFFFFFFFFFFFFFFFFFFFFFFFFFFFFFFFFFF AND SWAP1 DUP1 PUSH1 0x2 ADD PUSH1 0x14 SWAP1 SLOAD SWAP1 PUSH2 0x100 EXP SWAP1 DIV PUSH1 0xFF AND SWAP1 DUP1 PUSH1 0x3 ADD SLOAD SWAP1 DUP1 PUSH1 0x5 ADD PUSH1 0x0 SWAP1 SLOAD SWAP1 PUSH2 0x100 EXP SWAP1 DIV PUSH1 0xFF AND SWAP1 POP DUP7 JUMP JUMPDEST PUSH1 0x4 PUSH1 0x20 MSTORE DUP1 PUSH1 0x0 MSTORE PUSH1 0x40 PUSH1 0x0 KECCAK256 PUSH1 0x0 SWAP2 POP SLOAD SWAP1 PUSH2 0x100 EXP SWAP1 DIV PUSH1 0xFF AND DUP2 JUMP JUMPDEST PUSH1 0x1 DUP1 SLOAD PUSH2 0x484 SWAP1 PUSH2 0x1148 JUMP JUMPDEST DUP1 PUSH1 0x1F ADD PUSH1 0x20 DUP1 SWAP2 DIV MUL PUSH1 0x20 ADD PUSH1 0x40 MLOAD SWAP1 DUP2 ADD PUSH1 0x40 MSTORE DUP1 SWAP3 SWAP2 SWAP1 DUP2 DUP2 MSTORE PUSH1 0x20 ADD DUP3 DUP1 SLOAD PUSH2 0x4B0 SWAP1 PUSH2 0x1148 JUMP JUMPDEST DUP1 ISZERO PUSH2 0x4FD JUMPI DUP1 PUSH1 0x1F LT PUSH2 0x4D2 JUMPI PUSH2 0x100 DUP1 DUP4 SLOAD DIV MUL DUP4 MSTORE SWAP2 PUSH1 0x20 ADD SWAP2 PUSH2 0x4FD JUMP JUMPDEST DUP3 ADD SWAP2 SWAP1 PUSH1 0x0 MSTORE PUSH1 0x20 PUSH1 0x0 KECCAK256 SWAP1 JUMPDEST DUP2 SLOAD DUP2 MSTORE SWAP1 PUSH1 0x1 ADD SWAP1 PUSH1 0x20 ADD DUP1 DUP4 GT PUSH2 0x4E0 JUMPI DUP3 SWAP1 SUB PUSH1 0x1F AND DUP3 ADD SWAP2 JUMPDEST POP POP POP POP POP DUP2 JUMP JUMPDEST PUSH1 0x0 SLOAD DUP2 JUMP JUMPDEST PUSH1 0x2 PUSH1 0x0 SWAP1 SLOAD SWAP1 PUSH2 0x100 EXP SWAP1 DIV PUSH20 0xFFFFFFFFFFFFFFFFFFFFFFFFFFFFFFFFFFFFFFFF AND DUP2 JUMP JUMPDEST PUSH1 0x0 PUSH1 0x6 SLOAD SWAP1 POP SWAP1 JUMP JUMPDEST PUSH1 0x2 PUSH1 0x0 SWAP1 SLOAD SWAP1 PUSH2 0x100 EXP SWAP1 DIV PUSH20 0xFFFFFFFFFFFFFFFFFFFFFFFFFFFFFFFFFFFFFFFF AND PUSH20 0xFFFFFFFFFFFFFFFFFFFFFFFFFFFFFFFFFFFFFFFF AND CALLER PUSH20 0xFFFFFFFFFFFFFFFFFFFFFFFFFFFFFFFFFFFFFFFF AND EQ PUSH2 0x595 JUMPI PUSH1 0x0 DUP1 REVERT JUMPDEST SELFBALANCE DUP3 GT ISZERO PUSH2 0x5A2 JUMPI PUSH1 0x0 DUP1 REVERT JUMPDEST PUSH1 0x0 PUSH1 0x5 PUSH1 0x0 PUSH1 0x6 SLOAD DUP2 MSTORE PUSH1 0x20 ADD SWAP1 DUP2 MSTORE PUSH1 0x20 ADD PUSH1 0x0 KECCAK256 SWAP1 POP DUP4 DUP2 PUSH1 0x0 ADD SWAP1 DUP2 PUSH2 0x5CC SWAP2 SWAP1 PUSH2 0x1325 JUMP JUMPDEST POP DUP3 DUP2 PUSH1 0x1 ADD DUP2 SWAP1 SSTORE POP DUP2 DUP2 PUSH1 0x2 ADD PUSH1 0x0 PUSH2 0x100 EXP DUP2 SLOAD DUP2 PUSH20 0xFFFFFFFFFFFFFFFFFFFFFFFFFFFFFFFFFFFFFFFF MUL NOT AND SWAP1 DUP4 PUSH20 0xFFFFFFFFFFFFFFFFFFFFFFFFFFFFFFFFFFFFFFFF AND MUL OR SWAP1 SSTORE POP PUSH1 0x0 DUP2 PUSH1 0x2 ADD PUSH1 0x14 PUSH2 0x100 EXP DUP2 SLOAD DUP2 PUSH1 0xFF MUL NOT AND SWAP1 DUP4 ISZERO ISZERO MUL OR SWAP1 SSTORE POP PUSH1 0x1 DUP2 PUSH1 0x5 ADD PUSH1 0x0 PUSH2 0x100 EXP DUP2 SLOAD DUP2 PUSH1 0xFF MUL NOT AND SWAP1 DUP4 ISZERO ISZERO MUL OR SWAP1 SSTORE POP PUSH1 0x0 DUP2 PUSH1 0x3 ADD DUP2 SWAP1 SSTORE POP PUSH1 0x6 PUSH1 0x0 DUP2 SLOAD DUP1 SWAP3 SWAP2 SWAP1 PUSH2 0x670 SWAP1 PUSH2 0x1426 JUMP JUMPDEST SWAP2 SWAP1 POP SSTORE POP POP POP POP POP JUMP JUMPDEST PUSH1 0x6 SLOAD DUP2 JUMP JUMPDEST PUSH1 0x0 SLOAD CALLVALUE GT PUSH2 0x68F JUMPI PUSH1 0x0 DUP1 REVERT JUMPDEST PUSH1 0x4 PUSH1 0x0 CALLER PUSH20 0xFFFFFFFFFFFFFFFFFFFFFFFFFFFFFFFFFFFFFFFF AND PUSH20 0xFFFFFFFFFFFFFFFFFFFFFFFFFFFFFFFFFFFFFFFF AND DUP2 MSTORE PUSH1 0x20 ADD SWAP1 DUP2 MSTORE PUSH1 0x20 ADD PUSH1 0x0 KECCAK256 PUSH1 0x0 SWAP1 SLOAD SWAP1 PUSH2 0x100 EXP SWAP1 DIV PUSH1 0xFF AND PUSH2 0x6F9 JUMPI PUSH1 0x3 PUSH1 0x0 DUP2 SLOAD DUP1 SWAP3 SWAP2 SWAP1 PUSH2 0x6F3 SWAP1 PUSH2 0x1426 JUMP JUMPDEST SWAP2 SWAP1 POP SSTORE POP JUMPDEST PUSH1 0x1 PUSH1 0x4 PUSH1 0x0 CALLER PUSH20 0xFFFFFFFFFFFFFFFFFFFFFFFFFFFFFFFFFFFFFFFF AND PUSH20 0xFFFFFFFFFFFFFFFFFFFFFFFFFFFFFFFFFFFFFFFF AND DUP2 MSTORE PUSH1 0x20 ADD SWAP1 DUP2 MSTORE PUSH1 0x20 ADD PUSH1 0x0 KECCAK256 PUSH1 0x0 PUSH2 0x100 EXP DUP2 SLOAD DUP2 PUSH1 0xFF MUL NOT AND SWAP1 DUP4 ISZERO ISZERO MUL OR SWAP1 SSTORE POP JUMP JUMPDEST DUP1 PUSH1 0x5 PUSH1 0x0 DUP3 DUP2 MSTORE PUSH1 0x20 ADD SWAP1 DUP2 MSTORE PUSH1 0x20 ADD PUSH1 0x0 KECCAK256 PUSH1 0x5 ADD PUSH1 0x0 SWAP1 SLOAD SWAP1 PUSH2 0x100 EXP SWAP1 DIV PUSH1 0xFF AND PUSH2 0x781 JUMPI PUSH1 0x0 DUP1 REVERT JUMPDEST PUSH1 0x0 PUSH1 0x5 PUSH1 0x0 DUP5 DUP2 MSTORE PUSH1 0x20 ADD SWAP1 DUP2 MSTORE PUSH1 0x20 ADD PUSH1 0x0 KECCAK256 SWAP1 POP PUSH1 0x4 PUSH1 0x0 CALLER PUSH20 0xFFFFFFFFFFFFFFFFFFFFFFFFFFFFFFFFFFFFFFFF AND PUSH20 0xFFFFFFFFFFFFFFFFFFFFFFFFFFFFFFFFFFFFFFFF AND DUP2 MSTORE PUSH1 0x20 ADD SWAP1 DUP2 MSTORE PUSH1 0x20 ADD PUSH1 0x0 KECCAK256 PUSH1 0x0 SWAP1 SLOAD SWAP1 PUSH2 0x100 EXP SWAP1 DIV PUSH1 0xFF AND PUSH2 0x7EE JUMPI PUSH1 0x0 DUP1 REVERT JUMPDEST DUP1 PUSH1 0x4 ADD PUSH1 0x0 CALLER PUSH20 0xFFFFFFFFFFFFFFFFFFFFFFFFFFFFFFFFFFFFFFFF AND PUSH20 0xFFFFFFFFFFFFFFFFFFFFFFFFFFFFFFFFFFFFFFFF AND DUP2 MSTORE PUSH1 0x20 ADD SWAP1 DUP2 MSTORE PUSH1 0x20 ADD PUSH1 0x0 KECCAK256 PUSH1 0x0 SWAP1 SLOAD SWAP1 PUSH2 0x100 EXP SWAP1 DIV PUSH1 0xFF AND ISZERO PUSH2 0x847 JUMPI PUSH1 0x0 DUP1 REVERT JUMPDEST PUSH1 0x1 DUP2 PUSH1 0x4 ADD PUSH1 0x0 CALLER PUSH20 0xFFFFFFFFFFFFFFFFFFFFFFFFFFFFFFFFFFFFFFFF AND PUSH20 0xFFFFFFFFFFFFFFFFFFFFFFFFFFFFFFFFFFFFFFFF AND DUP2 MSTORE PUSH1 0x20 ADD SWAP1 DUP2 MSTORE PUSH1 0x20 ADD PUSH1 0x0 KECCAK256 PUSH1 0x0 PUSH2 0x100 EXP DUP2 SLOAD DUP2 PUSH1 0xFF MUL NOT AND SWAP1 DUP4 ISZERO ISZERO MUL OR SWAP1 SSTORE POP DUP1 PUSH1 0x3 ADD PUSH1 0x0 DUP2 SLOAD DUP1 SWAP3 SWAP2 SWAP1 PUSH2 0x8B6 SWAP1 PUSH2 0x1426 JUMP JUMPDEST SWAP2 SWAP1 POP SSTORE POP POP POP POP JUMP JUMPDEST PUSH1 0x3 SLOAD DUP2 JUMP JUMPDEST PUSH1 0x60 PUSH1 0x0 DUP1 PUSH1 0x0 DUP1 DUP6 PUSH1 0x5 PUSH1 0x0 DUP3 DUP2 MSTORE PUSH1 0x20 ADD SWAP1 DUP2 MSTORE PUSH1 0x20 ADD PUSH1 0x0 KECCAK256 PUSH1 0x5 ADD PUSH1 0x0 SWAP1 SLOAD SWAP1 PUSH2 0x100 EXP SWAP1 DIV PUSH1 0xFF AND PUSH2 0x8FC JUMPI PUSH1 0x0 DUP1 REVERT JUMPDEST PUSH1 0x0 PUSH1 0x5 PUSH1 0x0 DUP10 DUP2 MSTORE PUSH1 0x20 ADD SWAP1 DUP2 MSTORE PUSH1 0x20 ADD PUSH1 0x0 KECCAK256 SWAP1 POP DUP1 PUSH1 0x0 ADD DUP2 PUSH1 0x1 ADD SLOAD DUP3 PUSH1 0x2 ADD PUSH1 0x0 SWAP1 SLOAD SWAP1 PUSH2 0x100 EXP SWAP1 DIV PUSH20 0xFFFFFFFFFFFFFFFFFFFFFFFFFFFFFFFFFFFFFFFF AND DUP4 PUSH1 0x2 ADD PUSH1 0x14 SWAP1 SLOAD SWAP1 PUSH2 0x100 EXP SWAP1 DIV PUSH1 0xFF AND DUP5 PUSH1 0x3 ADD SLOAD DUP5 DUP1 SLOAD PUSH2 0x964 SWAP1 PUSH2 0x1148 JUMP JUMPDEST DUP1 PUSH1 0x1F ADD PUSH1 0x20 DUP1 SWAP2 DIV MUL PUSH1 0x20 ADD PUSH1 0x40 MLOAD SWAP1 DUP2 ADD PUSH1 0x40 MSTORE DUP1 SWAP3 SWAP2 SWAP1 DUP2 DUP2 MSTORE PUSH1 0x20 ADD DUP3 DUP1 SLOAD PUSH2 0x990 SWAP1 PUSH2 0x1148 JUMP JUMPDEST DUP1 ISZERO PUSH2 0x9DD JUMPI DUP1 PUSH1 0x1F LT PUSH2 0x9B2 JUMPI PUSH2 0x100 DUP1 DUP4 SLOAD DIV MUL DUP4 MSTORE SWAP2 PUSH1 0x20 ADD SWAP2 PUSH2 0x9DD JUMP JUMPDEST DUP3 ADD SWAP2 SWAP1 PUSH1 0x0 MSTORE PUSH1 0x20 PUSH1 0x0 KECCAK256 SWAP1 JUMPDEST DUP2 SLOAD DUP2 MSTORE SWAP1 PUSH1 0x1 ADD SWAP1 PUSH1 0x20 ADD DUP1 DUP4 GT PUSH2 0x9C0 JUMPI DUP3 SWAP1 SUB PUSH1 0x1F AND DUP3 ADD SWAP2 JUMPDEST POP POP POP POP POP SWAP5 POP SWAP7 POP SWAP7 POP SWAP7 POP SWAP7 POP SWAP7 POP POP POP SWAP2 SWAP4 SWAP6 SWAP1 SWAP3 SWAP5 POP JUMP JUMPDEST PUSH1 0x0 DUP1 PUSH1 0x0 DUP1 PUSH1 0x0 PUSH1 0x60 PUSH1 0x0 SLOAD SELFBALANCE PUSH1 0x6 SLOAD PUSH1 0x3 SLOAD PUSH1 0x2 PUSH1 0x0 SWAP1 SLOAD SWAP1 PUSH2 0x100 EXP SWAP1 DIV PUSH20 0xFFFFFFFFFFFFFFFFFFFFFFFFFFFFFFFFFFFFFFFF AND PUSH1 0x1 DUP1 DUP1 SLOAD PUSH2 0xA3E SWAP1 PUSH2 0x1148 JUMP JUMPDEST DUP1 PUSH1 0x1F ADD PUSH1 0x20 DUP1 SWAP2 DIV MUL PUSH1 0x20 ADD PUSH1 0x40 MLOAD SWAP1 DUP2 ADD PUSH1 0x40 MSTORE DUP1 SWAP3 SWAP2 SWAP1 DUP2 DUP2 MSTORE PUSH1 0x20 ADD DUP3 DUP1 SLOAD PUSH2 0xA6A SWAP1 PUSH2 0x1148 JUMP JUMPDEST DUP1 ISZERO PUSH2 0xAB7 JUMPI DUP1 PUSH1 0x1F LT PUSH2 0xA8C JUMPI PUSH2 0x100 DUP1 DUP4 SLOAD DIV MUL DUP4 MSTORE SWAP2 PUSH1 0x20 ADD SWAP2 PUSH2 0xAB7 JUMP JUMPDEST DUP3 ADD SWAP2 SWAP1 PUSH1 0x0 MSTORE PUSH1 0x20 PUSH1 0x0 KECCAK256 SWAP1 JUMPDEST DUP2 SLOAD DUP2 MSTORE SWAP1 PUSH1 0x1 ADD SWAP1 PUSH1 0x20 ADD DUP1 DUP4 GT PUSH2 0xA9A JUMPI DUP3 SWAP1 SUB PUSH1 0x1F AND DUP3 ADD SWAP2 JUMPDEST POP POP POP POP POP SWAP1 POP SWAP6 POP SWAP6 POP SWAP6 POP SWAP6 POP SWAP6 POP SWAP6 POP SWAP1 SWAP2 SWAP3 SWAP4 SWAP5 SWAP6 JUMP JUMPDEST PUSH1 0x2 PUSH1 0x0 SWAP1 SLOAD SWAP1 PUSH2 0x100 EXP SWAP1 DIV PUSH20 0xFFFFFFFFFFFFFFFFFFFFFFFFFFFFFFFFFFFFFFFF AND PUSH20 0xFFFFFFFFFFFFFFFFFFFFFFFFFFFFFFFFFFFFFFFF AND CALLER PUSH20 0xFFFFFFFFFFFFFFFFFFFFFFFFFFFFFFFFFFFFFFFF AND EQ PUSH2 0xB2C JUMPI PUSH1 0x0 DUP1 REVERT JUMPDEST PUSH1 0x0 PUSH1 0x5 PUSH1 0x0 DUP4 DUP2 MSTORE PUSH1 0x20 ADD SWAP1 DUP2 MSTORE PUSH1 0x20 ADD PUSH1 0x0 KECCAK256 SWAP1 POP PUSH1 0x2 PUSH1 0x3 SLOAD PUSH2 0xB52 SWAP2 SWAP1 PUSH2 0x149D JUMP JUMPDEST DUP2 PUSH1 0x3 ADD SLOAD GT PUSH2 0xB61 JUMPI PUSH1 0x0 DUP1 REVERT JUMPDEST DUP1 PUSH1 0x2 ADD PUSH1 0x14 SWAP1 SLOAD SWAP1 PUSH2 0x100 EXP SWAP1 DIV PUSH1 0xFF AND ISZERO PUSH2 0xB7D JUMPI PUSH1 0x0 DUP1 REVERT JUMPDEST DUP1 PUSH1 0x2 ADD PUSH1 0x0 SWAP1 SLOAD SWAP1 PUSH2 0x100 EXP SWAP1 DIV PUSH20 0xFFFFFFFFFFFFFFFFFFFFFFFFFFFFFFFFFFFFFFFF AND PUSH20 0xFFFFFFFFFFFFFFFFFFFFFFFFFFFFFFFFFFFFFFFF AND PUSH2 0x8FC DUP3 PUSH1 0x1 ADD SLOAD SWAP1 DUP2 ISZERO MUL SWAP1 PUSH1 0x40 MLOAD PUSH1 0x0 PUSH1 0x40 MLOAD DUP1 DUP4 SUB DUP2 DUP6 DUP9 DUP9 CALL SWAP4 POP POP POP POP ISZERO DUP1 ISZERO PUSH2 0xBEB JUMPI RETURNDATASIZE PUSH1 0x0 DUP1 RETURNDATACOPY RETURNDATASIZE PUSH1 0x0 REVERT JUMPDEST POP PUSH1 0x1 DUP2 PUSH1 0x2 ADD PUSH1 0x14 PUSH2 0x100 EXP DUP2 SLOAD DUP2 PUSH1 0xFF MUL NOT AND SWAP1 DUP4 ISZERO ISZERO MUL OR SWAP1 SSTORE POP POP POP JUMP JUMPDEST PUSH1 0x0 PUSH1 0x40 MLOAD SWAP1 POP SWAP1 JUMP JUMPDEST PUSH1 0x0 DUP1 REVERT JUMPDEST PUSH1 0x0 DUP1 REVERT JUMPDEST PUSH1 0x0 DUP2 SWAP1 POP SWAP2 SWAP1 POP JUMP JUMPDEST PUSH2 0xC34 DUP2 PUSH2 0xC21 JUMP JUMPDEST DUP2 EQ PUSH2 0xC3F JUMPI PUSH1 0x0 DUP1 REVERT JUMPDEST POP JUMP JUMPDEST PUSH1 0x0 DUP2 CALLDATALOAD SWAP1 POP PUSH2 0xC51 DUP2 PUSH2 0xC2B JUMP JUMPDEST SWAP3 SWAP2 POP POP JUMP JUMPDEST PUSH1 0x0 PUSH1 0x20 DUP3 DUP5 SUB SLT ISZERO PUSH2 0xC6D JUMPI PUSH2 0xC6C PUSH2 0xC17 JUMP JUMPDEST JUMPDEST PUSH1 0x0 PUSH2 0xC7B DUP5 DUP3 DUP6 ADD PUSH2 0xC42 JUMP JUMPDEST SWAP2 POP POP SWAP3 SWAP2 POP POP JUMP JUMPDEST PUSH1 0x0 DUP2 MLOAD SWAP1 POP SWAP2 SWAP1 POP JUMP JUMPDEST PUSH1 0x0 DUP3 DUP3 MSTORE PUSH1 0x20 DUP3 ADD SWAP1 POP SWAP3 SWAP2 POP POP JUMP JUMPDEST PUSH1 0x0 JUMPDEST DUP4 DUP2 LT ISZERO PUSH2 0xCBE JUMPI DUP1 DUP3 ADD MLOAD DUP2 DUP5 ADD MSTORE PUSH1 0x20 DUP2 ADD SWAP1 POP PUSH2 0xCA3 JUMP JUMPDEST PUSH1 0x0 DUP5 DUP5 ADD MSTORE POP POP POP POP JUMP JUMPDEST PUSH1 0x0 PUSH1 0x1F NOT PUSH1 0x1F DUP4 ADD AND SWAP1 POP SWAP2 SWAP1 POP JUMP JUMPDEST PUSH1 0x0 PUSH2 0xCE6 DUP3 PUSH2 0xC84 JUMP JUMPDEST PUSH2 0xCF0 DUP2 DUP6 PUSH2 0xC8F JUMP JUMPDEST SWAP4 POP PUSH2 0xD00 DUP2 DUP6 PUSH1 0x20 DUP7 ADD PUSH2 0xCA0 JUMP JUMPDEST PUSH2 0xD09 DUP2 PUSH2 0xCCA JUMP JUMPDEST DUP5 ADD SWAP2 POP POP SWAP3 SWAP2 POP POP JUMP JUMPDEST PUSH2 0xD1D DUP2 PUSH2 0xC21 JUMP JUMPDEST DUP3 MSTORE POP POP JUMP JUMPDEST PUSH1 0x0 PUSH20 0xFFFFFFFFFFFFFFFFFFFFFFFFFFFFFFFFFFFFFFFF DUP3 AND SWAP1 POP SWAP2 SWAP1 POP JUMP JUMPDEST PUSH1 0x0 PUSH2 0xD4E DUP3 PUSH2 0xD23 JUMP JUMPDEST SWAP1 POP SWAP2 SWAP1 POP JUMP JUMPDEST PUSH2 0xD5E DUP2 PUSH2 0xD43 JUMP JUMPDEST DUP3 MSTORE POP POP JUMP JUMPDEST PUSH1 0x0 DUP2 ISZERO ISZERO SWAP1 POP SWAP2 SWAP1 POP JUMP JUMPDEST PUSH2 0xD79 DUP2 PUSH2 0xD64 JUMP JUMPDEST DUP3 MSTORE POP POP JUMP JUMPDEST PUSH1 0x0 PUSH1 0xC0 DUP3 ADD SWAP1 POP DUP2 DUP2 SUB PUSH1 0x0 DUP4 ADD MSTORE PUSH2 0xD99 DUP2 DUP10 PUSH2 0xCDB JUMP JUMPDEST SWAP1 POP PUSH2 0xDA8 PUSH1 0x20 DUP4 ADD DUP9 PUSH2 0xD14 JUMP JUMPDEST PUSH2 0xDB5 PUSH1 0x40 DUP4 ADD DUP8 PUSH2 0xD55 JUMP JUMPDEST PUSH2 0xDC2 PUSH1 0x60 DUP4 ADD DUP7 PUSH2 0xD70 JUMP JUMPDEST PUSH2 0xDCF PUSH1 0x80 DUP4 ADD DUP6 PUSH2 0xD14 JUMP JUMPDEST PUSH2 0xDDC PUSH1 0xA0 DUP4 ADD DUP5 PUSH2 0xD70 JUMP JUMPDEST SWAP8 SWAP7 POP POP POP POP POP POP POP JUMP JUMPDEST PUSH2 0xDF0 DUP2 PUSH2 0xD43 JUMP JUMPDEST DUP2 EQ PUSH2 0xDFB JUMPI PUSH1 0x0 DUP1 REVERT JUMPDEST POP JUMP JUMPDEST PUSH1 0x0 DUP2 CALLDATALOAD SWAP1 POP PUSH2 0xE0D DUP2 PUSH2 0xDE7 JUMP JUMPDEST SWAP3 SWAP2 POP POP JUMP JUMPDEST PUSH1 0x0 PUSH1 0x20 DUP3 DUP5 SUB SLT ISZERO PUSH2 0xE29 JUMPI PUSH2 0xE28 PUSH2 0xC17 JUMP JUMPDEST JUMPDEST PUSH1 0x0 PUSH2 0xE37 DUP5 DUP3 DUP6 ADD PUSH2 0xDFE JUMP JUMPDEST SWAP2 POP POP SWAP3 SWAP2 POP POP JUMP JUMPDEST PUSH1 0x0 PUSH1 0x20 DUP3 ADD SWAP1 POP PUSH2 0xE55 PUSH1 0x0 DUP4 ADD DUP5 PUSH2 0xD70 JUMP JUMPDEST SWAP3 SWAP2 POP POP JUMP JUMPDEST PUSH1 0x0 PUSH1 0x20 DUP3 ADD SWAP1 POP DUP2 DUP2 SUB PUSH1 0x0 DUP4 ADD MSTORE PUSH2 0xE75 DUP2 DUP5 PUSH2 0xCDB JUMP JUMPDEST SWAP1 POP SWAP3 SWAP2 POP POP JUMP JUMPDEST PUSH1 0x0 PUSH1 0x20 DUP3 ADD SWAP1 POP PUSH2 0xE92 PUSH1 0x0 DUP4 ADD DUP5 PUSH2 0xD14 JUMP JUMPDEST SWAP3 SWAP2 POP POP JUMP JUMPDEST PUSH1 0x0 PUSH1 0x20 DUP3 ADD SWAP1 POP PUSH2 0xEAD PUSH1 0x0 DUP4 ADD DUP5 PUSH2 0xD55 JUMP JUMPDEST SWAP3 SWAP2 POP POP JUMP JUMPDEST PUSH1 0x0 DUP1 REVERT JUMPDEST PUSH1 0x0 DUP1 REVERT JUMPDEST PUSH32 0x4E487B7100000000000000000000000000000000000000000000000000000000 PUSH1 0x0 MSTORE PUSH1 0x41 PUSH1 0x4 MSTORE PUSH1 0x24 PUSH1 0x0 REVERT JUMPDEST PUSH2 0xEF5 DUP3 PUSH2 0xCCA JUMP JUMPDEST DUP2 ADD DUP2 DUP2 LT PUSH8 0xFFFFFFFFFFFFFFFF DUP3 GT OR ISZERO PUSH2 0xF14 JUMPI PUSH2 0xF13 PUSH2 0xEBD JUMP JUMPDEST JUMPDEST DUP1 PUSH1 0x40 MSTORE POP POP POP JUMP JUMPDEST PUSH1 0x0 PUSH2 0xF27 PUSH2 0xC0D JUMP JUMPDEST SWAP1 POP PUSH2 0xF33 DUP3 DUP3 PUSH2 0xEEC JUMP JUMPDEST SWAP2 SWAP1 POP JUMP JUMPDEST PUSH1 0x0 PUSH8 0xFFFFFFFFFFFFFFFF DUP3 GT ISZERO PUSH2 0xF53 JUMPI PUSH2 0xF52 PUSH2 0xEBD JUMP JUMPDEST JUMPDEST PUSH2 0xF5C DUP3 PUSH2 0xCCA JUMP JUMPDEST SWAP1 POP PUSH1 0x20 DUP2 ADD SWAP1 POP SWAP2 SWAP1 POP JUMP JUMPDEST DUP3 DUP2 DUP4 CALLDATACOPY PUSH1 0x0 DUP4 DUP4 ADD MSTORE POP POP POP JUMP JUMPDEST PUSH1 0x0 PUSH2 0xF8B PUSH2 0xF86 DUP5 PUSH2 0xF38 JUMP JUMPDEST PUSH2 0xF1D JUMP JUMPDEST SWAP1 POP DUP3 DUP2 MSTORE PUSH1 0x20 DUP2 ADD DUP5 DUP5 DUP5 ADD GT ISZERO PUSH2 0xFA7 JUMPI PUSH2 0xFA6 PUSH2 0xEB8 JUMP JUMPDEST JUMPDEST PUSH2 0xFB2 DUP5 DUP3 DUP6 PUSH2 0xF69 JUMP JUMPDEST POP SWAP4 SWAP3 POP POP POP JUMP JUMPDEST PUSH1 0x0 DUP3 PUSH1 0x1F DUP4 ADD SLT PUSH2 0xFCF JUMPI PUSH2 0xFCE PUSH2 0xEB3 JUMP JUMPDEST JUMPDEST DUP2 CALLDATALOAD PUSH2 0xFDF DUP5 DUP3 PUSH1 0x20 DUP7 ADD PUSH2 0xF78 JUMP JUMPDEST SWAP2 POP POP SWAP3 SWAP2 POP POP JUMP JUMPDEST PUSH1 0x0 DUP1 PUSH1 0x0 PUSH1 0x60 DUP5 DUP7 SUB SLT ISZERO PUSH2 0x1001 JUMPI PUSH2 0x1000 PUSH2 0xC17 JUMP JUMPDEST JUMPDEST PUSH1 0x0 DUP5 ADD CALLDATALOAD PUSH8 0xFFFFFFFFFFFFFFFF DUP2 GT ISZERO PUSH2 0x101F JUMPI PUSH2 0x101E PUSH2 0xC1C JUMP JUMPDEST JUMPDEST PUSH2 0x102B DUP7 DUP3 DUP8 ADD PUSH2 0xFBA JUMP JUMPDEST SWAP4 POP POP PUSH1 0x20 PUSH2 0x103C DUP7 DUP3 DUP8 ADD PUSH2 0xC42 JUMP JUMPDEST SWAP3 POP POP PUSH1 0x40 PUSH2 0x104D DUP7 DUP3 DUP8 ADD PUSH2 0xDFE JUMP JUMPDEST SWAP2 POP POP SWAP3 POP SWAP3 POP SWAP3 JUMP JUMPDEST PUSH1 0x0 PUSH1 0xA0 DUP3 ADD SWAP1 POP DUP2 DUP2 SUB PUSH1 0x0 DUP4 ADD MSTORE PUSH2 0x1071 DUP2 DUP9 PUSH2 0xCDB JUMP JUMPDEST SWAP1 POP PUSH2 0x1080 PUSH1 0x20 DUP4 ADD DUP8 PUSH2 0xD14 JUMP JUMPDEST PUSH2 0x108D PUSH1 0x40 DUP4 ADD DUP7 PUSH2 0xD55 JUMP JUMPDEST PUSH2 0x109A PUSH1 0x60 DUP4 ADD DUP6 PUSH2 0xD70 JUMP JUMPDEST PUSH2 0x10A7 PUSH1 0x80 DUP4 ADD DUP5 PUSH2 0xD14 JUMP JUMPDEST SWAP7 SWAP6 POP POP POP POP POP POP JUMP JUMPDEST PUSH1 0x0 PUSH1 0xC0 DUP3 ADD SWAP1 POP PUSH2 0x10C6 PUSH1 0x0 DUP4 ADD DUP10 PUSH2 0xD14 JUMP JUMPDEST PUSH2 0x10D3 PUSH1 0x20 DUP4 ADD DUP9 PUSH2 0xD14 JUMP JUMPDEST PUSH2 0x10E0 PUSH1 0x40 DUP4 ADD DUP8 PUSH2 0xD14 JUMP JUMPDEST PUSH2 0x10ED PUSH1 0x60 DUP4 ADD DUP7 PUSH2 0xD14 JUMP JUMPDEST PUSH2 0x10FA PUSH1 0x80 DUP4 ADD DUP6 PUSH2 0xD55 JUMP JUMPDEST DUP2 DUP2 SUB PUSH1 0xA0 DUP4 ADD MSTORE PUSH2 0x110C DUP2 DUP5 PUSH2 0xCDB JUMP JUMPDEST SWAP1 POP SWAP8 SWAP7 POP POP POP POP POP POP POP JUMP JUMPDEST PUSH32 0x4E487B7100000000000000000000000000000000000000000000000000000000 PUSH1 0x0 MSTORE PUSH1 0x22 PUSH1 0x4 MSTORE PUSH1 0x24 PUSH1 0x0 REVERT JUMPDEST PUSH1 0x0 PUSH1 0x2 DUP3 DIV SWAP1 POP PUSH1 0x1 DUP3 AND DUP1 PUSH2 0x1160 JUMPI PUSH1 0x7F DUP3 AND SWAP2 POP JUMPDEST PUSH1 0x20 DUP3 LT DUP2 SUB PUSH2 0x1173 JUMPI PUSH2 0x1172 PUSH2 0x1119 JUMP JUMPDEST JUMPDEST POP SWAP2 SWAP1 POP JUMP JUMPDEST PUSH1 0x0 DUP2 SWAP1 POP DUP2 PUSH1 0x0 MSTORE PUSH1 0x20 PUSH1 0x0 KECCAK256 SWAP1 POP SWAP2 SWAP1 POP JUMP JUMPDEST PUSH1 0x0 PUSH1 0x20 PUSH1 0x1F DUP4 ADD DIV SWAP1 POP SWAP2 SWAP1 POP JUMP JUMPDEST PUSH1 0x0 DUP3 DUP3 SHL SWAP1 POP SWAP3 SWAP2 POP POP JUMP JUMPDEST PUSH1 0x0 PUSH1 0x8 DUP4 MUL PUSH2 0x11DB PUSH32 0xFFFFFFFFFFFFFFFFFFFFFFFFFFFFFFFFFFFFFFFFFFFFFFFFFFFFFFFFFFFFFFFF DUP3 PUSH2 0x119E JUMP JUMPDEST PUSH2 0x11E5 DUP7 DUP4 PUSH2 0x119E JUMP JUMPDEST SWAP6 POP DUP1 NOT DUP5 AND SWAP4 POP DUP1 DUP7 AND DUP5 OR SWAP3 POP POP POP SWAP4 SWAP3 POP POP POP JUMP JUMPDEST PUSH1 0x0 DUP2 SWAP1 POP SWAP2 SWAP1 POP JUMP JUMPDEST PUSH1 0x0 PUSH2 0x1222 PUSH2 0x121D PUSH2 0x1218 DUP5 PUSH2 0xC21 JUMP JUMPDEST PUSH2 0x11FD JUMP JUMPDEST PUSH2 0xC21 JUMP JUMPDEST SWAP1 POP SWAP2 SWAP1 POP JUMP JUMPDEST PUSH1 0x0 DUP2 SWAP1 POP SWAP2 SWAP1 POP JUMP JUMPDEST PUSH2 0x123C DUP4 PUSH2 0x1207 JUMP JUMPDEST PUSH2 0x1250 PUSH2 0x1248 DUP3 PUSH2 0x1229 JUMP JUMPDEST DUP5 DUP5 SLOAD PUSH2 0x11AB JUMP JUMPDEST DUP3 SSTORE POP POP POP POP JUMP JUMPDEST PUSH1 0x0 SWAP1 JUMP JUMPDEST PUSH2 0x1265 PUSH2 0x1258 JUMP JUMPDEST PUSH2 0x1270 DUP2 DUP5 DUP5 PUSH2 0x1233 JUMP JUMPDEST POP POP POP JUMP JUMPDEST JUMPDEST DUP2 DUP2 LT ISZERO PUSH2 0x1294 JUMPI PUSH2 0x1289 PUSH1 0x0 DUP3 PUSH2 0x125D JUMP JUMPDEST PUSH1 0x1 DUP2 ADD SWAP1 POP PUSH2 0x1276 JUMP JUMPDEST POP POP JUMP JUMPDEST PUSH1 0x1F DUP3 GT ISZERO PUSH2 0x12D9 JUMPI PUSH2 0x12AA DUP2 PUSH2 0x1179 JUMP JUMPDEST PUSH2 0x12B3 DUP5 PUSH2 0x118E JUMP JUMPDEST DUP2 ADD PUSH1 0x20 DUP6 LT ISZERO PUSH2 0x12C2 JUMPI DUP2 SWAP1 POP JUMPDEST PUSH2 0x12D6 PUSH2 0x12CE DUP6 PUSH2 0x118E JUMP JUMPDEST DUP4 ADD DUP3 PUSH2 0x1275 JUMP JUMPDEST POP POP JUMPDEST POP POP POP JUMP JUMPDEST PUSH1 0x0 DUP3 DUP3 SHR SWAP1 POP SWAP3 SWAP2 POP POP JUMP JUMPDEST PUSH1 0x0 PUSH2 0x12FC PUSH1 0x0 NOT DUP5 PUSH1 0x8 MUL PUSH2 0x12DE JUMP JUMPDEST NOT DUP1 DUP4 AND SWAP2 POP POP SWAP3 SWAP2 POP POP JUMP JUMPDEST PUSH1 0x0 PUSH2 0x1315 DUP4 DUP4 PUSH2 0x12EB JUMP JUMPDEST SWAP2 POP DUP3 PUSH1 0x2 MUL DUP3 OR SWAP1 POP SWAP3 SWAP2 POP POP JUMP JUMPDEST PUSH2 0x132E DUP3 PUSH2 0xC84 JUMP JUMPDEST PUSH8 0xFFFFFFFFFFFFFFFF DUP2 GT ISZERO PUSH2 0x1347 JUMPI PUSH2 0x1346 PUSH2 0xEBD JUMP JUMPDEST JUMPDEST PUSH2 0x1351 DUP3 SLOAD PUSH2 0x1148 JUMP JUMPDEST PUSH2 0x135C DUP3 DUP3 DUP6 PUSH2 0x1298 JUMP JUMPDEST PUSH1 0x0 PUSH1 0x20 SWAP1 POP PUSH1 0x1F DUP4 GT PUSH1 0x1 DUP2 EQ PUSH2 0x138F JUMPI PUSH1 0x0 DUP5 ISZERO PUSH2 0x137D JUMPI DUP3 DUP8 ADD MLOAD SWAP1 POP JUMPDEST PUSH2 0x1387 DUP6 DUP3 PUSH2 0x1309 JUMP JUMPDEST DUP7 SSTORE POP PUSH2 0x13EF JUMP JUMPDEST PUSH1 0x1F NOT DUP5 AND PUSH2 0x139D DUP7 PUSH2 0x1179 JUMP JUMPDEST PUSH1 0x0 JUMPDEST DUP3 DUP2 LT ISZERO PUSH2 0x13C5 JUMPI DUP5 DUP10 ADD MLOAD DUP3 SSTORE PUSH1 0x1 DUP3 ADD SWAP2 POP PUSH1 0x20 DUP6 ADD SWAP5 POP PUSH1 0x20 DUP2 ADD SWAP1 POP PUSH2 0x13A0 JUMP JUMPDEST DUP7 DUP4 LT ISZERO PUSH2 0x13E2 JUMPI DUP5 DUP10 ADD MLOAD PUSH2 0x13DE PUSH1 0x1F DUP10 AND DUP3 PUSH2 0x12EB JUMP JUMPDEST DUP4 SSTORE POP JUMPDEST PUSH1 0x1 PUSH1 0x2 DUP9 MUL ADD DUP9 SSTORE POP POP POP JUMPDEST POP POP POP POP POP POP JUMP JUMPDEST PUSH32 0x4E487B7100000000000000000000000000000000000000000000000000000000 PUSH1 0x0 MSTORE PUSH1 0x11 PUSH1 0x4 MSTORE PUSH1 0x24 PUSH1 0x0 REVERT JUMPDEST PUSH1 0x0 PUSH2 0x1431 DUP3 PUSH2 0xC21 JUMP JUMPDEST SWAP2 POP PUSH32 0xFFFFFFFFFFFFFFFFFFFFFFFFFFFFFFFFFFFFFFFFFFFFFFFFFFFFFFFFFFFFFFFF DUP3 SUB PUSH2 0x1463 JUMPI PUSH2 0x1462 PUSH2 0x13F7 JUMP JUMPDEST JUMPDEST PUSH1 0x1 DUP3 ADD SWAP1 POP SWAP2 SWAP1 POP JUMP JUMPDEST PUSH32 0x4E487B7100000000000000000000000000000000000000000000000000000000 PUSH1 0x0 MSTORE PUSH1 0x12 PUSH1 0x4 MSTORE PUSH1 0x24 PUSH1 0x0 REVERT JUMPDEST PUSH1 0x0 PUSH2 0x14A8 DUP3 PUSH2 0xC21 JUMP JUMPDEST SWAP2 POP PUSH2 0x14B3 DUP4 PUSH2 0xC21 JUMP JUMPDEST SWAP3 POP DUP3 PUSH2 0x14C3 JUMPI PUSH2 0x14C2 PUSH2 0x146E JUMP JUMPDEST JUMPDEST DUP3 DUP3 DIV SWAP1 POP SWAP3 SWAP2 POP POP JUMP INVALID LOG2 PUSH5 0x6970667358 0x22 SLT KECCAK256 0xE8 0xE4 0xEF PUSH26 0xC31A9FD30892C2BC8EFCE58488D37F6B97DFBAB3AC6EA8D0392C 0xED PUSH14 0x64736F6C63430008110033A26469 PUSH17 0x66735822122051EE168091015653A76531 SHL SWAP10 0x22 0xA7 0xC3 0xE6 0x49 DUP7 0x28 SLOAD NOT DUP12 0xA8 CALLDATACOPY 0x5F INVALID PUSH1 0xA5 CALLCODE 0xA8 PUSH3 0x64736F PUSH13 0x63430008110033000000000000 "},"gasEstimates":{"creation":{"codeDepositCost":"1779000","executionCost":"1869","totalCost":"1780869"},"external":{"createProject(uint256,string)":"infinite","deployedProjects(uint256)":"4956","getDeployedProjects()":"infinite"}},"methodIdentifiers":{"createProject(uint256,string)":"bf1a8003","deployedProjects(uint256)":"9ec6deaf","getDeployedProjects()":"7ac3886e"}},"storageLayout":{"storage":[{"astId":4,"contract":"Project.sol:Generator","label":"deployedProjects","offset":0,"slot":"0","type":"t_array(t_address_payable)dyn_storage"}],"types":{"t_address_payable":{"encoding":"inplace","label":"address payable","numberOfBytes":"20"},"t_array(t_address_payable)dyn_storage":{"base":"t_address_payable","encoding":"dynamic_array","label":"address payable[]","numberOfBytes":"32"}}},"userdoc":{"kind":"user","methods":{},"version":1}}