{"abi":[{"inputs":[{"internalType":"uint256","name":"minimum","type":"uint256"}],"name":"createProject","outputs":[],"stateMutability":"nonpayable","type":"function"},{"inputs":[{"internalType":"uint256","name":"","type":"uint256"}],"name":"deployedProjects","outputs":[{"internalType":"address payable","name":"","type":"address"}],"stateMutability":"view","type":"function"},{"inputs":[],"name":"getDeployedProjects","outputs":[{"internalType":"address payable[]","name":"","type":"address[]"}],"stateMutability":"view","type":"function"}],"devdoc":{"kind":"dev","methods":{},"version":1},"evm":{"assembly":"    /* \"Project.sol\":25:430  contract Generator {... */\n  mstore(0x40, 0x80)\n  callvalue\n  dup1\n  iszero\n  tag_1\n  jumpi\n  0x00\n  dup1\n  revert\ntag_1:\n  pop\n  dataSize(sub_0)\n  dup1\n  dataOffset(sub_0)\n  0x00\n  codecopy\n  0x00\n  return\nstop\n\nsub_0: assembly {\n        /* \"Project.sol\":25:430  contract Generator {... */\n      mstore(0x40, 0x80)\n      callvalue\n      dup1\n      iszero\n      tag_1\n      jumpi\n      0x00\n      dup1\n      revert\n    tag_1:\n      pop\n      jumpi(tag_2, lt(calldatasize, 0x04))\n      shr(0xe0, calldataload(0x00))\n      dup1\n      0x7ac3886e\n      eq\n      tag_3\n      jumpi\n      dup1\n      0x992034d7\n      eq\n      tag_4\n      jumpi\n      dup1\n      0x9ec6deaf\n      eq\n      tag_5\n      jumpi\n    tag_2:\n      0x00\n      dup1\n      revert\n        /* \"Project.sol\":282:428  function getDeployedProjects()... */\n    tag_3:\n      tag_6\n      tag_7\n      jump\t// in\n    tag_6:\n      mload(0x40)\n      tag_8\n      swap2\n      swap1\n      tag_9\n      jump\t// in\n    tag_8:\n      mload(0x40)\n      dup1\n      swap2\n      sub\n      swap1\n      return\n        /* \"Project.sol\":98:276  function createProject(uint256 minimum) public {... */\n    tag_4:\n      tag_10\n      0x04\n      dup1\n      calldatasize\n      sub\n      dup2\n      add\n      swap1\n      tag_11\n      swap2\n      swap1\n      tag_12\n      jump\t// in\n    tag_11:\n      tag_13\n      jump\t// in\n    tag_10:\n      stop\n        /* \"Project.sol\":50:91  address payable[] public deployedProjects */\n    tag_5:\n      tag_14\n      0x04\n      dup1\n      calldatasize\n      sub\n      dup2\n      add\n      swap1\n      tag_15\n      swap2\n      swap1\n      tag_12\n      jump\t// in\n    tag_15:\n      tag_16\n      jump\t// in\n    tag_14:\n      mload(0x40)\n      tag_17\n      swap2\n      swap1\n      tag_18\n      jump\t// in\n    tag_17:\n      mload(0x40)\n      dup1\n      swap2\n      sub\n      swap1\n      return\n        /* \"Project.sol\":282:428  function getDeployedProjects()... */\n    tag_7:\n        /* \"Project.sol\":358:382  address payable[] memory */\n      0x60\n        /* \"Project.sol\":405:421  deployedProjects */\n      0x00\n        /* \"Project.sol\":398:421  return deployedProjects */\n      dup1\n      sload\n      dup1\n      0x20\n      mul\n      0x20\n      add\n      mload(0x40)\n      swap1\n      dup2\n      add\n      0x40\n      mstore\n      dup1\n      swap3\n      swap2\n      swap1\n      dup2\n      dup2\n      mstore\n      0x20\n      add\n      dup3\n      dup1\n      sload\n      dup1\n      iszero\n      tag_20\n      jumpi\n      0x20\n      mul\n      dup3\n      add\n      swap2\n      swap1\n      0x00\n      mstore\n      keccak256(0x00, 0x20)\n      swap1\n    tag_21:\n      dup2\n      0x00\n      swap1\n      sload\n      swap1\n      0x0100\n      exp\n      swap1\n      div\n      0xffffffffffffffffffffffffffffffffffffffff\n      and\n      0xffffffffffffffffffffffffffffffffffffffff\n      and\n      dup2\n      mstore\n      0x20\n      add\n      swap1\n      0x01\n      add\n      swap1\n      dup1\n      dup4\n      gt\n      tag_21\n      jumpi\n    tag_20:\n      pop\n      pop\n      pop\n      pop\n      pop\n      swap1\n      pop\n        /* \"Project.sol\":282:428  function getDeployedProjects()... */\n      swap1\n      jump\t// out\n        /* \"Project.sol\":98:276  function createProject(uint256 minimum) public {... */\n    tag_13:\n        /* \"Project.sol\":155:173  address newProject */\n      0x00\n        /* \"Project.sol\":196:203  minimum */\n      dup2\n        /* \"Project.sol\":205:215  msg.sender */\n      caller\n        /* \"Project.sol\":184:216  new Project(minimum, msg.sender) */\n      mload(0x40)\n      tag_23\n      swap1\n      tag_24\n      jump\t// in\n    tag_23:\n      tag_25\n      swap3\n      swap2\n      swap1\n      tag_26\n      jump\t// in\n    tag_25:\n      mload(0x40)\n      dup1\n      swap2\n      sub\n      swap1\n      0x00\n      create\n      dup1\n      iszero\n      dup1\n      iszero\n      tag_27\n      jumpi\n      returndatasize\n      0x00\n      dup1\n      returndatacopy\n      revert(0x00, returndatasize)\n    tag_27:\n      pop\n        /* \"Project.sol\":155:217  address newProject = address(new Project(minimum, msg.sender)) */\n      swap1\n      pop\n        /* \"Project.sol\":227:243  deployedProjects */\n      0x00\n        /* \"Project.sol\":257:267  newProject */\n      dup2\n        /* \"Project.sol\":227:269  deployedProjects.push(payable(newProject)) */\n      swap1\n      dup1\n      0x01\n      dup2\n      sload\n      add\n      dup1\n      dup3\n      sstore\n      dup1\n      swap2\n      pop\n      pop\n      0x01\n      swap1\n      sub\n      swap1\n      0x00\n      mstore\n      keccak256(0x00, 0x20)\n      add\n      0x00\n      swap1\n      swap2\n      swap1\n      swap2\n      swap1\n      swap2\n      0x0100\n      exp\n      dup2\n      sload\n      dup2\n      0xffffffffffffffffffffffffffffffffffffffff\n      mul\n      not\n      and\n      swap1\n      dup4\n      0xffffffffffffffffffffffffffffffffffffffff\n      and\n      mul\n      or\n      swap1\n      sstore\n      pop\n        /* \"Project.sol\":145:276  {... */\n      pop\n        /* \"Project.sol\":98:276  function createProject(uint256 minimum) public {... */\n      pop\n      jump\t// out\n        /* \"Project.sol\":50:91  address payable[] public deployedProjects */\n    tag_16:\n      0x00\n      dup2\n      dup2\n      sload\n      dup2\n      lt\n      tag_29\n      jumpi\n      0x00\n      dup1\n      revert\n    tag_29:\n      swap1\n      0x00\n      mstore\n      keccak256(0x00, 0x20)\n      add\n      0x00\n      swap2\n      pop\n      sload\n      swap1\n      0x0100\n      exp\n      swap1\n      div\n      0xffffffffffffffffffffffffffffffffffffffff\n      and\n      dup2\n      jump\t// out\n    tag_24:\n      dataSize(sub_0)\n      dup1\n      dataOffset(sub_0)\n      dup4\n      codecopy\n      add\n      swap1\n      jump\t// out\n        /* \"#utility.yul\":7:129   */\n    tag_31:\n        /* \"#utility.yul\":82:88   */\n      0x00\n        /* \"#utility.yul\":116:121   */\n      dup2\n        /* \"#utility.yul\":110:122   */\n      mload\n        /* \"#utility.yul\":100:122   */\n      swap1\n      pop\n        /* \"#utility.yul\":7:129   */\n      swap2\n      swap1\n      pop\n      jump\t// out\n        /* \"#utility.yul\":135:327   */\n    tag_32:\n        /* \"#utility.yul\":242:253   */\n      0x00\n        /* \"#utility.yul\":276:282   */\n      dup3\n        /* \"#utility.yul\":271:274   */\n      dup3\n        /* \"#utility.yul\":264:283   */\n      mstore\n        /* \"#utility.yul\":316:320   */\n      0x20\n        /* \"#utility.yul\":311:314   */\n      dup3\n        /* \"#utility.yul\":307:321   */\n      add\n        /* \"#utility.yul\":292:321   */\n      swap1\n      pop\n        /* \"#utility.yul\":135:327   */\n      swap3\n      swap2\n      pop\n      pop\n      jump\t// out\n        /* \"#utility.yul\":333:473   */\n    tag_33:\n        /* \"#utility.yul\":408:412   */\n      0x00\n        /* \"#utility.yul\":431:434   */\n      dup2\n        /* \"#utility.yul\":423:434   */\n      swap1\n      pop\n        /* \"#utility.yul\":461:465   */\n      0x20\n        /* \"#utility.yul\":456:459   */\n      dup3\n        /* \"#utility.yul\":452:466   */\n      add\n        /* \"#utility.yul\":444:466   */\n      swap1\n      pop\n        /* \"#utility.yul\":333:473   */\n      swap2\n      swap1\n      pop\n      jump\t// out\n        /* \"#utility.yul\":479:605   */\n    tag_34:\n        /* \"#utility.yul\":516:523   */\n      0x00\n        /* \"#utility.yul\":556:598   */\n      0xffffffffffffffffffffffffffffffffffffffff\n        /* \"#utility.yul\":549:554   */\n      dup3\n        /* \"#utility.yul\":545:599   */\n      and\n        /* \"#utility.yul\":534:599   */\n      swap1\n      pop\n        /* \"#utility.yul\":479:605   */\n      swap2\n      swap1\n      pop\n      jump\t// out\n        /* \"#utility.yul\":611:715   */\n    tag_35:\n        /* \"#utility.yul\":656:663   */\n      0x00\n        /* \"#utility.yul\":685:709   */\n      tag_56\n        /* \"#utility.yul\":703:708   */\n      dup3\n        /* \"#utility.yul\":685:709   */\n      tag_34\n      jump\t// in\n    tag_56:\n        /* \"#utility.yul\":674:709   */\n      swap1\n      pop\n        /* \"#utility.yul\":611:715   */\n      swap2\n      swap1\n      pop\n      jump\t// out\n        /* \"#utility.yul\":721:853   */\n    tag_36:\n        /* \"#utility.yul\":814:846   */\n      tag_58\n        /* \"#utility.yul\":840:845   */\n      dup2\n        /* \"#utility.yul\":814:846   */\n      tag_35\n      jump\t// in\n    tag_58:\n        /* \"#utility.yul\":809:812   */\n      dup3\n        /* \"#utility.yul\":802:847   */\n      mstore\n        /* \"#utility.yul\":721:853   */\n      pop\n      pop\n      jump\t// out\n        /* \"#utility.yul\":859:1070   */\n    tag_37:\n        /* \"#utility.yul\":944:954   */\n      0x00\n        /* \"#utility.yul\":965:1027   */\n      tag_60\n        /* \"#utility.yul\":1023:1026   */\n      dup4\n        /* \"#utility.yul\":1015:1021   */\n      dup4\n        /* \"#utility.yul\":965:1027   */\n      tag_36\n      jump\t// in\n    tag_60:\n        /* \"#utility.yul\":1059:1063   */\n      0x20\n        /* \"#utility.yul\":1054:1057   */\n      dup4\n        /* \"#utility.yul\":1050:1064   */\n      add\n        /* \"#utility.yul\":1036:1064   */\n      swap1\n      pop\n        /* \"#utility.yul\":859:1070   */\n      swap3\n      swap2\n      pop\n      pop\n      jump\t// out\n        /* \"#utility.yul\":1076:1197   */\n    tag_38:\n        /* \"#utility.yul\":1154:1158   */\n      0x00\n        /* \"#utility.yul\":1186:1190   */\n      0x20\n        /* \"#utility.yul\":1181:1184   */\n      dup3\n        /* \"#utility.yul\":1177:1191   */\n      add\n        /* \"#utility.yul\":1169:1191   */\n      swap1\n      pop\n        /* \"#utility.yul\":1076:1197   */\n      swap2\n      swap1\n      pop\n      jump\t// out\n        /* \"#utility.yul\":1249:2045   */\n    tag_39:\n        /* \"#utility.yul\":1384:1387   */\n      0x00\n        /* \"#utility.yul\":1413:1475   */\n      tag_63\n        /* \"#utility.yul\":1469:1474   */\n      dup3\n        /* \"#utility.yul\":1413:1475   */\n      tag_31\n      jump\t// in\n    tag_63:\n        /* \"#utility.yul\":1491:1585   */\n      tag_64\n        /* \"#utility.yul\":1578:1584   */\n      dup2\n        /* \"#utility.yul\":1573:1576   */\n      dup6\n        /* \"#utility.yul\":1491:1585   */\n      tag_32\n      jump\t// in\n    tag_64:\n        /* \"#utility.yul\":1484:1585   */\n      swap4\n      pop\n        /* \"#utility.yul\":1609:1673   */\n      tag_65\n        /* \"#utility.yul\":1667:1672   */\n      dup4\n        /* \"#utility.yul\":1609:1673   */\n      tag_33\n      jump\t// in\n    tag_65:\n        /* \"#utility.yul\":1696:1703   */\n      dup1\n        /* \"#utility.yul\":1727:1728   */\n      0x00\n        /* \"#utility.yul\":1712:2020   */\n    tag_66:\n        /* \"#utility.yul\":1737:1743   */\n      dup4\n        /* \"#utility.yul\":1734:1735   */\n      dup2\n        /* \"#utility.yul\":1731:1744   */\n      lt\n        /* \"#utility.yul\":1712:2020   */\n      iszero\n      tag_68\n      jumpi\n        /* \"#utility.yul\":1813:1819   */\n      dup2\n        /* \"#utility.yul\":1807:1820   */\n      mload\n        /* \"#utility.yul\":1840:1919   */\n      tag_69\n        /* \"#utility.yul\":1915:1918   */\n      dup9\n        /* \"#utility.yul\":1900:1913   */\n      dup3\n        /* \"#utility.yul\":1840:1919   */\n      tag_37\n      jump\t// in\n    tag_69:\n        /* \"#utility.yul\":1833:1919   */\n      swap8\n      pop\n        /* \"#utility.yul\":1942:2010   */\n      tag_70\n        /* \"#utility.yul\":2003:2009   */\n      dup4\n        /* \"#utility.yul\":1942:2010   */\n      tag_38\n      jump\t// in\n    tag_70:\n        /* \"#utility.yul\":1932:2010   */\n      swap3\n      pop\n        /* \"#utility.yul\":1772:2020   */\n      pop\n        /* \"#utility.yul\":1759:1760   */\n      0x01\n        /* \"#utility.yul\":1756:1757   */\n      dup2\n        /* \"#utility.yul\":1752:1761   */\n      add\n        /* \"#utility.yul\":1747:1761   */\n      swap1\n      pop\n        /* \"#utility.yul\":1712:2020   */\n      jump(tag_66)\n    tag_68:\n        /* \"#utility.yul\":1716:1730   */\n      pop\n        /* \"#utility.yul\":2036:2039   */\n      dup6\n        /* \"#utility.yul\":2029:2039   */\n      swap4\n      pop\n        /* \"#utility.yul\":1389:2045   */\n      pop\n      pop\n      pop\n        /* \"#utility.yul\":1249:2045   */\n      swap3\n      swap2\n      pop\n      pop\n      jump\t// out\n        /* \"#utility.yul\":2051:2456   */\n    tag_9:\n        /* \"#utility.yul\":2210:2214   */\n      0x00\n        /* \"#utility.yul\":2248:2250   */\n      0x20\n        /* \"#utility.yul\":2237:2246   */\n      dup3\n        /* \"#utility.yul\":2233:2251   */\n      add\n        /* \"#utility.yul\":2225:2251   */\n      swap1\n      pop\n        /* \"#utility.yul\":2297:2306   */\n      dup2\n        /* \"#utility.yul\":2291:2295   */\n      dup2\n        /* \"#utility.yul\":2287:2307   */\n      sub\n        /* \"#utility.yul\":2283:2284   */\n      0x00\n        /* \"#utility.yul\":2272:2281   */\n      dup4\n        /* \"#utility.yul\":2268:2285   */\n      add\n        /* \"#utility.yul\":2261:2308   */\n      mstore\n        /* \"#utility.yul\":2325:2449   */\n      tag_72\n        /* \"#utility.yul\":2444:2448   */\n      dup2\n        /* \"#utility.yul\":2435:2441   */\n      dup5\n        /* \"#utility.yul\":2325:2449   */\n      tag_39\n      jump\t// in\n    tag_72:\n        /* \"#utility.yul\":2317:2449   */\n      swap1\n      pop\n        /* \"#utility.yul\":2051:2456   */\n      swap3\n      swap2\n      pop\n      pop\n      jump\t// out\n        /* \"#utility.yul\":2543:2660   */\n    tag_41:\n        /* \"#utility.yul\":2652:2653   */\n      0x00\n        /* \"#utility.yul\":2649:2650   */\n      dup1\n        /* \"#utility.yul\":2642:2654   */\n      revert\n        /* \"#utility.yul\":2789:2866   */\n    tag_43:\n        /* \"#utility.yul\":2826:2833   */\n      0x00\n        /* \"#utility.yul\":2855:2860   */\n      dup2\n        /* \"#utility.yul\":2844:2860   */\n      swap1\n      pop\n        /* \"#utility.yul\":2789:2866   */\n      swap2\n      swap1\n      pop\n      jump\t// out\n        /* \"#utility.yul\":2872:2994   */\n    tag_44:\n        /* \"#utility.yul\":2945:2969   */\n      tag_78\n        /* \"#utility.yul\":2963:2968   */\n      dup2\n        /* \"#utility.yul\":2945:2969   */\n      tag_43\n      jump\t// in\n    tag_78:\n        /* \"#utility.yul\":2938:2943   */\n      dup2\n        /* \"#utility.yul\":2935:2970   */\n      eq\n        /* \"#utility.yul\":2925:2988   */\n      tag_79\n      jumpi\n        /* \"#utility.yul\":2984:2985   */\n      0x00\n        /* \"#utility.yul\":2981:2982   */\n      dup1\n        /* \"#utility.yul\":2974:2986   */\n      revert\n        /* \"#utility.yul\":2925:2988   */\n    tag_79:\n        /* \"#utility.yul\":2872:2994   */\n      pop\n      jump\t// out\n        /* \"#utility.yul\":3000:3139   */\n    tag_45:\n        /* \"#utility.yul\":3046:3051   */\n      0x00\n        /* \"#utility.yul\":3084:3090   */\n      dup2\n        /* \"#utility.yul\":3071:3091   */\n      calldataload\n        /* \"#utility.yul\":3062:3091   */\n      swap1\n      pop\n        /* \"#utility.yul\":3100:3133   */\n      tag_81\n        /* \"#utility.yul\":3127:3132   */\n      dup2\n        /* \"#utility.yul\":3100:3133   */\n      tag_44\n      jump\t// in\n    tag_81:\n        /* \"#utility.yul\":3000:3139   */\n      swap3\n      swap2\n      pop\n      pop\n      jump\t// out\n        /* \"#utility.yul\":3145:3474   */\n    tag_12:\n        /* \"#utility.yul\":3204:3210   */\n      0x00\n        /* \"#utility.yul\":3253:3255   */\n      0x20\n        /* \"#utility.yul\":3241:3250   */\n      dup3\n        /* \"#utility.yul\":3232:3239   */\n      dup5\n        /* \"#utility.yul\":3228:3251   */\n      sub\n        /* \"#utility.yul\":3224:3256   */\n      slt\n        /* \"#utility.yul\":3221:3340   */\n      iszero\n      tag_83\n      jumpi\n        /* \"#utility.yul\":3259:3338   */\n      tag_84\n      tag_41\n      jump\t// in\n    tag_84:\n        /* \"#utility.yul\":3221:3340   */\n    tag_83:\n        /* \"#utility.yul\":3379:3380   */\n      0x00\n        /* \"#utility.yul\":3404:3457   */\n      tag_85\n        /* \"#utility.yul\":3449:3456   */\n      dup5\n        /* \"#utility.yul\":3440:3446   */\n      dup3\n        /* \"#utility.yul\":3429:3438   */\n      dup6\n        /* \"#utility.yul\":3425:3447   */\n      add\n        /* \"#utility.yul\":3404:3457   */\n      tag_45\n      jump\t// in\n    tag_85:\n        /* \"#utility.yul\":3394:3457   */\n      swap2\n      pop\n        /* \"#utility.yul\":3350:3467   */\n      pop\n        /* \"#utility.yul\":3145:3474   */\n      swap3\n      swap2\n      pop\n      pop\n      jump\t// out\n        /* \"#utility.yul\":3480:3622   */\n    tag_46:\n        /* \"#utility.yul\":3583:3615   */\n      tag_87\n        /* \"#utility.yul\":3609:3614   */\n      dup2\n        /* \"#utility.yul\":3583:3615   */\n      tag_35\n      jump\t// in\n    tag_87:\n        /* \"#utility.yul\":3578:3581   */\n      dup3\n        /* \"#utility.yul\":3571:3616   */\n      mstore\n        /* \"#utility.yul\":3480:3622   */\n      pop\n      pop\n      jump\t// out\n        /* \"#utility.yul\":3628:3882   */\n    tag_18:\n        /* \"#utility.yul\":3737:3741   */\n      0x00\n        /* \"#utility.yul\":3775:3777   */\n      0x20\n        /* \"#utility.yul\":3764:3773   */\n      dup3\n        /* \"#utility.yul\":3760:3778   */\n      add\n        /* \"#utility.yul\":3752:3778   */\n      swap1\n      pop\n        /* \"#utility.yul\":3788:3875   */\n      tag_89\n        /* \"#utility.yul\":3872:3873   */\n      0x00\n        /* \"#utility.yul\":3861:3870   */\n      dup4\n        /* \"#utility.yul\":3857:3874   */\n      add\n        /* \"#utility.yul\":3848:3854   */\n      dup5\n        /* \"#utility.yul\":3788:3875   */\n      tag_46\n      jump\t// in\n    tag_89:\n        /* \"#utility.yul\":3628:3882   */\n      swap3\n      swap2\n      pop\n      pop\n      jump\t// out\n        /* \"#utility.yul\":3888:4006   */\n    tag_47:\n        /* \"#utility.yul\":3975:3999   */\n      tag_91\n        /* \"#utility.yul\":3993:3998   */\n      dup2\n        /* \"#utility.yul\":3975:3999   */\n      tag_43\n      jump\t// in\n    tag_91:\n        /* \"#utility.yul\":3970:3973   */\n      dup3\n        /* \"#utility.yul\":3963:4000   */\n      mstore\n        /* \"#utility.yul\":3888:4006   */\n      pop\n      pop\n      jump\t// out\n        /* \"#utility.yul\":4012:4108   */\n    tag_48:\n        /* \"#utility.yul\":4049:4056   */\n      0x00\n        /* \"#utility.yul\":4078:4102   */\n      tag_93\n        /* \"#utility.yul\":4096:4101   */\n      dup3\n        /* \"#utility.yul\":4078:4102   */\n      tag_34\n      jump\t// in\n    tag_93:\n        /* \"#utility.yul\":4067:4102   */\n      swap1\n      pop\n        /* \"#utility.yul\":4012:4108   */\n      swap2\n      swap1\n      pop\n      jump\t// out\n        /* \"#utility.yul\":4114:4232   */\n    tag_49:\n        /* \"#utility.yul\":4201:4225   */\n      tag_95\n        /* \"#utility.yul\":4219:4224   */\n      dup2\n        /* \"#utility.yul\":4201:4225   */\n      tag_48\n      jump\t// in\n    tag_95:\n        /* \"#utility.yul\":4196:4199   */\n      dup3\n        /* \"#utility.yul\":4189:4226   */\n      mstore\n        /* \"#utility.yul\":4114:4232   */\n      pop\n      pop\n      jump\t// out\n        /* \"#utility.yul\":4238:4570   */\n    tag_26:\n        /* \"#utility.yul\":4359:4363   */\n      0x00\n        /* \"#utility.yul\":4397:4399   */\n      0x40\n        /* \"#utility.yul\":4386:4395   */\n      dup3\n        /* \"#utility.yul\":4382:4400   */\n      add\n        /* \"#utility.yul\":4374:4400   */\n      swap1\n      pop\n        /* \"#utility.yul\":4410:4481   */\n      tag_97\n        /* \"#utility.yul\":4478:4479   */\n      0x00\n        /* \"#utility.yul\":4467:4476   */\n      dup4\n        /* \"#utility.yul\":4463:4480   */\n      add\n        /* \"#utility.yul\":4454:4460   */\n      dup6\n        /* \"#utility.yul\":4410:4481   */\n      tag_47\n      jump\t// in\n    tag_97:\n        /* \"#utility.yul\":4491:4563   */\n      tag_98\n        /* \"#utility.yul\":4559:4561   */\n      0x20\n        /* \"#utility.yul\":4548:4557   */\n      dup4\n        /* \"#utility.yul\":4544:4562   */\n      add\n        /* \"#utility.yul\":4535:4541   */\n      dup5\n        /* \"#utility.yul\":4491:4563   */\n      tag_49\n      jump\t// in\n    tag_98:\n        /* \"#utility.yul\":4238:4570   */\n      swap4\n      swap3\n      pop\n      pop\n      pop\n      jump\t// out\n    stop\n\n    sub_0: assembly {\n            /* \"Project.sol\":432:4560  contract Project {... */\n          mstore(0x40, 0x80)\n            /* \"Project.sol\":2767:2772  false */\n          0x00\n            /* \"Project.sol\":2745:2772  bool private locked = false */\n          0x06\n          exp(0x0100, 0x00)\n          dup2\n          sload\n          dup2\n          0xff\n          mul\n          not\n          and\n          swap1\n          dup4\n          iszero\n          iszero\n          mul\n          or\n          swap1\n          sstore\n          pop\n            /* \"Project.sol\":934:1062  constructor(uint256 minimum, address owner) public {... */\n          callvalue\n          dup1\n          iszero\n          tag_1\n          jumpi\n          0x00\n          dup1\n          revert\n        tag_1:\n          pop\n          mload(0x40)\n          sub(codesize, bytecodeSize)\n          dup1\n          bytecodeSize\n          dup4\n          codecopy\n          dup2\n          dup2\n          add\n          0x40\n          mstore\n          dup2\n          add\n          swap1\n          tag_2\n          swap2\n          swap1\n          tag_3\n          jump\t// in\n        tag_2:\n            /* \"Project.sol\":1018:1025  minimum */\n          dup2\n            /* \"Project.sol\":995:1015  minimumSupportAmount */\n          0x00\n            /* \"Project.sol\":995:1025  minimumSupportAmount = minimum */\n          dup2\n          swap1\n          sstore\n          pop\n            /* \"Project.sol\":1050:1055  owner */\n          dup1\n            /* \"Project.sol\":1035:1047  projectOwner */\n          0x01\n          0x00\n            /* \"Project.sol\":1035:1055  projectOwner = owner */\n          0x0100\n          exp\n          dup2\n          sload\n          dup2\n          0xffffffffffffffffffffffffffffffffffffffff\n          mul\n          not\n          and\n          swap1\n          dup4\n          0xffffffffffffffffffffffffffffffffffffffff\n          and\n          mul\n          or\n          swap1\n          sstore\n          pop\n            /* \"Project.sol\":934:1062  constructor(uint256 minimum, address owner) public {... */\n          pop\n          pop\n            /* \"Project.sol\":432:4560  contract Project {... */\n          jump(tag_6)\n            /* \"#utility.yul\":88:205   */\n        tag_8:\n            /* \"#utility.yul\":197:198   */\n          0x00\n            /* \"#utility.yul\":194:195   */\n          dup1\n            /* \"#utility.yul\":187:199   */\n          revert\n            /* \"#utility.yul\":334:411   */\n        tag_10:\n            /* \"#utility.yul\":371:378   */\n          0x00\n            /* \"#utility.yul\":400:405   */\n          dup2\n            /* \"#utility.yul\":389:405   */\n          swap1\n          pop\n            /* \"#utility.yul\":334:411   */\n          swap2\n          swap1\n          pop\n          jump\t// out\n            /* \"#utility.yul\":417:539   */\n        tag_11:\n            /* \"#utility.yul\":490:514   */\n          tag_23\n            /* \"#utility.yul\":508:513   */\n          dup2\n            /* \"#utility.yul\":490:514   */\n          tag_10\n          jump\t// in\n        tag_23:\n            /* \"#utility.yul\":483:488   */\n          dup2\n            /* \"#utility.yul\":480:515   */\n          eq\n            /* \"#utility.yul\":470:533   */\n          tag_24\n          jumpi\n            /* \"#utility.yul\":529:530   */\n          0x00\n            /* \"#utility.yul\":526:527   */\n          dup1\n            /* \"#utility.yul\":519:531   */\n          revert\n            /* \"#utility.yul\":470:533   */\n        tag_24:\n            /* \"#utility.yul\":417:539   */\n          pop\n          jump\t// out\n            /* \"#utility.yul\":545:688   */\n        tag_12:\n            /* \"#utility.yul\":602:607   */\n          0x00\n            /* \"#utility.yul\":633:639   */\n          dup2\n            /* \"#utility.yul\":627:640   */\n          mload\n            /* \"#utility.yul\":618:640   */\n          swap1\n          pop\n            /* \"#utility.yul\":649:682   */\n          tag_26\n            /* \"#utility.yul\":676:681   */\n          dup2\n            /* \"#utility.yul\":649:682   */\n          tag_11\n          jump\t// in\n        tag_26:\n            /* \"#utility.yul\":545:688   */\n          swap3\n          swap2\n          pop\n          pop\n          jump\t// out\n            /* \"#utility.yul\":694:820   */\n        tag_13:\n            /* \"#utility.yul\":731:738   */\n          0x00\n            /* \"#utility.yul\":771:813   */\n          0xffffffffffffffffffffffffffffffffffffffff\n            /* \"#utility.yul\":764:769   */\n          dup3\n            /* \"#utility.yul\":760:814   */\n          and\n            /* \"#utility.yul\":749:814   */\n          swap1\n          pop\n            /* \"#utility.yul\":694:820   */\n          swap2\n          swap1\n          pop\n          jump\t// out\n            /* \"#utility.yul\":826:922   */\n        tag_14:\n            /* \"#utility.yul\":863:870   */\n          0x00\n            /* \"#utility.yul\":892:916   */\n          tag_29\n            /* \"#utility.yul\":910:915   */\n          dup3\n            /* \"#utility.yul\":892:916   */\n          tag_13\n          jump\t// in\n        tag_29:\n            /* \"#utility.yul\":881:916   */\n          swap1\n          pop\n            /* \"#utility.yul\":826:922   */\n          swap2\n          swap1\n          pop\n          jump\t// out\n            /* \"#utility.yul\":928:1050   */\n        tag_15:\n            /* \"#utility.yul\":1001:1025   */\n          tag_31\n            /* \"#utility.yul\":1019:1024   */\n          dup2\n            /* \"#utility.yul\":1001:1025   */\n          tag_14\n          jump\t// in\n        tag_31:\n            /* \"#utility.yul\":994:999   */\n          dup2\n            /* \"#utility.yul\":991:1026   */\n          eq\n            /* \"#utility.yul\":981:1044   */\n          tag_32\n          jumpi\n            /* \"#utility.yul\":1040:1041   */\n          0x00\n            /* \"#utility.yul\":1037:1038   */\n          dup1\n            /* \"#utility.yul\":1030:1042   */\n          revert\n            /* \"#utility.yul\":981:1044   */\n        tag_32:\n            /* \"#utility.yul\":928:1050   */\n          pop\n          jump\t// out\n            /* \"#utility.yul\":1056:1199   */\n        tag_16:\n            /* \"#utility.yul\":1113:1118   */\n          0x00\n            /* \"#utility.yul\":1144:1150   */\n          dup2\n            /* \"#utility.yul\":1138:1151   */\n          mload\n            /* \"#utility.yul\":1129:1151   */\n          swap1\n          pop\n            /* \"#utility.yul\":1160:1193   */\n          tag_34\n            /* \"#utility.yul\":1187:1192   */\n          dup2\n            /* \"#utility.yul\":1160:1193   */\n          tag_15\n          jump\t// in\n        tag_34:\n            /* \"#utility.yul\":1056:1199   */\n          swap3\n          swap2\n          pop\n          pop\n          jump\t// out\n            /* \"#utility.yul\":1205:1712   */\n        tag_3:\n            /* \"#utility.yul\":1284:1290   */\n          0x00\n            /* \"#utility.yul\":1292:1298   */\n          dup1\n            /* \"#utility.yul\":1341:1343   */\n          0x40\n            /* \"#utility.yul\":1329:1338   */\n          dup4\n            /* \"#utility.yul\":1320:1327   */\n          dup6\n            /* \"#utility.yul\":1316:1339   */\n          sub\n            /* \"#utility.yul\":1312:1344   */\n          slt\n            /* \"#utility.yul\":1309:1428   */\n          iszero\n          tag_36\n          jumpi\n            /* \"#utility.yul\":1347:1426   */\n          tag_37\n          tag_8\n          jump\t// in\n        tag_37:\n            /* \"#utility.yul\":1309:1428   */\n        tag_36:\n            /* \"#utility.yul\":1467:1468   */\n          0x00\n            /* \"#utility.yul\":1492:1556   */\n          tag_38\n            /* \"#utility.yul\":1548:1555   */\n          dup6\n            /* \"#utility.yul\":1539:1545   */\n          dup3\n            /* \"#utility.yul\":1528:1537   */\n          dup7\n            /* \"#utility.yul\":1524:1546   */\n          add\n            /* \"#utility.yul\":1492:1556   */\n          tag_12\n          jump\t// in\n        tag_38:\n            /* \"#utility.yul\":1482:1556   */\n          swap3\n          pop\n            /* \"#utility.yul\":1438:1566   */\n          pop\n            /* \"#utility.yul\":1605:1607   */\n          0x20\n            /* \"#utility.yul\":1631:1695   */\n          tag_39\n            /* \"#utility.yul\":1687:1694   */\n          dup6\n            /* \"#utility.yul\":1678:1684   */\n          dup3\n            /* \"#utility.yul\":1667:1676   */\n          dup7\n            /* \"#utility.yul\":1663:1685   */\n          add\n            /* \"#utility.yul\":1631:1695   */\n          tag_16\n          jump\t// in\n        tag_39:\n            /* \"#utility.yul\":1621:1695   */\n          swap2\n          pop\n            /* \"#utility.yul\":1576:1705   */\n          pop\n            /* \"#utility.yul\":1205:1712   */\n          swap3\n          pop\n          swap3\n          swap1\n          pop\n          jump\t// out\n            /* \"Project.sol\":432:4560  contract Project {... */\n        tag_6:\n          dataSize(sub_0)\n          dup1\n          dataOffset(sub_0)\n          0x00\n          codecopy\n          0x00\n          return\n        stop\n\n        sub_0: assembly {\n                /* \"Project.sol\":432:4560  contract Project {... */\n              mstore(0x40, 0x80)\n              jumpi(tag_1, lt(calldatasize, 0x04))\n              shr(0xe0, calldataload(0x00))\n              dup1\n              0xd63dc661\n              gt\n              tag_14\n              jumpi\n              dup1\n              0xd63dc661\n              eq\n              tag_8\n              jumpi\n              dup1\n              0xd7d1bbdb\n              eq\n              tag_9\n              jumpi\n              dup1\n              0xeb7b1312\n              eq\n              tag_10\n              jumpi\n              dup1\n              0xfdba0ed9\n              eq\n              tag_11\n              jumpi\n              dup1\n              0xff3a9c7e\n              eq\n              tag_12\n              jumpi\n              dup1\n              0xffde9743\n              eq\n              tag_13\n              jumpi\n              jump(tag_1)\n            tag_14:\n              dup1\n              0x496c8ada\n              eq\n              tag_2\n              jumpi\n              dup1\n              0x647c75e2\n              eq\n              tag_3\n              jumpi\n              dup1\n              0x99e0f1eb\n              eq\n              tag_4\n              jumpi\n              dup1\n              0xa4475ce4\n              eq\n              tag_5\n              jumpi\n              dup1\n              0xa9c31840\n              eq\n              tag_6\n              jumpi\n              dup1\n              0xb7887e1f\n              eq\n              tag_7\n              jumpi\n            tag_1:\n              0x00\n              dup1\n              revert\n                /* \"Project.sol\":842:895  mapping(uint256 => SpendRequest) public spendRequests */\n            tag_2:\n              callvalue\n              dup1\n              iszero\n              tag_15\n              jumpi\n              0x00\n              dup1\n              revert\n            tag_15:\n              pop\n              tag_16\n              0x04\n              dup1\n              calldatasize\n              sub\n              dup2\n              add\n              swap1\n              tag_17\n              swap2\n              swap1\n              tag_18\n              jump\t// in\n            tag_17:\n              tag_19\n              jump\t// in\n            tag_16:\n              mload(0x40)\n              tag_20\n              swap7\n              swap6\n              swap5\n              swap4\n              swap3\n              swap2\n              swap1\n              tag_21\n              jump\t// in\n            tag_20:\n              mload(0x40)\n              dup1\n              swap2\n              sub\n              swap1\n              return\n                /* \"Project.sol\":565:607  mapping(address => bool) public supporters */\n            tag_3:\n              callvalue\n              dup1\n              iszero\n              tag_22\n              jumpi\n              0x00\n              dup1\n              revert\n            tag_22:\n              pop\n              tag_23\n              0x04\n              dup1\n              calldatasize\n              sub\n              dup2\n              add\n              swap1\n              tag_24\n              swap2\n              swap1\n              tag_25\n              jump\t// in\n            tag_24:\n              tag_26\n              jump\t// in\n            tag_23:\n              mload(0x40)\n              tag_27\n              swap2\n              swap1\n              tag_28\n              jump\t// in\n            tag_27:\n              mload(0x40)\n              dup1\n              swap2\n              sub\n              swap1\n              return\n                /* \"Project.sol\":455:490  uint256 public minimumSupportAmount */\n            tag_4:\n              callvalue\n              dup1\n              iszero\n              tag_29\n              jumpi\n              0x00\n              dup1\n              revert\n            tag_29:\n              pop\n              tag_30\n              tag_31\n              jump\t// in\n            tag_30:\n              mload(0x40)\n              tag_32\n              swap2\n              swap1\n              tag_33\n              jump\t// in\n            tag_32:\n              mload(0x40)\n              dup1\n              swap2\n              sub\n              swap1\n              return\n                /* \"Project.sol\":496:523  address public projectOwner */\n            tag_5:\n              callvalue\n              dup1\n              iszero\n              tag_34\n              jumpi\n              0x00\n              dup1\n              revert\n            tag_34:\n              pop\n              tag_35\n              tag_36\n              jump\t// in\n            tag_35:\n              mload(0x40)\n              tag_37\n              swap2\n              swap1\n              tag_38\n              jump\t// in\n            tag_37:\n              mload(0x40)\n              dup1\n              swap2\n              sub\n              swap1\n              return\n                /* \"Project.sol\":3878:3983  function getSpendRequestsCount() public view returns (uint256) {... */\n            tag_6:\n              callvalue\n              dup1\n              iszero\n              tag_39\n              jumpi\n              0x00\n              dup1\n              revert\n            tag_39:\n              pop\n              tag_40\n              tag_41\n              jump\t// in\n            tag_40:\n              mload(0x40)\n              tag_42\n              swap2\n              swap1\n              tag_33\n              jump\t// in\n            tag_42:\n              mload(0x40)\n              dup1\n              swap2\n              sub\n              swap1\n              return\n                /* \"Project.sol\":1537:2222  function createSpendRequest(... */\n            tag_7:\n              callvalue\n              dup1\n              iszero\n              tag_43\n              jumpi\n              0x00\n              dup1\n              revert\n            tag_43:\n              pop\n              tag_44\n              0x04\n              dup1\n              calldatasize\n              sub\n              dup2\n              add\n              swap1\n              tag_45\n              swap2\n              swap1\n              tag_46\n              jump\t// in\n            tag_45:\n              tag_47\n              jump\t// in\n            tag_44:\n              stop\n                /* \"Project.sol\":1314:1531  function fundProject() public payable {... */\n            tag_8:\n              tag_48\n              tag_49\n              jump\t// in\n            tag_48:\n              stop\n                /* \"Project.sol\":2228:2739  function approveRequest(uint256 spendRequestIndex)... */\n            tag_9:\n              callvalue\n              dup1\n              iszero\n              tag_50\n              jumpi\n              0x00\n              dup1\n              revert\n            tag_50:\n              pop\n              tag_51\n              0x04\n              dup1\n              calldatasize\n              sub\n              dup2\n              add\n              swap1\n              tag_52\n              swap2\n              swap1\n              tag_18\n              jump\t// in\n            tag_52:\n              tag_53\n              jump\t// in\n            tag_51:\n              stop\n                /* \"Project.sol\":529:559  uint256 public supportersCount */\n            tag_10:\n              callvalue\n              dup1\n              iszero\n              tag_54\n              jumpi\n              0x00\n              dup1\n              revert\n            tag_54:\n              pop\n              tag_55\n              tag_56\n              jump\t// in\n            tag_55:\n              mload(0x40)\n              tag_57\n              swap2\n              swap1\n              tag_33\n              jump\t// in\n            tag_57:\n              mload(0x40)\n              dup1\n              swap2\n              sub\n              swap1\n              return\n                /* \"Project.sol\":3989:4558  function getSpendingRequest(uint256 spendRequestIndex)... */\n            tag_11:\n              callvalue\n              dup1\n              iszero\n              tag_58\n              jumpi\n              0x00\n              dup1\n              revert\n            tag_58:\n              pop\n              tag_59\n              0x04\n              dup1\n              calldatasize\n              sub\n              dup2\n              add\n              swap1\n              tag_60\n              swap2\n              swap1\n              tag_18\n              jump\t// in\n            tag_60:\n              tag_61\n              jump\t// in\n            tag_59:\n              mload(0x40)\n              tag_62\n              swap6\n              swap5\n              swap4\n              swap3\n              swap2\n              swap1\n              tag_63\n              jump\t// in\n            tag_62:\n              mload(0x40)\n              dup1\n              swap2\n              sub\n              swap1\n              return\n                /* \"Project.sol\":3489:3872  function getProjectDetails()... */\n            tag_12:\n              callvalue\n              dup1\n              iszero\n              tag_64\n              jumpi\n              0x00\n              dup1\n              revert\n            tag_64:\n              pop\n              tag_65\n              tag_66\n              jump\t// in\n            tag_65:\n              mload(0x40)\n              tag_67\n              swap6\n              swap5\n              swap4\n              swap3\n              swap2\n              swap1\n              tag_68\n              jump\t// in\n            tag_67:\n              mload(0x40)\n              dup1\n              swap2\n              sub\n              swap1\n              return\n                /* \"Project.sol\":2779:3483  function disbursePayment(uint256 spendRequestIndex)... */\n            tag_13:\n              callvalue\n              dup1\n              iszero\n              tag_69\n              jumpi\n              0x00\n              dup1\n              revert\n            tag_69:\n              pop\n              tag_70\n              0x04\n              dup1\n              calldatasize\n              sub\n              dup2\n              add\n              swap1\n              tag_71\n              swap2\n              swap1\n              tag_18\n              jump\t// in\n            tag_71:\n              tag_72\n              jump\t// in\n            tag_70:\n              stop\n                /* \"Project.sol\":842:895  mapping(uint256 => SpendRequest) public spendRequests */\n            tag_19:\n              mstore(0x20, 0x04)\n              dup1\n              0x00\n              mstore\n              keccak256(0x00, 0x40)\n              0x00\n              swap2\n              pop\n              swap1\n              pop\n              dup1\n              0x00\n              add\n              dup1\n              sload\n              tag_73\n              swap1\n              tag_74\n              jump\t// in\n            tag_73:\n              dup1\n              0x1f\n              add\n              0x20\n              dup1\n              swap2\n              div\n              mul\n              0x20\n              add\n              mload(0x40)\n              swap1\n              dup2\n              add\n              0x40\n              mstore\n              dup1\n              swap3\n              swap2\n              swap1\n              dup2\n              dup2\n              mstore\n              0x20\n              add\n              dup3\n              dup1\n              sload\n              tag_75\n              swap1\n              tag_74\n              jump\t// in\n            tag_75:\n              dup1\n              iszero\n              tag_76\n              jumpi\n              dup1\n              0x1f\n              lt\n              tag_77\n              jumpi\n              0x0100\n              dup1\n              dup4\n              sload\n              div\n              mul\n              dup4\n              mstore\n              swap2\n              0x20\n              add\n              swap2\n              jump(tag_76)\n            tag_77:\n              dup3\n              add\n              swap2\n              swap1\n              0x00\n              mstore\n              keccak256(0x00, 0x20)\n              swap1\n            tag_78:\n              dup2\n              sload\n              dup2\n              mstore\n              swap1\n              0x01\n              add\n              swap1\n              0x20\n              add\n              dup1\n              dup4\n              gt\n              tag_78\n              jumpi\n              dup3\n              swap1\n              sub\n              0x1f\n              and\n              dup3\n              add\n              swap2\n            tag_76:\n              pop\n              pop\n              pop\n              pop\n              pop\n              swap1\n              dup1\n              0x01\n              add\n              sload\n              swap1\n              dup1\n              0x02\n              add\n              0x00\n              swap1\n              sload\n              swap1\n              0x0100\n              exp\n              swap1\n              div\n              0xffffffffffffffffffffffffffffffffffffffff\n              and\n              swap1\n              dup1\n              0x02\n              add\n              0x14\n              swap1\n              sload\n              swap1\n              0x0100\n              exp\n              swap1\n              div\n              0xff\n              and\n              swap1\n              dup1\n              0x03\n              add\n              sload\n              swap1\n              dup1\n              0x05\n              add\n              0x00\n              swap1\n              sload\n              swap1\n              0x0100\n              exp\n              swap1\n              div\n              0xff\n              and\n              swap1\n              pop\n              dup7\n              jump\t// out\n                /* \"Project.sol\":565:607  mapping(address => bool) public supporters */\n            tag_26:\n              mstore(0x20, 0x03)\n              dup1\n              0x00\n              mstore\n              keccak256(0x00, 0x40)\n              0x00\n              swap2\n              pop\n              sload\n              swap1\n              0x0100\n              exp\n              swap1\n              div\n              0xff\n              and\n              dup2\n              jump\t// out\n                /* \"Project.sol\":455:490  uint256 public minimumSupportAmount */\n            tag_31:\n              sload(0x00)\n              dup2\n              jump\t// out\n                /* \"Project.sol\":496:523  address public projectOwner */\n            tag_36:\n              0x01\n              0x00\n              swap1\n              sload\n              swap1\n              0x0100\n              exp\n              swap1\n              div\n              0xffffffffffffffffffffffffffffffffffffffff\n              and\n              dup2\n              jump\t// out\n                /* \"Project.sol\":3878:3983  function getSpendRequestsCount() public view returns (uint256) {... */\n            tag_41:\n                /* \"Project.sol\":3932:3939  uint256 */\n              0x00\n                /* \"Project.sol\":3958:3976  spendRequestsCount */\n              sload(0x05)\n                /* \"Project.sol\":3951:3976  return spendRequestsCount */\n              swap1\n              pop\n                /* \"Project.sol\":3878:3983  function getSpendRequestsCount() public view returns (uint256) {... */\n              swap1\n              jump\t// out\n                /* \"Project.sol\":1537:2222  function createSpendRequest(... */\n            tag_47:\n                /* \"Project.sol\":1132:1144  projectOwner */\n              0x01\n              0x00\n              swap1\n              sload\n              swap1\n              0x0100\n              exp\n              swap1\n              div\n              0xffffffffffffffffffffffffffffffffffffffff\n              and\n                /* \"Project.sol\":1118:1144  msg.sender == projectOwner */\n              0xffffffffffffffffffffffffffffffffffffffff\n              and\n                /* \"Project.sol\":1118:1128  msg.sender */\n              caller\n                /* \"Project.sol\":1118:1144  msg.sender == projectOwner */\n              0xffffffffffffffffffffffffffffffffffffffff\n              and\n              eq\n                /* \"Project.sol\":1110:1145  require(msg.sender == projectOwner) */\n              tag_81\n              jumpi\n              0x00\n              dup1\n              revert\n            tag_81:\n                /* \"Project.sol\":1708:1729  address(this).balance */\n              selfbalance\n                /* \"Project.sol\":1699:1704  value */\n              dup3\n                /* \"Project.sol\":1699:1729  value <= address(this).balance */\n              gt\n              iszero\n                /* \"Project.sol\":1691:1730  require(value <= address(this).balance) */\n              tag_83\n              jumpi\n              0x00\n              dup1\n              revert\n            tag_83:\n                /* \"Project.sol\":1831:1867  SpendRequest storage newSpendRequest */\n              0x00\n                /* \"Project.sol\":1870:1883  spendRequests */\n              0x04\n                /* \"Project.sol\":1870:1925  spendRequests[... */\n              0x00\n                /* \"Project.sol\":1897:1915  spendRequestsCount */\n              sload(0x05)\n                /* \"Project.sol\":1870:1925  spendRequests[... */\n              dup2\n              mstore\n              0x20\n              add\n              swap1\n              dup2\n              mstore\n              0x20\n              add\n              0x00\n              keccak256\n                /* \"Project.sol\":1831:1925  SpendRequest storage newSpendRequest = spendRequests[... */\n              swap1\n              pop\n                /* \"Project.sol\":1966:1977  description */\n              dup4\n                /* \"Project.sol\":1936:1951  newSpendRequest */\n              dup2\n                /* \"Project.sol\":1936:1963  newSpendRequest.description */\n              0x00\n              add\n                /* \"Project.sol\":1936:1977  newSpendRequest.description = description */\n              swap1\n              dup2\n              tag_84\n              swap2\n              swap1\n              tag_85\n              jump\t// in\n            tag_84:\n              pop\n                /* \"Project.sol\":2011:2016  value */\n              dup3\n                /* \"Project.sol\":1987:2002  newSpendRequest */\n              dup2\n                /* \"Project.sol\":1987:2008  newSpendRequest.value */\n              0x01\n              add\n                /* \"Project.sol\":1987:2016  newSpendRequest.value = value */\n              dup2\n              swap1\n              sstore\n              pop\n                /* \"Project.sol\":2051:2057  vendor */\n              dup2\n                /* \"Project.sol\":2026:2041  newSpendRequest */\n              dup2\n                /* \"Project.sol\":2026:2048  newSpendRequest.vendor */\n              0x02\n              add\n              0x00\n                /* \"Project.sol\":2026:2057  newSpendRequest.vendor = vendor */\n              0x0100\n              exp\n              dup2\n              sload\n              dup2\n              0xffffffffffffffffffffffffffffffffffffffff\n              mul\n              not\n              and\n              swap1\n              dup4\n              0xffffffffffffffffffffffffffffffffffffffff\n              and\n              mul\n              or\n              swap1\n              sstore\n              pop\n                /* \"Project.sol\":2097:2102  false */\n              0x00\n                /* \"Project.sol\":2067:2082  newSpendRequest */\n              dup2\n                /* \"Project.sol\":2067:2094  newSpendRequest.isDispensed */\n              0x02\n              add\n              0x14\n                /* \"Project.sol\":2067:2102  newSpendRequest.isDispensed = false */\n              0x0100\n              exp\n              dup2\n              sload\n              dup2\n              0xff\n              mul\n              not\n              and\n              swap1\n              dup4\n              iszero\n              iszero\n              mul\n              or\n              swap1\n              sstore\n              pop\n                /* \"Project.sol\":2137:2141  true */\n              0x01\n                /* \"Project.sol\":2112:2127  newSpendRequest */\n              dup2\n                /* \"Project.sol\":2112:2134  newSpendRequest.exists */\n              0x05\n              add\n              0x00\n                /* \"Project.sol\":2112:2141  newSpendRequest.exists = true */\n              0x0100\n              exp\n              dup2\n              sload\n              dup2\n              0xff\n              mul\n              not\n              and\n              swap1\n              dup4\n              iszero\n              iszero\n              mul\n              or\n              swap1\n              sstore\n              pop\n                /* \"Project.sol\":2183:2184  0 */\n              0x00\n                /* \"Project.sol\":2151:2166  newSpendRequest */\n              dup2\n                /* \"Project.sol\":2151:2180  newSpendRequest.approvalCount */\n              0x03\n              add\n                /* \"Project.sol\":2151:2184  newSpendRequest.approvalCount = 0 */\n              dup2\n              swap1\n              sstore\n              pop\n                /* \"Project.sol\":2195:2213  spendRequestsCount */\n              0x05\n              0x00\n                /* \"Project.sol\":2195:2215  spendRequestsCount++ */\n              dup2\n              sload\n              dup1\n              swap3\n              swap2\n              swap1\n              tag_86\n              swap1\n              tag_87\n              jump\t// in\n            tag_86:\n              swap2\n              swap1\n              pop\n              sstore\n              pop\n                /* \"Project.sol\":1681:2222  {... */\n              pop\n                /* \"Project.sol\":1537:2222  function createSpendRequest(... */\n              pop\n              pop\n              pop\n              jump\t// out\n                /* \"Project.sol\":1314:1531  function fundProject() public payable {... */\n            tag_49:\n                /* \"Project.sol\":1382:1402  minimumSupportAmount */\n              sload(0x00)\n                /* \"Project.sol\":1370:1379  msg.value */\n              callvalue\n                /* \"Project.sol\":1370:1402  msg.value > minimumSupportAmount */\n              gt\n                /* \"Project.sol\":1362:1403  require(msg.value > minimumSupportAmount) */\n              tag_89\n              jumpi\n              0x00\n              dup1\n              revert\n            tag_89:\n                /* \"Project.sol\":1419:1429  supporters */\n              0x03\n                /* \"Project.sol\":1419:1441  supporters[msg.sender] */\n              0x00\n                /* \"Project.sol\":1430:1440  msg.sender */\n              caller\n                /* \"Project.sol\":1419:1441  supporters[msg.sender] */\n              0xffffffffffffffffffffffffffffffffffffffff\n              and\n              0xffffffffffffffffffffffffffffffffffffffff\n              and\n              dup2\n              mstore\n              0x20\n              add\n              swap1\n              dup2\n              mstore\n              0x20\n              add\n              0x00\n              keccak256\n              0x00\n              swap1\n              sload\n              swap1\n              0x0100\n              exp\n              swap1\n              div\n              0xff\n              and\n                /* \"Project.sol\":1414:1485  if (!supporters[msg.sender]) {... */\n              tag_90\n              jumpi\n                /* \"Project.sol\":1457:1472  supportersCount */\n              0x02\n              0x00\n                /* \"Project.sol\":1457:1474  supportersCount++ */\n              dup2\n              sload\n              dup1\n              swap3\n              swap2\n              swap1\n              tag_91\n              swap1\n              tag_87\n              jump\t// in\n            tag_91:\n              swap2\n              swap1\n              pop\n              sstore\n              pop\n                /* \"Project.sol\":1414:1485  if (!supporters[msg.sender]) {... */\n            tag_90:\n                /* \"Project.sol\":1520:1524  true */\n              0x01\n                /* \"Project.sol\":1495:1505  supporters */\n              0x03\n                /* \"Project.sol\":1495:1517  supporters[msg.sender] */\n              0x00\n                /* \"Project.sol\":1506:1516  msg.sender */\n              caller\n                /* \"Project.sol\":1495:1517  supporters[msg.sender] */\n              0xffffffffffffffffffffffffffffffffffffffff\n              and\n              0xffffffffffffffffffffffffffffffffffffffff\n              and\n              dup2\n              mstore\n              0x20\n              add\n              swap1\n              dup2\n              mstore\n              0x20\n              add\n              0x00\n              keccak256\n              0x00\n                /* \"Project.sol\":1495:1524  supporters[msg.sender] = true */\n              0x0100\n              exp\n              dup2\n              sload\n              dup2\n              0xff\n              mul\n              not\n              and\n              swap1\n              dup4\n              iszero\n              iszero\n              mul\n              or\n              swap1\n              sstore\n              pop\n                /* \"Project.sol\":1314:1531  function fundProject() public payable {... */\n              jump\t// out\n                /* \"Project.sol\":2228:2739  function approveRequest(uint256 spendRequestIndex)... */\n            tag_53:\n                /* \"Project.sol\":2329:2346  spendRequestIndex */\n              dup1\n                /* \"Project.sol\":1250:1263  spendRequests */\n              0x04\n                /* \"Project.sol\":1250:1282  spendRequests[spendRequestIndex] */\n              0x00\n                /* \"Project.sol\":1264:1281  spendRequestIndex */\n              dup3\n                /* \"Project.sol\":1250:1282  spendRequests[spendRequestIndex] */\n              dup2\n              mstore\n              0x20\n              add\n              swap1\n              dup2\n              mstore\n              0x20\n              add\n              0x00\n              keccak256\n                /* \"Project.sol\":1250:1289  spendRequests[spendRequestIndex].exists */\n              0x05\n              add\n              0x00\n              swap1\n              sload\n              swap1\n              0x0100\n              exp\n              swap1\n              div\n              0xff\n              and\n                /* \"Project.sol\":1242:1290  require(spendRequests[spendRequestIndex].exists) */\n              tag_93\n              jumpi\n              0x00\n              dup1\n              revert\n            tag_93:\n                /* \"Project.sol\":2362:2395  SpendRequest storage spendRequest */\n              0x00\n                /* \"Project.sol\":2398:2411  spendRequests */\n              0x04\n                /* \"Project.sol\":2398:2430  spendRequests[spendRequestIndex] */\n              0x00\n                /* \"Project.sol\":2412:2429  spendRequestIndex */\n              dup5\n                /* \"Project.sol\":2398:2430  spendRequests[spendRequestIndex] */\n              dup2\n              mstore\n              0x20\n              add\n              swap1\n              dup2\n              mstore\n              0x20\n              add\n              0x00\n              keccak256\n                /* \"Project.sol\":2362:2430  SpendRequest storage spendRequest = spendRequests[spendRequestIndex] */\n              swap1\n              pop\n                /* \"Project.sol\":2449:2459  supporters */\n              0x03\n                /* \"Project.sol\":2449:2471  supporters[msg.sender] */\n              0x00\n                /* \"Project.sol\":2460:2470  msg.sender */\n              caller\n                /* \"Project.sol\":2449:2471  supporters[msg.sender] */\n              0xffffffffffffffffffffffffffffffffffffffff\n              and\n              0xffffffffffffffffffffffffffffffffffffffff\n              and\n              dup2\n              mstore\n              0x20\n              add\n              swap1\n              dup2\n              mstore\n              0x20\n              add\n              0x00\n              keccak256\n              0x00\n              swap1\n              sload\n              swap1\n              0x0100\n              exp\n              swap1\n              div\n              0xff\n              and\n                /* \"Project.sol\":2441:2472  require(supporters[msg.sender]) */\n              tag_95\n              jumpi\n              0x00\n              dup1\n              revert\n            tag_95:\n                /* \"Project.sol\":2550:2562  spendRequest */\n              dup1\n                /* \"Project.sol\":2550:2572  spendRequest.approvals */\n              0x04\n              add\n                /* \"Project.sol\":2550:2584  spendRequest.approvals[msg.sender] */\n              0x00\n                /* \"Project.sol\":2573:2583  msg.sender */\n              caller\n                /* \"Project.sol\":2550:2584  spendRequest.approvals[msg.sender] */\n              0xffffffffffffffffffffffffffffffffffffffff\n              and\n              0xffffffffffffffffffffffffffffffffffffffff\n              and\n              dup2\n              mstore\n              0x20\n              add\n              swap1\n              dup2\n              mstore\n              0x20\n              add\n              0x00\n              keccak256\n              0x00\n              swap1\n              sload\n              swap1\n              0x0100\n              exp\n              swap1\n              div\n              0xff\n              and\n                /* \"Project.sol\":2549:2584  !spendRequest.approvals[msg.sender] */\n              iszero\n                /* \"Project.sol\":2541:2585  require(!spendRequest.approvals[msg.sender]) */\n              tag_96\n              jumpi\n              0x00\n              dup1\n              revert\n            tag_96:\n                /* \"Project.sol\":2690:2694  true */\n              0x01\n                /* \"Project.sol\":2653:2665  spendRequest */\n              dup2\n                /* \"Project.sol\":2653:2675  spendRequest.approvals */\n              0x04\n              add\n                /* \"Project.sol\":2653:2687  spendRequest.approvals[msg.sender] */\n              0x00\n                /* \"Project.sol\":2676:2686  msg.sender */\n              caller\n                /* \"Project.sol\":2653:2687  spendRequest.approvals[msg.sender] */\n              0xffffffffffffffffffffffffffffffffffffffff\n              and\n              0xffffffffffffffffffffffffffffffffffffffff\n              and\n              dup2\n              mstore\n              0x20\n              add\n              swap1\n              dup2\n              mstore\n              0x20\n              add\n              0x00\n              keccak256\n              0x00\n                /* \"Project.sol\":2653:2694  spendRequest.approvals[msg.sender] = true */\n              0x0100\n              exp\n              dup2\n              sload\n              dup2\n              0xff\n              mul\n              not\n              and\n              swap1\n              dup4\n              iszero\n              iszero\n              mul\n              or\n              swap1\n              sstore\n              pop\n                /* \"Project.sol\":2704:2716  spendRequest */\n              dup1\n                /* \"Project.sol\":2704:2730  spendRequest.approvalCount */\n              0x03\n              add\n              0x00\n                /* \"Project.sol\":2704:2732  spendRequest.approvalCount++ */\n              dup2\n              sload\n              dup1\n              swap3\n              swap2\n              swap1\n              tag_97\n              swap1\n              tag_87\n              jump\t// in\n            tag_97:\n              swap2\n              swap1\n              pop\n              sstore\n              pop\n                /* \"Project.sol\":2352:2739  {... */\n              pop\n                /* \"Project.sol\":2228:2739  function approveRequest(uint256 spendRequestIndex)... */\n              pop\n              pop\n              jump\t// out\n                /* \"Project.sol\":529:559  uint256 public supportersCount */\n            tag_56:\n              sload(0x02)\n              dup2\n              jump\t// out\n                /* \"Project.sol\":3989:4558  function getSpendingRequest(uint256 spendRequestIndex)... */\n            tag_61:\n                /* \"Project.sol\":4156:4169  string memory */\n              0x60\n                /* \"Project.sol\":4183:4190  uint256 */\n              0x00\n                /* \"Project.sol\":4204:4211  address */\n              dup1\n                /* \"Project.sol\":4225:4229  bool */\n              0x00\n                /* \"Project.sol\":4243:4250  uint256 */\n              dup1\n                /* \"Project.sol\":4107:4124  spendRequestIndex */\n              dup6\n                /* \"Project.sol\":1250:1263  spendRequests */\n              0x04\n                /* \"Project.sol\":1250:1282  spendRequests[spendRequestIndex] */\n              0x00\n                /* \"Project.sol\":1264:1281  spendRequestIndex */\n              dup3\n                /* \"Project.sol\":1250:1282  spendRequests[spendRequestIndex] */\n              dup2\n              mstore\n              0x20\n              add\n              swap1\n              dup2\n              mstore\n              0x20\n              add\n              0x00\n              keccak256\n                /* \"Project.sol\":1250:1289  spendRequests[spendRequestIndex].exists */\n              0x05\n              add\n              0x00\n              swap1\n              sload\n              swap1\n              0x0100\n              exp\n              swap1\n              div\n              0xff\n              and\n                /* \"Project.sol\":1242:1290  require(spendRequests[spendRequestIndex].exists) */\n              tag_99\n              jumpi\n              0x00\n              dup1\n              revert\n            tag_99:\n                /* \"Project.sol\":4275:4308  SpendRequest storage spendRequest */\n              0x00\n                /* \"Project.sol\":4311:4324  spendRequests */\n              0x04\n                /* \"Project.sol\":4311:4343  spendRequests[spendRequestIndex] */\n              0x00\n                /* \"Project.sol\":4325:4342  spendRequestIndex */\n              dup10\n                /* \"Project.sol\":4311:4343  spendRequests[spendRequestIndex] */\n              dup2\n              mstore\n              0x20\n              add\n              swap1\n              dup2\n              mstore\n              0x20\n              add\n              0x00\n              keccak256\n                /* \"Project.sol\":4275:4343  SpendRequest storage spendRequest = spendRequests[spendRequestIndex] */\n              swap1\n              pop\n                /* \"Project.sol\":4374:4386  spendRequest */\n              dup1\n                /* \"Project.sol\":4374:4398  spendRequest.description */\n              0x00\n              add\n                /* \"Project.sol\":4412:4424  spendRequest */\n              dup2\n                /* \"Project.sol\":4412:4430  spendRequest.value */\n              0x01\n              add\n              sload\n                /* \"Project.sol\":4444:4456  spendRequest */\n              dup3\n                /* \"Project.sol\":4444:4463  spendRequest.vendor */\n              0x02\n              add\n              0x00\n              swap1\n              sload\n              swap1\n              0x0100\n              exp\n              swap1\n              div\n              0xffffffffffffffffffffffffffffffffffffffff\n              and\n                /* \"Project.sol\":4477:4489  spendRequest */\n              dup4\n                /* \"Project.sol\":4477:4501  spendRequest.isDispensed */\n              0x02\n              add\n              0x14\n              swap1\n              sload\n              swap1\n              0x0100\n              exp\n              swap1\n              div\n              0xff\n              and\n                /* \"Project.sol\":4515:4527  spendRequest */\n              dup5\n                /* \"Project.sol\":4515:4541  spendRequest.approvalCount */\n              0x03\n              add\n              sload\n                /* \"Project.sol\":4353:4551  return (... */\n              dup5\n              dup1\n              sload\n              tag_101\n              swap1\n              tag_74\n              jump\t// in\n            tag_101:\n              dup1\n              0x1f\n              add\n              0x20\n              dup1\n              swap2\n              div\n              mul\n              0x20\n              add\n              mload(0x40)\n              swap1\n              dup2\n              add\n              0x40\n              mstore\n              dup1\n              swap3\n              swap2\n              swap1\n              dup2\n              dup2\n              mstore\n              0x20\n              add\n              dup3\n              dup1\n              sload\n              tag_102\n              swap1\n              tag_74\n              jump\t// in\n            tag_102:\n              dup1\n              iszero\n              tag_103\n              jumpi\n              dup1\n              0x1f\n              lt\n              tag_104\n              jumpi\n              0x0100\n              dup1\n              dup4\n              sload\n              div\n              mul\n              dup4\n              mstore\n              swap2\n              0x20\n              add\n              swap2\n              jump(tag_103)\n            tag_104:\n              dup3\n              add\n              swap2\n              swap1\n              0x00\n              mstore\n              keccak256(0x00, 0x20)\n              swap1\n            tag_105:\n              dup2\n              sload\n              dup2\n              mstore\n              swap1\n              0x01\n              add\n              swap1\n              0x20\n              add\n              dup1\n              dup4\n              gt\n              tag_105\n              jumpi\n              dup3\n              swap1\n              sub\n              0x1f\n              and\n              dup3\n              add\n              swap2\n            tag_103:\n              pop\n              pop\n              pop\n              pop\n              pop\n              swap5\n              pop\n              swap7\n              pop\n              swap7\n              pop\n              swap7\n              pop\n              swap7\n              pop\n              swap7\n              pop\n              pop\n                /* \"Project.sol\":3989:4558  function getSpendingRequest(uint256 spendRequestIndex)... */\n              pop\n              swap2\n              swap4\n              swap6\n              swap1\n              swap3\n              swap5\n              pop\n              jump\t// out\n                /* \"Project.sol\":3489:3872  function getProjectDetails()... */\n            tag_66:\n                /* \"Project.sol\":3576:3583  uint256 */\n              0x00\n                /* \"Project.sol\":3597:3604  uint256 */\n              dup1\n                /* \"Project.sol\":3618:3625  uint256 */\n              0x00\n                /* \"Project.sol\":3639:3646  uint256 */\n              dup1\n                /* \"Project.sol\":3660:3667  address */\n              0x00\n                /* \"Project.sol\":3713:3733  minimumSupportAmount */\n              dup1\n              sload\n                /* \"Project.sol\":3747:3768  address(this).balance */\n              selfbalance\n                /* \"Project.sol\":3782:3800  spendRequestsCount */\n              sload(0x05)\n                /* \"Project.sol\":3814:3829  supportersCount */\n              sload(0x02)\n                /* \"Project.sol\":3843:3855  projectOwner */\n              0x01\n              0x00\n              swap1\n              sload\n              swap1\n              0x0100\n              exp\n              swap1\n              div\n              0xffffffffffffffffffffffffffffffffffffffff\n              and\n                /* \"Project.sol\":3692:3865  return (... */\n              swap5\n              pop\n              swap5\n              pop\n              swap5\n              pop\n              swap5\n              pop\n              swap5\n              pop\n                /* \"Project.sol\":3489:3872  function getProjectDetails()... */\n              swap1\n              swap2\n              swap3\n              swap4\n              swap5\n              jump\t// out\n                /* \"Project.sol\":2779:3483  function disbursePayment(uint256 spendRequestIndex)... */\n            tag_72:\n                /* \"Project.sol\":1132:1144  projectOwner */\n              0x01\n              0x00\n              swap1\n              sload\n              swap1\n              0x0100\n              exp\n              swap1\n              div\n              0xffffffffffffffffffffffffffffffffffffffff\n              and\n                /* \"Project.sol\":1118:1144  msg.sender == projectOwner */\n              0xffffffffffffffffffffffffffffffffffffffff\n              and\n                /* \"Project.sol\":1118:1128  msg.sender */\n              caller\n                /* \"Project.sol\":1118:1144  msg.sender == projectOwner */\n              0xffffffffffffffffffffffffffffffffffffffff\n              and\n              eq\n                /* \"Project.sol\":1110:1145  require(msg.sender == projectOwner) */\n              tag_108\n              jumpi\n              0x00\n              dup1\n              revert\n            tag_108:\n                /* \"Project.sol\":3035:3068  SpendRequest storage spendRequest */\n              0x00\n                /* \"Project.sol\":3071:3084  spendRequests */\n              0x04\n                /* \"Project.sol\":3071:3103  spendRequests[spendRequestIndex] */\n              0x00\n                /* \"Project.sol\":3085:3102  spendRequestIndex */\n              dup4\n                /* \"Project.sol\":3071:3103  spendRequests[spendRequestIndex] */\n              dup2\n              mstore\n              0x20\n              add\n              swap1\n              dup2\n              mstore\n              0x20\n              add\n              0x00\n              keccak256\n                /* \"Project.sol\":3035:3103  SpendRequest storage spendRequest = spendRequests[spendRequestIndex] */\n              swap1\n              pop\n                /* \"Project.sol\":3169:3170  2 */\n              0x02\n                /* \"Project.sol\":3151:3166  supportersCount */\n              dup1\n              sload\n                /* \"Project.sol\":3151:3170  supportersCount / 2 */\n              tag_110\n              swap2\n              swap1\n              tag_111\n              jump\t// in\n            tag_110:\n                /* \"Project.sol\":3121:3133  spendRequest */\n              dup2\n                /* \"Project.sol\":3121:3147  spendRequest.approvalCount */\n              0x03\n              add\n              sload\n                /* \"Project.sol\":3121:3171  spendRequest.approvalCount > (supportersCount / 2) */\n              gt\n                /* \"Project.sol\":3113:3172  require(spendRequest.approvalCount > (supportersCount / 2)) */\n              tag_112\n              jumpi\n              0x00\n              dup1\n              revert\n            tag_112:\n                /* \"Project.sol\":3252:3264  spendRequest */\n              dup1\n                /* \"Project.sol\":3252:3276  spendRequest.isDispensed */\n              0x02\n              add\n              0x14\n              swap1\n              sload\n              swap1\n              0x0100\n              exp\n              swap1\n              div\n              0xff\n              and\n                /* \"Project.sol\":3251:3276  !spendRequest.isDispensed */\n              iszero\n                /* \"Project.sol\":3243:3277  require(!spendRequest.isDispensed) */\n              tag_113\n              jumpi\n              0x00\n              dup1\n              revert\n            tag_113:\n                /* \"Project.sol\":3359:3371  spendRequest */\n              dup1\n                /* \"Project.sol\":3359:3378  spendRequest.vendor */\n              0x02\n              add\n              0x00\n              swap1\n              sload\n              swap1\n              0x0100\n              exp\n              swap1\n              div\n              0xffffffffffffffffffffffffffffffffffffffff\n              and\n                /* \"Project.sol\":3351:3388  payable(spendRequest.vendor).transfer */\n              0xffffffffffffffffffffffffffffffffffffffff\n              and\n                /* \"Project.sol\":3351:3408  payable(spendRequest.vendor).transfer(spendRequest.value) */\n              0x08fc\n                /* \"Project.sol\":3389:3401  spendRequest */\n              dup3\n                /* \"Project.sol\":3389:3407  spendRequest.value */\n              0x01\n              add\n              sload\n                /* \"Project.sol\":3351:3408  payable(spendRequest.vendor).transfer(spendRequest.value) */\n              swap1\n              dup2\n              iszero\n              mul\n              swap1\n              mload(0x40)\n              0x00\n              mload(0x40)\n              dup1\n              dup4\n              sub\n              dup2\n              dup6\n              dup9\n              dup9\n              call\n              swap4\n              pop\n              pop\n              pop\n              pop\n              iszero\n              dup1\n              iszero\n              tag_115\n              jumpi\n              returndatasize\n              0x00\n              dup1\n              returndatacopy\n              revert(0x00, returndatasize)\n            tag_115:\n              pop\n                /* \"Project.sol\":3445:3449  true */\n              0x01\n                /* \"Project.sol\":3418:3430  spendRequest */\n              dup2\n                /* \"Project.sol\":3418:3442  spendRequest.isDispensed */\n              0x02\n              add\n              0x14\n                /* \"Project.sol\":3418:3449  spendRequest.isDispensed = true */\n              0x0100\n              exp\n              dup2\n              sload\n              dup2\n              0xff\n              mul\n              not\n              and\n              swap1\n              dup4\n              iszero\n              iszero\n              mul\n              or\n              swap1\n              sstore\n              pop\n                /* \"Project.sol\":2879:3483  {... */\n              pop\n                /* \"Project.sol\":2779:3483  function disbursePayment(uint256 spendRequestIndex)... */\n              pop\n              jump\t// out\n                /* \"#utility.yul\":7:82   */\n            tag_116:\n                /* \"#utility.yul\":40:46   */\n              0x00\n                /* \"#utility.yul\":73:75   */\n              0x40\n                /* \"#utility.yul\":67:76   */\n              mload\n                /* \"#utility.yul\":57:76   */\n              swap1\n              pop\n                /* \"#utility.yul\":7:82   */\n              swap1\n              jump\t// out\n                /* \"#utility.yul\":88:205   */\n            tag_117:\n                /* \"#utility.yul\":197:198   */\n              0x00\n                /* \"#utility.yul\":194:195   */\n              dup1\n                /* \"#utility.yul\":187:199   */\n              revert\n                /* \"#utility.yul\":211:328   */\n            tag_118:\n                /* \"#utility.yul\":320:321   */\n              0x00\n                /* \"#utility.yul\":317:318   */\n              dup1\n                /* \"#utility.yul\":310:322   */\n              revert\n                /* \"#utility.yul\":334:411   */\n            tag_119:\n                /* \"#utility.yul\":371:378   */\n              0x00\n                /* \"#utility.yul\":400:405   */\n              dup2\n                /* \"#utility.yul\":389:405   */\n              swap1\n              pop\n                /* \"#utility.yul\":334:411   */\n              swap2\n              swap1\n              pop\n              jump\t// out\n                /* \"#utility.yul\":417:539   */\n            tag_120:\n                /* \"#utility.yul\":490:514   */\n              tag_168\n                /* \"#utility.yul\":508:513   */\n              dup2\n                /* \"#utility.yul\":490:514   */\n              tag_119\n              jump\t// in\n            tag_168:\n                /* \"#utility.yul\":483:488   */\n              dup2\n                /* \"#utility.yul\":480:515   */\n              eq\n                /* \"#utility.yul\":470:533   */\n              tag_169\n              jumpi\n                /* \"#utility.yul\":529:530   */\n              0x00\n                /* \"#utility.yul\":526:527   */\n              dup1\n                /* \"#utility.yul\":519:531   */\n              revert\n                /* \"#utility.yul\":470:533   */\n            tag_169:\n                /* \"#utility.yul\":417:539   */\n              pop\n              jump\t// out\n                /* \"#utility.yul\":545:684   */\n            tag_121:\n                /* \"#utility.yul\":591:596   */\n              0x00\n                /* \"#utility.yul\":629:635   */\n              dup2\n                /* \"#utility.yul\":616:636   */\n              calldataload\n                /* \"#utility.yul\":607:636   */\n              swap1\n              pop\n                /* \"#utility.yul\":645:678   */\n              tag_171\n                /* \"#utility.yul\":672:677   */\n              dup2\n                /* \"#utility.yul\":645:678   */\n              tag_120\n              jump\t// in\n            tag_171:\n                /* \"#utility.yul\":545:684   */\n              swap3\n              swap2\n              pop\n              pop\n              jump\t// out\n                /* \"#utility.yul\":690:1019   */\n            tag_18:\n                /* \"#utility.yul\":749:755   */\n              0x00\n                /* \"#utility.yul\":798:800   */\n              0x20\n                /* \"#utility.yul\":786:795   */\n              dup3\n                /* \"#utility.yul\":777:784   */\n              dup5\n                /* \"#utility.yul\":773:796   */\n              sub\n                /* \"#utility.yul\":769:801   */\n              slt\n                /* \"#utility.yul\":766:885   */\n              iszero\n              tag_173\n              jumpi\n                /* \"#utility.yul\":804:883   */\n              tag_174\n              tag_117\n              jump\t// in\n            tag_174:\n                /* \"#utility.yul\":766:885   */\n            tag_173:\n                /* \"#utility.yul\":924:925   */\n              0x00\n                /* \"#utility.yul\":949:1002   */\n              tag_175\n                /* \"#utility.yul\":994:1001   */\n              dup5\n                /* \"#utility.yul\":985:991   */\n              dup3\n                /* \"#utility.yul\":974:983   */\n              dup6\n                /* \"#utility.yul\":970:992   */\n              add\n                /* \"#utility.yul\":949:1002   */\n              tag_121\n              jump\t// in\n            tag_175:\n                /* \"#utility.yul\":939:1002   */\n              swap2\n              pop\n                /* \"#utility.yul\":895:1012   */\n              pop\n                /* \"#utility.yul\":690:1019   */\n              swap3\n              swap2\n              pop\n              pop\n              jump\t// out\n                /* \"#utility.yul\":1025:1124   */\n            tag_122:\n                /* \"#utility.yul\":1077:1083   */\n              0x00\n                /* \"#utility.yul\":1111:1116   */\n              dup2\n                /* \"#utility.yul\":1105:1117   */\n              mload\n                /* \"#utility.yul\":1095:1117   */\n              swap1\n              pop\n                /* \"#utility.yul\":1025:1124   */\n              swap2\n              swap1\n              pop\n              jump\t// out\n                /* \"#utility.yul\":1130:1299   */\n            tag_123:\n                /* \"#utility.yul\":1214:1225   */\n              0x00\n                /* \"#utility.yul\":1248:1254   */\n              dup3\n                /* \"#utility.yul\":1243:1246   */\n              dup3\n                /* \"#utility.yul\":1236:1255   */\n              mstore\n                /* \"#utility.yul\":1288:1292   */\n              0x20\n                /* \"#utility.yul\":1283:1286   */\n              dup3\n                /* \"#utility.yul\":1279:1293   */\n              add\n                /* \"#utility.yul\":1264:1293   */\n              swap1\n              pop\n                /* \"#utility.yul\":1130:1299   */\n              swap3\n              swap2\n              pop\n              pop\n              jump\t// out\n                /* \"#utility.yul\":1305:1551   */\n            tag_124:\n                /* \"#utility.yul\":1386:1387   */\n              0x00\n                /* \"#utility.yul\":1396:1509   */\n            tag_179:\n                /* \"#utility.yul\":1410:1416   */\n              dup4\n                /* \"#utility.yul\":1407:1408   */\n              dup2\n                /* \"#utility.yul\":1404:1417   */\n              lt\n                /* \"#utility.yul\":1396:1509   */\n              iszero\n              tag_181\n              jumpi\n                /* \"#utility.yul\":1495:1496   */\n              dup1\n                /* \"#utility.yul\":1490:1493   */\n              dup3\n                /* \"#utility.yul\":1486:1497   */\n              add\n                /* \"#utility.yul\":1480:1498   */\n              mload\n                /* \"#utility.yul\":1476:1477   */\n              dup2\n                /* \"#utility.yul\":1471:1474   */\n              dup5\n                /* \"#utility.yul\":1467:1478   */\n              add\n                /* \"#utility.yul\":1460:1499   */\n              mstore\n                /* \"#utility.yul\":1432:1434   */\n              0x20\n                /* \"#utility.yul\":1429:1430   */\n              dup2\n                /* \"#utility.yul\":1425:1435   */\n              add\n                /* \"#utility.yul\":1420:1435   */\n              swap1\n              pop\n                /* \"#utility.yul\":1396:1509   */\n              jump(tag_179)\n            tag_181:\n                /* \"#utility.yul\":1543:1544   */\n              0x00\n                /* \"#utility.yul\":1534:1540   */\n              dup5\n                /* \"#utility.yul\":1529:1532   */\n              dup5\n                /* \"#utility.yul\":1525:1541   */\n              add\n                /* \"#utility.yul\":1518:1545   */\n              mstore\n                /* \"#utility.yul\":1367:1551   */\n              pop\n                /* \"#utility.yul\":1305:1551   */\n              pop\n              pop\n              pop\n              jump\t// out\n                /* \"#utility.yul\":1557:1659   */\n            tag_125:\n                /* \"#utility.yul\":1598:1604   */\n              0x00\n                /* \"#utility.yul\":1649:1651   */\n              0x1f\n                /* \"#utility.yul\":1645:1652   */\n              not\n                /* \"#utility.yul\":1640:1642   */\n              0x1f\n                /* \"#utility.yul\":1633:1638   */\n              dup4\n                /* \"#utility.yul\":1629:1643   */\n              add\n                /* \"#utility.yul\":1625:1653   */\n              and\n                /* \"#utility.yul\":1615:1653   */\n              swap1\n              pop\n                /* \"#utility.yul\":1557:1659   */\n              swap2\n              swap1\n              pop\n              jump\t// out\n                /* \"#utility.yul\":1665:2042   */\n            tag_126:\n                /* \"#utility.yul\":1753:1756   */\n              0x00\n                /* \"#utility.yul\":1781:1820   */\n              tag_184\n                /* \"#utility.yul\":1814:1819   */\n              dup3\n                /* \"#utility.yul\":1781:1820   */\n              tag_122\n              jump\t// in\n            tag_184:\n                /* \"#utility.yul\":1836:1907   */\n              tag_185\n                /* \"#utility.yul\":1900:1906   */\n              dup2\n                /* \"#utility.yul\":1895:1898   */\n              dup6\n                /* \"#utility.yul\":1836:1907   */\n              tag_123\n              jump\t// in\n            tag_185:\n                /* \"#utility.yul\":1829:1907   */\n              swap4\n              pop\n                /* \"#utility.yul\":1916:1981   */\n              tag_186\n                /* \"#utility.yul\":1974:1980   */\n              dup2\n                /* \"#utility.yul\":1969:1972   */\n              dup6\n                /* \"#utility.yul\":1962:1966   */\n              0x20\n                /* \"#utility.yul\":1955:1960   */\n              dup7\n                /* \"#utility.yul\":1951:1967   */\n              add\n                /* \"#utility.yul\":1916:1981   */\n              tag_124\n              jump\t// in\n            tag_186:\n                /* \"#utility.yul\":2006:2035   */\n              tag_187\n                /* \"#utility.yul\":2028:2034   */\n              dup2\n                /* \"#utility.yul\":2006:2035   */\n              tag_125\n              jump\t// in\n            tag_187:\n                /* \"#utility.yul\":2001:2004   */\n              dup5\n                /* \"#utility.yul\":1997:2036   */\n              add\n                /* \"#utility.yul\":1990:2036   */\n              swap2\n              pop\n                /* \"#utility.yul\":1757:2042   */\n              pop\n                /* \"#utility.yul\":1665:2042   */\n              swap3\n              swap2\n              pop\n              pop\n              jump\t// out\n                /* \"#utility.yul\":2048:2166   */\n            tag_127:\n                /* \"#utility.yul\":2135:2159   */\n              tag_189\n                /* \"#utility.yul\":2153:2158   */\n              dup2\n                /* \"#utility.yul\":2135:2159   */\n              tag_119\n              jump\t// in\n            tag_189:\n                /* \"#utility.yul\":2130:2133   */\n              dup3\n                /* \"#utility.yul\":2123:2160   */\n              mstore\n                /* \"#utility.yul\":2048:2166   */\n              pop\n              pop\n              jump\t// out\n                /* \"#utility.yul\":2172:2298   */\n            tag_128:\n                /* \"#utility.yul\":2209:2216   */\n              0x00\n                /* \"#utility.yul\":2249:2291   */\n              0xffffffffffffffffffffffffffffffffffffffff\n                /* \"#utility.yul\":2242:2247   */\n              dup3\n                /* \"#utility.yul\":2238:2292   */\n              and\n                /* \"#utility.yul\":2227:2292   */\n              swap1\n              pop\n                /* \"#utility.yul\":2172:2298   */\n              swap2\n              swap1\n              pop\n              jump\t// out\n                /* \"#utility.yul\":2304:2400   */\n            tag_129:\n                /* \"#utility.yul\":2341:2348   */\n              0x00\n                /* \"#utility.yul\":2370:2394   */\n              tag_192\n                /* \"#utility.yul\":2388:2393   */\n              dup3\n                /* \"#utility.yul\":2370:2394   */\n              tag_128\n              jump\t// in\n            tag_192:\n                /* \"#utility.yul\":2359:2394   */\n              swap1\n              pop\n                /* \"#utility.yul\":2304:2400   */\n              swap2\n              swap1\n              pop\n              jump\t// out\n                /* \"#utility.yul\":2406:2524   */\n            tag_130:\n                /* \"#utility.yul\":2493:2517   */\n              tag_194\n                /* \"#utility.yul\":2511:2516   */\n              dup2\n                /* \"#utility.yul\":2493:2517   */\n              tag_129\n              jump\t// in\n            tag_194:\n                /* \"#utility.yul\":2488:2491   */\n              dup3\n                /* \"#utility.yul\":2481:2518   */\n              mstore\n                /* \"#utility.yul\":2406:2524   */\n              pop\n              pop\n              jump\t// out\n                /* \"#utility.yul\":2530:2620   */\n            tag_131:\n                /* \"#utility.yul\":2564:2571   */\n              0x00\n                /* \"#utility.yul\":2607:2612   */\n              dup2\n                /* \"#utility.yul\":2600:2613   */\n              iszero\n                /* \"#utility.yul\":2593:2614   */\n              iszero\n                /* \"#utility.yul\":2582:2614   */\n              swap1\n              pop\n                /* \"#utility.yul\":2530:2620   */\n              swap2\n              swap1\n              pop\n              jump\t// out\n                /* \"#utility.yul\":2626:2735   */\n            tag_132:\n                /* \"#utility.yul\":2707:2728   */\n              tag_197\n                /* \"#utility.yul\":2722:2727   */\n              dup2\n                /* \"#utility.yul\":2707:2728   */\n              tag_131\n              jump\t// in\n            tag_197:\n                /* \"#utility.yul\":2702:2705   */\n              dup3\n                /* \"#utility.yul\":2695:2729   */\n              mstore\n                /* \"#utility.yul\":2626:2735   */\n              pop\n              pop\n              jump\t// out\n                /* \"#utility.yul\":2741:3583   */\n            tag_21:\n                /* \"#utility.yul\":2982:2986   */\n              0x00\n                /* \"#utility.yul\":3020:3023   */\n              0xc0\n                /* \"#utility.yul\":3009:3018   */\n              dup3\n                /* \"#utility.yul\":3005:3024   */\n              add\n                /* \"#utility.yul\":2997:3024   */\n              swap1\n              pop\n                /* \"#utility.yul\":3070:3079   */\n              dup2\n                /* \"#utility.yul\":3064:3068   */\n              dup2\n                /* \"#utility.yul\":3060:3080   */\n              sub\n                /* \"#utility.yul\":3056:3057   */\n              0x00\n                /* \"#utility.yul\":3045:3054   */\n              dup4\n                /* \"#utility.yul\":3041:3058   */\n              add\n                /* \"#utility.yul\":3034:3081   */\n              mstore\n                /* \"#utility.yul\":3098:3176   */\n              tag_199\n                /* \"#utility.yul\":3171:3175   */\n              dup2\n                /* \"#utility.yul\":3162:3168   */\n              dup10\n                /* \"#utility.yul\":3098:3176   */\n              tag_126\n              jump\t// in\n            tag_199:\n                /* \"#utility.yul\":3090:3176   */\n              swap1\n              pop\n                /* \"#utility.yul\":3186:3258   */\n              tag_200\n                /* \"#utility.yul\":3254:3256   */\n              0x20\n                /* \"#utility.yul\":3243:3252   */\n              dup4\n                /* \"#utility.yul\":3239:3257   */\n              add\n                /* \"#utility.yul\":3230:3236   */\n              dup9\n                /* \"#utility.yul\":3186:3258   */\n              tag_127\n              jump\t// in\n            tag_200:\n                /* \"#utility.yul\":3268:3340   */\n              tag_201\n                /* \"#utility.yul\":3336:3338   */\n              0x40\n                /* \"#utility.yul\":3325:3334   */\n              dup4\n                /* \"#utility.yul\":3321:3339   */\n              add\n                /* \"#utility.yul\":3312:3318   */\n              dup8\n                /* \"#utility.yul\":3268:3340   */\n              tag_130\n              jump\t// in\n            tag_201:\n                /* \"#utility.yul\":3350:3416   */\n              tag_202\n                /* \"#utility.yul\":3412:3414   */\n              0x60\n                /* \"#utility.yul\":3401:3410   */\n              dup4\n                /* \"#utility.yul\":3397:3415   */\n              add\n                /* \"#utility.yul\":3388:3394   */\n              dup7\n                /* \"#utility.yul\":3350:3416   */\n              tag_132\n              jump\t// in\n            tag_202:\n                /* \"#utility.yul\":3426:3499   */\n              tag_203\n                /* \"#utility.yul\":3494:3497   */\n              0x80\n                /* \"#utility.yul\":3483:3492   */\n              dup4\n                /* \"#utility.yul\":3479:3498   */\n              add\n                /* \"#utility.yul\":3470:3476   */\n              dup6\n                /* \"#utility.yul\":3426:3499   */\n              tag_127\n              jump\t// in\n            tag_203:\n                /* \"#utility.yul\":3509:3576   */\n              tag_204\n                /* \"#utility.yul\":3571:3574   */\n              0xa0\n                /* \"#utility.yul\":3560:3569   */\n              dup4\n                /* \"#utility.yul\":3556:3575   */\n              add\n                /* \"#utility.yul\":3547:3553   */\n              dup5\n                /* \"#utility.yul\":3509:3576   */\n              tag_132\n              jump\t// in\n            tag_204:\n                /* \"#utility.yul\":2741:3583   */\n              swap8\n              swap7\n              pop\n              pop\n              pop\n              pop\n              pop\n              pop\n              pop\n              jump\t// out\n                /* \"#utility.yul\":3589:3711   */\n            tag_133:\n                /* \"#utility.yul\":3662:3686   */\n              tag_206\n                /* \"#utility.yul\":3680:3685   */\n              dup2\n                /* \"#utility.yul\":3662:3686   */\n              tag_129\n              jump\t// in\n            tag_206:\n                /* \"#utility.yul\":3655:3660   */\n              dup2\n                /* \"#utility.yul\":3652:3687   */\n              eq\n                /* \"#utility.yul\":3642:3705   */\n              tag_207\n              jumpi\n                /* \"#utility.yul\":3701:3702   */\n              0x00\n                /* \"#utility.yul\":3698:3699   */\n              dup1\n                /* \"#utility.yul\":3691:3703   */\n              revert\n                /* \"#utility.yul\":3642:3705   */\n            tag_207:\n                /* \"#utility.yul\":3589:3711   */\n              pop\n              jump\t// out\n                /* \"#utility.yul\":3717:3856   */\n            tag_134:\n                /* \"#utility.yul\":3763:3768   */\n              0x00\n                /* \"#utility.yul\":3801:3807   */\n              dup2\n                /* \"#utility.yul\":3788:3808   */\n              calldataload\n                /* \"#utility.yul\":3779:3808   */\n              swap1\n              pop\n                /* \"#utility.yul\":3817:3850   */\n              tag_209\n                /* \"#utility.yul\":3844:3849   */\n              dup2\n                /* \"#utility.yul\":3817:3850   */\n              tag_133\n              jump\t// in\n            tag_209:\n                /* \"#utility.yul\":3717:3856   */\n              swap3\n              swap2\n              pop\n              pop\n              jump\t// out\n                /* \"#utility.yul\":3862:4191   */\n            tag_25:\n                /* \"#utility.yul\":3921:3927   */\n              0x00\n                /* \"#utility.yul\":3970:3972   */\n              0x20\n                /* \"#utility.yul\":3958:3967   */\n              dup3\n                /* \"#utility.yul\":3949:3956   */\n              dup5\n                /* \"#utility.yul\":3945:3968   */\n              sub\n                /* \"#utility.yul\":3941:3973   */\n              slt\n                /* \"#utility.yul\":3938:4057   */\n              iszero\n              tag_211\n              jumpi\n                /* \"#utility.yul\":3976:4055   */\n              tag_212\n              tag_117\n              jump\t// in\n            tag_212:\n                /* \"#utility.yul\":3938:4057   */\n            tag_211:\n                /* \"#utility.yul\":4096:4097   */\n              0x00\n                /* \"#utility.yul\":4121:4174   */\n              tag_213\n                /* \"#utility.yul\":4166:4173   */\n              dup5\n                /* \"#utility.yul\":4157:4163   */\n              dup3\n                /* \"#utility.yul\":4146:4155   */\n              dup6\n                /* \"#utility.yul\":4142:4164   */\n              add\n                /* \"#utility.yul\":4121:4174   */\n              tag_134\n              jump\t// in\n            tag_213:\n                /* \"#utility.yul\":4111:4174   */\n              swap2\n              pop\n                /* \"#utility.yul\":4067:4184   */\n              pop\n                /* \"#utility.yul\":3862:4191   */\n              swap3\n              swap2\n              pop\n              pop\n              jump\t// out\n                /* \"#utility.yul\":4197:4407   */\n            tag_28:\n                /* \"#utility.yul\":4284:4288   */\n              0x00\n                /* \"#utility.yul\":4322:4324   */\n              0x20\n                /* \"#utility.yul\":4311:4320   */\n              dup3\n                /* \"#utility.yul\":4307:4325   */\n              add\n                /* \"#utility.yul\":4299:4325   */\n              swap1\n              pop\n                /* \"#utility.yul\":4335:4400   */\n              tag_215\n                /* \"#utility.yul\":4397:4398   */\n              0x00\n                /* \"#utility.yul\":4386:4395   */\n              dup4\n                /* \"#utility.yul\":4382:4399   */\n              add\n                /* \"#utility.yul\":4373:4379   */\n              dup5\n                /* \"#utility.yul\":4335:4400   */\n              tag_132\n              jump\t// in\n            tag_215:\n                /* \"#utility.yul\":4197:4407   */\n              swap3\n              swap2\n              pop\n              pop\n              jump\t// out\n                /* \"#utility.yul\":4413:4635   */\n            tag_33:\n                /* \"#utility.yul\":4506:4510   */\n              0x00\n                /* \"#utility.yul\":4544:4546   */\n              0x20\n                /* \"#utility.yul\":4533:4542   */\n              dup3\n                /* \"#utility.yul\":4529:4547   */\n              add\n                /* \"#utility.yul\":4521:4547   */\n              swap1\n              pop\n                /* \"#utility.yul\":4557:4628   */\n              tag_217\n                /* \"#utility.yul\":4625:4626   */\n              0x00\n                /* \"#utility.yul\":4614:4623   */\n              dup4\n                /* \"#utility.yul\":4610:4627   */\n              add\n                /* \"#utility.yul\":4601:4607   */\n              dup5\n                /* \"#utility.yul\":4557:4628   */\n              tag_127\n              jump\t// in\n            tag_217:\n                /* \"#utility.yul\":4413:4635   */\n              swap3\n              swap2\n              pop\n              pop\n              jump\t// out\n                /* \"#utility.yul\":4641:4863   */\n            tag_38:\n                /* \"#utility.yul\":4734:4738   */\n              0x00\n                /* \"#utility.yul\":4772:4774   */\n              0x20\n                /* \"#utility.yul\":4761:4770   */\n              dup3\n                /* \"#utility.yul\":4757:4775   */\n              add\n                /* \"#utility.yul\":4749:4775   */\n              swap1\n              pop\n                /* \"#utility.yul\":4785:4856   */\n              tag_219\n                /* \"#utility.yul\":4853:4854   */\n              0x00\n                /* \"#utility.yul\":4842:4851   */\n              dup4\n                /* \"#utility.yul\":4838:4855   */\n              add\n                /* \"#utility.yul\":4829:4835   */\n              dup5\n                /* \"#utility.yul\":4785:4856   */\n              tag_130\n              jump\t// in\n            tag_219:\n                /* \"#utility.yul\":4641:4863   */\n              swap3\n              swap2\n              pop\n              pop\n              jump\t// out\n                /* \"#utility.yul\":4869:4986   */\n            tag_135:\n                /* \"#utility.yul\":4978:4979   */\n              0x00\n                /* \"#utility.yul\":4975:4976   */\n              dup1\n                /* \"#utility.yul\":4968:4980   */\n              revert\n                /* \"#utility.yul\":4992:5109   */\n            tag_136:\n                /* \"#utility.yul\":5101:5102   */\n              0x00\n                /* \"#utility.yul\":5098:5099   */\n              dup1\n                /* \"#utility.yul\":5091:5103   */\n              revert\n                /* \"#utility.yul\":5115:5295   */\n            tag_137:\n                /* \"#utility.yul\":5163:5240   */\n              0x4e487b7100000000000000000000000000000000000000000000000000000000\n                /* \"#utility.yul\":5160:5161   */\n              0x00\n                /* \"#utility.yul\":5153:5241   */\n              mstore\n                /* \"#utility.yul\":5260:5264   */\n              0x41\n                /* \"#utility.yul\":5257:5258   */\n              0x04\n                /* \"#utility.yul\":5250:5265   */\n              mstore\n                /* \"#utility.yul\":5284:5288   */\n              0x24\n                /* \"#utility.yul\":5281:5282   */\n              0x00\n                /* \"#utility.yul\":5274:5289   */\n              revert\n                /* \"#utility.yul\":5301:5582   */\n            tag_138:\n                /* \"#utility.yul\":5384:5411   */\n              tag_224\n                /* \"#utility.yul\":5406:5410   */\n              dup3\n                /* \"#utility.yul\":5384:5411   */\n              tag_125\n              jump\t// in\n            tag_224:\n                /* \"#utility.yul\":5376:5382   */\n              dup2\n                /* \"#utility.yul\":5372:5412   */\n              add\n                /* \"#utility.yul\":5514:5520   */\n              dup2\n                /* \"#utility.yul\":5502:5512   */\n              dup2\n                /* \"#utility.yul\":5499:5521   */\n              lt\n                /* \"#utility.yul\":5478:5496   */\n              0xffffffffffffffff\n                /* \"#utility.yul\":5466:5476   */\n              dup3\n                /* \"#utility.yul\":5463:5497   */\n              gt\n                /* \"#utility.yul\":5460:5522   */\n              or\n                /* \"#utility.yul\":5457:5545   */\n              iszero\n              tag_225\n              jumpi\n                /* \"#utility.yul\":5525:5543   */\n              tag_226\n              tag_137\n              jump\t// in\n            tag_226:\n                /* \"#utility.yul\":5457:5545   */\n            tag_225:\n                /* \"#utility.yul\":5565:5575   */\n              dup1\n                /* \"#utility.yul\":5561:5563   */\n              0x40\n                /* \"#utility.yul\":5554:5576   */\n              mstore\n                /* \"#utility.yul\":5344:5582   */\n              pop\n                /* \"#utility.yul\":5301:5582   */\n              pop\n              pop\n              jump\t// out\n                /* \"#utility.yul\":5588:5717   */\n            tag_139:\n                /* \"#utility.yul\":5622:5628   */\n              0x00\n                /* \"#utility.yul\":5649:5669   */\n              tag_228\n              tag_116\n              jump\t// in\n            tag_228:\n                /* \"#utility.yul\":5639:5669   */\n              swap1\n              pop\n                /* \"#utility.yul\":5678:5711   */\n              tag_229\n                /* \"#utility.yul\":5706:5710   */\n              dup3\n                /* \"#utility.yul\":5698:5704   */\n              dup3\n                /* \"#utility.yul\":5678:5711   */\n              tag_138\n              jump\t// in\n            tag_229:\n                /* \"#utility.yul\":5588:5717   */\n              swap2\n              swap1\n              pop\n              jump\t// out\n                /* \"#utility.yul\":5723:6031   */\n            tag_140:\n                /* \"#utility.yul\":5785:5789   */\n              0x00\n                /* \"#utility.yul\":5875:5893   */\n              0xffffffffffffffff\n                /* \"#utility.yul\":5867:5873   */\n              dup3\n                /* \"#utility.yul\":5864:5894   */\n              gt\n                /* \"#utility.yul\":5861:5917   */\n              iszero\n              tag_231\n              jumpi\n                /* \"#utility.yul\":5897:5915   */\n              tag_232\n              tag_137\n              jump\t// in\n            tag_232:\n                /* \"#utility.yul\":5861:5917   */\n            tag_231:\n                /* \"#utility.yul\":5935:5964   */\n              tag_233\n                /* \"#utility.yul\":5957:5963   */\n              dup3\n                /* \"#utility.yul\":5935:5964   */\n              tag_125\n              jump\t// in\n            tag_233:\n                /* \"#utility.yul\":5927:5964   */\n              swap1\n              pop\n                /* \"#utility.yul\":6019:6023   */\n              0x20\n                /* \"#utility.yul\":6013:6017   */\n              dup2\n                /* \"#utility.yul\":6009:6024   */\n              add\n                /* \"#utility.yul\":6001:6024   */\n              swap1\n              pop\n                /* \"#utility.yul\":5723:6031   */\n              swap2\n              swap1\n              pop\n              jump\t// out\n                /* \"#utility.yul\":6037:6183   */\n            tag_141:\n                /* \"#utility.yul\":6134:6140   */\n              dup3\n                /* \"#utility.yul\":6129:6132   */\n              dup2\n                /* \"#utility.yul\":6124:6127   */\n              dup4\n                /* \"#utility.yul\":6111:6141   */\n              calldatacopy\n                /* \"#utility.yul\":6175:6176   */\n              0x00\n                /* \"#utility.yul\":6166:6172   */\n              dup4\n                /* \"#utility.yul\":6161:6164   */\n              dup4\n                /* \"#utility.yul\":6157:6173   */\n              add\n                /* \"#utility.yul\":6150:6177   */\n              mstore\n                /* \"#utility.yul\":6037:6183   */\n              pop\n              pop\n              pop\n              jump\t// out\n                /* \"#utility.yul\":6189:6614   */\n            tag_142:\n                /* \"#utility.yul\":6267:6272   */\n              0x00\n                /* \"#utility.yul\":6292:6358   */\n              tag_236\n                /* \"#utility.yul\":6308:6357   */\n              tag_237\n                /* \"#utility.yul\":6350:6356   */\n              dup5\n                /* \"#utility.yul\":6308:6357   */\n              tag_140\n              jump\t// in\n            tag_237:\n                /* \"#utility.yul\":6292:6358   */\n              tag_139\n              jump\t// in\n            tag_236:\n                /* \"#utility.yul\":6283:6358   */\n              swap1\n              pop\n                /* \"#utility.yul\":6381:6387   */\n              dup3\n                /* \"#utility.yul\":6374:6379   */\n              dup2\n                /* \"#utility.yul\":6367:6388   */\n              mstore\n                /* \"#utility.yul\":6419:6423   */\n              0x20\n                /* \"#utility.yul\":6412:6417   */\n              dup2\n                /* \"#utility.yul\":6408:6424   */\n              add\n                /* \"#utility.yul\":6457:6460   */\n              dup5\n                /* \"#utility.yul\":6448:6454   */\n              dup5\n                /* \"#utility.yul\":6443:6446   */\n              dup5\n                /* \"#utility.yul\":6439:6455   */\n              add\n                /* \"#utility.yul\":6436:6461   */\n              gt\n                /* \"#utility.yul\":6433:6545   */\n              iszero\n              tag_238\n              jumpi\n                /* \"#utility.yul\":6464:6543   */\n              tag_239\n              tag_136\n              jump\t// in\n            tag_239:\n                /* \"#utility.yul\":6433:6545   */\n            tag_238:\n                /* \"#utility.yul\":6554:6608   */\n              tag_240\n                /* \"#utility.yul\":6601:6607   */\n              dup5\n                /* \"#utility.yul\":6596:6599   */\n              dup3\n                /* \"#utility.yul\":6591:6594   */\n              dup6\n                /* \"#utility.yul\":6554:6608   */\n              tag_141\n              jump\t// in\n            tag_240:\n                /* \"#utility.yul\":6273:6614   */\n              pop\n                /* \"#utility.yul\":6189:6614   */\n              swap4\n              swap3\n              pop\n              pop\n              pop\n              jump\t// out\n                /* \"#utility.yul\":6634:6974   */\n            tag_143:\n                /* \"#utility.yul\":6690:6695   */\n              0x00\n                /* \"#utility.yul\":6739:6742   */\n              dup3\n                /* \"#utility.yul\":6732:6736   */\n              0x1f\n                /* \"#utility.yul\":6724:6730   */\n              dup4\n                /* \"#utility.yul\":6720:6737   */\n              add\n                /* \"#utility.yul\":6716:6743   */\n              slt\n                /* \"#utility.yul\":6706:6828   */\n              tag_242\n              jumpi\n                /* \"#utility.yul\":6747:6826   */\n              tag_243\n              tag_135\n              jump\t// in\n            tag_243:\n                /* \"#utility.yul\":6706:6828   */\n            tag_242:\n                /* \"#utility.yul\":6864:6870   */\n              dup2\n                /* \"#utility.yul\":6851:6871   */\n              calldataload\n                /* \"#utility.yul\":6889:6968   */\n              tag_244\n                /* \"#utility.yul\":6964:6967   */\n              dup5\n                /* \"#utility.yul\":6956:6962   */\n              dup3\n                /* \"#utility.yul\":6949:6953   */\n              0x20\n                /* \"#utility.yul\":6941:6947   */\n              dup7\n                /* \"#utility.yul\":6937:6954   */\n              add\n                /* \"#utility.yul\":6889:6968   */\n              tag_142\n              jump\t// in\n            tag_244:\n                /* \"#utility.yul\":6880:6968   */\n              swap2\n              pop\n                /* \"#utility.yul\":6696:6974   */\n              pop\n                /* \"#utility.yul\":6634:6974   */\n              swap3\n              swap2\n              pop\n              pop\n              jump\t// out\n                /* \"#utility.yul\":6980:7779   */\n            tag_46:\n                /* \"#utility.yul\":7067:7073   */\n              0x00\n                /* \"#utility.yul\":7075:7081   */\n              dup1\n                /* \"#utility.yul\":7083:7089   */\n              0x00\n                /* \"#utility.yul\":7132:7134   */\n              0x60\n                /* \"#utility.yul\":7120:7129   */\n              dup5\n                /* \"#utility.yul\":7111:7118   */\n              dup7\n                /* \"#utility.yul\":7107:7130   */\n              sub\n                /* \"#utility.yul\":7103:7135   */\n              slt\n                /* \"#utility.yul\":7100:7219   */\n              iszero\n              tag_246\n              jumpi\n                /* \"#utility.yul\":7138:7217   */\n              tag_247\n              tag_117\n              jump\t// in\n            tag_247:\n                /* \"#utility.yul\":7100:7219   */\n            tag_246:\n                /* \"#utility.yul\":7286:7287   */\n              0x00\n                /* \"#utility.yul\":7275:7284   */\n              dup5\n                /* \"#utility.yul\":7271:7288   */\n              add\n                /* \"#utility.yul\":7258:7289   */\n              calldataload\n                /* \"#utility.yul\":7316:7334   */\n              0xffffffffffffffff\n                /* \"#utility.yul\":7308:7314   */\n              dup2\n                /* \"#utility.yul\":7305:7335   */\n              gt\n                /* \"#utility.yul\":7302:7419   */\n              iszero\n              tag_248\n              jumpi\n                /* \"#utility.yul\":7338:7417   */\n              tag_249\n              tag_118\n              jump\t// in\n            tag_249:\n                /* \"#utility.yul\":7302:7419   */\n            tag_248:\n                /* \"#utility.yul\":7443:7506   */\n              tag_250\n                /* \"#utility.yul\":7498:7505   */\n              dup7\n                /* \"#utility.yul\":7489:7495   */\n              dup3\n                /* \"#utility.yul\":7478:7487   */\n              dup8\n                /* \"#utility.yul\":7474:7496   */\n              add\n                /* \"#utility.yul\":7443:7506   */\n              tag_143\n              jump\t// in\n            tag_250:\n                /* \"#utility.yul\":7433:7506   */\n              swap4\n              pop\n                /* \"#utility.yul\":7229:7516   */\n              pop\n                /* \"#utility.yul\":7555:7557   */\n              0x20\n                /* \"#utility.yul\":7581:7634   */\n              tag_251\n                /* \"#utility.yul\":7626:7633   */\n              dup7\n                /* \"#utility.yul\":7617:7623   */\n              dup3\n                /* \"#utility.yul\":7606:7615   */\n              dup8\n                /* \"#utility.yul\":7602:7624   */\n              add\n                /* \"#utility.yul\":7581:7634   */\n              tag_121\n              jump\t// in\n            tag_251:\n                /* \"#utility.yul\":7571:7634   */\n              swap3\n              pop\n                /* \"#utility.yul\":7526:7644   */\n              pop\n                /* \"#utility.yul\":7683:7685   */\n              0x40\n                /* \"#utility.yul\":7709:7762   */\n              tag_252\n                /* \"#utility.yul\":7754:7761   */\n              dup7\n                /* \"#utility.yul\":7745:7751   */\n              dup3\n                /* \"#utility.yul\":7734:7743   */\n              dup8\n                /* \"#utility.yul\":7730:7752   */\n              add\n                /* \"#utility.yul\":7709:7762   */\n              tag_134\n              jump\t// in\n            tag_252:\n                /* \"#utility.yul\":7699:7762   */\n              swap2\n              pop\n                /* \"#utility.yul\":7654:7772   */\n              pop\n                /* \"#utility.yul\":6980:7779   */\n              swap3\n              pop\n              swap3\n              pop\n              swap3\n              jump\t// out\n                /* \"#utility.yul\":7785:8528   */\n            tag_63:\n                /* \"#utility.yul\":8004:8008   */\n              0x00\n                /* \"#utility.yul\":8042:8045   */\n              0xa0\n                /* \"#utility.yul\":8031:8040   */\n              dup3\n                /* \"#utility.yul\":8027:8046   */\n              add\n                /* \"#utility.yul\":8019:8046   */\n              swap1\n              pop\n                /* \"#utility.yul\":8092:8101   */\n              dup2\n                /* \"#utility.yul\":8086:8090   */\n              dup2\n                /* \"#utility.yul\":8082:8102   */\n              sub\n                /* \"#utility.yul\":8078:8079   */\n              0x00\n                /* \"#utility.yul\":8067:8076   */\n              dup4\n                /* \"#utility.yul\":8063:8080   */\n              add\n                /* \"#utility.yul\":8056:8103   */\n              mstore\n                /* \"#utility.yul\":8120:8198   */\n              tag_254\n                /* \"#utility.yul\":8193:8197   */\n              dup2\n                /* \"#utility.yul\":8184:8190   */\n              dup9\n                /* \"#utility.yul\":8120:8198   */\n              tag_126\n              jump\t// in\n            tag_254:\n                /* \"#utility.yul\":8112:8198   */\n              swap1\n              pop\n                /* \"#utility.yul\":8208:8280   */\n              tag_255\n                /* \"#utility.yul\":8276:8278   */\n              0x20\n                /* \"#utility.yul\":8265:8274   */\n              dup4\n                /* \"#utility.yul\":8261:8279   */\n              add\n                /* \"#utility.yul\":8252:8258   */\n              dup8\n                /* \"#utility.yul\":8208:8280   */\n              tag_127\n              jump\t// in\n            tag_255:\n                /* \"#utility.yul\":8290:8362   */\n              tag_256\n                /* \"#utility.yul\":8358:8360   */\n              0x40\n                /* \"#utility.yul\":8347:8356   */\n              dup4\n                /* \"#utility.yul\":8343:8361   */\n              add\n                /* \"#utility.yul\":8334:8340   */\n              dup7\n                /* \"#utility.yul\":8290:8362   */\n              tag_130\n              jump\t// in\n            tag_256:\n                /* \"#utility.yul\":8372:8438   */\n              tag_257\n                /* \"#utility.yul\":8434:8436   */\n              0x60\n                /* \"#utility.yul\":8423:8432   */\n              dup4\n                /* \"#utility.yul\":8419:8437   */\n              add\n                /* \"#utility.yul\":8410:8416   */\n              dup6\n                /* \"#utility.yul\":8372:8438   */\n              tag_132\n              jump\t// in\n            tag_257:\n                /* \"#utility.yul\":8448:8521   */\n              tag_258\n                /* \"#utility.yul\":8516:8519   */\n              0x80\n                /* \"#utility.yul\":8505:8514   */\n              dup4\n                /* \"#utility.yul\":8501:8520   */\n              add\n                /* \"#utility.yul\":8492:8498   */\n              dup5\n                /* \"#utility.yul\":8448:8521   */\n              tag_127\n              jump\t// in\n            tag_258:\n                /* \"#utility.yul\":7785:8528   */\n              swap7\n              swap6\n              pop\n              pop\n              pop\n              pop\n              pop\n              pop\n              jump\t// out\n                /* \"#utility.yul\":8534:9198   */\n            tag_68:\n                /* \"#utility.yul\":8739:8743   */\n              0x00\n                /* \"#utility.yul\":8777:8780   */\n              0xa0\n                /* \"#utility.yul\":8766:8775   */\n              dup3\n                /* \"#utility.yul\":8762:8781   */\n              add\n                /* \"#utility.yul\":8754:8781   */\n              swap1\n              pop\n                /* \"#utility.yul\":8791:8862   */\n              tag_260\n                /* \"#utility.yul\":8859:8860   */\n              0x00\n                /* \"#utility.yul\":8848:8857   */\n              dup4\n                /* \"#utility.yul\":8844:8861   */\n              add\n                /* \"#utility.yul\":8835:8841   */\n              dup9\n                /* \"#utility.yul\":8791:8862   */\n              tag_127\n              jump\t// in\n            tag_260:\n                /* \"#utility.yul\":8872:8944   */\n              tag_261\n                /* \"#utility.yul\":8940:8942   */\n              0x20\n                /* \"#utility.yul\":8929:8938   */\n              dup4\n                /* \"#utility.yul\":8925:8943   */\n              add\n                /* \"#utility.yul\":8916:8922   */\n              dup8\n                /* \"#utility.yul\":8872:8944   */\n              tag_127\n              jump\t// in\n            tag_261:\n                /* \"#utility.yul\":8954:9026   */\n              tag_262\n                /* \"#utility.yul\":9022:9024   */\n              0x40\n                /* \"#utility.yul\":9011:9020   */\n              dup4\n                /* \"#utility.yul\":9007:9025   */\n              add\n                /* \"#utility.yul\":8998:9004   */\n              dup7\n                /* \"#utility.yul\":8954:9026   */\n              tag_127\n              jump\t// in\n            tag_262:\n                /* \"#utility.yul\":9036:9108   */\n              tag_263\n                /* \"#utility.yul\":9104:9106   */\n              0x60\n                /* \"#utility.yul\":9093:9102   */\n              dup4\n                /* \"#utility.yul\":9089:9107   */\n              add\n                /* \"#utility.yul\":9080:9086   */\n              dup6\n                /* \"#utility.yul\":9036:9108   */\n              tag_127\n              jump\t// in\n            tag_263:\n                /* \"#utility.yul\":9118:9191   */\n              tag_264\n                /* \"#utility.yul\":9186:9189   */\n              0x80\n                /* \"#utility.yul\":9175:9184   */\n              dup4\n                /* \"#utility.yul\":9171:9190   */\n              add\n                /* \"#utility.yul\":9162:9168   */\n              dup5\n                /* \"#utility.yul\":9118:9191   */\n              tag_130\n              jump\t// in\n            tag_264:\n                /* \"#utility.yul\":8534:9198   */\n              swap7\n              swap6\n              pop\n              pop\n              pop\n              pop\n              pop\n              pop\n              jump\t// out\n                /* \"#utility.yul\":9204:9384   */\n            tag_144:\n                /* \"#utility.yul\":9252:9329   */\n              0x4e487b7100000000000000000000000000000000000000000000000000000000\n                /* \"#utility.yul\":9249:9250   */\n              0x00\n                /* \"#utility.yul\":9242:9330   */\n              mstore\n                /* \"#utility.yul\":9349:9353   */\n              0x22\n                /* \"#utility.yul\":9346:9347   */\n              0x04\n                /* \"#utility.yul\":9339:9354   */\n              mstore\n                /* \"#utility.yul\":9373:9377   */\n              0x24\n                /* \"#utility.yul\":9370:9371   */\n              0x00\n                /* \"#utility.yul\":9363:9378   */\n              revert\n                /* \"#utility.yul\":9390:9710   */\n            tag_74:\n                /* \"#utility.yul\":9434:9440   */\n              0x00\n                /* \"#utility.yul\":9471:9472   */\n              0x02\n                /* \"#utility.yul\":9465:9469   */\n              dup3\n                /* \"#utility.yul\":9461:9473   */\n              div\n                /* \"#utility.yul\":9451:9473   */\n              swap1\n              pop\n                /* \"#utility.yul\":9518:9519   */\n              0x01\n                /* \"#utility.yul\":9512:9516   */\n              dup3\n                /* \"#utility.yul\":9508:9520   */\n              and\n                /* \"#utility.yul\":9539:9557   */\n              dup1\n                /* \"#utility.yul\":9529:9610   */\n              tag_267\n              jumpi\n                /* \"#utility.yul\":9595:9599   */\n              0x7f\n                /* \"#utility.yul\":9587:9593   */\n              dup3\n                /* \"#utility.yul\":9583:9600   */\n              and\n                /* \"#utility.yul\":9573:9600   */\n              swap2\n              pop\n                /* \"#utility.yul\":9529:9610   */\n            tag_267:\n                /* \"#utility.yul\":9657:9659   */\n              0x20\n                /* \"#utility.yul\":9649:9655   */\n              dup3\n                /* \"#utility.yul\":9646:9660   */\n              lt\n                /* \"#utility.yul\":9626:9644   */\n              dup2\n                /* \"#utility.yul\":9623:9661   */\n              sub\n                /* \"#utility.yul\":9620:9704   */\n              tag_268\n              jumpi\n                /* \"#utility.yul\":9676:9694   */\n              tag_269\n              tag_144\n              jump\t// in\n            tag_269:\n                /* \"#utility.yul\":9620:9704   */\n            tag_268:\n                /* \"#utility.yul\":9441:9710   */\n              pop\n                /* \"#utility.yul\":9390:9710   */\n              swap2\n              swap1\n              pop\n              jump\t// out\n                /* \"#utility.yul\":9716:9857   */\n            tag_145:\n                /* \"#utility.yul\":9765:9769   */\n              0x00\n                /* \"#utility.yul\":9788:9791   */\n              dup2\n                /* \"#utility.yul\":9780:9791   */\n              swap1\n              pop\n                /* \"#utility.yul\":9811:9814   */\n              dup2\n                /* \"#utility.yul\":9808:9809   */\n              0x00\n                /* \"#utility.yul\":9801:9815   */\n              mstore\n                /* \"#utility.yul\":9845:9849   */\n              0x20\n                /* \"#utility.yul\":9842:9843   */\n              0x00\n                /* \"#utility.yul\":9832:9850   */\n              keccak256\n                /* \"#utility.yul\":9824:9850   */\n              swap1\n              pop\n                /* \"#utility.yul\":9716:9857   */\n              swap2\n              swap1\n              pop\n              jump\t// out\n                /* \"#utility.yul\":9863:9956   */\n            tag_146:\n                /* \"#utility.yul\":9900:9906   */\n              0x00\n                /* \"#utility.yul\":9947:9949   */\n              0x20\n                /* \"#utility.yul\":9942:9944   */\n              0x1f\n                /* \"#utility.yul\":9935:9940   */\n              dup4\n                /* \"#utility.yul\":9931:9945   */\n              add\n                /* \"#utility.yul\":9927:9950   */\n              div\n                /* \"#utility.yul\":9917:9950   */\n              swap1\n              pop\n                /* \"#utility.yul\":9863:9956   */\n              swap2\n              swap1\n              pop\n              jump\t// out\n                /* \"#utility.yul\":9962:10069   */\n            tag_147:\n                /* \"#utility.yul\":10006:10014   */\n              0x00\n                /* \"#utility.yul\":10056:10061   */\n              dup3\n                /* \"#utility.yul\":10050:10054   */\n              dup3\n                /* \"#utility.yul\":10046:10062   */\n              shl\n                /* \"#utility.yul\":10025:10062   */\n              swap1\n              pop\n                /* \"#utility.yul\":9962:10069   */\n              swap3\n              swap2\n              pop\n              pop\n              jump\t// out\n                /* \"#utility.yul\":10075:10468   */\n            tag_148:\n                /* \"#utility.yul\":10144:10150   */\n              0x00\n                /* \"#utility.yul\":10194:10195   */\n              0x08\n                /* \"#utility.yul\":10182:10192   */\n              dup4\n                /* \"#utility.yul\":10178:10196   */\n              mul\n                /* \"#utility.yul\":10217:10314   */\n              tag_274\n                /* \"#utility.yul\":10247:10313   */\n              0xffffffffffffffffffffffffffffffffffffffffffffffffffffffffffffffff\n                /* \"#utility.yul\":10236:10245   */\n              dup3\n                /* \"#utility.yul\":10217:10314   */\n              tag_147\n              jump\t// in\n            tag_274:\n                /* \"#utility.yul\":10335:10374   */\n              tag_275\n                /* \"#utility.yul\":10365:10373   */\n              dup7\n                /* \"#utility.yul\":10354:10363   */\n              dup4\n                /* \"#utility.yul\":10335:10374   */\n              tag_147\n              jump\t// in\n            tag_275:\n                /* \"#utility.yul\":10323:10374   */\n              swap6\n              pop\n                /* \"#utility.yul\":10407:10411   */\n              dup1\n                /* \"#utility.yul\":10403:10412   */\n              not\n                /* \"#utility.yul\":10396:10401   */\n              dup5\n                /* \"#utility.yul\":10392:10413   */\n              and\n                /* \"#utility.yul\":10383:10413   */\n              swap4\n              pop\n                /* \"#utility.yul\":10456:10460   */\n              dup1\n                /* \"#utility.yul\":10446:10454   */\n              dup7\n                /* \"#utility.yul\":10442:10461   */\n              and\n                /* \"#utility.yul\":10435:10440   */\n              dup5\n                /* \"#utility.yul\":10432:10462   */\n              or\n                /* \"#utility.yul\":10422:10462   */\n              swap3\n              pop\n                /* \"#utility.yul\":10151:10468   */\n              pop\n              pop\n                /* \"#utility.yul\":10075:10468   */\n              swap4\n              swap3\n              pop\n              pop\n              pop\n              jump\t// out\n                /* \"#utility.yul\":10474:10534   */\n            tag_149:\n                /* \"#utility.yul\":10502:10505   */\n              0x00\n                /* \"#utility.yul\":10523:10528   */\n              dup2\n                /* \"#utility.yul\":10516:10528   */\n              swap1\n              pop\n                /* \"#utility.yul\":10474:10534   */\n              swap2\n              swap1\n              pop\n              jump\t// out\n                /* \"#utility.yul\":10540:10682   */\n            tag_150:\n                /* \"#utility.yul\":10590:10599   */\n              0x00\n                /* \"#utility.yul\":10623:10676   */\n              tag_278\n                /* \"#utility.yul\":10641:10675   */\n              tag_279\n                /* \"#utility.yul\":10650:10674   */\n              tag_280\n                /* \"#utility.yul\":10668:10673   */\n              dup5\n                /* \"#utility.yul\":10650:10674   */\n              tag_119\n              jump\t// in\n            tag_280:\n                /* \"#utility.yul\":10641:10675   */\n              tag_149\n              jump\t// in\n            tag_279:\n                /* \"#utility.yul\":10623:10676   */\n              tag_119\n              jump\t// in\n            tag_278:\n                /* \"#utility.yul\":10610:10676   */\n              swap1\n              pop\n                /* \"#utility.yul\":10540:10682   */\n              swap2\n              swap1\n              pop\n              jump\t// out\n                /* \"#utility.yul\":10688:10763   */\n            tag_151:\n                /* \"#utility.yul\":10731:10734   */\n              0x00\n                /* \"#utility.yul\":10752:10757   */\n              dup2\n                /* \"#utility.yul\":10745:10757   */\n              swap1\n              pop\n                /* \"#utility.yul\":10688:10763   */\n              swap2\n              swap1\n              pop\n              jump\t// out\n                /* \"#utility.yul\":10769:11038   */\n            tag_152:\n                /* \"#utility.yul\":10879:10918   */\n              tag_283\n                /* \"#utility.yul\":10910:10917   */\n              dup4\n                /* \"#utility.yul\":10879:10918   */\n              tag_150\n              jump\t// in\n            tag_283:\n                /* \"#utility.yul\":10940:11031   */\n              tag_284\n                /* \"#utility.yul\":10989:11030   */\n              tag_285\n                /* \"#utility.yul\":11013:11029   */\n              dup3\n                /* \"#utility.yul\":10989:11030   */\n              tag_151\n              jump\t// in\n            tag_285:\n                /* \"#utility.yul\":10981:10987   */\n              dup5\n                /* \"#utility.yul\":10974:10978   */\n              dup5\n                /* \"#utility.yul\":10968:10979   */\n              sload\n                /* \"#utility.yul\":10940:11031   */\n              tag_148\n              jump\t// in\n            tag_284:\n                /* \"#utility.yul\":10934:10938   */\n              dup3\n                /* \"#utility.yul\":10927:11032   */\n              sstore\n                /* \"#utility.yul\":10845:11038   */\n              pop\n                /* \"#utility.yul\":10769:11038   */\n              pop\n              pop\n              pop\n              jump\t// out\n                /* \"#utility.yul\":11044:11117   */\n            tag_153:\n                /* \"#utility.yul\":11089:11092   */\n              0x00\n                /* \"#utility.yul\":11044:11117   */\n              swap1\n              jump\t// out\n                /* \"#utility.yul\":11123:11312   */\n            tag_154:\n                /* \"#utility.yul\":11200:11232   */\n              tag_288\n              tag_153\n              jump\t// in\n            tag_288:\n                /* \"#utility.yul\":11241:11306   */\n              tag_289\n                /* \"#utility.yul\":11299:11305   */\n              dup2\n                /* \"#utility.yul\":11291:11297   */\n              dup5\n                /* \"#utility.yul\":11285:11289   */\n              dup5\n                /* \"#utility.yul\":11241:11306   */\n              tag_152\n              jump\t// in\n            tag_289:\n                /* \"#utility.yul\":11176:11312   */\n              pop\n                /* \"#utility.yul\":11123:11312   */\n              pop\n              pop\n              jump\t// out\n                /* \"#utility.yul\":11318:11504   */\n            tag_155:\n                /* \"#utility.yul\":11378:11498   */\n            tag_291:\n                /* \"#utility.yul\":11395:11398   */\n              dup2\n                /* \"#utility.yul\":11388:11393   */\n              dup2\n                /* \"#utility.yul\":11385:11399   */\n              lt\n                /* \"#utility.yul\":11378:11498   */\n              iszero\n              tag_293\n              jumpi\n                /* \"#utility.yul\":11449:11488   */\n              tag_294\n                /* \"#utility.yul\":11486:11487   */\n              0x00\n                /* \"#utility.yul\":11479:11484   */\n              dup3\n                /* \"#utility.yul\":11449:11488   */\n              tag_154\n              jump\t// in\n            tag_294:\n                /* \"#utility.yul\":11422:11423   */\n              0x01\n                /* \"#utility.yul\":11415:11420   */\n              dup2\n                /* \"#utility.yul\":11411:11424   */\n              add\n                /* \"#utility.yul\":11402:11424   */\n              swap1\n              pop\n                /* \"#utility.yul\":11378:11498   */\n              jump(tag_291)\n            tag_293:\n                /* \"#utility.yul\":11318:11504   */\n              pop\n              pop\n              jump\t// out\n                /* \"#utility.yul\":11510:12053   */\n            tag_156:\n                /* \"#utility.yul\":11611:11613   */\n              0x1f\n                /* \"#utility.yul\":11606:11609   */\n              dup3\n                /* \"#utility.yul\":11603:11614   */\n              gt\n                /* \"#utility.yul\":11600:12046   */\n              iszero\n              tag_296\n              jumpi\n                /* \"#utility.yul\":11645:11683   */\n              tag_297\n                /* \"#utility.yul\":11677:11682   */\n              dup2\n                /* \"#utility.yul\":11645:11683   */\n              tag_145\n              jump\t// in\n            tag_297:\n                /* \"#utility.yul\":11729:11758   */\n              tag_298\n                /* \"#utility.yul\":11747:11757   */\n              dup5\n                /* \"#utility.yul\":11729:11758   */\n              tag_146\n              jump\t// in\n            tag_298:\n                /* \"#utility.yul\":11719:11727   */\n              dup2\n                /* \"#utility.yul\":11715:11759   */\n              add\n                /* \"#utility.yul\":11912:11914   */\n              0x20\n                /* \"#utility.yul\":11900:11910   */\n              dup6\n                /* \"#utility.yul\":11897:11915   */\n              lt\n                /* \"#utility.yul\":11894:11943   */\n              iszero\n              tag_299\n              jumpi\n                /* \"#utility.yul\":11933:11941   */\n              dup2\n                /* \"#utility.yul\":11918:11941   */\n              swap1\n              pop\n                /* \"#utility.yul\":11894:11943   */\n            tag_299:\n                /* \"#utility.yul\":11956:12036   */\n              tag_300\n                /* \"#utility.yul\":12012:12034   */\n              tag_301\n                /* \"#utility.yul\":12030:12033   */\n              dup6\n                /* \"#utility.yul\":12012:12034   */\n              tag_146\n              jump\t// in\n            tag_301:\n                /* \"#utility.yul\":12002:12010   */\n              dup4\n                /* \"#utility.yul\":11998:12035   */\n              add\n                /* \"#utility.yul\":11985:11996   */\n              dup3\n                /* \"#utility.yul\":11956:12036   */\n              tag_155\n              jump\t// in\n            tag_300:\n                /* \"#utility.yul\":11615:12046   */\n              pop\n              pop\n                /* \"#utility.yul\":11600:12046   */\n            tag_296:\n                /* \"#utility.yul\":11510:12053   */\n              pop\n              pop\n              pop\n              jump\t// out\n                /* \"#utility.yul\":12059:12176   */\n            tag_157:\n                /* \"#utility.yul\":12113:12121   */\n              0x00\n                /* \"#utility.yul\":12163:12168   */\n              dup3\n                /* \"#utility.yul\":12157:12161   */\n              dup3\n                /* \"#utility.yul\":12153:12169   */\n              shr\n                /* \"#utility.yul\":12132:12169   */\n              swap1\n              pop\n                /* \"#utility.yul\":12059:12176   */\n              swap3\n              swap2\n              pop\n              pop\n              jump\t// out\n                /* \"#utility.yul\":12182:12351   */\n            tag_158:\n                /* \"#utility.yul\":12226:12232   */\n              0x00\n                /* \"#utility.yul\":12259:12310   */\n              tag_304\n                /* \"#utility.yul\":12307:12308   */\n              0x00\n                /* \"#utility.yul\":12303:12309   */\n              not\n                /* \"#utility.yul\":12295:12300   */\n              dup5\n                /* \"#utility.yul\":12292:12293   */\n              0x08\n                /* \"#utility.yul\":12288:12301   */\n              mul\n                /* \"#utility.yul\":12259:12310   */\n              tag_157\n              jump\t// in\n            tag_304:\n                /* \"#utility.yul\":12255:12311   */\n              not\n                /* \"#utility.yul\":12340:12344   */\n              dup1\n                /* \"#utility.yul\":12334:12338   */\n              dup4\n                /* \"#utility.yul\":12330:12345   */\n              and\n                /* \"#utility.yul\":12320:12345   */\n              swap2\n              pop\n                /* \"#utility.yul\":12233:12351   */\n              pop\n                /* \"#utility.yul\":12182:12351   */\n              swap3\n              swap2\n              pop\n              pop\n              jump\t// out\n                /* \"#utility.yul\":12356:12651   */\n            tag_159:\n                /* \"#utility.yul\":12432:12436   */\n              0x00\n                /* \"#utility.yul\":12578:12607   */\n              tag_306\n                /* \"#utility.yul\":12603:12606   */\n              dup4\n                /* \"#utility.yul\":12597:12601   */\n              dup4\n                /* \"#utility.yul\":12578:12607   */\n              tag_158\n              jump\t// in\n            tag_306:\n                /* \"#utility.yul\":12570:12607   */\n              swap2\n              pop\n                /* \"#utility.yul\":12640:12643   */\n              dup3\n                /* \"#utility.yul\":12637:12638   */\n              0x02\n                /* \"#utility.yul\":12633:12644   */\n              mul\n                /* \"#utility.yul\":12627:12631   */\n              dup3\n                /* \"#utility.yul\":12624:12645   */\n              or\n                /* \"#utility.yul\":12616:12645   */\n              swap1\n              pop\n                /* \"#utility.yul\":12356:12651   */\n              swap3\n              swap2\n              pop\n              pop\n              jump\t// out\n                /* \"#utility.yul\":12656:14051   */\n            tag_85:\n                /* \"#utility.yul\":12773:12810   */\n              tag_308\n                /* \"#utility.yul\":12806:12809   */\n              dup3\n                /* \"#utility.yul\":12773:12810   */\n              tag_122\n              jump\t// in\n            tag_308:\n                /* \"#utility.yul\":12875:12893   */\n              0xffffffffffffffff\n                /* \"#utility.yul\":12867:12873   */\n              dup2\n                /* \"#utility.yul\":12864:12894   */\n              gt\n                /* \"#utility.yul\":12861:12917   */\n              iszero\n              tag_309\n              jumpi\n                /* \"#utility.yul\":12897:12915   */\n              tag_310\n              tag_137\n              jump\t// in\n            tag_310:\n                /* \"#utility.yul\":12861:12917   */\n            tag_309:\n                /* \"#utility.yul\":12941:12979   */\n              tag_311\n                /* \"#utility.yul\":12973:12977   */\n              dup3\n                /* \"#utility.yul\":12967:12978   */\n              sload\n                /* \"#utility.yul\":12941:12979   */\n              tag_74\n              jump\t// in\n            tag_311:\n                /* \"#utility.yul\":13026:13093   */\n              tag_312\n                /* \"#utility.yul\":13086:13092   */\n              dup3\n                /* \"#utility.yul\":13078:13084   */\n              dup3\n                /* \"#utility.yul\":13072:13076   */\n              dup6\n                /* \"#utility.yul\":13026:13093   */\n              tag_156\n              jump\t// in\n            tag_312:\n                /* \"#utility.yul\":13120:13121   */\n              0x00\n                /* \"#utility.yul\":13144:13148   */\n              0x20\n                /* \"#utility.yul\":13131:13148   */\n              swap1\n              pop\n                /* \"#utility.yul\":13176:13178   */\n              0x1f\n                /* \"#utility.yul\":13168:13174   */\n              dup4\n                /* \"#utility.yul\":13165:13179   */\n              gt\n                /* \"#utility.yul\":13193:13194   */\n              0x01\n                /* \"#utility.yul\":13188:13806   */\n              dup2\n              eq\n              tag_314\n              jumpi\n                /* \"#utility.yul\":13850:13851   */\n              0x00\n                /* \"#utility.yul\":13867:13873   */\n              dup5\n                /* \"#utility.yul\":13864:13941   */\n              iszero\n              tag_315\n              jumpi\n                /* \"#utility.yul\":13916:13925   */\n              dup3\n                /* \"#utility.yul\":13911:13914   */\n              dup8\n                /* \"#utility.yul\":13907:13926   */\n              add\n                /* \"#utility.yul\":13901:13927   */\n              mload\n                /* \"#utility.yul\":13892:13927   */\n              swap1\n              pop\n                /* \"#utility.yul\":13864:13941   */\n            tag_315:\n                /* \"#utility.yul\":13967:14034   */\n              tag_316\n                /* \"#utility.yul\":14027:14033   */\n              dup6\n                /* \"#utility.yul\":14020:14025   */\n              dup3\n                /* \"#utility.yul\":13967:14034   */\n              tag_159\n              jump\t// in\n            tag_316:\n                /* \"#utility.yul\":13961:13965   */\n              dup7\n                /* \"#utility.yul\":13954:14035   */\n              sstore\n                /* \"#utility.yul\":13823:14045   */\n              pop\n                /* \"#utility.yul\":13158:14045   */\n              jump(tag_313)\n                /* \"#utility.yul\":13188:13806   */\n            tag_314:\n                /* \"#utility.yul\":13240:13244   */\n              0x1f\n                /* \"#utility.yul\":13236:13245   */\n              not\n                /* \"#utility.yul\":13228:13234   */\n              dup5\n                /* \"#utility.yul\":13224:13246   */\n              and\n                /* \"#utility.yul\":13274:13311   */\n              tag_317\n                /* \"#utility.yul\":13306:13310   */\n              dup7\n                /* \"#utility.yul\":13274:13311   */\n              tag_145\n              jump\t// in\n            tag_317:\n                /* \"#utility.yul\":13333:13334   */\n              0x00\n                /* \"#utility.yul\":13347:13555   */\n            tag_318:\n                /* \"#utility.yul\":13361:13368   */\n              dup3\n                /* \"#utility.yul\":13358:13359   */\n              dup2\n                /* \"#utility.yul\":13355:13369   */\n              lt\n                /* \"#utility.yul\":13347:13555   */\n              iszero\n              tag_320\n              jumpi\n                /* \"#utility.yul\":13440:13449   */\n              dup5\n                /* \"#utility.yul\":13435:13438   */\n              dup10\n                /* \"#utility.yul\":13431:13450   */\n              add\n                /* \"#utility.yul\":13425:13451   */\n              mload\n                /* \"#utility.yul\":13417:13423   */\n              dup3\n                /* \"#utility.yul\":13410:13452   */\n              sstore\n                /* \"#utility.yul\":13491:13492   */\n              0x01\n                /* \"#utility.yul\":13483:13489   */\n              dup3\n                /* \"#utility.yul\":13479:13493   */\n              add\n                /* \"#utility.yul\":13469:13493   */\n              swap2\n              pop\n                /* \"#utility.yul\":13538:13540   */\n              0x20\n                /* \"#utility.yul\":13527:13536   */\n              dup6\n                /* \"#utility.yul\":13523:13541   */\n              add\n                /* \"#utility.yul\":13510:13541   */\n              swap5\n              pop\n                /* \"#utility.yul\":13384:13388   */\n              0x20\n                /* \"#utility.yul\":13381:13382   */\n              dup2\n                /* \"#utility.yul\":13377:13389   */\n              add\n                /* \"#utility.yul\":13372:13389   */\n              swap1\n              pop\n                /* \"#utility.yul\":13347:13555   */\n              jump(tag_318)\n            tag_320:\n                /* \"#utility.yul\":13583:13589   */\n              dup7\n                /* \"#utility.yul\":13574:13581   */\n              dup4\n                /* \"#utility.yul\":13571:13590   */\n              lt\n                /* \"#utility.yul\":13568:13747   */\n              iszero\n              tag_321\n              jumpi\n                /* \"#utility.yul\":13641:13650   */\n              dup5\n                /* \"#utility.yul\":13636:13639   */\n              dup10\n                /* \"#utility.yul\":13632:13651   */\n              add\n                /* \"#utility.yul\":13626:13652   */\n              mload\n                /* \"#utility.yul\":13684:13732   */\n              tag_322\n                /* \"#utility.yul\":13726:13730   */\n              0x1f\n                /* \"#utility.yul\":13718:13724   */\n              dup10\n                /* \"#utility.yul\":13714:13731   */\n              and\n                /* \"#utility.yul\":13703:13712   */\n              dup3\n                /* \"#utility.yul\":13684:13732   */\n              tag_158\n              jump\t// in\n            tag_322:\n                /* \"#utility.yul\":13676:13682   */\n              dup4\n                /* \"#utility.yul\":13669:13733   */\n              sstore\n                /* \"#utility.yul\":13591:13747   */\n              pop\n                /* \"#utility.yul\":13568:13747   */\n            tag_321:\n                /* \"#utility.yul\":13793:13794   */\n              0x01\n                /* \"#utility.yul\":13789:13790   */\n              0x02\n                /* \"#utility.yul\":13781:13787   */\n              dup9\n                /* \"#utility.yul\":13777:13791   */\n              mul\n                /* \"#utility.yul\":13773:13795   */\n              add\n                /* \"#utility.yul\":13767:13771   */\n              dup9\n                /* \"#utility.yul\":13760:13796   */\n              sstore\n                /* \"#utility.yul\":13195:13806   */\n              pop\n              pop\n              pop\n                /* \"#utility.yul\":13158:14045   */\n            tag_313:\n              pop\n                /* \"#utility.yul\":12748:14051   */\n              pop\n              pop\n              pop\n                /* \"#utility.yul\":12656:14051   */\n              pop\n              pop\n              jump\t// out\n                /* \"#utility.yul\":14057:14237   */\n            tag_160:\n                /* \"#utility.yul\":14105:14182   */\n              0x4e487b7100000000000000000000000000000000000000000000000000000000\n                /* \"#utility.yul\":14102:14103   */\n              0x00\n                /* \"#utility.yul\":14095:14183   */\n              mstore\n                /* \"#utility.yul\":14202:14206   */\n              0x11\n                /* \"#utility.yul\":14199:14200   */\n              0x04\n                /* \"#utility.yul\":14192:14207   */\n              mstore\n                /* \"#utility.yul\":14226:14230   */\n              0x24\n                /* \"#utility.yul\":14223:14224   */\n              0x00\n                /* \"#utility.yul\":14216:14231   */\n              revert\n                /* \"#utility.yul\":14243:14476   */\n            tag_87:\n                /* \"#utility.yul\":14282:14285   */\n              0x00\n                /* \"#utility.yul\":14305:14329   */\n              tag_325\n                /* \"#utility.yul\":14323:14328   */\n              dup3\n                /* \"#utility.yul\":14305:14329   */\n              tag_119\n              jump\t// in\n            tag_325:\n                /* \"#utility.yul\":14296:14329   */\n              swap2\n              pop\n                /* \"#utility.yul\":14351:14417   */\n              0xffffffffffffffffffffffffffffffffffffffffffffffffffffffffffffffff\n                /* \"#utility.yul\":14344:14349   */\n              dup3\n                /* \"#utility.yul\":14341:14418   */\n              sub\n                /* \"#utility.yul\":14338:14441   */\n              tag_326\n              jumpi\n                /* \"#utility.yul\":14421:14439   */\n              tag_327\n              tag_160\n              jump\t// in\n            tag_327:\n                /* \"#utility.yul\":14338:14441   */\n            tag_326:\n                /* \"#utility.yul\":14468:14469   */\n              0x01\n                /* \"#utility.yul\":14461:14466   */\n              dup3\n                /* \"#utility.yul\":14457:14470   */\n              add\n                /* \"#utility.yul\":14450:14470   */\n              swap1\n              pop\n                /* \"#utility.yul\":14243:14476   */\n              swap2\n              swap1\n              pop\n              jump\t// out\n                /* \"#utility.yul\":14482:14662   */\n            tag_161:\n                /* \"#utility.yul\":14530:14607   */\n              0x4e487b7100000000000000000000000000000000000000000000000000000000\n                /* \"#utility.yul\":14527:14528   */\n              0x00\n                /* \"#utility.yul\":14520:14608   */\n              mstore\n                /* \"#utility.yul\":14627:14631   */\n              0x12\n                /* \"#utility.yul\":14624:14625   */\n              0x04\n                /* \"#utility.yul\":14617:14632   */\n              mstore\n                /* \"#utility.yul\":14651:14655   */\n              0x24\n                /* \"#utility.yul\":14648:14649   */\n              0x00\n                /* \"#utility.yul\":14641:14656   */\n              revert\n                /* \"#utility.yul\":14668:14853   */\n            tag_111:\n                /* \"#utility.yul\":14708:14709   */\n              0x00\n                /* \"#utility.yul\":14725:14745   */\n              tag_330\n                /* \"#utility.yul\":14743:14744   */\n              dup3\n                /* \"#utility.yul\":14725:14745   */\n              tag_119\n              jump\t// in\n            tag_330:\n                /* \"#utility.yul\":14720:14745   */\n              swap2\n              pop\n                /* \"#utility.yul\":14759:14779   */\n              tag_331\n                /* \"#utility.yul\":14777:14778   */\n              dup4\n                /* \"#utility.yul\":14759:14779   */\n              tag_119\n              jump\t// in\n            tag_331:\n                /* \"#utility.yul\":14754:14779   */\n              swap3\n              pop\n                /* \"#utility.yul\":14798:14799   */\n              dup3\n                /* \"#utility.yul\":14788:14823   */\n              tag_332\n              jumpi\n                /* \"#utility.yul\":14803:14821   */\n              tag_333\n              tag_161\n              jump\t// in\n            tag_333:\n                /* \"#utility.yul\":14788:14823   */\n            tag_332:\n                /* \"#utility.yul\":14845:14846   */\n              dup3\n                /* \"#utility.yul\":14842:14843   */\n              dup3\n                /* \"#utility.yul\":14838:14847   */\n              div\n                /* \"#utility.yul\":14833:14847   */\n              swap1\n              pop\n                /* \"#utility.yul\":14668:14853   */\n              swap3\n              swap2\n              pop\n              pop\n              jump\t// out\n\n            auxdata: 0xa26469706673582212207a5b85fbc3395311b38e4b5352f9ab77a68132fd08ed98ae0480b4e812ee4f0964736f6c63430008110033\n        }\n    }\n\n    auxdata: 0xa264697066735822122028db73c79a49ef335ec3eddbcc6722030597475f66b3623bdf587af989be42e164736f6c63430008110033\n}\n","bytecode":{"linkReferences":{},"object":"608060405234801561001057600080fd5b50611913806100206000396000f3fe608060405234801561001057600080fd5b50600436106100415760003560e01c80637ac3886e14610046578063992034d7146100645780639ec6deaf14610080575b600080fd5b61004e6100b0565b60405161005b919061031b565b60405180910390f35b61007e60048036038101906100799190610378565b61013e565b005b61009a60048036038101906100959190610378565b6101df565b6040516100a791906103b4565b60405180910390f35b6060600080548060200260200160405190810160405280929190818152602001828054801561013457602002820191906000526020600020905b8160009054906101000a900473ffffffffffffffffffffffffffffffffffffffff1673ffffffffffffffffffffffffffffffffffffffff16815260200190600101908083116100ea575b5050505050905090565b6000813360405161014e9061021e565b6101599291906103ff565b604051809103906000f080158015610175573d6000803e3d6000fd5b5090506000819080600181540180825580915050600190039060005260206000200160009091909190916101000a81548173ffffffffffffffffffffffffffffffffffffffff021916908373ffffffffffffffffffffffffffffffffffffffff1602179055505050565b600081815481106101ef57600080fd5b906000526020600020016000915054906101000a900473ffffffffffffffffffffffffffffffffffffffff1681565b6114b58061042983390190565b600081519050919050565b600082825260208201905092915050565b6000819050602082019050919050565b600073ffffffffffffffffffffffffffffffffffffffff82169050919050565b600061028282610257565b9050919050565b61029281610277565b82525050565b60006102a48383610289565b60208301905092915050565b6000602082019050919050565b60006102c88261022b565b6102d28185610236565b93506102dd83610247565b8060005b8381101561030e5781516102f58882610298565b9750610300836102b0565b9250506001810190506102e1565b5085935050505092915050565b6000602082019050818103600083015261033581846102bd565b905092915050565b600080fd5b6000819050919050565b61035581610342565b811461036057600080fd5b50565b6000813590506103728161034c565b92915050565b60006020828403121561038e5761038d61033d565b5b600061039c84828501610363565b91505092915050565b6103ae81610277565b82525050565b60006020820190506103c960008301846103a5565b92915050565b6103d881610342565b82525050565b60006103e982610257565b9050919050565b6103f9816103de565b82525050565b600060408201905061041460008301856103cf565b61042160208301846103f0565b939250505056fe60806040526000600660006101000a81548160ff0219169083151502179055503480156200002c57600080fd5b50604051620014b5380380620014b5833981810160405281019062000052919062000147565b8160008190555080600160006101000a81548173ffffffffffffffffffffffffffffffffffffffff021916908373ffffffffffffffffffffffffffffffffffffffff16021790555050506200018e565b600080fd5b6000819050919050565b620000bc81620000a7565b8114620000c857600080fd5b50565b600081519050620000dc81620000b1565b92915050565b600073ffffffffffffffffffffffffffffffffffffffff82169050919050565b60006200010f82620000e2565b9050919050565b620001218162000102565b81146200012d57600080fd5b50565b600081519050620001418162000116565b92915050565b60008060408385031215620001615762000160620000a2565b5b60006200017185828601620000cb565b9250506020620001848582860162000130565b9150509250929050565b611317806200019e6000396000f3fe6080604052600436106100a75760003560e01c8063d63dc66111610064578063d63dc661146101d5578063d7d1bbdb146101df578063eb7b131214610208578063fdba0ed914610233578063ff3a9c7e14610274578063ffde9743146102a3576100a7565b8063496c8ada146100ac578063647c75e2146100ee57806399e0f1eb1461012b578063a4475ce414610156578063a9c3184014610181578063b7887e1f146101ac575b600080fd5b3480156100b857600080fd5b506100d360048036038101906100ce9190610aa1565b6102cc565b6040516100e596959493929190610bc9565b60405180910390f35b3480156100fa57600080fd5b5061011560048036038101906101109190610c5d565b6103ca565b6040516101229190610c8a565b60405180910390f35b34801561013757600080fd5b506101406103ea565b60405161014d9190610ca5565b60405180910390f35b34801561016257600080fd5b5061016b6103f0565b6040516101789190610cc0565b60405180910390f35b34801561018d57600080fd5b50610196610416565b6040516101a39190610ca5565b60405180910390f35b3480156101b857600080fd5b506101d360048036038101906101ce9190610e10565b610420565b005b6101dd610560565b005b3480156101eb57600080fd5b5061020660048036038101906102019190610aa1565b610632565b005b34801561021457600080fd5b5061021d61079f565b60405161022a9190610ca5565b60405180910390f35b34801561023f57600080fd5b5061025a60048036038101906102559190610aa1565b6107a5565b60405161026b959493929190610e7f565b60405180910390f35b34801561028057600080fd5b506102896108d8565b60405161029a959493929190610ed9565b60405180910390f35b3480156102af57600080fd5b506102ca60048036038101906102c59190610aa1565b61091d565b005b60046020528060005260406000206000915090508060000180546102ef90610f5b565b80601f016020809104026020016040519081016040528092919081815260200182805461031b90610f5b565b80156103685780601f1061033d57610100808354040283529160200191610368565b820191906000526020600020905b81548152906001019060200180831161034b57829003601f168201915b5050505050908060010154908060020160009054906101000a900473ffffffffffffffffffffffffffffffffffffffff16908060020160149054906101000a900460ff16908060030154908060050160009054906101000a900460ff16905086565b60036020528060005260406000206000915054906101000a900460ff1681565b60005481565b600160009054906101000a900473ffffffffffffffffffffffffffffffffffffffff1681565b6000600554905090565b600160009054906101000a900473ffffffffffffffffffffffffffffffffffffffff1673ffffffffffffffffffffffffffffffffffffffff163373ffffffffffffffffffffffffffffffffffffffff161461047a57600080fd5b4782111561048757600080fd5b60006004600060055481526020019081526020016000209050838160000190816104b19190611138565b50828160010181905550818160020160006101000a81548173ffffffffffffffffffffffffffffffffffffffff021916908373ffffffffffffffffffffffffffffffffffffffff16021790555060008160020160146101000a81548160ff02191690831515021790555060018160050160006101000a81548160ff021916908315150217905550600081600301819055506005600081548092919061055590611239565b919050555050505050565b600054341161056e57600080fd5b600360003373ffffffffffffffffffffffffffffffffffffffff1673ffffffffffffffffffffffffffffffffffffffff16815260200190815260200160002060009054906101000a900460ff166105d857600260008154809291906105d290611239565b91905055505b6001600360003373ffffffffffffffffffffffffffffffffffffffff1673ffffffffffffffffffffffffffffffffffffffff16815260200190815260200160002060006101000a81548160ff021916908315150217905550565b806004600082815260200190815260200160002060050160009054906101000a900460ff1661066057600080fd5b6000600460008481526020019081526020016000209050600360003373ffffffffffffffffffffffffffffffffffffffff1673ffffffffffffffffffffffffffffffffffffffff16815260200190815260200160002060009054906101000a900460ff166106cd57600080fd5b8060040160003373ffffffffffffffffffffffffffffffffffffffff1673ffffffffffffffffffffffffffffffffffffffff16815260200190815260200160002060009054906101000a900460ff161561072657600080fd5b60018160040160003373ffffffffffffffffffffffffffffffffffffffff1673ffffffffffffffffffffffffffffffffffffffff16815260200190815260200160002060006101000a81548160ff02191690831515021790555080600301600081548092919061079590611239565b9190505550505050565b60025481565b6060600080600080856004600082815260200190815260200160002060050160009054906101000a900460ff166107db57600080fd5b60006004600089815260200190815260200160002090508060000181600101548260020160009054906101000a900473ffffffffffffffffffffffffffffffffffffffff168360020160149054906101000a900460ff16846003015484805461084390610f5b565b80601f016020809104026020016040519081016040528092919081815260200182805461086f90610f5b565b80156108bc5780601f10610891576101008083540402835291602001916108bc565b820191906000526020600020905b81548152906001019060200180831161089f57829003601f168201915b5050505050945096509650965096509650505091939590929450565b6000806000806000805447600554600254600160009054906101000a900473ffffffffffffffffffffffffffffffffffffffff16945094509450945094509091929394565b600160009054906101000a900473ffffffffffffffffffffffffffffffffffffffff1673ffffffffffffffffffffffffffffffffffffffff163373ffffffffffffffffffffffffffffffffffffffff161461097757600080fd5b60006004600083815260200190815260200160002090506002805461099c91906112b0565b8160030154116109ab57600080fd5b8060020160149054906101000a900460ff16156109c757600080fd5b8060020160009054906101000a900473ffffffffffffffffffffffffffffffffffffffff1673ffffffffffffffffffffffffffffffffffffffff166108fc82600101549081150290604051600060405180830381858888f19350505050158015610a35573d6000803e3d6000fd5b5060018160020160146101000a81548160ff0219169083151502179055505050565b6000604051905090565b600080fd5b600080fd5b6000819050919050565b610a7e81610a6b565b8114610a8957600080fd5b50565b600081359050610a9b81610a75565b92915050565b600060208284031215610ab757610ab6610a61565b5b6000610ac584828501610a8c565b91505092915050565b600081519050919050565b600082825260208201905092915050565b60005b83811015610b08578082015181840152602081019050610aed565b60008484015250505050565b6000601f19601f8301169050919050565b6000610b3082610ace565b610b3a8185610ad9565b9350610b4a818560208601610aea565b610b5381610b14565b840191505092915050565b610b6781610a6b565b82525050565b600073ffffffffffffffffffffffffffffffffffffffff82169050919050565b6000610b9882610b6d565b9050919050565b610ba881610b8d565b82525050565b60008115159050919050565b610bc381610bae565b82525050565b600060c0820190508181036000830152610be38189610b25565b9050610bf26020830188610b5e565b610bff6040830187610b9f565b610c0c6060830186610bba565b610c196080830185610b5e565b610c2660a0830184610bba565b979650505050505050565b610c3a81610b8d565b8114610c4557600080fd5b50565b600081359050610c5781610c31565b92915050565b600060208284031215610c7357610c72610a61565b5b6000610c8184828501610c48565b91505092915050565b6000602082019050610c9f6000830184610bba565b92915050565b6000602082019050610cba6000830184610b5e565b92915050565b6000602082019050610cd56000830184610b9f565b92915050565b600080fd5b600080fd5b7f4e487b7100000000000000000000000000000000000000000000000000000000600052604160045260246000fd5b610d1d82610b14565b810181811067ffffffffffffffff82111715610d3c57610d3b610ce5565b5b80604052505050565b6000610d4f610a57565b9050610d5b8282610d14565b919050565b600067ffffffffffffffff821115610d7b57610d7a610ce5565b5b610d8482610b14565b9050602081019050919050565b82818337600083830152505050565b6000610db3610dae84610d60565b610d45565b905082815260208101848484011115610dcf57610dce610ce0565b5b610dda848285610d91565b509392505050565b600082601f830112610df757610df6610cdb565b5b8135610e07848260208601610da0565b91505092915050565b600080600060608486031215610e2957610e28610a61565b5b600084013567ffffffffffffffff811115610e4757610e46610a66565b5b610e5386828701610de2565b9350506020610e6486828701610a8c565b9250506040610e7586828701610c48565b9150509250925092565b600060a0820190508181036000830152610e998188610b25565b9050610ea86020830187610b5e565b610eb56040830186610b9f565b610ec26060830185610bba565b610ecf6080830184610b5e565b9695505050505050565b600060a082019050610eee6000830188610b5e565b610efb6020830187610b5e565b610f086040830186610b5e565b610f156060830185610b5e565b610f226080830184610b9f565b9695505050505050565b7f4e487b7100000000000000000000000000000000000000000000000000000000600052602260045260246000fd5b60006002820490506001821680610f7357607f821691505b602082108103610f8657610f85610f2c565b5b50919050565b60008190508160005260206000209050919050565b60006020601f8301049050919050565b600082821b905092915050565b600060088302610fee7fffffffffffffffffffffffffffffffffffffffffffffffffffffffffffffffff82610fb1565b610ff88683610fb1565b95508019841693508086168417925050509392505050565b6000819050919050565b600061103561103061102b84610a6b565b611010565b610a6b565b9050919050565b6000819050919050565b61104f8361101a565b61106361105b8261103c565b848454610fbe565b825550505050565b600090565b61107861106b565b611083818484611046565b505050565b5b818110156110a75761109c600082611070565b600181019050611089565b5050565b601f8211156110ec576110bd81610f8c565b6110c684610fa1565b810160208510156110d5578190505b6110e96110e185610fa1565b830182611088565b50505b505050565b600082821c905092915050565b600061110f600019846008026110f1565b1980831691505092915050565b600061112883836110fe565b9150826002028217905092915050565b61114182610ace565b67ffffffffffffffff81111561115a57611159610ce5565b5b6111648254610f5b565b61116f8282856110ab565b600060209050601f8311600181146111a25760008415611190578287015190505b61119a858261111c565b865550611202565b601f1984166111b086610f8c565b60005b828110156111d8578489015182556001820191506020850194506020810190506111b3565b868310156111f557848901516111f1601f8916826110fe565b8355505b6001600288020188555050505b505050505050565b7f4e487b7100000000000000000000000000000000000000000000000000000000600052601160045260246000fd5b600061124482610a6b565b91507fffffffffffffffffffffffffffffffffffffffffffffffffffffffffffffffff82036112765761127561120a565b5b600182019050919050565b7f4e487b7100000000000000000000000000000000000000000000000000000000600052601260045260246000fd5b60006112bb82610a6b565b91506112c683610a6b565b9250826112d6576112d5611281565b5b82820490509291505056fea26469706673582212207a5b85fbc3395311b38e4b5352f9ab77a68132fd08ed98ae0480b4e812ee4f0964736f6c63430008110033a264697066735822122028db73c79a49ef335ec3eddbcc6722030597475f66b3623bdf587af989be42e164736f6c63430008110033","opcodes":"PUSH1 0x80 PUSH1 0x40 MSTORE CALLVALUE DUP1 ISZERO PUSH2 0x10 JUMPI PUSH1 0x0 DUP1 REVERT JUMPDEST POP PUSH2 0x1913 DUP1 PUSH2 0x20 PUSH1 0x0 CODECOPY PUSH1 0x0 RETURN INVALID PUSH1 0x80 PUSH1 0x40 MSTORE CALLVALUE DUP1 ISZERO PUSH2 0x10 JUMPI PUSH1 0x0 DUP1 REVERT JUMPDEST POP PUSH1 0x4 CALLDATASIZE LT PUSH2 0x41 JUMPI PUSH1 0x0 CALLDATALOAD PUSH1 0xE0 SHR DUP1 PUSH4 0x7AC3886E EQ PUSH2 0x46 JUMPI DUP1 PUSH4 0x992034D7 EQ PUSH2 0x64 JUMPI DUP1 PUSH4 0x9EC6DEAF EQ PUSH2 0x80 JUMPI JUMPDEST PUSH1 0x0 DUP1 REVERT JUMPDEST PUSH2 0x4E PUSH2 0xB0 JUMP JUMPDEST PUSH1 0x40 MLOAD PUSH2 0x5B SWAP2 SWAP1 PUSH2 0x31B JUMP JUMPDEST PUSH1 0x40 MLOAD DUP1 SWAP2 SUB SWAP1 RETURN JUMPDEST PUSH2 0x7E PUSH1 0x4 DUP1 CALLDATASIZE SUB DUP2 ADD SWAP1 PUSH2 0x79 SWAP2 SWAP1 PUSH2 0x378 JUMP JUMPDEST PUSH2 0x13E JUMP JUMPDEST STOP JUMPDEST PUSH2 0x9A PUSH1 0x4 DUP1 CALLDATASIZE SUB DUP2 ADD SWAP1 PUSH2 0x95 SWAP2 SWAP1 PUSH2 0x378 JUMP JUMPDEST PUSH2 0x1DF JUMP JUMPDEST PUSH1 0x40 MLOAD PUSH2 0xA7 SWAP2 SWAP1 PUSH2 0x3B4 JUMP JUMPDEST PUSH1 0x40 MLOAD DUP1 SWAP2 SUB SWAP1 RETURN JUMPDEST PUSH1 0x60 PUSH1 0x0 DUP1 SLOAD DUP1 PUSH1 0x20 MUL PUSH1 0x20 ADD PUSH1 0x40 MLOAD SWAP1 DUP2 ADD PUSH1 0x40 MSTORE DUP1 SWAP3 SWAP2 SWAP1 DUP2 DUP2 MSTORE PUSH1 0x20 ADD DUP3 DUP1 SLOAD DUP1 ISZERO PUSH2 0x134 JUMPI PUSH1 0x20 MUL DUP3 ADD SWAP2 SWAP1 PUSH1 0x0 MSTORE PUSH1 0x20 PUSH1 0x0 KECCAK256 SWAP1 JUMPDEST DUP2 PUSH1 0x0 SWAP1 SLOAD SWAP1 PUSH2 0x100 EXP SWAP1 DIV PUSH20 0xFFFFFFFFFFFFFFFFFFFFFFFFFFFFFFFFFFFFFFFF AND PUSH20 0xFFFFFFFFFFFFFFFFFFFFFFFFFFFFFFFFFFFFFFFF AND DUP2 MSTORE PUSH1 0x20 ADD SWAP1 PUSH1 0x1 ADD SWAP1 DUP1 DUP4 GT PUSH2 0xEA JUMPI JUMPDEST POP POP POP POP POP SWAP1 POP SWAP1 JUMP JUMPDEST PUSH1 0x0 DUP2 CALLER PUSH1 0x40 MLOAD PUSH2 0x14E SWAP1 PUSH2 0x21E JUMP JUMPDEST PUSH2 0x159 SWAP3 SWAP2 SWAP1 PUSH2 0x3FF JUMP JUMPDEST PUSH1 0x40 MLOAD DUP1 SWAP2 SUB SWAP1 PUSH1 0x0 CREATE DUP1 ISZERO DUP1 ISZERO PUSH2 0x175 JUMPI RETURNDATASIZE PUSH1 0x0 DUP1 RETURNDATACOPY RETURNDATASIZE PUSH1 0x0 REVERT JUMPDEST POP SWAP1 POP PUSH1 0x0 DUP2 SWAP1 DUP1 PUSH1 0x1 DUP2 SLOAD ADD DUP1 DUP3 SSTORE DUP1 SWAP2 POP POP PUSH1 0x1 SWAP1 SUB SWAP1 PUSH1 0x0 MSTORE PUSH1 0x20 PUSH1 0x0 KECCAK256 ADD PUSH1 0x0 SWAP1 SWAP2 SWAP1 SWAP2 SWAP1 SWAP2 PUSH2 0x100 EXP DUP2 SLOAD DUP2 PUSH20 0xFFFFFFFFFFFFFFFFFFFFFFFFFFFFFFFFFFFFFFFF MUL NOT AND SWAP1 DUP4 PUSH20 0xFFFFFFFFFFFFFFFFFFFFFFFFFFFFFFFFFFFFFFFF AND MUL OR SWAP1 SSTORE POP POP POP JUMP JUMPDEST PUSH1 0x0 DUP2 DUP2 SLOAD DUP2 LT PUSH2 0x1EF JUMPI PUSH1 0x0 DUP1 REVERT JUMPDEST SWAP1 PUSH1 0x0 MSTORE PUSH1 0x20 PUSH1 0x0 KECCAK256 ADD PUSH1 0x0 SWAP2 POP SLOAD SWAP1 PUSH2 0x100 EXP SWAP1 DIV PUSH20 0xFFFFFFFFFFFFFFFFFFFFFFFFFFFFFFFFFFFFFFFF AND DUP2 JUMP JUMPDEST PUSH2 0x14B5 DUP1 PUSH2 0x429 DUP4 CODECOPY ADD SWAP1 JUMP JUMPDEST PUSH1 0x0 DUP2 MLOAD SWAP1 POP SWAP2 SWAP1 POP JUMP JUMPDEST PUSH1 0x0 DUP3 DUP3 MSTORE PUSH1 0x20 DUP3 ADD SWAP1 POP SWAP3 SWAP2 POP POP JUMP JUMPDEST PUSH1 0x0 DUP2 SWAP1 POP PUSH1 0x20 DUP3 ADD SWAP1 POP SWAP2 SWAP1 POP JUMP JUMPDEST PUSH1 0x0 PUSH20 0xFFFFFFFFFFFFFFFFFFFFFFFFFFFFFFFFFFFFFFFF DUP3 AND SWAP1 POP SWAP2 SWAP1 POP JUMP JUMPDEST PUSH1 0x0 PUSH2 0x282 DUP3 PUSH2 0x257 JUMP JUMPDEST SWAP1 POP SWAP2 SWAP1 POP JUMP JUMPDEST PUSH2 0x292 DUP2 PUSH2 0x277 JUMP JUMPDEST DUP3 MSTORE POP POP JUMP JUMPDEST PUSH1 0x0 PUSH2 0x2A4 DUP4 DUP4 PUSH2 0x289 JUMP JUMPDEST PUSH1 0x20 DUP4 ADD SWAP1 POP SWAP3 SWAP2 POP POP JUMP JUMPDEST PUSH1 0x0 PUSH1 0x20 DUP3 ADD SWAP1 POP SWAP2 SWAP1 POP JUMP JUMPDEST PUSH1 0x0 PUSH2 0x2C8 DUP3 PUSH2 0x22B JUMP JUMPDEST PUSH2 0x2D2 DUP2 DUP6 PUSH2 0x236 JUMP JUMPDEST SWAP4 POP PUSH2 0x2DD DUP4 PUSH2 0x247 JUMP JUMPDEST DUP1 PUSH1 0x0 JUMPDEST DUP4 DUP2 LT ISZERO PUSH2 0x30E JUMPI DUP2 MLOAD PUSH2 0x2F5 DUP9 DUP3 PUSH2 0x298 JUMP JUMPDEST SWAP8 POP PUSH2 0x300 DUP4 PUSH2 0x2B0 JUMP JUMPDEST SWAP3 POP POP PUSH1 0x1 DUP2 ADD SWAP1 POP PUSH2 0x2E1 JUMP JUMPDEST POP DUP6 SWAP4 POP POP POP POP SWAP3 SWAP2 POP POP JUMP JUMPDEST PUSH1 0x0 PUSH1 0x20 DUP3 ADD SWAP1 POP DUP2 DUP2 SUB PUSH1 0x0 DUP4 ADD MSTORE PUSH2 0x335 DUP2 DUP5 PUSH2 0x2BD JUMP JUMPDEST SWAP1 POP SWAP3 SWAP2 POP POP JUMP JUMPDEST PUSH1 0x0 DUP1 REVERT JUMPDEST PUSH1 0x0 DUP2 SWAP1 POP SWAP2 SWAP1 POP JUMP JUMPDEST PUSH2 0x355 DUP2 PUSH2 0x342 JUMP JUMPDEST DUP2 EQ PUSH2 0x360 JUMPI PUSH1 0x0 DUP1 REVERT JUMPDEST POP JUMP JUMPDEST PUSH1 0x0 DUP2 CALLDATALOAD SWAP1 POP PUSH2 0x372 DUP2 PUSH2 0x34C JUMP JUMPDEST SWAP3 SWAP2 POP POP JUMP JUMPDEST PUSH1 0x0 PUSH1 0x20 DUP3 DUP5 SUB SLT ISZERO PUSH2 0x38E JUMPI PUSH2 0x38D PUSH2 0x33D JUMP JUMPDEST JUMPDEST PUSH1 0x0 PUSH2 0x39C DUP5 DUP3 DUP6 ADD PUSH2 0x363 JUMP JUMPDEST SWAP2 POP POP SWAP3 SWAP2 POP POP JUMP JUMPDEST PUSH2 0x3AE DUP2 PUSH2 0x277 JUMP JUMPDEST DUP3 MSTORE POP POP JUMP JUMPDEST PUSH1 0x0 PUSH1 0x20 DUP3 ADD SWAP1 POP PUSH2 0x3C9 PUSH1 0x0 DUP4 ADD DUP5 PUSH2 0x3A5 JUMP JUMPDEST SWAP3 SWAP2 POP POP JUMP JUMPDEST PUSH2 0x3D8 DUP2 PUSH2 0x342 JUMP JUMPDEST DUP3 MSTORE POP POP JUMP JUMPDEST PUSH1 0x0 PUSH2 0x3E9 DUP3 PUSH2 0x257 JUMP JUMPDEST SWAP1 POP SWAP2 SWAP1 POP JUMP JUMPDEST PUSH2 0x3F9 DUP2 PUSH2 0x3DE JUMP JUMPDEST DUP3 MSTORE POP POP JUMP JUMPDEST PUSH1 0x0 PUSH1 0x40 DUP3 ADD SWAP1 POP PUSH2 0x414 PUSH1 0x0 DUP4 ADD DUP6 PUSH2 0x3CF JUMP JUMPDEST PUSH2 0x421 PUSH1 0x20 DUP4 ADD DUP5 PUSH2 0x3F0 JUMP JUMPDEST SWAP4 SWAP3 POP POP POP JUMP INVALID PUSH1 0x80 PUSH1 0x40 MSTORE PUSH1 0x0 PUSH1 0x6 PUSH1 0x0 PUSH2 0x100 EXP DUP2 SLOAD DUP2 PUSH1 0xFF MUL NOT AND SWAP1 DUP4 ISZERO ISZERO MUL OR SWAP1 SSTORE POP CALLVALUE DUP1 ISZERO PUSH3 0x2C JUMPI PUSH1 0x0 DUP1 REVERT JUMPDEST POP PUSH1 0x40 MLOAD PUSH3 0x14B5 CODESIZE SUB DUP1 PUSH3 0x14B5 DUP4 CODECOPY DUP2 DUP2 ADD PUSH1 0x40 MSTORE DUP2 ADD SWAP1 PUSH3 0x52 SWAP2 SWAP1 PUSH3 0x147 JUMP JUMPDEST DUP2 PUSH1 0x0 DUP2 SWAP1 SSTORE POP DUP1 PUSH1 0x1 PUSH1 0x0 PUSH2 0x100 EXP DUP2 SLOAD DUP2 PUSH20 0xFFFFFFFFFFFFFFFFFFFFFFFFFFFFFFFFFFFFFFFF MUL NOT AND SWAP1 DUP4 PUSH20 0xFFFFFFFFFFFFFFFFFFFFFFFFFFFFFFFFFFFFFFFF AND MUL OR SWAP1 SSTORE POP POP POP PUSH3 0x18E JUMP JUMPDEST PUSH1 0x0 DUP1 REVERT JUMPDEST PUSH1 0x0 DUP2 SWAP1 POP SWAP2 SWAP1 POP JUMP JUMPDEST PUSH3 0xBC DUP2 PUSH3 0xA7 JUMP JUMPDEST DUP2 EQ PUSH3 0xC8 JUMPI PUSH1 0x0 DUP1 REVERT JUMPDEST POP JUMP JUMPDEST PUSH1 0x0 DUP2 MLOAD SWAP1 POP PUSH3 0xDC DUP2 PUSH3 0xB1 JUMP JUMPDEST SWAP3 SWAP2 POP POP JUMP JUMPDEST PUSH1 0x0 PUSH20 0xFFFFFFFFFFFFFFFFFFFFFFFFFFFFFFFFFFFFFFFF DUP3 AND SWAP1 POP SWAP2 SWAP1 POP JUMP JUMPDEST PUSH1 0x0 PUSH3 0x10F DUP3 PUSH3 0xE2 JUMP JUMPDEST SWAP1 POP SWAP2 SWAP1 POP JUMP JUMPDEST PUSH3 0x121 DUP2 PUSH3 0x102 JUMP JUMPDEST DUP2 EQ PUSH3 0x12D JUMPI PUSH1 0x0 DUP1 REVERT JUMPDEST POP JUMP JUMPDEST PUSH1 0x0 DUP2 MLOAD SWAP1 POP PUSH3 0x141 DUP2 PUSH3 0x116 JUMP JUMPDEST SWAP3 SWAP2 POP POP JUMP JUMPDEST PUSH1 0x0 DUP1 PUSH1 0x40 DUP4 DUP6 SUB SLT ISZERO PUSH3 0x161 JUMPI PUSH3 0x160 PUSH3 0xA2 JUMP JUMPDEST JUMPDEST PUSH1 0x0 PUSH3 0x171 DUP6 DUP3 DUP7 ADD PUSH3 0xCB JUMP JUMPDEST SWAP3 POP POP PUSH1 0x20 PUSH3 0x184 DUP6 DUP3 DUP7 ADD PUSH3 0x130 JUMP JUMPDEST SWAP2 POP POP SWAP3 POP SWAP3 SWAP1 POP JUMP JUMPDEST PUSH2 0x1317 DUP1 PUSH3 0x19E PUSH1 0x0 CODECOPY PUSH1 0x0 RETURN INVALID PUSH1 0x80 PUSH1 0x40 MSTORE PUSH1 0x4 CALLDATASIZE LT PUSH2 0xA7 JUMPI PUSH1 0x0 CALLDATALOAD PUSH1 0xE0 SHR DUP1 PUSH4 0xD63DC661 GT PUSH2 0x64 JUMPI DUP1 PUSH4 0xD63DC661 EQ PUSH2 0x1D5 JUMPI DUP1 PUSH4 0xD7D1BBDB EQ PUSH2 0x1DF JUMPI DUP1 PUSH4 0xEB7B1312 EQ PUSH2 0x208 JUMPI DUP1 PUSH4 0xFDBA0ED9 EQ PUSH2 0x233 JUMPI DUP1 PUSH4 0xFF3A9C7E EQ PUSH2 0x274 JUMPI DUP1 PUSH4 0xFFDE9743 EQ PUSH2 0x2A3 JUMPI PUSH2 0xA7 JUMP JUMPDEST DUP1 PUSH4 0x496C8ADA EQ PUSH2 0xAC JUMPI DUP1 PUSH4 0x647C75E2 EQ PUSH2 0xEE JUMPI DUP1 PUSH4 0x99E0F1EB EQ PUSH2 0x12B JUMPI DUP1 PUSH4 0xA4475CE4 EQ PUSH2 0x156 JUMPI DUP1 PUSH4 0xA9C31840 EQ PUSH2 0x181 JUMPI DUP1 PUSH4 0xB7887E1F EQ PUSH2 0x1AC JUMPI JUMPDEST PUSH1 0x0 DUP1 REVERT JUMPDEST CALLVALUE DUP1 ISZERO PUSH2 0xB8 JUMPI PUSH1 0x0 DUP1 REVERT JUMPDEST POP PUSH2 0xD3 PUSH1 0x4 DUP1 CALLDATASIZE SUB DUP2 ADD SWAP1 PUSH2 0xCE SWAP2 SWAP1 PUSH2 0xAA1 JUMP JUMPDEST PUSH2 0x2CC JUMP JUMPDEST PUSH1 0x40 MLOAD PUSH2 0xE5 SWAP7 SWAP6 SWAP5 SWAP4 SWAP3 SWAP2 SWAP1 PUSH2 0xBC9 JUMP JUMPDEST PUSH1 0x40 MLOAD DUP1 SWAP2 SUB SWAP1 RETURN JUMPDEST CALLVALUE DUP1 ISZERO PUSH2 0xFA JUMPI PUSH1 0x0 DUP1 REVERT JUMPDEST POP PUSH2 0x115 PUSH1 0x4 DUP1 CALLDATASIZE SUB DUP2 ADD SWAP1 PUSH2 0x110 SWAP2 SWAP1 PUSH2 0xC5D JUMP JUMPDEST PUSH2 0x3CA JUMP JUMPDEST PUSH1 0x40 MLOAD PUSH2 0x122 SWAP2 SWAP1 PUSH2 0xC8A JUMP JUMPDEST PUSH1 0x40 MLOAD DUP1 SWAP2 SUB SWAP1 RETURN JUMPDEST CALLVALUE DUP1 ISZERO PUSH2 0x137 JUMPI PUSH1 0x0 DUP1 REVERT JUMPDEST POP PUSH2 0x140 PUSH2 0x3EA JUMP JUMPDEST PUSH1 0x40 MLOAD PUSH2 0x14D SWAP2 SWAP1 PUSH2 0xCA5 JUMP JUMPDEST PUSH1 0x40 MLOAD DUP1 SWAP2 SUB SWAP1 RETURN JUMPDEST CALLVALUE DUP1 ISZERO PUSH2 0x162 JUMPI PUSH1 0x0 DUP1 REVERT JUMPDEST POP PUSH2 0x16B PUSH2 0x3F0 JUMP JUMPDEST PUSH1 0x40 MLOAD PUSH2 0x178 SWAP2 SWAP1 PUSH2 0xCC0 JUMP JUMPDEST PUSH1 0x40 MLOAD DUP1 SWAP2 SUB SWAP1 RETURN JUMPDEST CALLVALUE DUP1 ISZERO PUSH2 0x18D JUMPI PUSH1 0x0 DUP1 REVERT JUMPDEST POP PUSH2 0x196 PUSH2 0x416 JUMP JUMPDEST PUSH1 0x40 MLOAD PUSH2 0x1A3 SWAP2 SWAP1 PUSH2 0xCA5 JUMP JUMPDEST PUSH1 0x40 MLOAD DUP1 SWAP2 SUB SWAP1 RETURN JUMPDEST CALLVALUE DUP1 ISZERO PUSH2 0x1B8 JUMPI PUSH1 0x0 DUP1 REVERT JUMPDEST POP PUSH2 0x1D3 PUSH1 0x4 DUP1 CALLDATASIZE SUB DUP2 ADD SWAP1 PUSH2 0x1CE SWAP2 SWAP1 PUSH2 0xE10 JUMP JUMPDEST PUSH2 0x420 JUMP JUMPDEST STOP JUMPDEST PUSH2 0x1DD PUSH2 0x560 JUMP JUMPDEST STOP JUMPDEST CALLVALUE DUP1 ISZERO PUSH2 0x1EB JUMPI PUSH1 0x0 DUP1 REVERT JUMPDEST POP PUSH2 0x206 PUSH1 0x4 DUP1 CALLDATASIZE SUB DUP2 ADD SWAP1 PUSH2 0x201 SWAP2 SWAP1 PUSH2 0xAA1 JUMP JUMPDEST PUSH2 0x632 JUMP JUMPDEST STOP JUMPDEST CALLVALUE DUP1 ISZERO PUSH2 0x214 JUMPI PUSH1 0x0 DUP1 REVERT JUMPDEST POP PUSH2 0x21D PUSH2 0x79F JUMP JUMPDEST PUSH1 0x40 MLOAD PUSH2 0x22A SWAP2 SWAP1 PUSH2 0xCA5 JUMP JUMPDEST PUSH1 0x40 MLOAD DUP1 SWAP2 SUB SWAP1 RETURN JUMPDEST CALLVALUE DUP1 ISZERO PUSH2 0x23F JUMPI PUSH1 0x0 DUP1 REVERT JUMPDEST POP PUSH2 0x25A PUSH1 0x4 DUP1 CALLDATASIZE SUB DUP2 ADD SWAP1 PUSH2 0x255 SWAP2 SWAP1 PUSH2 0xAA1 JUMP JUMPDEST PUSH2 0x7A5 JUMP JUMPDEST PUSH1 0x40 MLOAD PUSH2 0x26B SWAP6 SWAP5 SWAP4 SWAP3 SWAP2 SWAP1 PUSH2 0xE7F JUMP JUMPDEST PUSH1 0x40 MLOAD DUP1 SWAP2 SUB SWAP1 RETURN JUMPDEST CALLVALUE DUP1 ISZERO PUSH2 0x280 JUMPI PUSH1 0x0 DUP1 REVERT JUMPDEST POP PUSH2 0x289 PUSH2 0x8D8 JUMP JUMPDEST PUSH1 0x40 MLOAD PUSH2 0x29A SWAP6 SWAP5 SWAP4 SWAP3 SWAP2 SWAP1 PUSH2 0xED9 JUMP JUMPDEST PUSH1 0x40 MLOAD DUP1 SWAP2 SUB SWAP1 RETURN JUMPDEST CALLVALUE DUP1 ISZERO PUSH2 0x2AF JUMPI PUSH1 0x0 DUP1 REVERT JUMPDEST POP PUSH2 0x2CA PUSH1 0x4 DUP1 CALLDATASIZE SUB DUP2 ADD SWAP1 PUSH2 0x2C5 SWAP2 SWAP1 PUSH2 0xAA1 JUMP JUMPDEST PUSH2 0x91D JUMP JUMPDEST STOP JUMPDEST PUSH1 0x4 PUSH1 0x20 MSTORE DUP1 PUSH1 0x0 MSTORE PUSH1 0x40 PUSH1 0x0 KECCAK256 PUSH1 0x0 SWAP2 POP SWAP1 POP DUP1 PUSH1 0x0 ADD DUP1 SLOAD PUSH2 0x2EF SWAP1 PUSH2 0xF5B JUMP JUMPDEST DUP1 PUSH1 0x1F ADD PUSH1 0x20 DUP1 SWAP2 DIV MUL PUSH1 0x20 ADD PUSH1 0x40 MLOAD SWAP1 DUP2 ADD PUSH1 0x40 MSTORE DUP1 SWAP3 SWAP2 SWAP1 DUP2 DUP2 MSTORE PUSH1 0x20 ADD DUP3 DUP1 SLOAD PUSH2 0x31B SWAP1 PUSH2 0xF5B JUMP JUMPDEST DUP1 ISZERO PUSH2 0x368 JUMPI DUP1 PUSH1 0x1F LT PUSH2 0x33D JUMPI PUSH2 0x100 DUP1 DUP4 SLOAD DIV MUL DUP4 MSTORE SWAP2 PUSH1 0x20 ADD SWAP2 PUSH2 0x368 JUMP JUMPDEST DUP3 ADD SWAP2 SWAP1 PUSH1 0x0 MSTORE PUSH1 0x20 PUSH1 0x0 KECCAK256 SWAP1 JUMPDEST DUP2 SLOAD DUP2 MSTORE SWAP1 PUSH1 0x1 ADD SWAP1 PUSH1 0x20 ADD DUP1 DUP4 GT PUSH2 0x34B JUMPI DUP3 SWAP1 SUB PUSH1 0x1F AND DUP3 ADD SWAP2 JUMPDEST POP POP POP POP POP SWAP1 DUP1 PUSH1 0x1 ADD SLOAD SWAP1 DUP1 PUSH1 0x2 ADD PUSH1 0x0 SWAP1 SLOAD SWAP1 PUSH2 0x100 EXP SWAP1 DIV PUSH20 0xFFFFFFFFFFFFFFFFFFFFFFFFFFFFFFFFFFFFFFFF AND SWAP1 DUP1 PUSH1 0x2 ADD PUSH1 0x14 SWAP1 SLOAD SWAP1 PUSH2 0x100 EXP SWAP1 DIV PUSH1 0xFF AND SWAP1 DUP1 PUSH1 0x3 ADD SLOAD SWAP1 DUP1 PUSH1 0x5 ADD PUSH1 0x0 SWAP1 SLOAD SWAP1 PUSH2 0x100 EXP SWAP1 DIV PUSH1 0xFF AND SWAP1 POP DUP7 JUMP JUMPDEST PUSH1 0x3 PUSH1 0x20 MSTORE DUP1 PUSH1 0x0 MSTORE PUSH1 0x40 PUSH1 0x0 KECCAK256 PUSH1 0x0 SWAP2 POP SLOAD SWAP1 PUSH2 0x100 EXP SWAP1 DIV PUSH1 0xFF AND DUP2 JUMP JUMPDEST PUSH1 0x0 SLOAD DUP2 JUMP JUMPDEST PUSH1 0x1 PUSH1 0x0 SWAP1 SLOAD SWAP1 PUSH2 0x100 EXP SWAP1 DIV PUSH20 0xFFFFFFFFFFFFFFFFFFFFFFFFFFFFFFFFFFFFFFFF AND DUP2 JUMP JUMPDEST PUSH1 0x0 PUSH1 0x5 SLOAD SWAP1 POP SWAP1 JUMP JUMPDEST PUSH1 0x1 PUSH1 0x0 SWAP1 SLOAD SWAP1 PUSH2 0x100 EXP SWAP1 DIV PUSH20 0xFFFFFFFFFFFFFFFFFFFFFFFFFFFFFFFFFFFFFFFF AND PUSH20 0xFFFFFFFFFFFFFFFFFFFFFFFFFFFFFFFFFFFFFFFF AND CALLER PUSH20 0xFFFFFFFFFFFFFFFFFFFFFFFFFFFFFFFFFFFFFFFF AND EQ PUSH2 0x47A JUMPI PUSH1 0x0 DUP1 REVERT JUMPDEST SELFBALANCE DUP3 GT ISZERO PUSH2 0x487 JUMPI PUSH1 0x0 DUP1 REVERT JUMPDEST PUSH1 0x0 PUSH1 0x4 PUSH1 0x0 PUSH1 0x5 SLOAD DUP2 MSTORE PUSH1 0x20 ADD SWAP1 DUP2 MSTORE PUSH1 0x20 ADD PUSH1 0x0 KECCAK256 SWAP1 POP DUP4 DUP2 PUSH1 0x0 ADD SWAP1 DUP2 PUSH2 0x4B1 SWAP2 SWAP1 PUSH2 0x1138 JUMP JUMPDEST POP DUP3 DUP2 PUSH1 0x1 ADD DUP2 SWAP1 SSTORE POP DUP2 DUP2 PUSH1 0x2 ADD PUSH1 0x0 PUSH2 0x100 EXP DUP2 SLOAD DUP2 PUSH20 0xFFFFFFFFFFFFFFFFFFFFFFFFFFFFFFFFFFFFFFFF MUL NOT AND SWAP1 DUP4 PUSH20 0xFFFFFFFFFFFFFFFFFFFFFFFFFFFFFFFFFFFFFFFF AND MUL OR SWAP1 SSTORE POP PUSH1 0x0 DUP2 PUSH1 0x2 ADD PUSH1 0x14 PUSH2 0x100 EXP DUP2 SLOAD DUP2 PUSH1 0xFF MUL NOT AND SWAP1 DUP4 ISZERO ISZERO MUL OR SWAP1 SSTORE POP PUSH1 0x1 DUP2 PUSH1 0x5 ADD PUSH1 0x0 PUSH2 0x100 EXP DUP2 SLOAD DUP2 PUSH1 0xFF MUL NOT AND SWAP1 DUP4 ISZERO ISZERO MUL OR SWAP1 SSTORE POP PUSH1 0x0 DUP2 PUSH1 0x3 ADD DUP2 SWAP1 SSTORE POP PUSH1 0x5 PUSH1 0x0 DUP2 SLOAD DUP1 SWAP3 SWAP2 SWAP1 PUSH2 0x555 SWAP1 PUSH2 0x1239 JUMP JUMPDEST SWAP2 SWAP1 POP SSTORE POP POP POP POP POP JUMP JUMPDEST PUSH1 0x0 SLOAD CALLVALUE GT PUSH2 0x56E JUMPI PUSH1 0x0 DUP1 REVERT JUMPDEST PUSH1 0x3 PUSH1 0x0 CALLER PUSH20 0xFFFFFFFFFFFFFFFFFFFFFFFFFFFFFFFFFFFFFFFF AND PUSH20 0xFFFFFFFFFFFFFFFFFFFFFFFFFFFFFFFFFFFFFFFF AND DUP2 MSTORE PUSH1 0x20 ADD SWAP1 DUP2 MSTORE PUSH1 0x20 ADD PUSH1 0x0 KECCAK256 PUSH1 0x0 SWAP1 SLOAD SWAP1 PUSH2 0x100 EXP SWAP1 DIV PUSH1 0xFF AND PUSH2 0x5D8 JUMPI PUSH1 0x2 PUSH1 0x0 DUP2 SLOAD DUP1 SWAP3 SWAP2 SWAP1 PUSH2 0x5D2 SWAP1 PUSH2 0x1239 JUMP JUMPDEST SWAP2 SWAP1 POP SSTORE POP JUMPDEST PUSH1 0x1 PUSH1 0x3 PUSH1 0x0 CALLER PUSH20 0xFFFFFFFFFFFFFFFFFFFFFFFFFFFFFFFFFFFFFFFF AND PUSH20 0xFFFFFFFFFFFFFFFFFFFFFFFFFFFFFFFFFFFFFFFF AND DUP2 MSTORE PUSH1 0x20 ADD SWAP1 DUP2 MSTORE PUSH1 0x20 ADD PUSH1 0x0 KECCAK256 PUSH1 0x0 PUSH2 0x100 EXP DUP2 SLOAD DUP2 PUSH1 0xFF MUL NOT AND SWAP1 DUP4 ISZERO ISZERO MUL OR SWAP1 SSTORE POP JUMP JUMPDEST DUP1 PUSH1 0x4 PUSH1 0x0 DUP3 DUP2 MSTORE PUSH1 0x20 ADD SWAP1 DUP2 MSTORE PUSH1 0x20 ADD PUSH1 0x0 KECCAK256 PUSH1 0x5 ADD PUSH1 0x0 SWAP1 SLOAD SWAP1 PUSH2 0x100 EXP SWAP1 DIV PUSH1 0xFF AND PUSH2 0x660 JUMPI PUSH1 0x0 DUP1 REVERT JUMPDEST PUSH1 0x0 PUSH1 0x4 PUSH1 0x0 DUP5 DUP2 MSTORE PUSH1 0x20 ADD SWAP1 DUP2 MSTORE PUSH1 0x20 ADD PUSH1 0x0 KECCAK256 SWAP1 POP PUSH1 0x3 PUSH1 0x0 CALLER PUSH20 0xFFFFFFFFFFFFFFFFFFFFFFFFFFFFFFFFFFFFFFFF AND PUSH20 0xFFFFFFFFFFFFFFFFFFFFFFFFFFFFFFFFFFFFFFFF AND DUP2 MSTORE PUSH1 0x20 ADD SWAP1 DUP2 MSTORE PUSH1 0x20 ADD PUSH1 0x0 KECCAK256 PUSH1 0x0 SWAP1 SLOAD SWAP1 PUSH2 0x100 EXP SWAP1 DIV PUSH1 0xFF AND PUSH2 0x6CD JUMPI PUSH1 0x0 DUP1 REVERT JUMPDEST DUP1 PUSH1 0x4 ADD PUSH1 0x0 CALLER PUSH20 0xFFFFFFFFFFFFFFFFFFFFFFFFFFFFFFFFFFFFFFFF AND PUSH20 0xFFFFFFFFFFFFFFFFFFFFFFFFFFFFFFFFFFFFFFFF AND DUP2 MSTORE PUSH1 0x20 ADD SWAP1 DUP2 MSTORE PUSH1 0x20 ADD PUSH1 0x0 KECCAK256 PUSH1 0x0 SWAP1 SLOAD SWAP1 PUSH2 0x100 EXP SWAP1 DIV PUSH1 0xFF AND ISZERO PUSH2 0x726 JUMPI PUSH1 0x0 DUP1 REVERT JUMPDEST PUSH1 0x1 DUP2 PUSH1 0x4 ADD PUSH1 0x0 CALLER PUSH20 0xFFFFFFFFFFFFFFFFFFFFFFFFFFFFFFFFFFFFFFFF AND PUSH20 0xFFFFFFFFFFFFFFFFFFFFFFFFFFFFFFFFFFFFFFFF AND DUP2 MSTORE PUSH1 0x20 ADD SWAP1 DUP2 MSTORE PUSH1 0x20 ADD PUSH1 0x0 KECCAK256 PUSH1 0x0 PUSH2 0x100 EXP DUP2 SLOAD DUP2 PUSH1 0xFF MUL NOT AND SWAP1 DUP4 ISZERO ISZERO MUL OR SWAP1 SSTORE POP DUP1 PUSH1 0x3 ADD PUSH1 0x0 DUP2 SLOAD DUP1 SWAP3 SWAP2 SWAP1 PUSH2 0x795 SWAP1 PUSH2 0x1239 JUMP JUMPDEST SWAP2 SWAP1 POP SSTORE POP POP POP POP JUMP JUMPDEST PUSH1 0x2 SLOAD DUP2 JUMP JUMPDEST PUSH1 0x60 PUSH1 0x0 DUP1 PUSH1 0x0 DUP1 DUP6 PUSH1 0x4 PUSH1 0x0 DUP3 DUP2 MSTORE PUSH1 0x20 ADD SWAP1 DUP2 MSTORE PUSH1 0x20 ADD PUSH1 0x0 KECCAK256 PUSH1 0x5 ADD PUSH1 0x0 SWAP1 SLOAD SWAP1 PUSH2 0x100 EXP SWAP1 DIV PUSH1 0xFF AND PUSH2 0x7DB JUMPI PUSH1 0x0 DUP1 REVERT JUMPDEST PUSH1 0x0 PUSH1 0x4 PUSH1 0x0 DUP10 DUP2 MSTORE PUSH1 0x20 ADD SWAP1 DUP2 MSTORE PUSH1 0x20 ADD PUSH1 0x0 KECCAK256 SWAP1 POP DUP1 PUSH1 0x0 ADD DUP2 PUSH1 0x1 ADD SLOAD DUP3 PUSH1 0x2 ADD PUSH1 0x0 SWAP1 SLOAD SWAP1 PUSH2 0x100 EXP SWAP1 DIV PUSH20 0xFFFFFFFFFFFFFFFFFFFFFFFFFFFFFFFFFFFFFFFF AND DUP4 PUSH1 0x2 ADD PUSH1 0x14 SWAP1 SLOAD SWAP1 PUSH2 0x100 EXP SWAP1 DIV PUSH1 0xFF AND DUP5 PUSH1 0x3 ADD SLOAD DUP5 DUP1 SLOAD PUSH2 0x843 SWAP1 PUSH2 0xF5B JUMP JUMPDEST DUP1 PUSH1 0x1F ADD PUSH1 0x20 DUP1 SWAP2 DIV MUL PUSH1 0x20 ADD PUSH1 0x40 MLOAD SWAP1 DUP2 ADD PUSH1 0x40 MSTORE DUP1 SWAP3 SWAP2 SWAP1 DUP2 DUP2 MSTORE PUSH1 0x20 ADD DUP3 DUP1 SLOAD PUSH2 0x86F SWAP1 PUSH2 0xF5B JUMP JUMPDEST DUP1 ISZERO PUSH2 0x8BC JUMPI DUP1 PUSH1 0x1F LT PUSH2 0x891 JUMPI PUSH2 0x100 DUP1 DUP4 SLOAD DIV MUL DUP4 MSTORE SWAP2 PUSH1 0x20 ADD SWAP2 PUSH2 0x8BC JUMP JUMPDEST DUP3 ADD SWAP2 SWAP1 PUSH1 0x0 MSTORE PUSH1 0x20 PUSH1 0x0 KECCAK256 SWAP1 JUMPDEST DUP2 SLOAD DUP2 MSTORE SWAP1 PUSH1 0x1 ADD SWAP1 PUSH1 0x20 ADD DUP1 DUP4 GT PUSH2 0x89F JUMPI DUP3 SWAP1 SUB PUSH1 0x1F AND DUP3 ADD SWAP2 JUMPDEST POP POP POP POP POP SWAP5 POP SWAP7 POP SWAP7 POP SWAP7 POP SWAP7 POP SWAP7 POP POP POP SWAP2 SWAP4 SWAP6 SWAP1 SWAP3 SWAP5 POP JUMP JUMPDEST PUSH1 0x0 DUP1 PUSH1 0x0 DUP1 PUSH1 0x0 DUP1 SLOAD SELFBALANCE PUSH1 0x5 SLOAD PUSH1 0x2 SLOAD PUSH1 0x1 PUSH1 0x0 SWAP1 SLOAD SWAP1 PUSH2 0x100 EXP SWAP1 DIV PUSH20 0xFFFFFFFFFFFFFFFFFFFFFFFFFFFFFFFFFFFFFFFF AND SWAP5 POP SWAP5 POP SWAP5 POP SWAP5 POP SWAP5 POP SWAP1 SWAP2 SWAP3 SWAP4 SWAP5 JUMP JUMPDEST PUSH1 0x1 PUSH1 0x0 SWAP1 SLOAD SWAP1 PUSH2 0x100 EXP SWAP1 DIV PUSH20 0xFFFFFFFFFFFFFFFFFFFFFFFFFFFFFFFFFFFFFFFF AND PUSH20 0xFFFFFFFFFFFFFFFFFFFFFFFFFFFFFFFFFFFFFFFF AND CALLER PUSH20 0xFFFFFFFFFFFFFFFFFFFFFFFFFFFFFFFFFFFFFFFF AND EQ PUSH2 0x977 JUMPI PUSH1 0x0 DUP1 REVERT JUMPDEST PUSH1 0x0 PUSH1 0x4 PUSH1 0x0 DUP4 DUP2 MSTORE PUSH1 0x20 ADD SWAP1 DUP2 MSTORE PUSH1 0x20 ADD PUSH1 0x0 KECCAK256 SWAP1 POP PUSH1 0x2 DUP1 SLOAD PUSH2 0x99C SWAP2 SWAP1 PUSH2 0x12B0 JUMP JUMPDEST DUP2 PUSH1 0x3 ADD SLOAD GT PUSH2 0x9AB JUMPI PUSH1 0x0 DUP1 REVERT JUMPDEST DUP1 PUSH1 0x2 ADD PUSH1 0x14 SWAP1 SLOAD SWAP1 PUSH2 0x100 EXP SWAP1 DIV PUSH1 0xFF AND ISZERO PUSH2 0x9C7 JUMPI PUSH1 0x0 DUP1 REVERT JUMPDEST DUP1 PUSH1 0x2 ADD PUSH1 0x0 SWAP1 SLOAD SWAP1 PUSH2 0x100 EXP SWAP1 DIV PUSH20 0xFFFFFFFFFFFFFFFFFFFFFFFFFFFFFFFFFFFFFFFF AND PUSH20 0xFFFFFFFFFFFFFFFFFFFFFFFFFFFFFFFFFFFFFFFF AND PUSH2 0x8FC DUP3 PUSH1 0x1 ADD SLOAD SWAP1 DUP2 ISZERO MUL SWAP1 PUSH1 0x40 MLOAD PUSH1 0x0 PUSH1 0x40 MLOAD DUP1 DUP4 SUB DUP2 DUP6 DUP9 DUP9 CALL SWAP4 POP POP POP POP ISZERO DUP1 ISZERO PUSH2 0xA35 JUMPI RETURNDATASIZE PUSH1 0x0 DUP1 RETURNDATACOPY RETURNDATASIZE PUSH1 0x0 REVERT JUMPDEST POP PUSH1 0x1 DUP2 PUSH1 0x2 ADD PUSH1 0x14 PUSH2 0x100 EXP DUP2 SLOAD DUP2 PUSH1 0xFF MUL NOT AND SWAP1 DUP4 ISZERO ISZERO MUL OR SWAP1 SSTORE POP POP POP JUMP JUMPDEST PUSH1 0x0 PUSH1 0x40 MLOAD SWAP1 POP SWAP1 JUMP JUMPDEST PUSH1 0x0 DUP1 REVERT JUMPDEST PUSH1 0x0 DUP1 REVERT JUMPDEST PUSH1 0x0 DUP2 SWAP1 POP SWAP2 SWAP1 POP JUMP JUMPDEST PUSH2 0xA7E DUP2 PUSH2 0xA6B JUMP JUMPDEST DUP2 EQ PUSH2 0xA89 JUMPI PUSH1 0x0 DUP1 REVERT JUMPDEST POP JUMP JUMPDEST PUSH1 0x0 DUP2 CALLDATALOAD SWAP1 POP PUSH2 0xA9B DUP2 PUSH2 0xA75 JUMP JUMPDEST SWAP3 SWAP2 POP POP JUMP JUMPDEST PUSH1 0x0 PUSH1 0x20 DUP3 DUP5 SUB SLT ISZERO PUSH2 0xAB7 JUMPI PUSH2 0xAB6 PUSH2 0xA61 JUMP JUMPDEST JUMPDEST PUSH1 0x0 PUSH2 0xAC5 DUP5 DUP3 DUP6 ADD PUSH2 0xA8C JUMP JUMPDEST SWAP2 POP POP SWAP3 SWAP2 POP POP JUMP JUMPDEST PUSH1 0x0 DUP2 MLOAD SWAP1 POP SWAP2 SWAP1 POP JUMP JUMPDEST PUSH1 0x0 DUP3 DUP3 MSTORE PUSH1 0x20 DUP3 ADD SWAP1 POP SWAP3 SWAP2 POP POP JUMP JUMPDEST PUSH1 0x0 JUMPDEST DUP4 DUP2 LT ISZERO PUSH2 0xB08 JUMPI DUP1 DUP3 ADD MLOAD DUP2 DUP5 ADD MSTORE PUSH1 0x20 DUP2 ADD SWAP1 POP PUSH2 0xAED JUMP JUMPDEST PUSH1 0x0 DUP5 DUP5 ADD MSTORE POP POP POP POP JUMP JUMPDEST PUSH1 0x0 PUSH1 0x1F NOT PUSH1 0x1F DUP4 ADD AND SWAP1 POP SWAP2 SWAP1 POP JUMP JUMPDEST PUSH1 0x0 PUSH2 0xB30 DUP3 PUSH2 0xACE JUMP JUMPDEST PUSH2 0xB3A DUP2 DUP6 PUSH2 0xAD9 JUMP JUMPDEST SWAP4 POP PUSH2 0xB4A DUP2 DUP6 PUSH1 0x20 DUP7 ADD PUSH2 0xAEA JUMP JUMPDEST PUSH2 0xB53 DUP2 PUSH2 0xB14 JUMP JUMPDEST DUP5 ADD SWAP2 POP POP SWAP3 SWAP2 POP POP JUMP JUMPDEST PUSH2 0xB67 DUP2 PUSH2 0xA6B JUMP JUMPDEST DUP3 MSTORE POP POP JUMP JUMPDEST PUSH1 0x0 PUSH20 0xFFFFFFFFFFFFFFFFFFFFFFFFFFFFFFFFFFFFFFFF DUP3 AND SWAP1 POP SWAP2 SWAP1 POP JUMP JUMPDEST PUSH1 0x0 PUSH2 0xB98 DUP3 PUSH2 0xB6D JUMP JUMPDEST SWAP1 POP SWAP2 SWAP1 POP JUMP JUMPDEST PUSH2 0xBA8 DUP2 PUSH2 0xB8D JUMP JUMPDEST DUP3 MSTORE POP POP JUMP JUMPDEST PUSH1 0x0 DUP2 ISZERO ISZERO SWAP1 POP SWAP2 SWAP1 POP JUMP JUMPDEST PUSH2 0xBC3 DUP2 PUSH2 0xBAE JUMP JUMPDEST DUP3 MSTORE POP POP JUMP JUMPDEST PUSH1 0x0 PUSH1 0xC0 DUP3 ADD SWAP1 POP DUP2 DUP2 SUB PUSH1 0x0 DUP4 ADD MSTORE PUSH2 0xBE3 DUP2 DUP10 PUSH2 0xB25 JUMP JUMPDEST SWAP1 POP PUSH2 0xBF2 PUSH1 0x20 DUP4 ADD DUP9 PUSH2 0xB5E JUMP JUMPDEST PUSH2 0xBFF PUSH1 0x40 DUP4 ADD DUP8 PUSH2 0xB9F JUMP JUMPDEST PUSH2 0xC0C PUSH1 0x60 DUP4 ADD DUP7 PUSH2 0xBBA JUMP JUMPDEST PUSH2 0xC19 PUSH1 0x80 DUP4 ADD DUP6 PUSH2 0xB5E JUMP JUMPDEST PUSH2 0xC26 PUSH1 0xA0 DUP4 ADD DUP5 PUSH2 0xBBA JUMP JUMPDEST SWAP8 SWAP7 POP POP POP POP POP POP POP JUMP JUMPDEST PUSH2 0xC3A DUP2 PUSH2 0xB8D JUMP JUMPDEST DUP2 EQ PUSH2 0xC45 JUMPI PUSH1 0x0 DUP1 REVERT JUMPDEST POP JUMP JUMPDEST PUSH1 0x0 DUP2 CALLDATALOAD SWAP1 POP PUSH2 0xC57 DUP2 PUSH2 0xC31 JUMP JUMPDEST SWAP3 SWAP2 POP POP JUMP JUMPDEST PUSH1 0x0 PUSH1 0x20 DUP3 DUP5 SUB SLT ISZERO PUSH2 0xC73 JUMPI PUSH2 0xC72 PUSH2 0xA61 JUMP JUMPDEST JUMPDEST PUSH1 0x0 PUSH2 0xC81 DUP5 DUP3 DUP6 ADD PUSH2 0xC48 JUMP JUMPDEST SWAP2 POP POP SWAP3 SWAP2 POP POP JUMP JUMPDEST PUSH1 0x0 PUSH1 0x20 DUP3 ADD SWAP1 POP PUSH2 0xC9F PUSH1 0x0 DUP4 ADD DUP5 PUSH2 0xBBA JUMP JUMPDEST SWAP3 SWAP2 POP POP JUMP JUMPDEST PUSH1 0x0 PUSH1 0x20 DUP3 ADD SWAP1 POP PUSH2 0xCBA PUSH1 0x0 DUP4 ADD DUP5 PUSH2 0xB5E JUMP JUMPDEST SWAP3 SWAP2 POP POP JUMP JUMPDEST PUSH1 0x0 PUSH1 0x20 DUP3 ADD SWAP1 POP PUSH2 0xCD5 PUSH1 0x0 DUP4 ADD DUP5 PUSH2 0xB9F JUMP JUMPDEST SWAP3 SWAP2 POP POP JUMP JUMPDEST PUSH1 0x0 DUP1 REVERT JUMPDEST PUSH1 0x0 DUP1 REVERT JUMPDEST PUSH32 0x4E487B7100000000000000000000000000000000000000000000000000000000 PUSH1 0x0 MSTORE PUSH1 0x41 PUSH1 0x4 MSTORE PUSH1 0x24 PUSH1 0x0 REVERT JUMPDEST PUSH2 0xD1D DUP3 PUSH2 0xB14 JUMP JUMPDEST DUP2 ADD DUP2 DUP2 LT PUSH8 0xFFFFFFFFFFFFFFFF DUP3 GT OR ISZERO PUSH2 0xD3C JUMPI PUSH2 0xD3B PUSH2 0xCE5 JUMP JUMPDEST JUMPDEST DUP1 PUSH1 0x40 MSTORE POP POP POP JUMP JUMPDEST PUSH1 0x0 PUSH2 0xD4F PUSH2 0xA57 JUMP JUMPDEST SWAP1 POP PUSH2 0xD5B DUP3 DUP3 PUSH2 0xD14 JUMP JUMPDEST SWAP2 SWAP1 POP JUMP JUMPDEST PUSH1 0x0 PUSH8 0xFFFFFFFFFFFFFFFF DUP3 GT ISZERO PUSH2 0xD7B JUMPI PUSH2 0xD7A PUSH2 0xCE5 JUMP JUMPDEST JUMPDEST PUSH2 0xD84 DUP3 PUSH2 0xB14 JUMP JUMPDEST SWAP1 POP PUSH1 0x20 DUP2 ADD SWAP1 POP SWAP2 SWAP1 POP JUMP JUMPDEST DUP3 DUP2 DUP4 CALLDATACOPY PUSH1 0x0 DUP4 DUP4 ADD MSTORE POP POP POP JUMP JUMPDEST PUSH1 0x0 PUSH2 0xDB3 PUSH2 0xDAE DUP5 PUSH2 0xD60 JUMP JUMPDEST PUSH2 0xD45 JUMP JUMPDEST SWAP1 POP DUP3 DUP2 MSTORE PUSH1 0x20 DUP2 ADD DUP5 DUP5 DUP5 ADD GT ISZERO PUSH2 0xDCF JUMPI PUSH2 0xDCE PUSH2 0xCE0 JUMP JUMPDEST JUMPDEST PUSH2 0xDDA DUP5 DUP3 DUP6 PUSH2 0xD91 JUMP JUMPDEST POP SWAP4 SWAP3 POP POP POP JUMP JUMPDEST PUSH1 0x0 DUP3 PUSH1 0x1F DUP4 ADD SLT PUSH2 0xDF7 JUMPI PUSH2 0xDF6 PUSH2 0xCDB JUMP JUMPDEST JUMPDEST DUP2 CALLDATALOAD PUSH2 0xE07 DUP5 DUP3 PUSH1 0x20 DUP7 ADD PUSH2 0xDA0 JUMP JUMPDEST SWAP2 POP POP SWAP3 SWAP2 POP POP JUMP JUMPDEST PUSH1 0x0 DUP1 PUSH1 0x0 PUSH1 0x60 DUP5 DUP7 SUB SLT ISZERO PUSH2 0xE29 JUMPI PUSH2 0xE28 PUSH2 0xA61 JUMP JUMPDEST JUMPDEST PUSH1 0x0 DUP5 ADD CALLDATALOAD PUSH8 0xFFFFFFFFFFFFFFFF DUP2 GT ISZERO PUSH2 0xE47 JUMPI PUSH2 0xE46 PUSH2 0xA66 JUMP JUMPDEST JUMPDEST PUSH2 0xE53 DUP7 DUP3 DUP8 ADD PUSH2 0xDE2 JUMP JUMPDEST SWAP4 POP POP PUSH1 0x20 PUSH2 0xE64 DUP7 DUP3 DUP8 ADD PUSH2 0xA8C JUMP JUMPDEST SWAP3 POP POP PUSH1 0x40 PUSH2 0xE75 DUP7 DUP3 DUP8 ADD PUSH2 0xC48 JUMP JUMPDEST SWAP2 POP POP SWAP3 POP SWAP3 POP SWAP3 JUMP JUMPDEST PUSH1 0x0 PUSH1 0xA0 DUP3 ADD SWAP1 POP DUP2 DUP2 SUB PUSH1 0x0 DUP4 ADD MSTORE PUSH2 0xE99 DUP2 DUP9 PUSH2 0xB25 JUMP JUMPDEST SWAP1 POP PUSH2 0xEA8 PUSH1 0x20 DUP4 ADD DUP8 PUSH2 0xB5E JUMP JUMPDEST PUSH2 0xEB5 PUSH1 0x40 DUP4 ADD DUP7 PUSH2 0xB9F JUMP JUMPDEST PUSH2 0xEC2 PUSH1 0x60 DUP4 ADD DUP6 PUSH2 0xBBA JUMP JUMPDEST PUSH2 0xECF PUSH1 0x80 DUP4 ADD DUP5 PUSH2 0xB5E JUMP JUMPDEST SWAP7 SWAP6 POP POP POP POP POP POP JUMP JUMPDEST PUSH1 0x0 PUSH1 0xA0 DUP3 ADD SWAP1 POP PUSH2 0xEEE PUSH1 0x0 DUP4 ADD DUP9 PUSH2 0xB5E JUMP JUMPDEST PUSH2 0xEFB PUSH1 0x20 DUP4 ADD DUP8 PUSH2 0xB5E JUMP JUMPDEST PUSH2 0xF08 PUSH1 0x40 DUP4 ADD DUP7 PUSH2 0xB5E JUMP JUMPDEST PUSH2 0xF15 PUSH1 0x60 DUP4 ADD DUP6 PUSH2 0xB5E JUMP JUMPDEST PUSH2 0xF22 PUSH1 0x80 DUP4 ADD DUP5 PUSH2 0xB9F JUMP JUMPDEST SWAP7 SWAP6 POP POP POP POP POP POP JUMP JUMPDEST PUSH32 0x4E487B7100000000000000000000000000000000000000000000000000000000 PUSH1 0x0 MSTORE PUSH1 0x22 PUSH1 0x4 MSTORE PUSH1 0x24 PUSH1 0x0 REVERT JUMPDEST PUSH1 0x0 PUSH1 0x2 DUP3 DIV SWAP1 POP PUSH1 0x1 DUP3 AND DUP1 PUSH2 0xF73 JUMPI PUSH1 0x7F DUP3 AND SWAP2 POP JUMPDEST PUSH1 0x20 DUP3 LT DUP2 SUB PUSH2 0xF86 JUMPI PUSH2 0xF85 PUSH2 0xF2C JUMP JUMPDEST JUMPDEST POP SWAP2 SWAP1 POP JUMP JUMPDEST PUSH1 0x0 DUP2 SWAP1 POP DUP2 PUSH1 0x0 MSTORE PUSH1 0x20 PUSH1 0x0 KECCAK256 SWAP1 POP SWAP2 SWAP1 POP JUMP JUMPDEST PUSH1 0x0 PUSH1 0x20 PUSH1 0x1F DUP4 ADD DIV SWAP1 POP SWAP2 SWAP1 POP JUMP JUMPDEST PUSH1 0x0 DUP3 DUP3 SHL SWAP1 POP SWAP3 SWAP2 POP POP JUMP JUMPDEST PUSH1 0x0 PUSH1 0x8 DUP4 MUL PUSH2 0xFEE PUSH32 0xFFFFFFFFFFFFFFFFFFFFFFFFFFFFFFFFFFFFFFFFFFFFFFFFFFFFFFFFFFFFFFFF DUP3 PUSH2 0xFB1 JUMP JUMPDEST PUSH2 0xFF8 DUP7 DUP4 PUSH2 0xFB1 JUMP JUMPDEST SWAP6 POP DUP1 NOT DUP5 AND SWAP4 POP DUP1 DUP7 AND DUP5 OR SWAP3 POP POP POP SWAP4 SWAP3 POP POP POP JUMP JUMPDEST PUSH1 0x0 DUP2 SWAP1 POP SWAP2 SWAP1 POP JUMP JUMPDEST PUSH1 0x0 PUSH2 0x1035 PUSH2 0x1030 PUSH2 0x102B DUP5 PUSH2 0xA6B JUMP JUMPDEST PUSH2 0x1010 JUMP JUMPDEST PUSH2 0xA6B JUMP JUMPDEST SWAP1 POP SWAP2 SWAP1 POP JUMP JUMPDEST PUSH1 0x0 DUP2 SWAP1 POP SWAP2 SWAP1 POP JUMP JUMPDEST PUSH2 0x104F DUP4 PUSH2 0x101A JUMP JUMPDEST PUSH2 0x1063 PUSH2 0x105B DUP3 PUSH2 0x103C JUMP JUMPDEST DUP5 DUP5 SLOAD PUSH2 0xFBE JUMP JUMPDEST DUP3 SSTORE POP POP POP POP JUMP JUMPDEST PUSH1 0x0 SWAP1 JUMP JUMPDEST PUSH2 0x1078 PUSH2 0x106B JUMP JUMPDEST PUSH2 0x1083 DUP2 DUP5 DUP5 PUSH2 0x1046 JUMP JUMPDEST POP POP POP JUMP JUMPDEST JUMPDEST DUP2 DUP2 LT ISZERO PUSH2 0x10A7 JUMPI PUSH2 0x109C PUSH1 0x0 DUP3 PUSH2 0x1070 JUMP JUMPDEST PUSH1 0x1 DUP2 ADD SWAP1 POP PUSH2 0x1089 JUMP JUMPDEST POP POP JUMP JUMPDEST PUSH1 0x1F DUP3 GT ISZERO PUSH2 0x10EC JUMPI PUSH2 0x10BD DUP2 PUSH2 0xF8C JUMP JUMPDEST PUSH2 0x10C6 DUP5 PUSH2 0xFA1 JUMP JUMPDEST DUP2 ADD PUSH1 0x20 DUP6 LT ISZERO PUSH2 0x10D5 JUMPI DUP2 SWAP1 POP JUMPDEST PUSH2 0x10E9 PUSH2 0x10E1 DUP6 PUSH2 0xFA1 JUMP JUMPDEST DUP4 ADD DUP3 PUSH2 0x1088 JUMP JUMPDEST POP POP JUMPDEST POP POP POP JUMP JUMPDEST PUSH1 0x0 DUP3 DUP3 SHR SWAP1 POP SWAP3 SWAP2 POP POP JUMP JUMPDEST PUSH1 0x0 PUSH2 0x110F PUSH1 0x0 NOT DUP5 PUSH1 0x8 MUL PUSH2 0x10F1 JUMP JUMPDEST NOT DUP1 DUP4 AND SWAP2 POP POP SWAP3 SWAP2 POP POP JUMP JUMPDEST PUSH1 0x0 PUSH2 0x1128 DUP4 DUP4 PUSH2 0x10FE JUMP JUMPDEST SWAP2 POP DUP3 PUSH1 0x2 MUL DUP3 OR SWAP1 POP SWAP3 SWAP2 POP POP JUMP JUMPDEST PUSH2 0x1141 DUP3 PUSH2 0xACE JUMP JUMPDEST PUSH8 0xFFFFFFFFFFFFFFFF DUP2 GT ISZERO PUSH2 0x115A JUMPI PUSH2 0x1159 PUSH2 0xCE5 JUMP JUMPDEST JUMPDEST PUSH2 0x1164 DUP3 SLOAD PUSH2 0xF5B JUMP JUMPDEST PUSH2 0x116F DUP3 DUP3 DUP6 PUSH2 0x10AB JUMP JUMPDEST PUSH1 0x0 PUSH1 0x20 SWAP1 POP PUSH1 0x1F DUP4 GT PUSH1 0x1 DUP2 EQ PUSH2 0x11A2 JUMPI PUSH1 0x0 DUP5 ISZERO PUSH2 0x1190 JUMPI DUP3 DUP8 ADD MLOAD SWAP1 POP JUMPDEST PUSH2 0x119A DUP6 DUP3 PUSH2 0x111C JUMP JUMPDEST DUP7 SSTORE POP PUSH2 0x1202 JUMP JUMPDEST PUSH1 0x1F NOT DUP5 AND PUSH2 0x11B0 DUP7 PUSH2 0xF8C JUMP JUMPDEST PUSH1 0x0 JUMPDEST DUP3 DUP2 LT ISZERO PUSH2 0x11D8 JUMPI DUP5 DUP10 ADD MLOAD DUP3 SSTORE PUSH1 0x1 DUP3 ADD SWAP2 POP PUSH1 0x20 DUP6 ADD SWAP5 POP PUSH1 0x20 DUP2 ADD SWAP1 POP PUSH2 0x11B3 JUMP JUMPDEST DUP7 DUP4 LT ISZERO PUSH2 0x11F5 JUMPI DUP5 DUP10 ADD MLOAD PUSH2 0x11F1 PUSH1 0x1F DUP10 AND DUP3 PUSH2 0x10FE JUMP JUMPDEST DUP4 SSTORE POP JUMPDEST PUSH1 0x1 PUSH1 0x2 DUP9 MUL ADD DUP9 SSTORE POP POP POP JUMPDEST POP POP POP POP POP POP JUMP JUMPDEST PUSH32 0x4E487B7100000000000000000000000000000000000000000000000000000000 PUSH1 0x0 MSTORE PUSH1 0x11 PUSH1 0x4 MSTORE PUSH1 0x24 PUSH1 0x0 REVERT JUMPDEST PUSH1 0x0 PUSH2 0x1244 DUP3 PUSH2 0xA6B JUMP JUMPDEST SWAP2 POP PUSH32 0xFFFFFFFFFFFFFFFFFFFFFFFFFFFFFFFFFFFFFFFFFFFFFFFFFFFFFFFFFFFFFFFF DUP3 SUB PUSH2 0x1276 JUMPI PUSH2 0x1275 PUSH2 0x120A JUMP JUMPDEST JUMPDEST PUSH1 0x1 DUP3 ADD SWAP1 POP SWAP2 SWAP1 POP JUMP JUMPDEST PUSH32 0x4E487B7100000000000000000000000000000000000000000000000000000000 PUSH1 0x0 MSTORE PUSH1 0x12 PUSH1 0x4 MSTORE PUSH1 0x24 PUSH1 0x0 REVERT JUMPDEST PUSH1 0x0 PUSH2 0x12BB DUP3 PUSH2 0xA6B JUMP JUMPDEST SWAP2 POP PUSH2 0x12C6 DUP4 PUSH2 0xA6B JUMP JUMPDEST SWAP3 POP DUP3 PUSH2 0x12D6 JUMPI PUSH2 0x12D5 PUSH2 0x1281 JUMP JUMPDEST JUMPDEST DUP3 DUP3 DIV SWAP1 POP SWAP3 SWAP2 POP POP JUMP INVALID LOG2 PUSH5 0x6970667358 0x22 SLT KECCAK256 PUSH27 0x5B85FBC3395311B38E4B5352F9AB77A68132FD08ED98AE0480B4E8 SLT 0xEE 0x4F MULMOD PUSH5 0x736F6C6343 STOP ADDMOD GT STOP CALLER LOG2 PUSH5 0x6970667358 0x22 SLT KECCAK256 0x28 0xDB PUSH20 0xC79A49EF335EC3EDDBCC6722030597475F66B362 EXTCODESIZE 0xDF PC PUSH27 0xF989BE42E164736F6C634300081100330000000000000000000000 "},"gasEstimates":{"creation":{"codeDepositCost":"1283800","executionCost":"1335","totalCost":"1285135"},"external":{"createProject(uint256)":"infinite","deployedProjects(uint256)":"4978","getDeployedProjects()":"infinite"}},"methodIdentifiers":{"createProject(uint256)":"992034d7","deployedProjects(uint256)":"9ec6deaf","getDeployedProjects()":"7ac3886e"}},"storageLayout":{"storage":[{"astId":4,"contract":"Project.sol:Generator","label":"deployedProjects","offset":0,"slot":"0","type":"t_array(t_address_payable)dyn_storage"}],"types":{"t_address_payable":{"encoding":"inplace","label":"address payable","numberOfBytes":"20"},"t_array(t_address_payable)dyn_storage":{"base":"t_address_payable","encoding":"dynamic_array","label":"address payable[]","numberOfBytes":"32"}}},"userdoc":{"kind":"user","methods":{},"version":1}}